{
  "address": "0x68d47F8bEA66758453D45BC2Be6eEc8a121BAC54",
  "abi": [
    {
      "inputs": [
        {
          "internalType": "contract IVotes",
          "name": "_token",
          "type": "address"
        },
        {
          "internalType": "contract TimelockController",
          "name": "_timelock",
          "type": "address"
        }
      ],
      "stateMutability": "nonpayable",
      "type": "constructor"
    },
    {
      "anonymous": false,
      "inputs": [
        {
          "indexed": false,
          "internalType": "uint256",
          "name": "proposalId",
          "type": "uint256"
        }
      ],
      "name": "ProposalCanceled",
      "type": "event"
    },
    {
      "anonymous": false,
      "inputs": [
        {
          "indexed": false,
          "internalType": "uint256",
          "name": "proposalId",
          "type": "uint256"
        },
        {
          "indexed": false,
          "internalType": "address",
          "name": "proposer",
          "type": "address"
        },
        {
          "indexed": false,
          "internalType": "address[]",
          "name": "targets",
          "type": "address[]"
        },
        {
          "indexed": false,
          "internalType": "uint256[]",
          "name": "values",
          "type": "uint256[]"
        },
        {
          "indexed": false,
          "internalType": "string[]",
          "name": "signatures",
          "type": "string[]"
        },
        {
          "indexed": false,
          "internalType": "bytes[]",
          "name": "calldatas",
          "type": "bytes[]"
        },
        {
          "indexed": false,
          "internalType": "uint256",
          "name": "startBlock",
          "type": "uint256"
        },
        {
          "indexed": false,
          "internalType": "uint256",
          "name": "endBlock",
          "type": "uint256"
        },
        {
          "indexed": false,
          "internalType": "string",
          "name": "description",
          "type": "string"
        }
      ],
      "name": "ProposalCreated",
      "type": "event"
    },
    {
      "anonymous": false,
      "inputs": [
        {
          "indexed": false,
          "internalType": "uint256",
          "name": "proposalId",
          "type": "uint256"
        }
      ],
      "name": "ProposalExecuted",
      "type": "event"
    },
    {
      "anonymous": false,
      "inputs": [
        {
          "indexed": false,
          "internalType": "uint256",
          "name": "proposalId",
          "type": "uint256"
        },
        {
          "indexed": false,
          "internalType": "uint256",
          "name": "eta",
          "type": "uint256"
        }
      ],
      "name": "ProposalQueued",
      "type": "event"
    },
    {
      "anonymous": false,
      "inputs": [
        {
          "indexed": false,
          "internalType": "uint256",
          "name": "oldQuorumNumerator",
          "type": "uint256"
        },
        {
          "indexed": false,
          "internalType": "uint256",
          "name": "newQuorumNumerator",
          "type": "uint256"
        }
      ],
      "name": "QuorumNumeratorUpdated",
      "type": "event"
    },
    {
      "anonymous": false,
      "inputs": [
        {
          "indexed": false,
          "internalType": "address",
          "name": "oldTimelock",
          "type": "address"
        },
        {
          "indexed": false,
          "internalType": "address",
          "name": "newTimelock",
          "type": "address"
        }
      ],
      "name": "TimelockChange",
      "type": "event"
    },
    {
      "anonymous": false,
      "inputs": [
        {
          "indexed": true,
          "internalType": "address",
          "name": "voter",
          "type": "address"
        },
        {
          "indexed": false,
          "internalType": "uint256",
          "name": "proposalId",
          "type": "uint256"
        },
        {
          "indexed": false,
          "internalType": "uint8",
          "name": "support",
          "type": "uint8"
        },
        {
          "indexed": false,
          "internalType": "uint256",
          "name": "weight",
          "type": "uint256"
        },
        {
          "indexed": false,
          "internalType": "string",
          "name": "reason",
          "type": "string"
        }
      ],
      "name": "VoteCast",
      "type": "event"
    },
    {
      "inputs": [],
      "name": "BALLOT_TYPEHASH",
      "outputs": [
        {
          "internalType": "bytes32",
          "name": "",
          "type": "bytes32"
        }
      ],
      "stateMutability": "view",
      "type": "function"
    },
    {
      "inputs": [],
      "name": "COUNTING_MODE",
      "outputs": [
        {
          "internalType": "string",
          "name": "",
          "type": "string"
        }
      ],
      "stateMutability": "pure",
      "type": "function"
    },
    {
      "inputs": [
        {
          "internalType": "uint256",
          "name": "proposalId",
          "type": "uint256"
        }
      ],
      "name": "cancel",
      "outputs": [],
      "stateMutability": "nonpayable",
      "type": "function"
    },
    {
      "inputs": [
        {
          "internalType": "uint256",
          "name": "proposalId",
          "type": "uint256"
        },
        {
          "internalType": "uint8",
          "name": "support",
          "type": "uint8"
        }
      ],
      "name": "castVote",
      "outputs": [
        {
          "internalType": "uint256",
          "name": "",
          "type": "uint256"
        }
      ],
      "stateMutability": "nonpayable",
      "type": "function"
    },
    {
      "inputs": [
        {
          "internalType": "uint256",
          "name": "proposalId",
          "type": "uint256"
        },
        {
          "internalType": "uint8",
          "name": "support",
          "type": "uint8"
        },
        {
          "internalType": "uint8",
          "name": "v",
          "type": "uint8"
        },
        {
          "internalType": "bytes32",
          "name": "r",
          "type": "bytes32"
        },
        {
          "internalType": "bytes32",
          "name": "s",
          "type": "bytes32"
        }
      ],
      "name": "castVoteBySig",
      "outputs": [
        {
          "internalType": "uint256",
          "name": "",
          "type": "uint256"
        }
      ],
      "stateMutability": "nonpayable",
      "type": "function"
    },
    {
      "inputs": [
        {
          "internalType": "uint256",
          "name": "proposalId",
          "type": "uint256"
        },
        {
          "internalType": "uint8",
          "name": "support",
          "type": "uint8"
        },
        {
          "internalType": "string",
          "name": "reason",
          "type": "string"
        }
      ],
      "name": "castVoteWithReason",
      "outputs": [
        {
          "internalType": "uint256",
          "name": "",
          "type": "uint256"
        }
      ],
      "stateMutability": "nonpayable",
      "type": "function"
    },
    {
      "inputs": [
        {
          "internalType": "address[]",
          "name": "targets",
          "type": "address[]"
        },
        {
          "internalType": "uint256[]",
          "name": "values",
          "type": "uint256[]"
        },
        {
          "internalType": "bytes[]",
          "name": "calldatas",
          "type": "bytes[]"
        },
        {
          "internalType": "bytes32",
          "name": "descriptionHash",
          "type": "bytes32"
        }
      ],
      "name": "execute",
      "outputs": [
        {
          "internalType": "uint256",
          "name": "",
          "type": "uint256"
        }
      ],
      "stateMutability": "payable",
      "type": "function"
    },
    {
      "inputs": [
        {
          "internalType": "uint256",
          "name": "proposalId",
          "type": "uint256"
        }
      ],
      "name": "execute",
      "outputs": [],
      "stateMutability": "payable",
      "type": "function"
    },
    {
      "inputs": [
        {
          "internalType": "uint256",
          "name": "proposalId",
          "type": "uint256"
        }
      ],
      "name": "getActions",
      "outputs": [
        {
          "internalType": "address[]",
          "name": "targets",
          "type": "address[]"
        },
        {
          "internalType": "uint256[]",
          "name": "values",
          "type": "uint256[]"
        },
        {
          "internalType": "string[]",
          "name": "signatures",
          "type": "string[]"
        },
        {
          "internalType": "bytes[]",
          "name": "calldatas",
          "type": "bytes[]"
        }
      ],
      "stateMutability": "view",
      "type": "function"
    },
    {
      "inputs": [
        {
          "internalType": "uint256",
          "name": "proposalId",
          "type": "uint256"
        },
        {
          "internalType": "address",
          "name": "voter",
          "type": "address"
        }
      ],
      "name": "getReceipt",
      "outputs": [
        {
          "components": [
            {
              "internalType": "bool",
              "name": "hasVoted",
              "type": "bool"
            },
            {
              "internalType": "uint8",
              "name": "support",
              "type": "uint8"
            },
            {
              "internalType": "uint96",
              "name": "votes",
              "type": "uint96"
            }
          ],
          "internalType": "struct IGovernorCompatibilityBravo.Receipt",
          "name": "",
          "type": "tuple"
        }
      ],
      "stateMutability": "view",
      "type": "function"
    },
    {
      "inputs": [
        {
          "internalType": "address",
          "name": "account",
          "type": "address"
        },
        {
          "internalType": "uint256",
          "name": "blockNumber",
          "type": "uint256"
        }
      ],
      "name": "getVotes",
      "outputs": [
        {
          "internalType": "uint256",
          "name": "",
          "type": "uint256"
        }
      ],
      "stateMutability": "view",
      "type": "function"
    },
    {
      "inputs": [
        {
          "internalType": "uint256",
          "name": "proposalId",
          "type": "uint256"
        },
        {
          "internalType": "address",
          "name": "account",
          "type": "address"
        }
      ],
      "name": "hasVoted",
      "outputs": [
        {
          "internalType": "bool",
          "name": "",
          "type": "bool"
        }
      ],
      "stateMutability": "view",
      "type": "function"
    },
    {
      "inputs": [
        {
          "internalType": "address[]",
          "name": "targets",
          "type": "address[]"
        },
        {
          "internalType": "uint256[]",
          "name": "values",
          "type": "uint256[]"
        },
        {
          "internalType": "bytes[]",
          "name": "calldatas",
          "type": "bytes[]"
        },
        {
          "internalType": "bytes32",
          "name": "descriptionHash",
          "type": "bytes32"
        }
      ],
      "name": "hashProposal",
      "outputs": [
        {
          "internalType": "uint256",
          "name": "",
          "type": "uint256"
        }
      ],
      "stateMutability": "pure",
      "type": "function"
    },
    {
      "inputs": [],
      "name": "name",
      "outputs": [
        {
          "internalType": "string",
          "name": "",
          "type": "string"
        }
      ],
      "stateMutability": "view",
      "type": "function"
    },
    {
      "inputs": [
        {
          "internalType": "uint256",
          "name": "proposalId",
          "type": "uint256"
        }
      ],
      "name": "proposalDeadline",
      "outputs": [
        {
          "internalType": "uint256",
          "name": "",
          "type": "uint256"
        }
      ],
      "stateMutability": "view",
      "type": "function"
    },
    {
      "inputs": [
        {
          "internalType": "uint256",
          "name": "proposalId",
          "type": "uint256"
        }
      ],
      "name": "proposalEta",
      "outputs": [
        {
          "internalType": "uint256",
          "name": "",
          "type": "uint256"
        }
      ],
      "stateMutability": "view",
      "type": "function"
    },
    {
      "inputs": [
        {
          "internalType": "uint256",
          "name": "proposalId",
          "type": "uint256"
        }
      ],
      "name": "proposalSnapshot",
      "outputs": [
        {
          "internalType": "uint256",
          "name": "",
          "type": "uint256"
        }
      ],
      "stateMutability": "view",
      "type": "function"
    },
    {
      "inputs": [],
      "name": "proposalThreshold",
      "outputs": [
        {
          "internalType": "uint256",
          "name": "",
          "type": "uint256"
        }
      ],
      "stateMutability": "pure",
      "type": "function"
    },
    {
      "inputs": [
        {
          "internalType": "uint256",
          "name": "proposalId",
          "type": "uint256"
        }
      ],
      "name": "proposals",
      "outputs": [
        {
          "internalType": "uint256",
          "name": "id",
          "type": "uint256"
        },
        {
          "internalType": "address",
          "name": "proposer",
          "type": "address"
        },
        {
          "internalType": "uint256",
          "name": "eta",
          "type": "uint256"
        },
        {
          "internalType": "uint256",
          "name": "startBlock",
          "type": "uint256"
        },
        {
          "internalType": "uint256",
          "name": "endBlock",
          "type": "uint256"
        },
        {
          "internalType": "uint256",
          "name": "forVotes",
          "type": "uint256"
        },
        {
          "internalType": "uint256",
          "name": "againstVotes",
          "type": "uint256"
        },
        {
          "internalType": "uint256",
          "name": "abstainVotes",
          "type": "uint256"
        },
        {
          "internalType": "bool",
          "name": "canceled",
          "type": "bool"
        },
        {
          "internalType": "bool",
          "name": "executed",
          "type": "bool"
        }
      ],
      "stateMutability": "view",
      "type": "function"
    },
    {
      "inputs": [
        {
          "internalType": "address[]",
          "name": "targets",
          "type": "address[]"
        },
        {
          "internalType": "uint256[]",
          "name": "values",
          "type": "uint256[]"
        },
        {
          "internalType": "bytes[]",
          "name": "calldatas",
          "type": "bytes[]"
        },
        {
          "internalType": "string",
          "name": "description",
          "type": "string"
        }
      ],
      "name": "propose",
      "outputs": [
        {
          "internalType": "uint256",
          "name": "",
          "type": "uint256"
        }
      ],
      "stateMutability": "nonpayable",
      "type": "function"
    },
    {
      "inputs": [
        {
          "internalType": "address[]",
          "name": "targets",
          "type": "address[]"
        },
        {
          "internalType": "uint256[]",
          "name": "values",
          "type": "uint256[]"
        },
        {
          "internalType": "string[]",
          "name": "signatures",
          "type": "string[]"
        },
        {
          "internalType": "bytes[]",
          "name": "calldatas",
          "type": "bytes[]"
        },
        {
          "internalType": "string",
          "name": "description",
          "type": "string"
        }
      ],
      "name": "propose",
      "outputs": [
        {
          "internalType": "uint256",
          "name": "",
          "type": "uint256"
        }
      ],
      "stateMutability": "nonpayable",
      "type": "function"
    },
    {
      "inputs": [
        {
          "internalType": "address[]",
          "name": "targets",
          "type": "address[]"
        },
        {
          "internalType": "uint256[]",
          "name": "values",
          "type": "uint256[]"
        },
        {
          "internalType": "bytes[]",
          "name": "calldatas",
          "type": "bytes[]"
        },
        {
          "internalType": "bytes32",
          "name": "descriptionHash",
          "type": "bytes32"
        }
      ],
      "name": "queue",
      "outputs": [
        {
          "internalType": "uint256",
          "name": "",
          "type": "uint256"
        }
      ],
      "stateMutability": "nonpayable",
      "type": "function"
    },
    {
      "inputs": [
        {
          "internalType": "uint256",
          "name": "proposalId",
          "type": "uint256"
        }
      ],
      "name": "queue",
      "outputs": [],
      "stateMutability": "nonpayable",
      "type": "function"
    },
    {
      "inputs": [
        {
          "internalType": "uint256",
          "name": "blockNumber",
          "type": "uint256"
        }
      ],
      "name": "quorum",
      "outputs": [
        {
          "internalType": "uint256",
          "name": "",
          "type": "uint256"
        }
      ],
      "stateMutability": "view",
      "type": "function"
    },
    {
      "inputs": [],
      "name": "quorumDenominator",
      "outputs": [
        {
          "internalType": "uint256",
          "name": "",
          "type": "uint256"
        }
      ],
      "stateMutability": "view",
      "type": "function"
    },
    {
      "inputs": [],
      "name": "quorumNumerator",
      "outputs": [
        {
          "internalType": "uint256",
          "name": "",
          "type": "uint256"
        }
      ],
      "stateMutability": "view",
      "type": "function"
    },
    {
      "inputs": [],
      "name": "quorumVotes",
      "outputs": [
        {
          "internalType": "uint256",
          "name": "",
          "type": "uint256"
        }
      ],
      "stateMutability": "view",
      "type": "function"
    },
    {
      "inputs": [
        {
          "internalType": "address",
          "name": "target",
          "type": "address"
        },
        {
          "internalType": "uint256",
          "name": "value",
          "type": "uint256"
        },
        {
          "internalType": "bytes",
          "name": "data",
          "type": "bytes"
        }
      ],
      "name": "relay",
      "outputs": [],
      "stateMutability": "nonpayable",
      "type": "function"
    },
    {
      "inputs": [
        {
          "internalType": "uint256",
          "name": "proposalId",
          "type": "uint256"
        }
      ],
      "name": "state",
      "outputs": [
        {
          "internalType": "enum IGovernor.ProposalState",
          "name": "",
          "type": "uint8"
        }
      ],
      "stateMutability": "view",
      "type": "function"
    },
    {
      "inputs": [
        {
          "internalType": "bytes4",
          "name": "interfaceId",
          "type": "bytes4"
        }
      ],
      "name": "supportsInterface",
      "outputs": [
        {
          "internalType": "bool",
          "name": "",
          "type": "bool"
        }
      ],
      "stateMutability": "view",
      "type": "function"
    },
    {
      "inputs": [],
      "name": "timelock",
      "outputs": [
        {
          "internalType": "address",
          "name": "",
          "type": "address"
        }
      ],
      "stateMutability": "view",
      "type": "function"
    },
    {
      "inputs": [],
      "name": "token",
      "outputs": [
        {
          "internalType": "contract IVotes",
          "name": "",
          "type": "address"
        }
      ],
      "stateMutability": "view",
      "type": "function"
    },
    {
      "inputs": [
        {
          "internalType": "uint256",
          "name": "newQuorumNumerator",
          "type": "uint256"
        }
      ],
      "name": "updateQuorumNumerator",
      "outputs": [],
      "stateMutability": "nonpayable",
      "type": "function"
    },
    {
      "inputs": [
        {
          "internalType": "contract TimelockController",
          "name": "newTimelock",
          "type": "address"
        }
      ],
      "name": "updateTimelock",
      "outputs": [],
      "stateMutability": "nonpayable",
      "type": "function"
    },
    {
      "inputs": [],
      "name": "version",
      "outputs": [
        {
          "internalType": "string",
          "name": "",
          "type": "string"
        }
      ],
      "stateMutability": "view",
      "type": "function"
    },
    {
      "inputs": [],
      "name": "votingDelay",
      "outputs": [
        {
          "internalType": "uint256",
          "name": "",
          "type": "uint256"
        }
      ],
      "stateMutability": "pure",
      "type": "function"
    },
    {
      "inputs": [],
      "name": "votingPeriod",
      "outputs": [
        {
          "internalType": "uint256",
          "name": "",
          "type": "uint256"
        }
      ],
      "stateMutability": "pure",
      "type": "function"
    },
    {
      "stateMutability": "payable",
      "type": "receive"
    }
  ],
  "transactionHash": "0x398647fd84629fe7f34b1bdcfeaf1ad661d9c3733877ea0749a8e30e680a83d8",
  "args": [
    "0xb2752E0a433A41f19E9348B720d9B9cf9CC433Ee",
    "0xfC0c4e17277B5921C89c73B926D1B6F145574b8A"
  ],
  "numDeployments": 1,
  "solcInputHash": "0b00e6409133a980e0d77b049e6537d4",
  "bytecode": "0x6101606040523480156200001257600080fd5b506040516200455838038062004558833981016040819052620000359162000345565b806004836040518060400160405280600f81526020016e26b4b734b73399a3b7bb32b93737b960891b81525080620000726200014e60201b60201c565b815160208084019190912082518383012060e08290526101008190524660a0818152604080517f8b73c3c69bb8fe3d512ecc4cf759cc79239f7b179b0ffacaa9a75d522b39400f81880181905281830187905260608201869052608082019490945230818401528151808203909301835260c00190528051940193909320919290916080523060601b60c05261012052505082516200011b92506000915060208401906200029f565b505060601b6001600160601b03191661014052620001398162000169565b50620001458162000236565b505050620003d9565b6040805180820190915260018152603160f81b602082015290565b6064811115620001f15760405162461bcd60e51b815260206004820152604360248201527f476f7665726e6f72566f74657351756f72756d4672616374696f6e3a2071756f60448201527f72756d4e756d657261746f72206f7665722071756f72756d44656e6f6d696e616064820152623a37b960e91b608482015260a40160405180910390fd5b600380549082905560408051828152602081018490527f0553476bf02ef2726e8ce5ced78d63e26e602e4a2257b1f559418e24b4633997910160405180910390a15050565b600454604080516001600160a01b03928316815291831660208301527f08f74ea46ef7894f65eabfb5e6e695de773a000b47c529ab559178069b226401910160405180910390a1600480546001600160a01b0319166001600160a01b0392909216919091179055565b828054620002ad9062000383565b90600052602060002090601f016020900481019282620002d157600085556200031c565b82601f10620002ec57805160ff19168380011785556200031c565b828001600101855582156200031c579182015b828111156200031c578251825591602001919060010190620002ff565b506200032a9291506200032e565b5090565b5b808211156200032a57600081556001016200032f565b6000806040838503121562000358578182fd5b82516200036581620003c0565b60208401519092506200037881620003c0565b809150509250929050565b600181811c908216806200039857607f821691505b60208210811415620003ba57634e487b7160e01b600052602260045260246000fd5b50919050565b6001600160a01b0381168114620003d657600080fd5b50565b60805160a05160c05160601c60e05161010051610120516101405160601c61411062000448600039600081816107880152818161221801526122b101526000612479015260006124c8015260006124a3015260006123fc015260006124260152600061245001526141106000f3fe6080604052600436106101ae5760003560e01c8063013cf08b146101d657806301ffc9a71461025157806302a251a31461028157806306f3f9e6146102a057806306fdde03146102c0578063160cbed7146102e257806324bc1a64146103025780632656227d146103175780632d63f6931461032a578063328dd9821461034a5780633932abb1146102815780633bccf4fd1461037a5780633e4f49e61461039a57806340e58ee5146103c757806343859632146103e757806354fd4d5014610431578063567813881461045b5780637b3c71d31461047b5780637d5e81e21461049b57806397c3d334146104bb578063a7713a70146104cf578063a890c910146104e4578063ab58fb8e14610504578063b58131b014610524578063c01f9e371461053a578063c28bc2fa1461055a578063c59057e41461057a578063d33219b41461059a578063da95691a146105c7578063dd4e2ba5146105e7578063ddf0b0091461062a578063deaaa7cc1461064a578063e23a9a521461066c578063eb9019d414610736578063f8ce560a14610756578063fc0c546a14610776578063fe0d94c1146107aa57600080fd5b366101d157306101bc6107bd565b6001600160a01b0316146101cf57600080fd5b005b600080fd5b3480156101e257600080fd5b506101f66101f13660046139b3565b6107cc565b604080519a8b526001600160a01b0390991660208b0152978901969096526060880194909452608087019290925260a086015260c085015260e084015215156101008301521515610120820152610140015b60405180910390f35b34801561025d57600080fd5b5061027161026c36600461396f565b610891565b6040519015158152602001610248565b34801561028d57600080fd5b506192bd5b604051908152602001610248565b3480156102ac57600080fd5b506101cf6102bb3660046139b3565b6108a2565b3480156102cc57600080fd5b506102d56108ef565b6040516102489190613d4c565b3480156102ee57600080fd5b506102926102fd36600461373a565b610981565b34801561030e57600080fd5b50610292610bb8565b61029261032536600461373a565b610bc8565b34801561033657600080fd5b506102926103453660046139b3565b610cb7565b34801561035657600080fd5b5061036a6103653660046139b3565b610cee565b6040516102489493929190613cd7565b34801561038657600080fd5b50610292610395366004613a64565b610f7f565b3480156103a657600080fd5b506103ba6103b53660046139b3565b611001565b6040516102489190613d24565b3480156103d357600080fd5b506101cf6103e23660046139b3565b61100c565b3480156103f357600080fd5b506102716104023660046139cb565b60008281526002602090815260408083206001600160a01b038516845260080190915290205460ff1692915050565b34801561043d57600080fd5b506040805180820190915260018152603160f81b60208201526102d5565b34801561046757600080fd5b506102926104763660046139fa565b611320565b34801561048757600080fd5b50610292610496366004613a25565b611349565b3480156104a757600080fd5b506102926104b63660046137c5565b61139b565b3480156104c757600080fd5b506064610292565b3480156104db57600080fd5b50600354610292565b3480156104f057600080fd5b506101cf6104ff366004613997565b6113b2565b34801561051057600080fd5b5061029261051f3660046139b3565b6113f3565b34801561053057600080fd5b50620186a0610292565b34801561054657600080fd5b506102926105553660046139b3565b611497565b34801561056657600080fd5b506101cf6105753660046136e1565b6114c6565b34801561058657600080fd5b5061029261059536600461373a565b611547565b3480156105a657600080fd5b506105af611581565b6040516001600160a01b039091168152602001610248565b3480156105d357600080fd5b506102926105e236600461386c565b611590565b3480156105f357600080fd5b5060408051808201909152601a815279737570706f72743d627261766f2671756f72756d3d627261766f60301b60208201526102d5565b34801561063657600080fd5b506101cf6106453660046139b3565b6115b5565b34801561065657600080fd5b5061029260008051602061409283398151915281565b34801561067857600080fd5b506107066106873660046139cb565b60408051606081018252600080825260208201819052918101919091525060009182526002602090815260408084206001600160a01b0393909316845260089092018152918190208151606081018352905460ff8082161515835261010082041693820193909352620100009092046001600160601b03169082015290565b6040805182511515815260208084015160ff1690820152918101516001600160601b031690820152606001610248565b34801561074257600080fd5b506102926107513660046136b6565b611823565b34801561076257600080fd5b506102926107713660046139b3565b61182f565b34801561078257600080fd5b506105af7f000000000000000000000000000000000000000000000000000000000000000081565b6101cf6107b83660046139b3565b61183a565b60006107c7611581565b905090565b80600080808080808080806107e08a6113f3565b97506107eb8b610cb7565b96506107f68b611497565b60008c815260026020526040812080546005820154600683015460078401546001600160a01b039093169e50949a5098509296509194506108368d611001565b9050600281600781111561085a57634e487b7160e01b600052602160045260246000fd5b149350600781600781111561087f57634e487b7160e01b600052602160045260246000fd5b14925050509193959799509193959799565b600061089c82611aa8565b92915050565b6108aa6107bd565b6001600160a01b0316336001600160a01b0316146108e35760405162461bcd60e51b81526004016108da90613d5f565b60405180910390fd5b6108ec81611acd565b50565b6060600080546108fe90613ffa565b80601f016020809104026020016040519081016040528092919081815260200182805461092a90613ffa565b80156109775780601f1061094c57610100808354040283529160200191610977565b820191906000526020600020905b81548152906001019060200180831161095a57829003601f168201915b5050505050905090565b60008061099086868686611547565b9050600461099d82611001565b60078111156109bc57634e487b7160e01b600052602160045260246000fd5b146109d95760405162461bcd60e51b81526004016108da90613dd2565b6000600460009054906101000a90046001600160a01b03166001600160a01b031663f27a0c926040518163ffffffff1660e01b815260040160206040518083038186803b158015610a2957600080fd5b505afa158015610a3d573d6000803e3d6000fd5b505050506040513d601f19601f82011682018060405250810190610a619190613957565b6004805460405163b1c5f42760e01b81529293506001600160a01b03169163b1c5f42791610a9a918b918b918b916000918c9101613c31565b60206040518083038186803b158015610ab257600080fd5b505afa158015610ac6573d6000803e3d6000fd5b505050506040513d601f19601f82011682018060405250810190610aea9190613957565b600083815260056020526040808220929092556004805492516308f2a0bb60e41b81526001600160a01b0390931692638f2a0bb092610b35928c928c928c9290918c918a9101613c7f565b600060405180830381600087803b158015610b4f57600080fd5b505af1158015610b63573d6000803e3d6000fd5b505050507f9a2e42fd6722813d69113e7d0079d3d940171428df7373df9c7f7617cfda2892828242610b959190613f31565b604080519283526020830191909152015b60405180910390a15095945050505050565b60006107c7610771600143613fb3565b600080610bd786868686611547565b90506000610be482611001565b90506004816007811115610c0857634e487b7160e01b600052602160045260246000fd5b1480610c3357506005816007811115610c3157634e487b7160e01b600052602160045260246000fd5b145b610c4f5760405162461bcd60e51b81526004016108da90613dd2565b600082815260016020818152604092839020600201805460ff191690921790915590518381527f712ae1383f79ac853f8d882153778e0260ef8f03b504e2866e0593e04d2b291f910160405180910390a1610cad8288888888611b95565b5095945050505050565b60008181526001602090815260408083208151928301909152546001600160401b0316908190525b6001600160401b031692915050565b60608060608060006002600087815260200190815260200160002090508060010181600201826003018360040183805480602002602001604051908101604052809291908181526020018280548015610d7057602002820191906000526020600020905b81546001600160a01b03168152600190910190602001808311610d52575b5050505050935082805480602002602001604051908101604052809291908181526020018280548015610dc257602002820191906000526020600020905b815481526020019060010190808311610dae575b5050505050925081805480602002602001604051908101604052809291908181526020016000905b82821015610e96578382906000526020600020018054610e0990613ffa565b80601f0160208091040260200160405190810160405280929190818152602001828054610e3590613ffa565b8015610e825780601f10610e5757610100808354040283529160200191610e82565b820191906000526020600020905b815481529060010190602001808311610e6557829003601f168201915b505050505081526020019060010190610dea565b50505050915080805480602002602001604051908101604052809291908181526020016000905b82821015610f69578382906000526020600020018054610edc90613ffa565b80601f0160208091040260200160405190810160405280929190818152602001828054610f0890613ffa565b8015610f555780601f10610f2a57610100808354040283529160200191610f55565b820191906000526020600020905b815481529060010190602001808311610f3857829003601f168201915b505050505081526020019060010190610ebd565b5050505090509450945094509450509193509193565b60408051600080516020614092833981519152602082015290810186905260ff851660608201526000908190610fd990610fd19060800160405160208183030381529060405280519060200120611ba2565b868686611bf0565b9050610ff687828860405180602001604052806000815250611c0e565b979650505050505050565b600061089c82611d27565b600081815260026020526040902080546001600160a01b0316336001600160a01b031614806110565750620186a08154611054906001600160a01b0316610751600143613fb3565b105b6110b25760405162461bcd60e51b815260206004820152602760248201527f476f7665726e6f72427261766f3a2070726f706f7365722061626f76652074686044820152661c995cda1bdb1960ca1b60648201526084016108da565b61131b8160010180548060200260200160405190810160405280929190818152602001828054801561110d57602002820191906000526020600020905b81546001600160a01b031681526001909101906020018083116110ef575b50505050508260020180548060200260200160405190810160405280929190818152602001828054801561116057602002820191906000526020600020905b81548152602001906001019080831161114c575b505050505061131184600301805480602002602001604051908101604052809291908181526020016000905b828210156112385783829060005260206000200180546111ab90613ffa565b80601f01602080910402602001604051908101604052809291908181526020018280546111d790613ffa565b80156112245780601f106111f957610100808354040283529160200191611224565b820191906000526020600020905b81548152906001019060200180831161120757829003601f168201915b50505050508152602001906001019061118c565b50505060048701805460408051602080840282018101909252828152935060009084015b8282101561130857838290600052602060002001805461127b90613ffa565b80601f01602080910402602001604051908101604052809291908181526020018280546112a790613ffa565b80156112f45780601f106112c9576101008083540402835291602001916112f4565b820191906000526020600020905b8154815290600101906020018083116112d757829003601f168201915b50505050508152602001906001019061125c565b50505050611e99565b846009015461201f565b505050565b60008033905061134184828560405180602001604052806000815250611c0e565b949350505050565b60008033905061139186828787878080601f016020809104026020016040519081016040528093929190818152602001838380828437600092019190915250611c0e92505050565b9695505050505050565b60006113a98585858561202d565b95945050505050565b6113ba6107bd565b6001600160a01b0316336001600160a01b0316146113ea5760405162461bcd60e51b81526004016108da90613d5f565b6108ec816120a3565b6004805460008381526005602052604080822054905163d45c443560e01b8152938401529182916001600160a01b03169063d45c44359060240160206040518083038186803b15801561144557600080fd5b505afa158015611459573d6000803e3d6000fd5b505050506040513d601f19601f8201168201806040525081019061147d9190613957565b90508060011461148d5780611490565b60005b9392505050565b60008181526001602081815260408084208151928301909152909101546001600160401b031690819052610cdf565b6114ce6107bd565b6001600160a01b0316336001600160a01b0316146114fe5760405162461bcd60e51b81526004016108da90613d5f565b6115408483838080601f01602080910402602001604051908101604052809392919081815260200183838082843760009201919091525088925061210c915050565b5050505050565b6000848484846040516020016115609493929190613be6565b60408051601f19818403018152919052805160209091012095945050505050565b6004546001600160a01b031690565b60006115a0338787878787612132565b61139186866115af8787611e99565b8561139b565b600081815260026020908152604091829020600181018054845181850281018501909552808552919361131b9390929083018282801561161e57602002820191906000526020600020905b81546001600160a01b03168152600190910190602001808311611600575b50505050508260020180548060200260200160405190810160405280929190818152602001828054801561167157602002820191906000526020600020905b81548152602001906001019080831161165d575b505050505061181984600301805480602002602001604051908101604052809291908181526020016000905b828210156117495783829060005260206000200180546116bc90613ffa565b80601f01602080910402602001604051908101604052809291908181526020018280546116e890613ffa565b80156117355780601f1061170a57610100808354040283529160200191611735565b820191906000526020600020905b81548152906001019060200180831161171857829003601f168201915b50505050508152602001906001019061169d565b50505060048701805460408051602080840282018101909252828152935060009084015b8282101561130857838290600052602060002001805461178c90613ffa565b80601f01602080910402602001604051908101604052809291908181526020018280546117b890613ffa565b80156118055780601f106117da57610100808354040283529160200191611805565b820191906000526020600020905b8154815290600101906020018083116117e857829003601f168201915b50505050508152602001906001019061176d565b8460090154610981565b600061149083836121ef565b600061089c82612294565b600081815260026020908152604091829020600181018054845181850281018501909552808552919361131b939092908301828280156118a357602002820191906000526020600020905b81546001600160a01b03168152600190910190602001808311611885575b5050505050826002018054806020026020016040519081016040528092919081815260200182805480156118f657602002820191906000526020600020905b8154815260200190600101908083116118e2575b5050505050611a9e84600301805480602002602001604051908101604052809291908181526020016000905b828210156119ce57838290600052602060002001805461194190613ffa565b80601f016020809104026020016040519081016040528092919081815260200182805461196d90613ffa565b80156119ba5780601f1061198f576101008083540402835291602001916119ba565b820191906000526020600020905b81548152906001019060200180831161199d57829003601f168201915b505050505081526020019060010190611922565b50505060048701805460408051602080840282018101909252828152935060009084015b82821015611308578382906000526020600020018054611a1190613ffa565b80601f0160208091040260200160405190810160405280929190818152602001828054611a3d90613ffa565b8015611a8a5780601f10611a5f57610100808354040283529160200191611a8a565b820191906000526020600020905b815481529060010190602001808311611a6d57829003601f168201915b5050505050815260200190600101906119f2565b8460090154610bc8565b60006001600160e01b03198216636e665ced60e01b148061089c575061089c82612347565b6064811115611b505760405162461bcd60e51b815260206004820152604360248201527f476f7665726e6f72566f74657351756f72756d4672616374696f6e3a2071756f60448201527f72756d4e756d657261746f72206f7665722071756f72756d44656e6f6d696e616064820152623a37b960e91b608482015260a4016108da565b600380549082905560408051828152602081018490527f0553476bf02ef2726e8ce5ced78d63e26e602e4a2257b1f559418e24b4633997910160405180910390a15050565b611540858585858561237c565b600061089c611baf6123ef565b8360405161190160f01b6020820152602281018390526042810182905260009060620160405160208183030381529060405280519060200120905092915050565b6000806000611c0187878787612516565b91509150610cad816125f9565b6000848152600160208190526040822090611c2887611001565b6007811115611c4757634e487b7160e01b600052602160045260246000fd5b14611ca05760405162461bcd60e51b815260206004820152602360248201527f476f7665726e6f723a20766f7465206e6f742063757272656e746c792061637460448201526269766560e81b60648201526084016108da565b604080516020810190915281546001600160401b031690819052600090611cc8908790611823565b9050611cd6878787846127f5565b856001600160a01b03167fb8e138887d0aa13bab447e82de9d5c1777041ecd21ca36ba824ff1e6c07ddda488878488604051611d159493929190613eb6565b60405180910390a29695505050505050565b600080611d3383612995565b90506004816007811115611d5757634e487b7160e01b600052602160045260246000fd5b14611d625792915050565b60008381526005602052604090205480611d7d575092915050565b60048054604051632ab0f52960e01b81529182018390526001600160a01b031690632ab0f5299060240160206040518083038186803b158015611dbf57600080fd5b505afa158015611dd3573d6000803e3d6000fd5b505050506040513d601f19601f82011682018060405250810190611df79190613937565b15611e06575060079392505050565b60048054604051632c258a9f60e11b81529182018390526001600160a01b03169063584b153e9060240160206040518083038186803b158015611e4857600080fd5b505afa158015611e5c573d6000803e3d6000fd5b505050506040513d601f19601f82011682018060405250810190611e809190613937565b15611e8f575060059392505050565b5060029392505050565b6060600082516001600160401b03811115611ec457634e487b7160e01b600052604160045260246000fd5b604051908082528060200260200182016040528015611ef757816020015b6060815260200190600190039081611ee25790505b50905060005b845181101561201757848181518110611f2657634e487b7160e01b600052603260045260246000fd5b602002602001015151600014611fb257848181518110611f5657634e487b7160e01b600052603260045260246000fd5b602002602001015180519060200120848281518110611f8557634e487b7160e01b600052603260045260246000fd5b6020026020010151604051602001611f9e929190613b99565b604051602081830303815290604052611fdb565b838181518110611fd257634e487b7160e01b600052603260045260246000fd5b60200260200101515b828281518110611ffb57634e487b7160e01b600052603260045260246000fd5b60200260200101819052508061201090614035565b9050611efd565b509392505050565b60006113a985858585612aa4565b600061209733868686516001600160401b0381111561205c57634e487b7160e01b600052604160045260246000fd5b60405190808252806020026020018201604052801561208f57816020015b606081526020019060019003908161207a5790505b508787612132565b6113a985858585612b4c565b600454604080516001600160a01b03928316815291831660208301527f08f74ea46ef7894f65eabfb5e6e695de773a000b47c529ab559178069b226401910160405180910390a1600480546001600160a01b0319166001600160a01b0392909216919091179055565b60606113418484846040518060600160405280602981526020016140b260299139612e06565b805160208201206000612150878761214a8888611e99565b85611547565b60008181526002602052604090206009810154919250906121e45780546001600160a01b0319166001600160a01b038a16178155875161219990600183019060208b01906131b4565b5086516121af90600283019060208a0190613215565b5085516121c59060038301906020890190613250565b5084516121db90600483019060208801906132a9565b50600981018390555b505050505050505050565b604051630748d63560e31b81526001600160a01b038381166004830152602482018390526000917f000000000000000000000000000000000000000000000000000000000000000090911690633a46b1a89060440160206040518083038186803b15801561225c57600080fd5b505afa158015612270573d6000803e3d6000fd5b505050506040513d601f19601f820116820180604052508101906114909190613957565b60006064600354604051632394e7a360e21b8152600481018590527f00000000000000000000000000000000000000000000000000000000000000006001600160a01b031690638e539e8c9060240160206040518083038186803b1580156122fb57600080fd5b505afa15801561230f573d6000803e3d6000fd5b505050506040513d601f19601f820116820180604052508101906123339190613957565b61233d9190613f94565b61089c9190613f74565b60006001600160e01b0319821663bf26d89760e01b148061089c57506301ffc9a760e01b6001600160e01b031983161461089c565b6004805460405163e38335e560e01b81526001600160a01b039091169163e38335e59134916123b6918991899189916000918a9101613c31565b6000604051808303818588803b1580156123cf57600080fd5b505af11580156123e3573d6000803e3d6000fd5b50505050505050505050565b6000306001600160a01b037f00000000000000000000000000000000000000000000000000000000000000001614801561244857507f000000000000000000000000000000000000000000000000000000000000000046145b1561247257507f000000000000000000000000000000000000000000000000000000000000000090565b50604080517f00000000000000000000000000000000000000000000000000000000000000006020808301919091527f0000000000000000000000000000000000000000000000000000000000000000828401527f000000000000000000000000000000000000000000000000000000000000000060608301524660808301523060a0808401919091528351808403909101815260c0909201909252805191012090565b6000806fa2a8918ca85bafe22016d0b997e4df60600160ff1b0383111561254357506000905060036125f0565b8460ff16601b1415801561255b57508460ff16601c14155b1561256c57506000905060046125f0565b6040805160008082526020820180845289905260ff881692820192909252606081018690526080810185905260019060a0016020604051602081039080840390855afa1580156125c0573d6000803e3d6000fd5b5050604051601f1901519150506001600160a01b0381166125e9576000600192509250506125f0565b9150600090505b94509492505050565b600081600481111561261b57634e487b7160e01b600052602160045260246000fd5b14156126245750565b600181600481111561264657634e487b7160e01b600052602160045260246000fd5b141561268f5760405162461bcd60e51b815260206004820152601860248201527745434453413a20696e76616c6964207369676e617475726560401b60448201526064016108da565b60028160048111156126b157634e487b7160e01b600052602160045260246000fd5b14156126ff5760405162461bcd60e51b815260206004820152601f60248201527f45434453413a20696e76616c6964207369676e6174757265206c656e6774680060448201526064016108da565b600381600481111561272157634e487b7160e01b600052602160045260246000fd5b141561277a5760405162461bcd60e51b815260206004820152602260248201527f45434453413a20696e76616c6964207369676e6174757265202773272076616c604482015261756560f01b60648201526084016108da565b600481600481111561279c57634e487b7160e01b600052602160045260246000fd5b14156108ec5760405162461bcd60e51b815260206004820152602260248201527f45434453413a20696e76616c6964207369676e6174757265202776272076616c604482015261756560f01b60648201526084016108da565b60008481526002602090815260408083206001600160a01b038716845260088101909252909120805460ff16156128845760405162461bcd60e51b815260206004820152602d60248201527f476f7665726e6f72436f6d7061746962696c697479427261766f3a20766f746560448201526c08185b1c9958591e4818d85cdd609a1b60648201526084016108da565b805460ff85166101000261ffff199091161760011781556128a483612f2c565b81546001600160601b0391909116620100000262010000600160701b031990911617815560ff84166128ef57828260060160008282546128e49190613f31565b9091555061298d9050565b60ff84166001141561290f57828260050160008282546128e49190613f31565b60ff84166002141561292f57828260070160008282546128e49190613f31565b60405162461bcd60e51b815260206004820152602d60248201527f476f7665726e6f72436f6d7061746962696c697479427261766f3a20696e766160448201526c6c696420766f7465207479706560981b60648201526084016108da565b505050505050565b6000818152600160205260408120600281015460ff16156129b95750600792915050565b6002810154610100900460ff16156129d45750600292915050565b60006129df84610cb7565b905080612a2e5760405162461bcd60e51b815260206004820152601d60248201527f476f7665726e6f723a20756e6b6e6f776e2070726f706f73616c20696400000060448201526064016108da565b438110612a3f575060009392505050565b6000612a4a85611497565b9050438110612a5e57506001949350505050565b612a6785612f98565b8015612a89575060008581526002602052604090206006810154600590910154115b15612a9957506004949350505050565b506003949350505050565b600080612ab386868686612fc0565b600081815260056020526040902054909150156113a957600480546000838152600560205260409081902054905163c4d252f560e01b8152928301526001600160a01b03169063c4d252f590602401600060405180830381600087803b158015612b1c57600080fd5b505af1158015612b30573d6000803e3d6000fd5b5050506000828152600560205260408120555095945050505050565b6000620186a0612b6133610751600143613fb3565b1015612be15760405162461bcd60e51b815260206004820152604360248201527f476f7665726e6f72436f6d7061746962696c697479427261766f3a2070726f7060448201527f6f73657220766f7465732062656c6f772070726f706f73616c207468726573686064820152621bdb1960ea1b608482015260a4016108da565b6000612bf68686868680519060200120611547565b90508451865114612c195760405162461bcd60e51b81526004016108da90613d91565b8351865114612c3a5760405162461bcd60e51b81526004016108da90613d91565b6000865111612c865760405162461bcd60e51b815260206004820152601860248201527711dbdd995c9b9bdc8e88195b5c1d1e481c1c9bdc1bdcd85b60421b60448201526064016108da565b600081815260016020908152604091829020825191820190925281546001600160401b03169081905215612d065760405162461bcd60e51b815260206004820152602160248201527f476f7665726e6f723a2070726f706f73616c20616c72656164792065786973746044820152607360f81b60648201526084016108da565b6000612d136192bd6130f6565b612d1c436130f6565b612d269190613f49565b90506000612d356192bd6130f6565b612d3f9083613f49565b9050612d4b838361315e565b612d58600184018261315e565b7f7d84a6263ae0d98d3329bd7b46bb4e8d6f98cd35a7adb45c274c8b7fd5ebd5e084338b8b8d516001600160401b03811115612da457634e487b7160e01b600052604160045260246000fd5b604051908082528060200260200182016040528015612dd757816020015b6060815260200190600190039081612dc25790505b508c88888e604051612df199989796959493929190613e13565b60405180910390a15091979650505050505050565b606082471015612e675760405162461bcd60e51b815260206004820152602660248201527f416464726573733a20696e73756666696369656e742062616c616e636520666f6044820152651c8818d85b1b60d21b60648201526084016108da565b6001600160a01b0385163b612ebe5760405162461bcd60e51b815260206004820152601d60248201527f416464726573733a2063616c6c20746f206e6f6e2d636f6e747261637400000060448201526064016108da565b600080866001600160a01b03168587604051612eda9190613bca565b60006040518083038185875af1925050503d8060008114612f17576040519150601f19603f3d011682016040523d82523d6000602084013e612f1c565b606091505b5091509150610ff682828661317b565b60006001600160601b03821115612f945760405162461bcd60e51b815260206004820152602660248201527f53616665436173743a2076616c756520646f65736e27742066697420696e203960448201526536206269747360d01b60648201526084016108da565b5090565b60008181526002602052604081206005810154612fb761077185610cb7565b11159392505050565b600080612fcf86868686611547565b90506000612fdc82611001565b9050600281600781111561300057634e487b7160e01b600052602160045260246000fd5b1415801561302e5750600681600781111561302b57634e487b7160e01b600052602160045260246000fd5b14155b801561305a5750600781600781111561305757634e487b7160e01b600052602160045260246000fd5b14155b6130a65760405162461bcd60e51b815260206004820152601d60248201527f476f7665726e6f723a2070726f706f73616c206e6f742061637469766500000060448201526064016108da565b60008281526001602052604090819020600201805461ff001916610100179055517f789cf55be980739dad1d0699b93b58e806b51c9d96619bfa8fe0a28abaa7b30c90610ba69084815260200190565b60006001600160401b03821115612f945760405162461bcd60e51b815260206004820152602660248201527f53616665436173743a2076616c756520646f65736e27742066697420696e203660448201526534206269747360d01b60648201526084016108da565b81546001600160401b0319166001600160401b0391909116179055565b6060831561318a575081611490565b82511561319a5782518084602001fd5b8160405162461bcd60e51b81526004016108da9190613d4c565b828054828255906000526020600020908101928215613209579160200282015b8281111561320957825182546001600160a01b0319166001600160a01b039091161782556020909201916001909101906131d4565b50612f94929150613302565b828054828255906000526020600020908101928215613209579160200282015b82811115613209578251825591602001919060010190613235565b82805482825590600052602060002090810192821561329d579160200282015b8281111561329d578251805161328d918491602090910190613317565b5091602001919060010190613270565b50612f9492915061338a565b8280548282559060005260206000209081019282156132f6579160200282015b828111156132f657825180516132e6918491602090910190613317565b50916020019190600101906132c9565b50612f949291506133a7565b5b80821115612f945760008155600101613303565b82805461332390613ffa565b90600052602060002090601f0160209004810192826133455760008555613209565b82601f1061335e57805160ff1916838001178555613209565b828001600101855582156132095791820182811115613209578251825591602001919060010190613235565b80821115612f9457600061339e82826133c4565b5060010161338a565b80821115612f945760006133bb82826133c4565b506001016133a7565b5080546133d090613ffa565b6000825580601f106133e0575050565b601f0160209004906000526020600020908101906108ec9190613302565b60006001600160401b0383111561341757613417614066565b61342a601f8401601f1916602001613ede565b905082815283838301111561343e57600080fd5b828260208301376000602084830101529392505050565b600082601f830112613465578081fd5b8135602061347a61347583613f0e565b613ede565b80838252828201915082860187848660051b8901011115613499578586fd5b855b858110156134c05781356134ae8161407c565b8452928401929084019060010161349b565b5090979650505050505050565b600082601f8301126134dd578081fd5b813560206134ed61347583613f0e565b80838252828201915082860187848660051b890101111561350c578586fd5b855b858110156134c05781356001600160401b0381111561352b578788fd5b8801603f81018a1361353b578788fd5b61354c8a87830135604084016133fe565b855250928401929084019060010161350e565b600082601f83011261356f578081fd5b8135602061357f61347583613f0e565b80838252828201915082860187848660051b890101111561359e578586fd5b855b858110156134c05781356001600160401b038111156135bd578788fd5b6135cb8a87838c0101613681565b85525092840192908401906001016135a0565b600082601f8301126135ee578081fd5b813560206135fe61347583613f0e565b80838252828201915082860187848660051b890101111561361d578586fd5b855b858110156134c05781358452928401929084019060010161361f565b60008083601f84011261364c578182fd5b5081356001600160401b03811115613662578182fd5b60208301915083602082850101111561367a57600080fd5b9250929050565b600082601f830112613691578081fd5b611490838335602085016133fe565b803560ff811681146136b157600080fd5b919050565b600080604083850312156136c8578182fd5b82356136d38161407c565b946020939093013593505050565b600080600080606085870312156136f6578182fd5b84356137018161407c565b93506020850135925060408501356001600160401b03811115613722578283fd5b61372e8782880161363b565b95989497509550505050565b6000806000806080858703121561374f578182fd5b84356001600160401b0380821115613765578384fd5b61377188838901613455565b95506020870135915080821115613786578384fd5b613792888389016135de565b945060408701359150808211156137a7578384fd5b506137b4878288016134cd565b949793965093946060013593505050565b600080600080608085870312156137da578182fd5b84356001600160401b03808211156137f0578384fd5b6137fc88838901613455565b95506020870135915080821115613811578384fd5b61381d888389016135de565b94506040870135915080821115613832578384fd5b61383e888389016134cd565b93506060870135915080821115613853578283fd5b5061386087828801613681565b91505092959194509250565b600080600080600060a08688031215613883578283fd5b85356001600160401b0380821115613899578485fd5b6138a589838a01613455565b965060208801359150808211156138ba578485fd5b6138c689838a016135de565b955060408801359150808211156138db578485fd5b6138e789838a0161355f565b945060608801359150808211156138fc578283fd5b61390889838a016134cd565b9350608088013591508082111561391d578283fd5b5061392a88828901613681565b9150509295509295909350565b600060208284031215613948578081fd5b81518015158114611490578182fd5b600060208284031215613968578081fd5b5051919050565b600060208284031215613980578081fd5b81356001600160e01b031981168114611490578182fd5b6000602082840312156139a8578081fd5b81356114908161407c565b6000602082840312156139c4578081fd5b5035919050565b600080604083850312156139dd578182fd5b8235915060208301356139ef8161407c565b809150509250929050565b60008060408385031215613a0c578182fd5b82359150613a1c602084016136a0565b90509250929050565b60008060008060608587031215613a3a578182fd5b84359350613a4a602086016136a0565b925060408501356001600160401b03811115613722578283fd5b600080600080600060a08688031215613a7b578283fd5b85359450613a8b602087016136a0565b9350613a99604087016136a0565b94979396509394606081013594506080013592915050565b6000815180845260208085019450808401835b83811015613ae95781516001600160a01b031687529582019590820190600101613ac4565b509495945050505050565b600082825180855260208086019550808260051b840101818601855b848110156134c057601f19868403018952613b2c838351613b6d565b98840198925090830190600101613b10565b6000815180845260208085019450808401835b83811015613ae957815187529582019590820190600101613b51565b60008151808452613b85816020860160208601613fca565b601f01601f19169290920160200192915050565b6001600160e01b0319831681528151600090613bbc816004850160208701613fca565b919091016004019392505050565b60008251613bdc818460208701613fca565b9190910192915050565b608081526000613bf96080830187613ab1565b8281036020840152613c0b8187613b3e565b90508281036040840152613c1f8186613af4565b91505082606083015295945050505050565b60a081526000613c4460a0830188613ab1565b8281036020840152613c568188613b3e565b90508281036040840152613c6a8187613af4565b60608401959095525050608001529392505050565b60c081526000613c9260c0830189613ab1565b8281036020840152613ca48189613b3e565b90508281036040840152613cb88188613af4565b60608401969096525050608081019290925260a0909101529392505050565b608081526000613cea6080830187613ab1565b8281036020840152613cfc8187613b3e565b90508281036040840152613d108186613af4565b90508281036060840152610ff68185613af4565b6020810160088310613d4657634e487b7160e01b600052602160045260246000fd5b91905290565b6020815260006114906020830184613b6d565b602080825260189082015277476f7665726e6f723a206f6e6c79476f7665726e616e636560401b604082015260600190565b60208082526021908201527f476f7665726e6f723a20696e76616c69642070726f706f73616c206c656e67746040820152600d60fb1b606082015260800190565b60208082526021908201527f476f7665726e6f723a2070726f706f73616c206e6f74207375636365737366756040820152601b60fa1b606082015260800190565b8981526001600160a01b038916602082015261012060408201819052600090613e3e8382018b613ab1565b90508281036060840152613e52818a613b3e565b90508281036080840152613e668189613af4565b905082810360a0840152613e7a8188613af4565b6001600160401b0387811660c0860152861660e08501528381036101008501529050613ea68185613b6d565b9c9b505050505050505050505050565b84815260ff841660208201528260408201526080606082015260006113916080830184613b6d565b604051601f8201601f191681016001600160401b0381118282101715613f0657613f06614066565b604052919050565b60006001600160401b03821115613f2757613f27614066565b5060051b60200190565b60008219821115613f4457613f44614050565b500190565b60006001600160401b03828116848216808303821115613f6b57613f6b614050565b01949350505050565b600082613f8f57634e487b7160e01b81526012600452602481fd5b500490565b6000816000190483118215151615613fae57613fae614050565b500290565b600082821015613fc557613fc5614050565b500390565b60005b83811015613fe5578181015183820152602001613fcd565b83811115613ff4576000848401525b50505050565b600181811c9082168061400e57607f821691505b6020821081141561402f57634e487b7160e01b600052602260045260246000fd5b50919050565b600060001982141561404957614049614050565b5060010190565b634e487b7160e01b600052601160045260246000fd5b634e487b7160e01b600052604160045260246000fd5b6001600160a01b03811681146108ec57600080fdfe150214d74d59b7d1e90c73fc22ef3d991dd0a76b046543d4d80ab92d2a50328f416464726573733a206c6f772d6c6576656c2063616c6c20776974682076616c7565206661696c6564a2646970667358221220eb45a227dffd7ba91ac69a5fef0bbe55f68b866681f46289010088b62ec7dbe564736f6c63430008040033",
  "devdoc": {
    "kind": "dev",
    "methods": {
      "COUNTING_MODE()": {
        "details": "A description of the possible `support` values for {castVote} and the way these votes are counted, meant to be consumed by UIs to show correct vote options and interpret the results. The string is a URL-encoded sequence of key-value pairs that each describe one aspect, for example `support=bravo&quorum=for,abstain`. There are 2 standard keys: `support` and `quorum`. - `support=bravo` refers to the vote options 0 = Against, 1 = For, 2 = Abstain, as in `GovernorBravo`. - `quorum=bravo` means that only For votes are counted towards quorum. - `quorum=for,abstain` means that both For and Abstain votes are counted towards quorum. NOTE: The string can be decoded by the standard https://developer.mozilla.org/en-US/docs/Web/API/URLSearchParams[`URLSearchParams`] JavaScript class."
      },
      "cancel(uint256)": {
        "details": "Cancels a proposal only if sender is the proposer, or proposer delegates dropped below proposal threshold."
      },
      "castVote(uint256,uint8)": {
        "details": "See {IGovernor-castVote}."
      },
      "castVoteBySig(uint256,uint8,uint8,bytes32,bytes32)": {
        "details": "See {IGovernor-castVoteBySig}."
      },
      "castVoteWithReason(uint256,uint8,string)": {
        "details": "See {IGovernor-castVoteWithReason}."
      },
      "execute(address[],uint256[],bytes[],bytes32)": {
        "details": "See {IGovernor-execute}."
      },
      "execute(uint256)": {
        "details": "See {IGovernorCompatibilityBravo-execute}."
      },
      "getActions(uint256)": {
        "details": "See {IGovernorCompatibilityBravo-getActions}."
      },
      "getReceipt(uint256,address)": {
        "details": "See {IGovernorCompatibilityBravo-getReceipt}."
      },
      "hasVoted(uint256,address)": {
        "details": "See {IGovernor-hasVoted}."
      },
      "hashProposal(address[],uint256[],bytes[],bytes32)": {
        "details": "See {IGovernor-hashProposal}. The proposal id is produced by hashing the RLC encoded `targets` array, the `values` array, the `calldatas` array and the descriptionHash (bytes32 which itself is the keccak256 hash of the description string). This proposal id can be produced from the proposal data which is part of the {ProposalCreated} event. It can even be computed in advance, before the proposal is submitted. Note that the chainId and the governor address are not part of the proposal id computation. Consequently, the same proposal (with same operation and same description) will have the same id if submitted on multiple governors accross multiple networks. This also means that in order to execute the same operation twice (on the same governor) the proposer will have to change the description in order to avoid proposal id conflicts."
      },
      "name()": {
        "details": "See {IGovernor-name}."
      },
      "proposalDeadline(uint256)": {
        "details": "See {IGovernor-proposalDeadline}."
      },
      "proposalEta(uint256)": {
        "details": "Public accessor to check the eta of a queued proposal"
      },
      "proposalSnapshot(uint256)": {
        "details": "See {IGovernor-proposalSnapshot}."
      },
      "proposalThreshold()": {
        "details": "Part of the Governor Bravo's interface: _\"The number of votes required in order for a voter to become a proposer\"_."
      },
      "proposals(uint256)": {
        "details": "See {IGovernorCompatibilityBravo-proposals}."
      },
      "propose(address[],uint256[],string[],bytes[],string)": {
        "details": "See {IGovernorCompatibilityBravo-propose}."
      },
      "queue(address[],uint256[],bytes[],bytes32)": {
        "details": "Function to queue a proposal to the timelock."
      },
      "queue(uint256)": {
        "details": "See {IGovernorCompatibilityBravo-queue}."
      },
      "quorumDenominator()": {
        "details": "Returns the quorum denominator. Defaults to 100, but may be overridden."
      },
      "quorumNumerator()": {
        "details": "Returns the current quorum numerator. See {quorumDenominator}."
      },
      "quorumVotes()": {
        "details": "See {IGovernorCompatibilityBravo-quorumVotes}."
      },
      "relay(address,uint256,bytes)": {
        "details": "Relays a transaction or function call to an arbitrary target. In cases where the governance executor is some contract other than the governor itself, like when using a timelock, this function can be invoked in a governance proposal to recover tokens or Ether that was sent to the governor contract by mistake. Note that if the executor is simply the governor itself, use of `relay` is redundant."
      },
      "timelock()": {
        "details": "Public accessor to check the address of the timelock"
      },
      "updateQuorumNumerator(uint256)": {
        "details": "Changes the quorum numerator. Emits a {QuorumNumeratorUpdated} event. Requirements: - Must be called through a governance proposal. - New numerator must be smaller or equal to the denominator."
      },
      "updateTimelock(address)": {
        "details": "Public endpoint to update the underlying timelock instance. Restricted to the timelock itself, so updates must be proposed, scheduled, and executed through governance proposals. CAUTION: It is not recommended to change the timelock while there are other queued governance proposals."
      },
      "version()": {
        "details": "See {IGovernor-version}."
      },
      "votingDelay()": {
        "details": "Delay, in number of block, between the proposal is created and the vote starts. This can be increassed to leave time for users to buy voting power, of delegate it, before the voting of a proposal starts."
      },
      "votingPeriod()": {
        "details": "Delay, in number of blocks, between the vote start and vote ends. NOTE: The {votingDelay} can delay the start of the vote. This must be considered when setting the voting duration compared to the voting delay."
      }
    },
    "version": 1
  },
  "userdoc": {
    "kind": "user",
    "methods": {
      "COUNTING_MODE()": {
        "notice": "module:voting"
      },
      "votingDelay()": {
        "notice": "module:user-config"
      },
      "votingPeriod()": {
        "notice": "module:user-config"
      }
    },
    "version": 1
  },
  "storageLayout": {
    "storage": [
      {
        "astId": 4706,
        "contract": "contracts/Mining3Governor.sol:Mining3Governor",
        "label": "_name",
        "offset": 0,
        "slot": "0",
        "type": "t_string_storage"
      },
      {
        "astId": 4711,
        "contract": "contracts/Mining3Governor.sol:Mining3Governor",
        "label": "_proposals",
        "offset": 0,
        "slot": "1",
        "type": "t_mapping(t_uint256,t_struct(ProposalCore)4704_storage)"
      },
      {
        "astId": 6591,
        "contract": "contracts/Mining3Governor.sol:Mining3Governor",
        "label": "_proposalDetails",
        "offset": 0,
        "slot": "2",
        "type": "t_mapping(t_uint256,t_struct(ProposalDetails)6586_storage)"
      },
      {
        "astId": 7889,
        "contract": "contracts/Mining3Governor.sol:Mining3Governor",
        "label": "_quorumNumerator",
        "offset": 0,
        "slot": "3",
        "type": "t_uint256"
      },
      {
        "astId": 7477,
        "contract": "contracts/Mining3Governor.sol:Mining3Governor",
        "label": "_timelock",
        "offset": 0,
        "slot": "4",
        "type": "t_contract(TimelockController)6532"
      },
      {
        "astId": 7481,
        "contract": "contracts/Mining3Governor.sol:Mining3Governor",
        "label": "_timelockIds",
        "offset": 0,
        "slot": "5",
        "type": "t_mapping(t_uint256,t_bytes32)"
      }
    ],
    "types": {
      "t_address": {
        "encoding": "inplace",
        "label": "address",
        "numberOfBytes": "20"
      },
      "t_array(t_address)dyn_storage": {
        "base": "t_address",
        "encoding": "dynamic_array",
        "label": "address[]",
        "numberOfBytes": "32"
      },
      "t_array(t_bytes_storage)dyn_storage": {
        "base": "t_bytes_storage",
        "encoding": "dynamic_array",
        "label": "bytes[]",
        "numberOfBytes": "32"
      },
      "t_array(t_string_storage)dyn_storage": {
        "base": "t_string_storage",
        "encoding": "dynamic_array",
        "label": "string[]",
        "numberOfBytes": "32"
      },
      "t_array(t_uint256)dyn_storage": {
        "base": "t_uint256",
        "encoding": "dynamic_array",
        "label": "uint256[]",
        "numberOfBytes": "32"
      },
      "t_bool": {
        "encoding": "inplace",
        "label": "bool",
        "numberOfBytes": "1"
      },
      "t_bytes32": {
        "encoding": "inplace",
        "label": "bytes32",
        "numberOfBytes": "32"
      },
      "t_bytes_storage": {
        "encoding": "bytes",
        "label": "bytes",
        "numberOfBytes": "32"
      },
      "t_contract(TimelockController)6532": {
        "encoding": "inplace",
        "label": "contract TimelockController",
        "numberOfBytes": "20"
      },
      "t_mapping(t_address,t_struct(Receipt)7364_storage)": {
        "encoding": "mapping",
        "key": "t_address",
        "label": "mapping(address => struct IGovernorCompatibilityBravo.Receipt)",
        "numberOfBytes": "32",
        "value": "t_struct(Receipt)7364_storage"
      },
      "t_mapping(t_uint256,t_bytes32)": {
        "encoding": "mapping",
        "key": "t_uint256",
        "label": "mapping(uint256 => bytes32)",
        "numberOfBytes": "32",
        "value": "t_bytes32"
      },
      "t_mapping(t_uint256,t_struct(ProposalCore)4704_storage)": {
        "encoding": "mapping",
        "key": "t_uint256",
        "label": "mapping(uint256 => struct Governor.ProposalCore)",
        "numberOfBytes": "32",
        "value": "t_struct(ProposalCore)4704_storage"
      },
      "t_mapping(t_uint256,t_struct(ProposalDetails)6586_storage)": {
        "encoding": "mapping",
        "key": "t_uint256",
        "label": "mapping(uint256 => struct GovernorCompatibilityBravo.ProposalDetails)",
        "numberOfBytes": "32",
        "value": "t_struct(ProposalDetails)6586_storage"
      },
      "t_string_storage": {
        "encoding": "bytes",
        "label": "string",
        "numberOfBytes": "32"
      },
      "t_struct(BlockNumber)10032_storage": {
        "encoding": "inplace",
        "label": "struct Timers.BlockNumber",
        "members": [
          {
            "astId": 10031,
            "contract": "contracts/Mining3Governor.sol:Mining3Governor",
            "label": "_deadline",
            "offset": 0,
            "slot": "0",
            "type": "t_uint64"
          }
        ],
        "numberOfBytes": "32"
      },
      "t_struct(ProposalCore)4704_storage": {
        "encoding": "inplace",
        "label": "struct Governor.ProposalCore",
        "members": [
          {
            "astId": 4696,
            "contract": "contracts/Mining3Governor.sol:Mining3Governor",
            "label": "voteStart",
            "offset": 0,
            "slot": "0",
            "type": "t_struct(BlockNumber)10032_storage"
          },
          {
            "astId": 4699,
            "contract": "contracts/Mining3Governor.sol:Mining3Governor",
            "label": "voteEnd",
            "offset": 0,
            "slot": "1",
            "type": "t_struct(BlockNumber)10032_storage"
          },
          {
            "astId": 4701,
            "contract": "contracts/Mining3Governor.sol:Mining3Governor",
            "label": "executed",
            "offset": 0,
            "slot": "2",
            "type": "t_bool"
          },
          {
            "astId": 4703,
            "contract": "contracts/Mining3Governor.sol:Mining3Governor",
            "label": "canceled",
            "offset": 1,
            "slot": "2",
            "type": "t_bool"
          }
        ],
        "numberOfBytes": "96"
      },
      "t_struct(ProposalDetails)6586_storage": {
        "encoding": "inplace",
        "label": "struct GovernorCompatibilityBravo.ProposalDetails",
        "members": [
          {
            "astId": 6560,
            "contract": "contracts/Mining3Governor.sol:Mining3Governor",
            "label": "proposer",
            "offset": 0,
            "slot": "0",
            "type": "t_address"
          },
          {
            "astId": 6563,
            "contract": "contracts/Mining3Governor.sol:Mining3Governor",
            "label": "targets",
            "offset": 0,
            "slot": "1",
            "type": "t_array(t_address)dyn_storage"
          },
          {
            "astId": 6566,
            "contract": "contracts/Mining3Governor.sol:Mining3Governor",
            "label": "values",
            "offset": 0,
            "slot": "2",
            "type": "t_array(t_uint256)dyn_storage"
          },
          {
            "astId": 6569,
            "contract": "contracts/Mining3Governor.sol:Mining3Governor",
            "label": "signatures",
            "offset": 0,
            "slot": "3",
            "type": "t_array(t_string_storage)dyn_storage"
          },
          {
            "astId": 6572,
            "contract": "contracts/Mining3Governor.sol:Mining3Governor",
            "label": "calldatas",
            "offset": 0,
            "slot": "4",
            "type": "t_array(t_bytes_storage)dyn_storage"
          },
          {
            "astId": 6574,
            "contract": "contracts/Mining3Governor.sol:Mining3Governor",
            "label": "forVotes",
            "offset": 0,
            "slot": "5",
            "type": "t_uint256"
          },
          {
            "astId": 6576,
            "contract": "contracts/Mining3Governor.sol:Mining3Governor",
            "label": "againstVotes",
            "offset": 0,
            "slot": "6",
            "type": "t_uint256"
          },
          {
            "astId": 6578,
            "contract": "contracts/Mining3Governor.sol:Mining3Governor",
            "label": "abstainVotes",
            "offset": 0,
            "slot": "7",
            "type": "t_uint256"
          },
          {
            "astId": 6583,
            "contract": "contracts/Mining3Governor.sol:Mining3Governor",
            "label": "receipts",
            "offset": 0,
            "slot": "8",
            "type": "t_mapping(t_address,t_struct(Receipt)7364_storage)"
          },
          {
            "astId": 6585,
            "contract": "contracts/Mining3Governor.sol:Mining3Governor",
            "label": "descriptionHash",
            "offset": 0,
            "slot": "9",
            "type": "t_bytes32"
          }
        ],
        "numberOfBytes": "320"
      },
      "t_struct(Receipt)7364_storage": {
        "encoding": "inplace",
        "label": "struct IGovernorCompatibilityBravo.Receipt",
        "members": [
          {
            "astId": 7359,
            "contract": "contracts/Mining3Governor.sol:Mining3Governor",
            "label": "hasVoted",
            "offset": 0,
            "slot": "0",
            "type": "t_bool"
          },
          {
            "astId": 7361,
            "contract": "contracts/Mining3Governor.sol:Mining3Governor",
            "label": "support",
            "offset": 1,
            "slot": "0",
            "type": "t_uint8"
          },
          {
            "astId": 7363,
            "contract": "contracts/Mining3Governor.sol:Mining3Governor",
            "label": "votes",
            "offset": 2,
            "slot": "0",
            "type": "t_uint96"
          }
        ],
        "numberOfBytes": "32"
      },
      "t_uint256": {
        "encoding": "inplace",
        "label": "uint256",
        "numberOfBytes": "32"
      },
      "t_uint64": {
        "encoding": "inplace",
        "label": "uint64",
        "numberOfBytes": "8"
      },
      "t_uint8": {
        "encoding": "inplace",
        "label": "uint8",
        "numberOfBytes": "1"
      },
      "t_uint96": {
        "encoding": "inplace",
        "label": "uint96",
        "numberOfBytes": "12"
      }
    }
  }
}