{
  "address": "0xa59dccAd0f1ded519CF8Bd77a5b1eCACf6102691",
  "abi": [
    {
      "inputs": [
        {
          "internalType": "contract IVotes",
          "name": "_token",
          "type": "address"
        },
        {
          "internalType": "uint256",
          "name": "initialVotingDelay",
          "type": "uint256"
        },
        {
          "internalType": "uint256",
          "name": "initialVotingPeriod",
          "type": "uint256"
        },
        {
          "internalType": "uint256",
          "name": "initialProposalThreshold",
          "type": "uint256"
        },
        {
          "internalType": "contract TimelockController",
          "name": "_timelock",
          "type": "address"
        }
      ],
      "stateMutability": "nonpayable",
      "type": "constructor"
    },
    {
      "anonymous": false,
      "inputs": [
        {
          "indexed": false,
          "internalType": "uint256",
          "name": "proposalId",
          "type": "uint256"
        }
      ],
      "name": "ProposalCanceled",
      "type": "event"
    },
    {
      "anonymous": false,
      "inputs": [
        {
          "indexed": false,
          "internalType": "uint256",
          "name": "proposalId",
          "type": "uint256"
        },
        {
          "indexed": false,
          "internalType": "address",
          "name": "proposer",
          "type": "address"
        },
        {
          "indexed": false,
          "internalType": "address[]",
          "name": "targets",
          "type": "address[]"
        },
        {
          "indexed": false,
          "internalType": "uint256[]",
          "name": "values",
          "type": "uint256[]"
        },
        {
          "indexed": false,
          "internalType": "string[]",
          "name": "signatures",
          "type": "string[]"
        },
        {
          "indexed": false,
          "internalType": "bytes[]",
          "name": "calldatas",
          "type": "bytes[]"
        },
        {
          "indexed": false,
          "internalType": "uint256",
          "name": "startBlock",
          "type": "uint256"
        },
        {
          "indexed": false,
          "internalType": "uint256",
          "name": "endBlock",
          "type": "uint256"
        },
        {
          "indexed": false,
          "internalType": "string",
          "name": "description",
          "type": "string"
        }
      ],
      "name": "ProposalCreated",
      "type": "event"
    },
    {
      "anonymous": false,
      "inputs": [
        {
          "indexed": false,
          "internalType": "uint256",
          "name": "proposalId",
          "type": "uint256"
        }
      ],
      "name": "ProposalExecuted",
      "type": "event"
    },
    {
      "anonymous": false,
      "inputs": [
        {
          "indexed": false,
          "internalType": "uint256",
          "name": "proposalId",
          "type": "uint256"
        },
        {
          "indexed": false,
          "internalType": "uint256",
          "name": "eta",
          "type": "uint256"
        }
      ],
      "name": "ProposalQueued",
      "type": "event"
    },
    {
      "anonymous": false,
      "inputs": [
        {
          "indexed": false,
          "internalType": "uint256",
          "name": "oldProposalThreshold",
          "type": "uint256"
        },
        {
          "indexed": false,
          "internalType": "uint256",
          "name": "newProposalThreshold",
          "type": "uint256"
        }
      ],
      "name": "ProposalThresholdSet",
      "type": "event"
    },
    {
      "anonymous": false,
      "inputs": [
        {
          "indexed": false,
          "internalType": "uint256",
          "name": "oldQuorumNumerator",
          "type": "uint256"
        },
        {
          "indexed": false,
          "internalType": "uint256",
          "name": "newQuorumNumerator",
          "type": "uint256"
        }
      ],
      "name": "QuorumNumeratorUpdated",
      "type": "event"
    },
    {
      "anonymous": false,
      "inputs": [
        {
          "indexed": false,
          "internalType": "address",
          "name": "oldTimelock",
          "type": "address"
        },
        {
          "indexed": false,
          "internalType": "address",
          "name": "newTimelock",
          "type": "address"
        }
      ],
      "name": "TimelockChange",
      "type": "event"
    },
    {
      "anonymous": false,
      "inputs": [
        {
          "indexed": true,
          "internalType": "address",
          "name": "voter",
          "type": "address"
        },
        {
          "indexed": false,
          "internalType": "uint256",
          "name": "proposalId",
          "type": "uint256"
        },
        {
          "indexed": false,
          "internalType": "uint8",
          "name": "support",
          "type": "uint8"
        },
        {
          "indexed": false,
          "internalType": "uint256",
          "name": "weight",
          "type": "uint256"
        },
        {
          "indexed": false,
          "internalType": "string",
          "name": "reason",
          "type": "string"
        }
      ],
      "name": "VoteCast",
      "type": "event"
    },
    {
      "anonymous": false,
      "inputs": [
        {
          "indexed": false,
          "internalType": "uint256",
          "name": "oldVotingDelay",
          "type": "uint256"
        },
        {
          "indexed": false,
          "internalType": "uint256",
          "name": "newVotingDelay",
          "type": "uint256"
        }
      ],
      "name": "VotingDelaySet",
      "type": "event"
    },
    {
      "anonymous": false,
      "inputs": [
        {
          "indexed": false,
          "internalType": "uint256",
          "name": "oldVotingPeriod",
          "type": "uint256"
        },
        {
          "indexed": false,
          "internalType": "uint256",
          "name": "newVotingPeriod",
          "type": "uint256"
        }
      ],
      "name": "VotingPeriodSet",
      "type": "event"
    },
    {
      "inputs": [],
      "name": "BALLOT_TYPEHASH",
      "outputs": [
        {
          "internalType": "bytes32",
          "name": "",
          "type": "bytes32"
        }
      ],
      "stateMutability": "view",
      "type": "function"
    },
    {
      "inputs": [],
      "name": "COUNTING_MODE",
      "outputs": [
        {
          "internalType": "string",
          "name": "",
          "type": "string"
        }
      ],
      "stateMutability": "pure",
      "type": "function"
    },
    {
      "inputs": [
        {
          "internalType": "uint256",
          "name": "proposalId",
          "type": "uint256"
        }
      ],
      "name": "cancel",
      "outputs": [],
      "stateMutability": "nonpayable",
      "type": "function"
    },
    {
      "inputs": [
        {
          "internalType": "uint256",
          "name": "proposalId",
          "type": "uint256"
        },
        {
          "internalType": "uint8",
          "name": "support",
          "type": "uint8"
        }
      ],
      "name": "castVote",
      "outputs": [
        {
          "internalType": "uint256",
          "name": "",
          "type": "uint256"
        }
      ],
      "stateMutability": "nonpayable",
      "type": "function"
    },
    {
      "inputs": [
        {
          "internalType": "uint256",
          "name": "proposalId",
          "type": "uint256"
        },
        {
          "internalType": "uint8",
          "name": "support",
          "type": "uint8"
        },
        {
          "internalType": "uint8",
          "name": "v",
          "type": "uint8"
        },
        {
          "internalType": "bytes32",
          "name": "r",
          "type": "bytes32"
        },
        {
          "internalType": "bytes32",
          "name": "s",
          "type": "bytes32"
        }
      ],
      "name": "castVoteBySig",
      "outputs": [
        {
          "internalType": "uint256",
          "name": "",
          "type": "uint256"
        }
      ],
      "stateMutability": "nonpayable",
      "type": "function"
    },
    {
      "inputs": [
        {
          "internalType": "uint256",
          "name": "proposalId",
          "type": "uint256"
        },
        {
          "internalType": "uint8",
          "name": "support",
          "type": "uint8"
        },
        {
          "internalType": "string",
          "name": "reason",
          "type": "string"
        }
      ],
      "name": "castVoteWithReason",
      "outputs": [
        {
          "internalType": "uint256",
          "name": "",
          "type": "uint256"
        }
      ],
      "stateMutability": "nonpayable",
      "type": "function"
    },
    {
      "inputs": [
        {
          "internalType": "address[]",
          "name": "targets",
          "type": "address[]"
        },
        {
          "internalType": "uint256[]",
          "name": "values",
          "type": "uint256[]"
        },
        {
          "internalType": "bytes[]",
          "name": "calldatas",
          "type": "bytes[]"
        },
        {
          "internalType": "bytes32",
          "name": "descriptionHash",
          "type": "bytes32"
        }
      ],
      "name": "execute",
      "outputs": [
        {
          "internalType": "uint256",
          "name": "",
          "type": "uint256"
        }
      ],
      "stateMutability": "payable",
      "type": "function"
    },
    {
      "inputs": [
        {
          "internalType": "uint256",
          "name": "proposalId",
          "type": "uint256"
        }
      ],
      "name": "execute",
      "outputs": [],
      "stateMutability": "payable",
      "type": "function"
    },
    {
      "inputs": [
        {
          "internalType": "uint256",
          "name": "proposalId",
          "type": "uint256"
        }
      ],
      "name": "getActions",
      "outputs": [
        {
          "internalType": "address[]",
          "name": "targets",
          "type": "address[]"
        },
        {
          "internalType": "uint256[]",
          "name": "values",
          "type": "uint256[]"
        },
        {
          "internalType": "string[]",
          "name": "signatures",
          "type": "string[]"
        },
        {
          "internalType": "bytes[]",
          "name": "calldatas",
          "type": "bytes[]"
        }
      ],
      "stateMutability": "view",
      "type": "function"
    },
    {
      "inputs": [
        {
          "internalType": "uint256",
          "name": "proposalId",
          "type": "uint256"
        },
        {
          "internalType": "address",
          "name": "voter",
          "type": "address"
        }
      ],
      "name": "getReceipt",
      "outputs": [
        {
          "components": [
            {
              "internalType": "bool",
              "name": "hasVoted",
              "type": "bool"
            },
            {
              "internalType": "uint8",
              "name": "support",
              "type": "uint8"
            },
            {
              "internalType": "uint96",
              "name": "votes",
              "type": "uint96"
            }
          ],
          "internalType": "struct IGovernorCompatibilityBravo.Receipt",
          "name": "",
          "type": "tuple"
        }
      ],
      "stateMutability": "view",
      "type": "function"
    },
    {
      "inputs": [
        {
          "internalType": "address",
          "name": "account",
          "type": "address"
        },
        {
          "internalType": "uint256",
          "name": "blockNumber",
          "type": "uint256"
        }
      ],
      "name": "getVotes",
      "outputs": [
        {
          "internalType": "uint256",
          "name": "",
          "type": "uint256"
        }
      ],
      "stateMutability": "view",
      "type": "function"
    },
    {
      "inputs": [
        {
          "internalType": "uint256",
          "name": "proposalId",
          "type": "uint256"
        },
        {
          "internalType": "address",
          "name": "account",
          "type": "address"
        }
      ],
      "name": "hasVoted",
      "outputs": [
        {
          "internalType": "bool",
          "name": "",
          "type": "bool"
        }
      ],
      "stateMutability": "view",
      "type": "function"
    },
    {
      "inputs": [
        {
          "internalType": "address[]",
          "name": "targets",
          "type": "address[]"
        },
        {
          "internalType": "uint256[]",
          "name": "values",
          "type": "uint256[]"
        },
        {
          "internalType": "bytes[]",
          "name": "calldatas",
          "type": "bytes[]"
        },
        {
          "internalType": "bytes32",
          "name": "descriptionHash",
          "type": "bytes32"
        }
      ],
      "name": "hashProposal",
      "outputs": [
        {
          "internalType": "uint256",
          "name": "",
          "type": "uint256"
        }
      ],
      "stateMutability": "pure",
      "type": "function"
    },
    {
      "inputs": [],
      "name": "name",
      "outputs": [
        {
          "internalType": "string",
          "name": "",
          "type": "string"
        }
      ],
      "stateMutability": "view",
      "type": "function"
    },
    {
      "inputs": [
        {
          "internalType": "uint256",
          "name": "proposalId",
          "type": "uint256"
        }
      ],
      "name": "proposalDeadline",
      "outputs": [
        {
          "internalType": "uint256",
          "name": "",
          "type": "uint256"
        }
      ],
      "stateMutability": "view",
      "type": "function"
    },
    {
      "inputs": [
        {
          "internalType": "uint256",
          "name": "proposalId",
          "type": "uint256"
        }
      ],
      "name": "proposalEta",
      "outputs": [
        {
          "internalType": "uint256",
          "name": "",
          "type": "uint256"
        }
      ],
      "stateMutability": "view",
      "type": "function"
    },
    {
      "inputs": [
        {
          "internalType": "uint256",
          "name": "proposalId",
          "type": "uint256"
        }
      ],
      "name": "proposalSnapshot",
      "outputs": [
        {
          "internalType": "uint256",
          "name": "",
          "type": "uint256"
        }
      ],
      "stateMutability": "view",
      "type": "function"
    },
    {
      "inputs": [],
      "name": "proposalThreshold",
      "outputs": [
        {
          "internalType": "uint256",
          "name": "",
          "type": "uint256"
        }
      ],
      "stateMutability": "view",
      "type": "function"
    },
    {
      "inputs": [
        {
          "internalType": "uint256",
          "name": "proposalId",
          "type": "uint256"
        }
      ],
      "name": "proposals",
      "outputs": [
        {
          "internalType": "uint256",
          "name": "id",
          "type": "uint256"
        },
        {
          "internalType": "address",
          "name": "proposer",
          "type": "address"
        },
        {
          "internalType": "uint256",
          "name": "eta",
          "type": "uint256"
        },
        {
          "internalType": "uint256",
          "name": "startBlock",
          "type": "uint256"
        },
        {
          "internalType": "uint256",
          "name": "endBlock",
          "type": "uint256"
        },
        {
          "internalType": "uint256",
          "name": "forVotes",
          "type": "uint256"
        },
        {
          "internalType": "uint256",
          "name": "againstVotes",
          "type": "uint256"
        },
        {
          "internalType": "uint256",
          "name": "abstainVotes",
          "type": "uint256"
        },
        {
          "internalType": "bool",
          "name": "canceled",
          "type": "bool"
        },
        {
          "internalType": "bool",
          "name": "executed",
          "type": "bool"
        }
      ],
      "stateMutability": "view",
      "type": "function"
    },
    {
      "inputs": [
        {
          "internalType": "address[]",
          "name": "targets",
          "type": "address[]"
        },
        {
          "internalType": "uint256[]",
          "name": "values",
          "type": "uint256[]"
        },
        {
          "internalType": "bytes[]",
          "name": "calldatas",
          "type": "bytes[]"
        },
        {
          "internalType": "string",
          "name": "description",
          "type": "string"
        }
      ],
      "name": "propose",
      "outputs": [
        {
          "internalType": "uint256",
          "name": "",
          "type": "uint256"
        }
      ],
      "stateMutability": "nonpayable",
      "type": "function"
    },
    {
      "inputs": [
        {
          "internalType": "address[]",
          "name": "targets",
          "type": "address[]"
        },
        {
          "internalType": "uint256[]",
          "name": "values",
          "type": "uint256[]"
        },
        {
          "internalType": "string[]",
          "name": "signatures",
          "type": "string[]"
        },
        {
          "internalType": "bytes[]",
          "name": "calldatas",
          "type": "bytes[]"
        },
        {
          "internalType": "string",
          "name": "description",
          "type": "string"
        }
      ],
      "name": "propose",
      "outputs": [
        {
          "internalType": "uint256",
          "name": "",
          "type": "uint256"
        }
      ],
      "stateMutability": "nonpayable",
      "type": "function"
    },
    {
      "inputs": [
        {
          "internalType": "address[]",
          "name": "targets",
          "type": "address[]"
        },
        {
          "internalType": "uint256[]",
          "name": "values",
          "type": "uint256[]"
        },
        {
          "internalType": "bytes[]",
          "name": "calldatas",
          "type": "bytes[]"
        },
        {
          "internalType": "bytes32",
          "name": "descriptionHash",
          "type": "bytes32"
        }
      ],
      "name": "queue",
      "outputs": [
        {
          "internalType": "uint256",
          "name": "",
          "type": "uint256"
        }
      ],
      "stateMutability": "nonpayable",
      "type": "function"
    },
    {
      "inputs": [
        {
          "internalType": "uint256",
          "name": "proposalId",
          "type": "uint256"
        }
      ],
      "name": "queue",
      "outputs": [],
      "stateMutability": "nonpayable",
      "type": "function"
    },
    {
      "inputs": [
        {
          "internalType": "uint256",
          "name": "blockNumber",
          "type": "uint256"
        }
      ],
      "name": "quorum",
      "outputs": [
        {
          "internalType": "uint256",
          "name": "",
          "type": "uint256"
        }
      ],
      "stateMutability": "view",
      "type": "function"
    },
    {
      "inputs": [],
      "name": "quorumDenominator",
      "outputs": [
        {
          "internalType": "uint256",
          "name": "",
          "type": "uint256"
        }
      ],
      "stateMutability": "view",
      "type": "function"
    },
    {
      "inputs": [],
      "name": "quorumNumerator",
      "outputs": [
        {
          "internalType": "uint256",
          "name": "",
          "type": "uint256"
        }
      ],
      "stateMutability": "view",
      "type": "function"
    },
    {
      "inputs": [],
      "name": "quorumVotes",
      "outputs": [
        {
          "internalType": "uint256",
          "name": "",
          "type": "uint256"
        }
      ],
      "stateMutability": "view",
      "type": "function"
    },
    {
      "inputs": [
        {
          "internalType": "address",
          "name": "target",
          "type": "address"
        },
        {
          "internalType": "uint256",
          "name": "value",
          "type": "uint256"
        },
        {
          "internalType": "bytes",
          "name": "data",
          "type": "bytes"
        }
      ],
      "name": "relay",
      "outputs": [],
      "stateMutability": "nonpayable",
      "type": "function"
    },
    {
      "inputs": [
        {
          "internalType": "uint256",
          "name": "newProposalThreshold",
          "type": "uint256"
        }
      ],
      "name": "setProposalThreshold",
      "outputs": [],
      "stateMutability": "nonpayable",
      "type": "function"
    },
    {
      "inputs": [
        {
          "internalType": "uint256",
          "name": "newVotingDelay",
          "type": "uint256"
        }
      ],
      "name": "setVotingDelay",
      "outputs": [],
      "stateMutability": "nonpayable",
      "type": "function"
    },
    {
      "inputs": [
        {
          "internalType": "uint256",
          "name": "newVotingPeriod",
          "type": "uint256"
        }
      ],
      "name": "setVotingPeriod",
      "outputs": [],
      "stateMutability": "nonpayable",
      "type": "function"
    },
    {
      "inputs": [
        {
          "internalType": "uint256",
          "name": "proposalId",
          "type": "uint256"
        }
      ],
      "name": "state",
      "outputs": [
        {
          "internalType": "enum IGovernor.ProposalState",
          "name": "",
          "type": "uint8"
        }
      ],
      "stateMutability": "view",
      "type": "function"
    },
    {
      "inputs": [
        {
          "internalType": "bytes4",
          "name": "interfaceId",
          "type": "bytes4"
        }
      ],
      "name": "supportsInterface",
      "outputs": [
        {
          "internalType": "bool",
          "name": "",
          "type": "bool"
        }
      ],
      "stateMutability": "view",
      "type": "function"
    },
    {
      "inputs": [],
      "name": "timelock",
      "outputs": [
        {
          "internalType": "address",
          "name": "",
          "type": "address"
        }
      ],
      "stateMutability": "view",
      "type": "function"
    },
    {
      "inputs": [],
      "name": "token",
      "outputs": [
        {
          "internalType": "contract IVotes",
          "name": "",
          "type": "address"
        }
      ],
      "stateMutability": "view",
      "type": "function"
    },
    {
      "inputs": [
        {
          "internalType": "uint256",
          "name": "newQuorumNumerator",
          "type": "uint256"
        }
      ],
      "name": "updateQuorumNumerator",
      "outputs": [],
      "stateMutability": "nonpayable",
      "type": "function"
    },
    {
      "inputs": [
        {
          "internalType": "contract TimelockController",
          "name": "newTimelock",
          "type": "address"
        }
      ],
      "name": "updateTimelock",
      "outputs": [],
      "stateMutability": "nonpayable",
      "type": "function"
    },
    {
      "inputs": [],
      "name": "version",
      "outputs": [
        {
          "internalType": "string",
          "name": "",
          "type": "string"
        }
      ],
      "stateMutability": "view",
      "type": "function"
    },
    {
      "inputs": [],
      "name": "votingDelay",
      "outputs": [
        {
          "internalType": "uint256",
          "name": "",
          "type": "uint256"
        }
      ],
      "stateMutability": "view",
      "type": "function"
    },
    {
      "inputs": [],
      "name": "votingPeriod",
      "outputs": [
        {
          "internalType": "uint256",
          "name": "",
          "type": "uint256"
        }
      ],
      "stateMutability": "view",
      "type": "function"
    },
    {
      "stateMutability": "payable",
      "type": "receive"
    }
  ],
  "transactionHash": "0x1fdbff8eac821ae6f843b436141daca58c091e5491fb1cd8968e0e8ecdfc2654",
  "args": [
    "0xb2752E0a433A41f19E9348B720d9B9cf9CC433Ee",
    "37565",
    "37565",
    "100000000000000000000000",
    "0xE0CBB44Ab7C2f42a3AaCBf8E8C37BEb9C53118b5"
  ],
  "numDeployments": 2,
  "solcInputHash": "168b0d9e2bb143b5527b0491facc2782",
  "bytecode": "0x6101606040523480156200001257600080fd5b506040516200499338038062004993833981016040819052620000359162000496565b806004868686866040518060400160405280600f81526020016e26b4b734b73399a3b7bb32b93737b960891b81525080620000756200017960201b60201c565b815160208084019190912082518383012060e08290526101008190524660a0818152604080517f8b73c3c69bb8fe3d512ecc4cf759cc79239f7b179b0ffacaa9a75d522b39400f81880181905281830187905260608201869052608082019490945230818401528151808203909301835260c00190528051940193909320919290916080523060601b60c05261012052505082516200011e9250600091506020840190620003f0565b506200012c90508362000194565b6200013782620001d5565b62000142816200027c565b50505060601b6001600160601b031916610140526200016181620002bd565b506200016d8162000387565b50505050505062000548565b6040805180820190915260018152603160f81b602082015290565b60025460408051918252602082018390527fc565b045403dc03c2eea82b81a0465edad9e2e7fc4d97e11421c209da93d7a93910160405180910390a1600255565b600081116200023b5760405162461bcd60e51b815260206004820152602760248201527f476f7665726e6f7253657474696e67733a20766f74696e6720706572696f6420604482015266746f6f206c6f7760c81b60648201526084015b60405180910390fd5b60035460408051918252602082018390527f7e3f7f0708a84de9203036abaa450dccc85ad5ff52f78c170f3edb55cf5e8828910160405180910390a1600355565b60045460408051918252602082018390527fccb45da8d5717e6c4544694297c4ba5cf151d455c9bb0ed4fc7a38411bc05461910160405180910390a1600455565b6064811115620003425760405162461bcd60e51b815260206004820152604360248201527f476f7665726e6f72566f74657351756f72756d4672616374696f6e3a2071756f60448201527f72756d4e756d657261746f72206f7665722071756f72756d44656e6f6d696e616064820152623a37b960e91b608482015260a40162000232565b600680549082905560408051828152602081018490527f0553476bf02ef2726e8ce5ced78d63e26e602e4a2257b1f559418e24b4633997910160405180910390a15050565b600754604080516001600160a01b03928316815291831660208301527f08f74ea46ef7894f65eabfb5e6e695de773a000b47c529ab559178069b226401910160405180910390a1600780546001600160a01b0319166001600160a01b0392909216919091179055565b828054620003fe90620004f2565b90600052602060002090601f0160209004810192826200042257600085556200046d565b82601f106200043d57805160ff19168380011785556200046d565b828001600101855582156200046d579182015b828111156200046d57825182559160200191906001019062000450565b506200047b9291506200047f565b5090565b5b808211156200047b576000815560010162000480565b600080600080600060a08688031215620004ae578081fd5b8551620004bb816200052f565b809550506020860151935060408601519250606086015191506080860151620004e4816200052f565b809150509295509295909350565b600181811c908216806200050757607f821691505b602082108114156200052957634e487b7160e01b600052602260045260246000fd5b50919050565b6001600160a01b03811681146200054557600080fd5b50565b60805160a05160c05160601c60e05161010051610120516101405160601c6143dc620005b7600039600081816108210152818161247701526125500152600061271901526000612768015260006127430152600061269c015260006126c6015260006126f001526143dc6000f3fe6080604052600436106101cf5760003560e01c8063013cf08b146101f757806301ffc9a71461027257806302a251a3146102a257806306f3f9e6146102c557806306fdde03146102e5578063160cbed71461030757806324bc1a64146103275780632656227d1461033c5780632d63f6931461034f578063328dd9821461036f5780633932abb11461039f5780633bccf4fd146103b45780633e4f49e6146103d457806340e58ee514610401578063438596321461042157806354fd4d501461046b578063567813881461049557806370b0f660146104b55780637b3c71d3146104d55780637d5e81e2146104f557806397c3d33414610515578063a7713a7014610529578063a890c9101461053e578063ab58fb8e1461055e578063b58131b01461057e578063c01f9e3714610593578063c28bc2fa146105b3578063c59057e4146105d3578063d33219b4146105f3578063da95691a14610620578063dd4e2ba514610640578063ddf0b00914610683578063deaaa7cc146106a3578063e23a9a52146106c5578063ea0217cf1461078f578063eb9019d4146107af578063ece40cc1146107cf578063f8ce560a146107ef578063fc0c546a1461080f578063fe0d94c11461084357600080fd5b366101f257306101dd610856565b6001600160a01b0316146101f057600080fd5b005b600080fd5b34801561020357600080fd5b50610217610212366004613c67565b610865565b604080519a8b526001600160a01b0390991660208b0152978901969096526060880194909452608087019290925260a086015260c085015260e084015215156101008301521515610120820152610140015b60405180910390f35b34801561027e57600080fd5b5061029261028d366004613c23565b61092a565b6040519015158152602001610269565b3480156102ae57600080fd5b506102b761093b565b604051908152602001610269565b3480156102d157600080fd5b506101f06102e0366004613c67565b610946565b3480156102f157600080fd5b506102fa610993565b604051610269919061400a565b34801561031357600080fd5b506102b76103223660046139ee565b610a25565b34801561033357600080fd5b506102b7610c4f565b6102b761034a3660046139ee565b610c5f565b34801561035b57600080fd5b506102b761036a366004613c67565b610d4e565b34801561037b57600080fd5b5061038f61038a366004613c67565b610d85565b6040516102699493929190613f95565b3480156103ab57600080fd5b506102b7611016565b3480156103c057600080fd5b506102b76103cf366004613d18565b611021565b3480156103e057600080fd5b506103f46103ef366004613c67565b6110a3565b6040516102699190613fe2565b34801561040d57600080fd5b506101f061041c366004613c67565b6110ae565b34801561042d57600080fd5b5061029261043c366004613c7f565b60008281526005602090815260408083206001600160a01b038516845260080190915290205460ff1692915050565b34801561047757600080fd5b506040805180820190915260018152603160f81b60208201526102fa565b3480156104a157600080fd5b506102b76104b0366004613cae565b6113c6565b3480156104c157600080fd5b506101f06104d0366004613c67565b6113ef565b3480156104e157600080fd5b506102b76104f0366004613cd9565b611430565b34801561050157600080fd5b506102b7610510366004613a79565b611482565b34801561052157600080fd5b5060646102b7565b34801561053557600080fd5b506006546102b7565b34801561054a57600080fd5b506101f0610559366004613c4b565b611499565b34801561056a57600080fd5b506102b7610579366004613c67565b6114da565b34801561058a57600080fd5b506102b7611584565b34801561059f57600080fd5b506102b76105ae366004613c67565b61158f565b3480156105bf57600080fd5b506101f06105ce366004613995565b6115be565b3480156105df57600080fd5b506102b76105ee3660046139ee565b61163f565b3480156105ff57600080fd5b50610608611679565b6040516001600160a01b039091168152602001610269565b34801561062c57600080fd5b506102b761063b366004613b20565b611688565b34801561064c57600080fd5b5060408051808201909152601a815279737570706f72743d627261766f2671756f72756d3d627261766f60301b60208201526102fa565b34801561068f57600080fd5b506101f061069e366004613c67565b6116ad565b3480156106af57600080fd5b506102b760008051602061435e83398151915281565b3480156106d157600080fd5b5061075f6106e0366004613c7f565b60408051606081018252600080825260208201819052918101919091525060009182526005602090815260408084206001600160a01b0393909316845260089092018152918190208151606081018352905460ff8082161515835261010082041693820193909352620100009092046001600160601b03169082015290565b6040805182511515815260208084015160ff1690820152918101516001600160601b031690820152606001610269565b34801561079b57600080fd5b506101f06107aa366004613c67565b61191b565b3480156107bb57600080fd5b506102b76107ca36600461396a565b61195c565b3480156107db57600080fd5b506101f06107ea366004613c67565b611968565b3480156107fb57600080fd5b506102b761080a366004613c67565b6119a9565b34801561081b57600080fd5b506106087f000000000000000000000000000000000000000000000000000000000000000081565b6101f0610851366004613c67565b6119b4565b6000610860611679565b905090565b80600080808080808080806108798a6114da565b97506108848b610d4e565b965061088f8b61158f565b60008c81526005602081905260408220805491810154600682015460078301546001600160a01b039094169e50949a50985092965094506108cf8d6110a3565b905060028160078111156108f357634e487b7160e01b600052602160045260246000fd5b149350600781600781111561091857634e487b7160e01b600052602160045260246000fd5b14925050509193959799509193959799565b600061093582611c22565b92915050565b600061086060035490565b61094e610856565b6001600160a01b0316336001600160a01b0316146109875760405162461bcd60e51b815260040161097e9061401d565b60405180910390fd5b61099081611c47565b50565b6060600080546109a2906142c6565b80601f01602080910402602001604051908101604052809291908181526020018280546109ce906142c6565b8015610a1b5780601f106109f057610100808354040283529160200191610a1b565b820191906000526020600020905b8154815290600101906020018083116109fe57829003601f168201915b5050505050905090565b600080610a348686868661163f565b90506004610a41826110a3565b6007811115610a6057634e487b7160e01b600052602160045260246000fd5b14610a7d5760405162461bcd60e51b815260040161097e90614090565b6007546040805163793d064960e11b815290516000926001600160a01b03169163f27a0c92916004808301926020929190829003018186803b158015610ac257600080fd5b505afa158015610ad6573d6000803e3d6000fd5b505050506040513d601f19601f82011682018060405250810190610afa9190613c0b565b60075460405163b1c5f42760e01b81529192506001600160a01b03169063b1c5f42790610b34908a908a908a906000908b90600401613eef565b60206040518083038186803b158015610b4c57600080fd5b505afa158015610b60573d6000803e3d6000fd5b505050506040513d601f19601f82011682018060405250810190610b849190613c0b565b6000838152600860205260408082209290925560075491516308f2a0bb60e41b81526001600160a01b0390921691638f2a0bb091610bcf918b918b918b91908b908990600401613f3d565b600060405180830381600087803b158015610be957600080fd5b505af1158015610bfd573d6000803e3d6000fd5b505050507f9a2e42fd6722813d69113e7d0079d3d940171428df7373df9c7f7617cfda2892828242610c2f91906141fd565b604051610c3d929190614174565b60405180910390a15095945050505050565b600061086061080a60014361427f565b600080610c6e8686868661163f565b90506000610c7b826110a3565b90506004816007811115610c9f57634e487b7160e01b600052602160045260246000fd5b1480610cca57506005816007811115610cc857634e487b7160e01b600052602160045260246000fd5b145b610ce65760405162461bcd60e51b815260040161097e90614090565b600082815260016020818152604092839020600201805460ff191690921790915590518381527f712ae1383f79ac853f8d882153778e0260ef8f03b504e2866e0593e04d2b291f910160405180910390a1610d448288888888611d10565b5095945050505050565b60008181526001602090815260408083208151928301909152546001600160401b0316908190525b6001600160401b031692915050565b60608060608060006005600087815260200190815260200160002090508060010181600201826003018360040183805480602002602001604051908101604052809291908181526020018280548015610e0757602002820191906000526020600020905b81546001600160a01b03168152600190910190602001808311610de9575b5050505050935082805480602002602001604051908101604052809291908181526020018280548015610e5957602002820191906000526020600020905b815481526020019060010190808311610e45575b5050505050925081805480602002602001604051908101604052809291908181526020016000905b82821015610f2d578382906000526020600020018054610ea0906142c6565b80601f0160208091040260200160405190810160405280929190818152602001828054610ecc906142c6565b8015610f195780601f10610eee57610100808354040283529160200191610f19565b820191906000526020600020905b815481529060010190602001808311610efc57829003601f168201915b505050505081526020019060010190610e81565b50505050915080805480602002602001604051908101604052809291908181526020016000905b82821015611000578382906000526020600020018054610f73906142c6565b80601f0160208091040260200160405190810160405280929190818152602001828054610f9f906142c6565b8015610fec5780601f10610fc157610100808354040283529160200191610fec565b820191906000526020600020905b815481529060010190602001808311610fcf57829003601f168201915b505050505081526020019060010190610f54565b5050505090509450945094509450509193509193565b600061086060025490565b6040805160008051602061435e833981519152602082015290810186905260ff85166060820152600090819061107b906110739060800160405160208183030381529060405280519060200120611d1d565b868686611d6b565b905061109887828860405180602001604052806000815250611d89565b979650505050505050565b600061093582611ea2565b600081815260056020526040902080546001600160a01b0316336001600160a01b031614806110fc57506110e0611584565b81546110fa906001600160a01b03166107ca60014361427f565b105b6111585760405162461bcd60e51b815260206004820152602760248201527f476f7665726e6f72427261766f3a2070726f706f7365722061626f76652074686044820152661c995cda1bdb1960ca1b606482015260840161097e565b6113c1816001018054806020026020016040519081016040528092919081815260200182805480156111b357602002820191906000526020600020905b81546001600160a01b03168152600190910190602001808311611195575b50505050508260020180548060200260200160405190810160405280929190818152602001828054801561120657602002820191906000526020600020905b8154815260200190600101908083116111f2575b50505050506113b784600301805480602002602001604051908101604052809291908181526020016000905b828210156112de578382906000526020600020018054611251906142c6565b80601f016020809104026020016040519081016040528092919081815260200182805461127d906142c6565b80156112ca5780601f1061129f576101008083540402835291602001916112ca565b820191906000526020600020905b8154815290600101906020018083116112ad57829003601f168201915b505050505081526020019060010190611232565b50505060048701805460408051602080840282018101909252828152935060009084015b828210156113ae578382906000526020600020018054611321906142c6565b80601f016020809104026020016040519081016040528092919081815260200182805461134d906142c6565b801561139a5780601f1061136f5761010080835404028352916020019161139a565b820191906000526020600020905b81548152906001019060200180831161137d57829003601f168201915b505050505081526020019060010190611302565b50505050612018565b846009015461219e565b505050565b6000803390506113e784828560405180602001604052806000815250611d89565b949350505050565b6113f7610856565b6001600160a01b0316336001600160a01b0316146114275760405162461bcd60e51b815260040161097e9061401d565b610990816121ac565b60008033905061147886828787878080601f016020809104026020016040519081016040528093929190818152602001838380828437600092019190915250611d8992505050565b9695505050505050565b6000611490858585856121ec565b95945050505050565b6114a1610856565b6001600160a01b0316336001600160a01b0316146114d15760405162461bcd60e51b815260040161097e9061401d565b61099081612262565b60075460008281526008602052604080822054905163d45c443560e01b81526004810191909152909182916001600160a01b039091169063d45c44359060240160206040518083038186803b15801561153257600080fd5b505afa158015611546573d6000803e3d6000fd5b505050506040513d601f19601f8201168201806040525081019061156a9190613c0b565b90508060011461157a578061157d565b60005b9392505050565b600061086060045490565b60008181526001602081815260408084208151928301909152909101546001600160401b031690819052610d76565b6115c6610856565b6001600160a01b0316336001600160a01b0316146115f65760405162461bcd60e51b815260040161097e9061401d565b6116388483838080601f0160208091040260200160405190810160405280939291908181526020018383808284376000920191909152508892506122cb915050565b5050505050565b6000848484846040516020016116589493929190613ea4565b60408051601f19818403018152919052805160209091012095945050505050565b6007546001600160a01b031690565b60006116983387878787876122f1565b61147886866116a78787612018565b85611482565b60008181526005602090815260409182902060018101805484518185028101850190955280855291936113c19390929083018282801561171657602002820191906000526020600020905b81546001600160a01b031681526001909101906020018083116116f8575b50505050508260020180548060200260200160405190810160405280929190818152602001828054801561176957602002820191906000526020600020905b815481526020019060010190808311611755575b505050505061191184600301805480602002602001604051908101604052809291908181526020016000905b828210156118415783829060005260206000200180546117b4906142c6565b80601f01602080910402602001604051908101604052809291908181526020018280546117e0906142c6565b801561182d5780601f106118025761010080835404028352916020019161182d565b820191906000526020600020905b81548152906001019060200180831161181057829003601f168201915b505050505081526020019060010190611795565b50505060048701805460408051602080840282018101909252828152935060009084015b828210156113ae578382906000526020600020018054611884906142c6565b80601f01602080910402602001604051908101604052809291908181526020018280546118b0906142c6565b80156118fd5780601f106118d2576101008083540402835291602001916118fd565b820191906000526020600020905b8154815290600101906020018083116118e057829003601f168201915b505050505081526020019060010190611865565b8460090154610a25565b611923610856565b6001600160a01b0316336001600160a01b0316146119535760405162461bcd60e51b815260040161097e9061401d565b610990816123ae565b600061157d838361244e565b611970610856565b6001600160a01b0316336001600160a01b0316146119a05760405162461bcd60e51b815260040161097e9061401d565b610990816124f3565b600061093582612533565b60008181526005602090815260409182902060018101805484518185028101850190955280855291936113c193909290830182828015611a1d57602002820191906000526020600020905b81546001600160a01b031681526001909101906020018083116119ff575b505050505082600201805480602002602001604051908101604052809291908181526020018280548015611a7057602002820191906000526020600020905b815481526020019060010190808311611a5c575b5050505050611c1884600301805480602002602001604051908101604052809291908181526020016000905b82821015611b48578382906000526020600020018054611abb906142c6565b80601f0160208091040260200160405190810160405280929190818152602001828054611ae7906142c6565b8015611b345780601f10611b0957610100808354040283529160200191611b34565b820191906000526020600020905b815481529060010190602001808311611b1757829003601f168201915b505050505081526020019060010190611a9c565b50505060048701805460408051602080840282018101909252828152935060009084015b828210156113ae578382906000526020600020018054611b8b906142c6565b80601f0160208091040260200160405190810160405280929190818152602001828054611bb7906142c6565b8015611c045780601f10611bd957610100808354040283529160200191611c04565b820191906000526020600020905b815481529060010190602001808311611be757829003601f168201915b505050505081526020019060010190611b6c565b8460090154610c5f565b60006001600160e01b03198216636e665ced60e01b14806109355750610935826125e6565b6064811115611cca5760405162461bcd60e51b815260206004820152604360248201527f476f7665726e6f72566f74657351756f72756d4672616374696f6e3a2071756f60448201527f72756d4e756d657261746f72206f7665722071756f72756d44656e6f6d696e616064820152623a37b960e91b608482015260a40161097e565b60068054908290556040517f0553476bf02ef2726e8ce5ced78d63e26e602e4a2257b1f559418e24b463399790611d049083908590614174565b60405180910390a15050565b611638858585858561261b565b6000610935611d2a61268f565b8360405161190160f01b6020820152602281018390526042810182905260009060620160405160208183030381529060405280519060200120905092915050565b6000806000611d7c878787876127b6565b91509150610d4481612899565b6000848152600160208190526040822090611da3876110a3565b6007811115611dc257634e487b7160e01b600052602160045260246000fd5b14611e1b5760405162461bcd60e51b815260206004820152602360248201527f476f7665726e6f723a20766f7465206e6f742063757272656e746c792061637460448201526269766560e81b606482015260840161097e565b604080516020810190915281546001600160401b031690819052600090611e4390879061195c565b9050611e5187878784612a95565b856001600160a01b03167fb8e138887d0aa13bab447e82de9d5c1777041ecd21ca36ba824ff1e6c07ddda488878488604051611e909493929190614182565b60405180910390a29695505050505050565b600080611eae83612c35565b90506004816007811115611ed257634e487b7160e01b600052602160045260246000fd5b14611edd5792915050565b60008381526008602052604090205480611ef8575092915050565b600754604051632ab0f52960e01b8152600481018390526001600160a01b0390911690632ab0f5299060240160206040518083038186803b158015611f3c57600080fd5b505afa158015611f50573d6000803e3d6000fd5b505050506040513d601f19601f82011682018060405250810190611f749190613beb565b15611f83575060079392505050565b600754604051632c258a9f60e11b8152600481018390526001600160a01b039091169063584b153e9060240160206040518083038186803b158015611fc757600080fd5b505afa158015611fdb573d6000803e3d6000fd5b505050506040513d601f19601f82011682018060405250810190611fff9190613beb565b1561200e575060059392505050565b5060029392505050565b6060600082516001600160401b0381111561204357634e487b7160e01b600052604160045260246000fd5b60405190808252806020026020018201604052801561207657816020015b60608152602001906001900390816120615790505b50905060005b8451811015612196578481815181106120a557634e487b7160e01b600052603260045260246000fd5b602002602001015151600014612131578481815181106120d557634e487b7160e01b600052603260045260246000fd5b60200260200101518051906020012084828151811061210457634e487b7160e01b600052603260045260246000fd5b602002602001015160405160200161211d929190613e57565b60405160208183030381529060405261215a565b83818151811061215157634e487b7160e01b600052603260045260246000fd5b60200260200101515b82828151811061217a57634e487b7160e01b600052603260045260246000fd5b60200260200101819052508061218f90614301565b905061207c565b509392505050565b600061149085858585612d44565b7fc565b045403dc03c2eea82b81a0465edad9e2e7fc4d97e11421c209da93d7a93600254826040516121df929190614174565b60405180910390a1600255565b600061225633868686516001600160401b0381111561221b57634e487b7160e01b600052604160045260246000fd5b60405190808252806020026020018201604052801561224e57816020015b60608152602001906001900390816122395790505b5087876122f1565b61149085858585612df6565b600754604080516001600160a01b03928316815291831660208301527f08f74ea46ef7894f65eabfb5e6e695de773a000b47c529ab559178069b226401910160405180910390a1600780546001600160a01b0319166001600160a01b0392909216919091179055565b60606113e784848460405180606001604052806029815260200161437e602991396130b9565b80516020820120600061230f87876123098888612018565b8561163f565b60008181526005602052604090206009810154919250906123a35780546001600160a01b0319166001600160a01b038a16178155875161235890600183019060208b0190613468565b50865161236e90600283019060208a01906134c9565b5085516123849060038301906020890190613504565b50845161239a906004830190602088019061355d565b50600981018390555b505050505050505050565b6000811161240e5760405162461bcd60e51b815260206004820152602760248201527f476f7665726e6f7253657474696e67733a20766f74696e6720706572696f6420604482015266746f6f206c6f7760c81b606482015260840161097e565b7f7e3f7f0708a84de9203036abaa450dccc85ad5ff52f78c170f3edb55cf5e882860035482604051612441929190614174565b60405180910390a1600355565b604051630748d63560e31b81526001600160a01b038381166004830152602482018390526000917f000000000000000000000000000000000000000000000000000000000000000090911690633a46b1a89060440160206040518083038186803b1580156124bb57600080fd5b505afa1580156124cf573d6000803e3d6000fd5b505050506040513d601f19601f8201168201806040525081019061157d9190613c0b565b7fccb45da8d5717e6c4544694297c4ba5cf151d455c9bb0ed4fc7a38411bc0546160045482604051612526929190614174565b60405180910390a1600455565b60006064600654604051632394e7a360e21b8152600481018590527f00000000000000000000000000000000000000000000000000000000000000006001600160a01b031690638e539e8c9060240160206040518083038186803b15801561259a57600080fd5b505afa1580156125ae573d6000803e3d6000fd5b505050506040513d601f19601f820116820180604052508101906125d29190613c0b565b6125dc9190614260565b6109359190614240565b60006001600160e01b0319821663bf26d89760e01b148061093557506301ffc9a760e01b6001600160e01b0319831614610935565b60075460405163e38335e560e01b81526001600160a01b039091169063e38335e5903490612656908890889088906000908990600401613eef565b6000604051808303818588803b15801561266f57600080fd5b505af1158015612683573d6000803e3d6000fd5b50505050505050505050565b6000306001600160a01b037f0000000000000000000000000000000000000000000000000000000000000000161480156126e857507f000000000000000000000000000000000000000000000000000000000000000046145b1561271257507f000000000000000000000000000000000000000000000000000000000000000090565b50604080517f00000000000000000000000000000000000000000000000000000000000000006020808301919091527f0000000000000000000000000000000000000000000000000000000000000000828401527f000000000000000000000000000000000000000000000000000000000000000060608301524660808301523060a0808401919091528351808403909101815260c0909201909252805191012090565b6000806fa2a8918ca85bafe22016d0b997e4df60600160ff1b038311156127e35750600090506003612890565b8460ff16601b141580156127fb57508460ff16601c14155b1561280c5750600090506004612890565b6040805160008082526020820180845289905260ff881692820192909252606081018690526080810185905260019060a0016020604051602081039080840390855afa158015612860573d6000803e3d6000fd5b5050604051601f1901519150506001600160a01b03811661288957600060019250925050612890565b9150600090505b94509492505050565b60008160048111156128bb57634e487b7160e01b600052602160045260246000fd5b14156128c45750565b60018160048111156128e657634e487b7160e01b600052602160045260246000fd5b141561292f5760405162461bcd60e51b815260206004820152601860248201527745434453413a20696e76616c6964207369676e617475726560401b604482015260640161097e565b600281600481111561295157634e487b7160e01b600052602160045260246000fd5b141561299f5760405162461bcd60e51b815260206004820152601f60248201527f45434453413a20696e76616c6964207369676e6174757265206c656e67746800604482015260640161097e565b60038160048111156129c157634e487b7160e01b600052602160045260246000fd5b1415612a1a5760405162461bcd60e51b815260206004820152602260248201527f45434453413a20696e76616c6964207369676e6174757265202773272076616c604482015261756560f01b606482015260840161097e565b6004816004811115612a3c57634e487b7160e01b600052602160045260246000fd5b14156109905760405162461bcd60e51b815260206004820152602260248201527f45434453413a20696e76616c6964207369676e6174757265202776272076616c604482015261756560f01b606482015260840161097e565b60008481526005602090815260408083206001600160a01b038716845260088101909252909120805460ff1615612b245760405162461bcd60e51b815260206004820152602d60248201527f476f7665726e6f72436f6d7061746962696c697479427261766f3a20766f746560448201526c08185b1c9958591e4818d85cdd609a1b606482015260840161097e565b805460ff85166101000261ffff19909116176001178155612b44836131df565b81546001600160601b0391909116620100000262010000600160701b031990911617815560ff8416612b8f5782826006016000828254612b8491906141fd565b90915550612c2d9050565b60ff841660011415612baf5782826005016000828254612b8491906141fd565b60ff841660021415612bcf5782826007016000828254612b8491906141fd565b60405162461bcd60e51b815260206004820152602d60248201527f476f7665726e6f72436f6d7061746962696c697479427261766f3a20696e766160448201526c6c696420766f7465207479706560981b606482015260840161097e565b505050505050565b6000818152600160205260408120600281015460ff1615612c595750600792915050565b6002810154610100900460ff1615612c745750600292915050565b6000612c7f84610d4e565b905080612cce5760405162461bcd60e51b815260206004820152601d60248201527f476f7665726e6f723a20756e6b6e6f776e2070726f706f73616c206964000000604482015260640161097e565b438110612cdf575060009392505050565b6000612cea8561158f565b9050438110612cfe57506001949350505050565b612d078561324b565b8015612d29575060008581526005602081905260409091206006810154910154115b15612d3957506004949350505050565b506003949350505050565b600080612d5386868686613274565b60008181526008602052604090205490915015611490576007546000828152600860205260409081902054905163c4d252f560e01b81526001600160a01b039092169163c4d252f591612dac9160040190815260200190565b600060405180830381600087803b158015612dc657600080fd5b505af1158015612dda573d6000803e3d6000fd5b5050506000828152600860205260408120555095945050505050565b6000612e00611584565b612e0f336107ca60014361427f565b1015612e8f5760405162461bcd60e51b815260206004820152604360248201527f476f7665726e6f72436f6d7061746962696c697479427261766f3a2070726f7060448201527f6f73657220766f7465732062656c6f772070726f706f73616c207468726573686064820152621bdb1960ea1b608482015260a40161097e565b6000612ea4868686868051906020012061163f565b90508451865114612ec75760405162461bcd60e51b815260040161097e9061404f565b8351865114612ee85760405162461bcd60e51b815260040161097e9061404f565b6000865111612f345760405162461bcd60e51b815260206004820152601860248201527711dbdd995c9b9bdc8e88195b5c1d1e481c1c9bdc1bdcd85b60421b604482015260640161097e565b600081815260016020908152604091829020825191820190925281546001600160401b03169081905215612fb45760405162461bcd60e51b815260206004820152602160248201527f476f7665726e6f723a2070726f706f73616c20616c72656164792065786973746044820152607360f81b606482015260840161097e565b6000612fc6612fc1611016565b6133aa565b612fcf436133aa565b612fd99190614215565b90506000612fe8612fc161093b565b612ff29083614215565b9050612ffe8383613412565b61300b6001840182613412565b7f7d84a6263ae0d98d3329bd7b46bb4e8d6f98cd35a7adb45c274c8b7fd5ebd5e084338b8b8d516001600160401b0381111561305757634e487b7160e01b600052604160045260246000fd5b60405190808252806020026020018201604052801561308a57816020015b60608152602001906001900390816130755790505b508c88888e6040516130a4999897969594939291906140d1565b60405180910390a15091979650505050505050565b60608247101561311a5760405162461bcd60e51b815260206004820152602660248201527f416464726573733a20696e73756666696369656e742062616c616e636520666f6044820152651c8818d85b1b60d21b606482015260840161097e565b6001600160a01b0385163b6131715760405162461bcd60e51b815260206004820152601d60248201527f416464726573733a2063616c6c20746f206e6f6e2d636f6e7472616374000000604482015260640161097e565b600080866001600160a01b0316858760405161318d9190613e88565b60006040518083038185875af1925050503d80600081146131ca576040519150601f19603f3d011682016040523d82523d6000602084013e6131cf565b606091505b509150915061109882828661342f565b60006001600160601b038211156132475760405162461bcd60e51b815260206004820152602660248201527f53616665436173743a2076616c756520646f65736e27742066697420696e203960448201526536206269747360d01b606482015260840161097e565b5090565b600081815260056020819052604082209081015461326b61080a85610d4e565b11159392505050565b6000806132838686868661163f565b90506000613290826110a3565b905060028160078111156132b457634e487b7160e01b600052602160045260246000fd5b141580156132e2575060068160078111156132df57634e487b7160e01b600052602160045260246000fd5b14155b801561330e5750600781600781111561330b57634e487b7160e01b600052602160045260246000fd5b14155b61335a5760405162461bcd60e51b815260206004820152601d60248201527f476f7665726e6f723a2070726f706f73616c206e6f7420616374697665000000604482015260640161097e565b60008281526001602052604090819020600201805461ff001916610100179055517f789cf55be980739dad1d0699b93b58e806b51c9d96619bfa8fe0a28abaa7b30c90610c3d9084815260200190565b60006001600160401b038211156132475760405162461bcd60e51b815260206004820152602660248201527f53616665436173743a2076616c756520646f65736e27742066697420696e203660448201526534206269747360d01b606482015260840161097e565b81546001600160401b0319166001600160401b0391909116179055565b6060831561343e57508161157d565b82511561344e5782518084602001fd5b8160405162461bcd60e51b815260040161097e919061400a565b8280548282559060005260206000209081019282156134bd579160200282015b828111156134bd57825182546001600160a01b0319166001600160a01b03909116178255602090920191600190910190613488565b506132479291506135b6565b8280548282559060005260206000209081019282156134bd579160200282015b828111156134bd5782518255916020019190600101906134e9565b828054828255906000526020600020908101928215613551579160200282015b8281111561355157825180516135419184916020909101906135cb565b5091602001919060010190613524565b5061324792915061363e565b8280548282559060005260206000209081019282156135aa579160200282015b828111156135aa578251805161359a9184916020909101906135cb565b509160200191906001019061357d565b5061324792915061365b565b5b8082111561324757600081556001016135b7565b8280546135d7906142c6565b90600052602060002090601f0160209004810192826135f957600085556134bd565b82601f1061361257805160ff19168380011785556134bd565b828001600101855582156134bd57918201828111156134bd5782518255916020019190600101906134e9565b808211156132475760006136528282613678565b5060010161363e565b8082111561324757600061366f8282613678565b5060010161365b565b508054613684906142c6565b6000825580601f10613694575050565b601f01602090049060005260206000209081019061099091906135b6565b60006001600160401b038311156136cb576136cb614332565b6136de601f8401601f19166020016141aa565b90508281528383830111156136f257600080fd5b828260208301376000602084830101529392505050565b600082601f830112613719578081fd5b8135602061372e613729836141da565b6141aa565b80838252828201915082860187848660051b890101111561374d578586fd5b855b8581101561377457813561376281614348565b8452928401929084019060010161374f565b5090979650505050505050565b600082601f830112613791578081fd5b813560206137a1613729836141da565b80838252828201915082860187848660051b89010111156137c0578586fd5b855b858110156137745781356001600160401b038111156137df578788fd5b8801603f81018a136137ef578788fd5b6138008a87830135604084016136b2565b85525092840192908401906001016137c2565b600082601f830112613823578081fd5b81356020613833613729836141da565b80838252828201915082860187848660051b8901011115613852578586fd5b855b858110156137745781356001600160401b03811115613871578788fd5b61387f8a87838c0101613935565b8552509284019290840190600101613854565b600082601f8301126138a2578081fd5b813560206138b2613729836141da565b80838252828201915082860187848660051b89010111156138d1578586fd5b855b85811015613774578135845292840192908401906001016138d3565b60008083601f840112613900578182fd5b5081356001600160401b03811115613916578182fd5b60208301915083602082850101111561392e57600080fd5b9250929050565b600082601f830112613945578081fd5b61157d838335602085016136b2565b803560ff8116811461396557600080fd5b919050565b6000806040838503121561397c578182fd5b823561398781614348565b946020939093013593505050565b600080600080606085870312156139aa578182fd5b84356139b581614348565b93506020850135925060408501356001600160401b038111156139d6578283fd5b6139e2878288016138ef565b95989497509550505050565b60008060008060808587031215613a03578182fd5b84356001600160401b0380821115613a19578384fd5b613a2588838901613709565b95506020870135915080821115613a3a578384fd5b613a4688838901613892565b94506040870135915080821115613a5b578384fd5b50613a6887828801613781565b949793965093946060013593505050565b60008060008060808587031215613a8e578182fd5b84356001600160401b0380821115613aa4578384fd5b613ab088838901613709565b95506020870135915080821115613ac5578384fd5b613ad188838901613892565b94506040870135915080821115613ae6578384fd5b613af288838901613781565b93506060870135915080821115613b07578283fd5b50613b1487828801613935565b91505092959194509250565b600080600080600060a08688031215613b37578283fd5b85356001600160401b0380821115613b4d578485fd5b613b5989838a01613709565b96506020880135915080821115613b6e578485fd5b613b7a89838a01613892565b95506040880135915080821115613b8f578485fd5b613b9b89838a01613813565b94506060880135915080821115613bb0578283fd5b613bbc89838a01613781565b93506080880135915080821115613bd1578283fd5b50613bde88828901613935565b9150509295509295909350565b600060208284031215613bfc578081fd5b8151801515811461157d578182fd5b600060208284031215613c1c578081fd5b5051919050565b600060208284031215613c34578081fd5b81356001600160e01b03198116811461157d578182fd5b600060208284031215613c5c578081fd5b813561157d81614348565b600060208284031215613c78578081fd5b5035919050565b60008060408385031215613c91578182fd5b823591506020830135613ca381614348565b809150509250929050565b60008060408385031215613cc0578182fd5b82359150613cd060208401613954565b90509250929050565b60008060008060608587031215613cee578182fd5b84359350613cfe60208601613954565b925060408501356001600160401b038111156139d6578283fd5b600080600080600060a08688031215613d2f578283fd5b85359450613d3f60208701613954565b9350613d4d60408701613954565b94979396509394606081013594506080013592915050565b6000815180845260208085019450808401835b83811015613d9d5781516001600160a01b031687529582019590820190600101613d78565b509495945050505050565b600081518084526020808501808196508360051b81019150828601855b85811015613def578284038952613ddd848351613e2b565b98850198935090840190600101613dc5565b5091979650505050505050565b6000815180845260208085019450808401835b83811015613d9d57815187529582019590820190600101613e0f565b60008151808452613e43816020860160208601614296565b601f01601f19169290920160200192915050565b6001600160e01b0319831681528151600090613e7a816004850160208701614296565b919091016004019392505050565b60008251613e9a818460208701614296565b9190910192915050565b608081526000613eb76080830187613d65565b8281036020840152613ec98187613dfc565b90508281036040840152613edd8186613da8565b91505082606083015295945050505050565b60a081526000613f0260a0830188613d65565b8281036020840152613f148188613dfc565b90508281036040840152613f288187613da8565b60608401959095525050608001529392505050565b60c081526000613f5060c0830189613d65565b8281036020840152613f628189613dfc565b90508281036040840152613f768188613da8565b60608401969096525050608081019290925260a0909101529392505050565b608081526000613fa86080830187613d65565b8281036020840152613fba8187613dfc565b90508281036040840152613fce8186613da8565b905082810360608401526110988185613da8565b602081016008831061400457634e487b7160e01b600052602160045260246000fd5b91905290565b60208152600061157d6020830184613e2b565b602080825260189082015277476f7665726e6f723a206f6e6c79476f7665726e616e636560401b604082015260600190565b60208082526021908201527f476f7665726e6f723a20696e76616c69642070726f706f73616c206c656e67746040820152600d60fb1b606082015260800190565b60208082526021908201527f476f7665726e6f723a2070726f706f73616c206e6f74207375636365737366756040820152601b60fa1b606082015260800190565b8981526001600160a01b0389166020820152610120604082018190526000906140fc8382018b613d65565b90508281036060840152614110818a613dfc565b905082810360808401526141248189613da8565b905082810360a08401526141388188613da8565b6001600160401b0387811660c0860152861660e085015283810361010085015290506141648185613e2b565b9c9b505050505050505050505050565b918252602082015260400190565b84815260ff841660208201528260408201526080606082015260006114786080830184613e2b565b604051601f8201601f191681016001600160401b03811182821017156141d2576141d2614332565b604052919050565b60006001600160401b038211156141f3576141f3614332565b5060051b60200190565b600082198211156142105761421061431c565b500190565b60006001600160401b038281168482168083038211156142375761423761431c565b01949350505050565b60008261425b57634e487b7160e01b81526012600452602481fd5b500490565b600081600019048311821515161561427a5761427a61431c565b500290565b6000828210156142915761429161431c565b500390565b60005b838110156142b1578181015183820152602001614299565b838111156142c0576000848401525b50505050565b600181811c908216806142da57607f821691505b602082108114156142fb57634e487b7160e01b600052602260045260246000fd5b50919050565b60006000198214156143155761431561431c565b5060010190565b634e487b7160e01b600052601160045260246000fd5b634e487b7160e01b600052604160045260246000fd5b6001600160a01b038116811461099057600080fdfe150214d74d59b7d1e90c73fc22ef3d991dd0a76b046543d4d80ab92d2a50328f416464726573733a206c6f772d6c6576656c2063616c6c20776974682076616c7565206661696c6564a2646970667358221220872aa8f222a5cfb85c7f96dfea1abfea473666ba0d84799524aeb771a117e88764736f6c63430008040033",
  "devdoc": {
    "kind": "dev",
    "methods": {
      "COUNTING_MODE()": {
        "details": "A description of the possible `support` values for {castVote} and the way these votes are counted, meant to be consumed by UIs to show correct vote options and interpret the results. The string is a URL-encoded sequence of key-value pairs that each describe one aspect, for example `support=bravo&quorum=for,abstain`. There are 2 standard keys: `support` and `quorum`. - `support=bravo` refers to the vote options 0 = Against, 1 = For, 2 = Abstain, as in `GovernorBravo`. - `quorum=bravo` means that only For votes are counted towards quorum. - `quorum=for,abstain` means that both For and Abstain votes are counted towards quorum. NOTE: The string can be decoded by the standard https://developer.mozilla.org/en-US/docs/Web/API/URLSearchParams[`URLSearchParams`] JavaScript class."
      },
      "cancel(uint256)": {
        "details": "Cancels a proposal only if sender is the proposer, or proposer delegates dropped below proposal threshold."
      },
      "castVote(uint256,uint8)": {
        "details": "See {IGovernor-castVote}."
      },
      "castVoteBySig(uint256,uint8,uint8,bytes32,bytes32)": {
        "details": "See {IGovernor-castVoteBySig}."
      },
      "castVoteWithReason(uint256,uint8,string)": {
        "details": "See {IGovernor-castVoteWithReason}."
      },
      "execute(address[],uint256[],bytes[],bytes32)": {
        "details": "See {IGovernor-execute}."
      },
      "execute(uint256)": {
        "details": "See {IGovernorCompatibilityBravo-execute}."
      },
      "getActions(uint256)": {
        "details": "See {IGovernorCompatibilityBravo-getActions}."
      },
      "getReceipt(uint256,address)": {
        "details": "See {IGovernorCompatibilityBravo-getReceipt}."
      },
      "hasVoted(uint256,address)": {
        "details": "See {IGovernor-hasVoted}."
      },
      "hashProposal(address[],uint256[],bytes[],bytes32)": {
        "details": "See {IGovernor-hashProposal}. The proposal id is produced by hashing the RLC encoded `targets` array, the `values` array, the `calldatas` array and the descriptionHash (bytes32 which itself is the keccak256 hash of the description string). This proposal id can be produced from the proposal data which is part of the {ProposalCreated} event. It can even be computed in advance, before the proposal is submitted. Note that the chainId and the governor address are not part of the proposal id computation. Consequently, the same proposal (with same operation and same description) will have the same id if submitted on multiple governors accross multiple networks. This also means that in order to execute the same operation twice (on the same governor) the proposer will have to change the description in order to avoid proposal id conflicts."
      },
      "name()": {
        "details": "See {IGovernor-name}."
      },
      "proposalDeadline(uint256)": {
        "details": "See {IGovernor-proposalDeadline}."
      },
      "proposalEta(uint256)": {
        "details": "Public accessor to check the eta of a queued proposal"
      },
      "proposalSnapshot(uint256)": {
        "details": "See {IGovernor-proposalSnapshot}."
      },
      "proposals(uint256)": {
        "details": "See {IGovernorCompatibilityBravo-proposals}."
      },
      "propose(address[],uint256[],string[],bytes[],string)": {
        "details": "See {IGovernorCompatibilityBravo-propose}."
      },
      "queue(address[],uint256[],bytes[],bytes32)": {
        "details": "Function to queue a proposal to the timelock."
      },
      "queue(uint256)": {
        "details": "See {IGovernorCompatibilityBravo-queue}."
      },
      "quorumDenominator()": {
        "details": "Returns the quorum denominator. Defaults to 100, but may be overridden."
      },
      "quorumNumerator()": {
        "details": "Returns the current quorum numerator. See {quorumDenominator}."
      },
      "quorumVotes()": {
        "details": "See {IGovernorCompatibilityBravo-quorumVotes}."
      },
      "relay(address,uint256,bytes)": {
        "details": "Relays a transaction or function call to an arbitrary target. In cases where the governance executor is some contract other than the governor itself, like when using a timelock, this function can be invoked in a governance proposal to recover tokens or Ether that was sent to the governor contract by mistake. Note that if the executor is simply the governor itself, use of `relay` is redundant."
      },
      "setProposalThreshold(uint256)": {
        "details": "Update the proposal threshold. This operation can only be performed through a governance proposal. Emits a {ProposalThresholdSet} event."
      },
      "setVotingDelay(uint256)": {
        "details": "Update the voting delay. This operation can only be performed through a governance proposal. Emits a {VotingDelaySet} event."
      },
      "setVotingPeriod(uint256)": {
        "details": "Update the voting period. This operation can only be performed through a governance proposal. Emits a {VotingPeriodSet} event."
      },
      "timelock()": {
        "details": "Public accessor to check the address of the timelock"
      },
      "updateQuorumNumerator(uint256)": {
        "details": "Changes the quorum numerator. Emits a {QuorumNumeratorUpdated} event. Requirements: - Must be called through a governance proposal. - New numerator must be smaller or equal to the denominator."
      },
      "updateTimelock(address)": {
        "details": "Public endpoint to update the underlying timelock instance. Restricted to the timelock itself, so updates must be proposed, scheduled, and executed through governance proposals. CAUTION: It is not recommended to change the timelock while there are other queued governance proposals."
      },
      "version()": {
        "details": "See {IGovernor-version}."
      }
    },
    "version": 1
  },
  "userdoc": {
    "kind": "user",
    "methods": {
      "COUNTING_MODE()": {
        "notice": "module:voting"
      }
    },
    "version": 1
  },
  "storageLayout": {
    "storage": [
      {
        "astId": 4706,
        "contract": "contracts/Mining3Governor.sol:Mining3Governor",
        "label": "_name",
        "offset": 0,
        "slot": "0",
        "type": "t_string_storage"
      },
      {
        "astId": 4711,
        "contract": "contracts/Mining3Governor.sol:Mining3Governor",
        "label": "_proposals",
        "offset": 0,
        "slot": "1",
        "type": "t_mapping(t_uint256,t_struct(ProposalCore)4704_storage)"
      },
      {
        "astId": 7472,
        "contract": "contracts/Mining3Governor.sol:Mining3Governor",
        "label": "_votingDelay",
        "offset": 0,
        "slot": "2",
        "type": "t_uint256"
      },
      {
        "astId": 7474,
        "contract": "contracts/Mining3Governor.sol:Mining3Governor",
        "label": "_votingPeriod",
        "offset": 0,
        "slot": "3",
        "type": "t_uint256"
      },
      {
        "astId": 7476,
        "contract": "contracts/Mining3Governor.sol:Mining3Governor",
        "label": "_proposalThreshold",
        "offset": 0,
        "slot": "4",
        "type": "t_uint256"
      },
      {
        "astId": 6591,
        "contract": "contracts/Mining3Governor.sol:Mining3Governor",
        "label": "_proposalDetails",
        "offset": 0,
        "slot": "5",
        "type": "t_mapping(t_uint256,t_struct(ProposalDetails)6586_storage)"
      },
      {
        "astId": 8067,
        "contract": "contracts/Mining3Governor.sol:Mining3Governor",
        "label": "_quorumNumerator",
        "offset": 0,
        "slot": "6",
        "type": "t_uint256"
      },
      {
        "astId": 7655,
        "contract": "contracts/Mining3Governor.sol:Mining3Governor",
        "label": "_timelock",
        "offset": 0,
        "slot": "7",
        "type": "t_contract(TimelockController)6532"
      },
      {
        "astId": 7659,
        "contract": "contracts/Mining3Governor.sol:Mining3Governor",
        "label": "_timelockIds",
        "offset": 0,
        "slot": "8",
        "type": "t_mapping(t_uint256,t_bytes32)"
      }
    ],
    "types": {
      "t_address": {
        "encoding": "inplace",
        "label": "address",
        "numberOfBytes": "20"
      },
      "t_array(t_address)dyn_storage": {
        "base": "t_address",
        "encoding": "dynamic_array",
        "label": "address[]",
        "numberOfBytes": "32"
      },
      "t_array(t_bytes_storage)dyn_storage": {
        "base": "t_bytes_storage",
        "encoding": "dynamic_array",
        "label": "bytes[]",
        "numberOfBytes": "32"
      },
      "t_array(t_string_storage)dyn_storage": {
        "base": "t_string_storage",
        "encoding": "dynamic_array",
        "label": "string[]",
        "numberOfBytes": "32"
      },
      "t_array(t_uint256)dyn_storage": {
        "base": "t_uint256",
        "encoding": "dynamic_array",
        "label": "uint256[]",
        "numberOfBytes": "32"
      },
      "t_bool": {
        "encoding": "inplace",
        "label": "bool",
        "numberOfBytes": "1"
      },
      "t_bytes32": {
        "encoding": "inplace",
        "label": "bytes32",
        "numberOfBytes": "32"
      },
      "t_bytes_storage": {
        "encoding": "bytes",
        "label": "bytes",
        "numberOfBytes": "32"
      },
      "t_contract(TimelockController)6532": {
        "encoding": "inplace",
        "label": "contract TimelockController",
        "numberOfBytes": "20"
      },
      "t_mapping(t_address,t_struct(Receipt)7364_storage)": {
        "encoding": "mapping",
        "key": "t_address",
        "label": "mapping(address => struct IGovernorCompatibilityBravo.Receipt)",
        "numberOfBytes": "32",
        "value": "t_struct(Receipt)7364_storage"
      },
      "t_mapping(t_uint256,t_bytes32)": {
        "encoding": "mapping",
        "key": "t_uint256",
        "label": "mapping(uint256 => bytes32)",
        "numberOfBytes": "32",
        "value": "t_bytes32"
      },
      "t_mapping(t_uint256,t_struct(ProposalCore)4704_storage)": {
        "encoding": "mapping",
        "key": "t_uint256",
        "label": "mapping(uint256 => struct Governor.ProposalCore)",
        "numberOfBytes": "32",
        "value": "t_struct(ProposalCore)4704_storage"
      },
      "t_mapping(t_uint256,t_struct(ProposalDetails)6586_storage)": {
        "encoding": "mapping",
        "key": "t_uint256",
        "label": "mapping(uint256 => struct GovernorCompatibilityBravo.ProposalDetails)",
        "numberOfBytes": "32",
        "value": "t_struct(ProposalDetails)6586_storage"
      },
      "t_string_storage": {
        "encoding": "bytes",
        "label": "string",
        "numberOfBytes": "32"
      },
      "t_struct(BlockNumber)10210_storage": {
        "encoding": "inplace",
        "label": "struct Timers.BlockNumber",
        "members": [
          {
            "astId": 10209,
            "contract": "contracts/Mining3Governor.sol:Mining3Governor",
            "label": "_deadline",
            "offset": 0,
            "slot": "0",
            "type": "t_uint64"
          }
        ],
        "numberOfBytes": "32"
      },
      "t_struct(ProposalCore)4704_storage": {
        "encoding": "inplace",
        "label": "struct Governor.ProposalCore",
        "members": [
          {
            "astId": 4696,
            "contract": "contracts/Mining3Governor.sol:Mining3Governor",
            "label": "voteStart",
            "offset": 0,
            "slot": "0",
            "type": "t_struct(BlockNumber)10210_storage"
          },
          {
            "astId": 4699,
            "contract": "contracts/Mining3Governor.sol:Mining3Governor",
            "label": "voteEnd",
            "offset": 0,
            "slot": "1",
            "type": "t_struct(BlockNumber)10210_storage"
          },
          {
            "astId": 4701,
            "contract": "contracts/Mining3Governor.sol:Mining3Governor",
            "label": "executed",
            "offset": 0,
            "slot": "2",
            "type": "t_bool"
          },
          {
            "astId": 4703,
            "contract": "contracts/Mining3Governor.sol:Mining3Governor",
            "label": "canceled",
            "offset": 1,
            "slot": "2",
            "type": "t_bool"
          }
        ],
        "numberOfBytes": "96"
      },
      "t_struct(ProposalDetails)6586_storage": {
        "encoding": "inplace",
        "label": "struct GovernorCompatibilityBravo.ProposalDetails",
        "members": [
          {
            "astId": 6560,
            "contract": "contracts/Mining3Governor.sol:Mining3Governor",
            "label": "proposer",
            "offset": 0,
            "slot": "0",
            "type": "t_address"
          },
          {
            "astId": 6563,
            "contract": "contracts/Mining3Governor.sol:Mining3Governor",
            "label": "targets",
            "offset": 0,
            "slot": "1",
            "type": "t_array(t_address)dyn_storage"
          },
          {
            "astId": 6566,
            "contract": "contracts/Mining3Governor.sol:Mining3Governor",
            "label": "values",
            "offset": 0,
            "slot": "2",
            "type": "t_array(t_uint256)dyn_storage"
          },
          {
            "astId": 6569,
            "contract": "contracts/Mining3Governor.sol:Mining3Governor",
            "label": "signatures",
            "offset": 0,
            "slot": "3",
            "type": "t_array(t_string_storage)dyn_storage"
          },
          {
            "astId": 6572,
            "contract": "contracts/Mining3Governor.sol:Mining3Governor",
            "label": "calldatas",
            "offset": 0,
            "slot": "4",
            "type": "t_array(t_bytes_storage)dyn_storage"
          },
          {
            "astId": 6574,
            "contract": "contracts/Mining3Governor.sol:Mining3Governor",
            "label": "forVotes",
            "offset": 0,
            "slot": "5",
            "type": "t_uint256"
          },
          {
            "astId": 6576,
            "contract": "contracts/Mining3Governor.sol:Mining3Governor",
            "label": "againstVotes",
            "offset": 0,
            "slot": "6",
            "type": "t_uint256"
          },
          {
            "astId": 6578,
            "contract": "contracts/Mining3Governor.sol:Mining3Governor",
            "label": "abstainVotes",
            "offset": 0,
            "slot": "7",
            "type": "t_uint256"
          },
          {
            "astId": 6583,
            "contract": "contracts/Mining3Governor.sol:Mining3Governor",
            "label": "receipts",
            "offset": 0,
            "slot": "8",
            "type": "t_mapping(t_address,t_struct(Receipt)7364_storage)"
          },
          {
            "astId": 6585,
            "contract": "contracts/Mining3Governor.sol:Mining3Governor",
            "label": "descriptionHash",
            "offset": 0,
            "slot": "9",
            "type": "t_bytes32"
          }
        ],
        "numberOfBytes": "320"
      },
      "t_struct(Receipt)7364_storage": {
        "encoding": "inplace",
        "label": "struct IGovernorCompatibilityBravo.Receipt",
        "members": [
          {
            "astId": 7359,
            "contract": "contracts/Mining3Governor.sol:Mining3Governor",
            "label": "hasVoted",
            "offset": 0,
            "slot": "0",
            "type": "t_bool"
          },
          {
            "astId": 7361,
            "contract": "contracts/Mining3Governor.sol:Mining3Governor",
            "label": "support",
            "offset": 1,
            "slot": "0",
            "type": "t_uint8"
          },
          {
            "astId": 7363,
            "contract": "contracts/Mining3Governor.sol:Mining3Governor",
            "label": "votes",
            "offset": 2,
            "slot": "0",
            "type": "t_uint96"
          }
        ],
        "numberOfBytes": "32"
      },
      "t_uint256": {
        "encoding": "inplace",
        "label": "uint256",
        "numberOfBytes": "32"
      },
      "t_uint64": {
        "encoding": "inplace",
        "label": "uint64",
        "numberOfBytes": "8"
      },
      "t_uint8": {
        "encoding": "inplace",
        "label": "uint8",
        "numberOfBytes": "1"
      },
      "t_uint96": {
        "encoding": "inplace",
        "label": "uint96",
        "numberOfBytes": "12"
      }
    }
  }
}