{
  "address": "0x9ebFfBfF99Fd4c5f1Fe2dddcFB2C499915bb9042",
  "abi": [
    {
      "anonymous": false,
      "inputs": [
        {
          "indexed": true,
          "internalType": "address",
          "name": "owner",
          "type": "address"
        },
        {
          "indexed": true,
          "internalType": "address",
          "name": "spender",
          "type": "address"
        },
        {
          "indexed": false,
          "internalType": "uint256",
          "name": "value",
          "type": "uint256"
        }
      ],
      "name": "Approval",
      "type": "event"
    },
    {
      "anonymous": false,
      "inputs": [
        {
          "indexed": true,
          "internalType": "address",
          "name": "previousOwner",
          "type": "address"
        },
        {
          "indexed": true,
          "internalType": "address",
          "name": "newOwner",
          "type": "address"
        }
      ],
      "name": "OwnershipTransferred",
      "type": "event"
    },
    {
      "anonymous": false,
      "inputs": [
        {
          "indexed": false,
          "internalType": "address",
          "name": "account",
          "type": "address"
        }
      ],
      "name": "Paused",
      "type": "event"
    },
    {
      "anonymous": false,
      "inputs": [
        {
          "indexed": true,
          "internalType": "address",
          "name": "from",
          "type": "address"
        },
        {
          "indexed": true,
          "internalType": "address",
          "name": "to",
          "type": "address"
        },
        {
          "indexed": false,
          "internalType": "uint256",
          "name": "value",
          "type": "uint256"
        }
      ],
      "name": "Transfer",
      "type": "event"
    },
    {
      "anonymous": false,
      "inputs": [
        {
          "indexed": false,
          "internalType": "address",
          "name": "account",
          "type": "address"
        }
      ],
      "name": "Unpaused",
      "type": "event"
    },
    {
      "inputs": [
        {
          "internalType": "address",
          "name": "owner",
          "type": "address"
        },
        {
          "internalType": "address",
          "name": "spender",
          "type": "address"
        }
      ],
      "name": "allowance",
      "outputs": [
        {
          "internalType": "uint256",
          "name": "",
          "type": "uint256"
        }
      ],
      "stateMutability": "view",
      "type": "function"
    },
    {
      "inputs": [
        {
          "internalType": "address",
          "name": "spender",
          "type": "address"
        },
        {
          "internalType": "uint256",
          "name": "amount",
          "type": "uint256"
        }
      ],
      "name": "approve",
      "outputs": [
        {
          "internalType": "bool",
          "name": "",
          "type": "bool"
        }
      ],
      "stateMutability": "nonpayable",
      "type": "function"
    },
    {
      "inputs": [
        {
          "internalType": "address",
          "name": "account",
          "type": "address"
        }
      ],
      "name": "balanceOf",
      "outputs": [
        {
          "internalType": "uint256",
          "name": "",
          "type": "uint256"
        }
      ],
      "stateMutability": "view",
      "type": "function"
    },
    {
      "inputs": [
        {
          "internalType": "address",
          "name": "account",
          "type": "address"
        },
        {
          "internalType": "uint256",
          "name": "snapshotId",
          "type": "uint256"
        }
      ],
      "name": "balanceOfAt",
      "outputs": [
        {
          "internalType": "uint256",
          "name": "",
          "type": "uint256"
        }
      ],
      "stateMutability": "view",
      "type": "function"
    },
    {
      "inputs": [
        {
          "internalType": "address",
          "name": "account",
          "type": "address"
        }
      ],
      "name": "balanceSnapshots",
      "outputs": [
        {
          "components": [
            {
              "internalType": "uint256[]",
              "name": "ids",
              "type": "uint256[]"
            },
            {
              "internalType": "uint256[]",
              "name": "values",
              "type": "uint256[]"
            }
          ],
          "internalType": "struct Mining3.Snapshots",
          "name": "snapshots",
          "type": "tuple"
        }
      ],
      "stateMutability": "view",
      "type": "function"
    },
    {
      "inputs": [
        {
          "internalType": "uint256[]",
          "name": "snapshotIds",
          "type": "uint256[]"
        }
      ],
      "name": "batchEarningSum",
      "outputs": [
        {
          "internalType": "uint256[]",
          "name": "",
          "type": "uint256[]"
        }
      ],
      "stateMutability": "view",
      "type": "function"
    },
    {
      "inputs": [
        {
          "internalType": "uint256",
          "name": "amount",
          "type": "uint256"
        }
      ],
      "name": "burn",
      "outputs": [],
      "stateMutability": "nonpayable",
      "type": "function"
    },
    {
      "inputs": [],
      "name": "decimals",
      "outputs": [
        {
          "internalType": "uint8",
          "name": "",
          "type": "uint8"
        }
      ],
      "stateMutability": "view",
      "type": "function"
    },
    {
      "inputs": [
        {
          "internalType": "address",
          "name": "spender",
          "type": "address"
        },
        {
          "internalType": "uint256",
          "name": "subtractedValue",
          "type": "uint256"
        }
      ],
      "name": "decreaseAllowance",
      "outputs": [
        {
          "internalType": "bool",
          "name": "",
          "type": "bool"
        }
      ],
      "stateMutability": "nonpayable",
      "type": "function"
    },
    {
      "inputs": [],
      "name": "earningToken",
      "outputs": [
        {
          "internalType": "address",
          "name": "",
          "type": "address"
        }
      ],
      "stateMutability": "view",
      "type": "function"
    },
    {
      "inputs": [
        {
          "internalType": "uint256",
          "name": "earningPerToken",
          "type": "uint256"
        }
      ],
      "name": "finalize",
      "outputs": [],
      "stateMutability": "nonpayable",
      "type": "function"
    },
    {
      "inputs": [
        {
          "internalType": "address",
          "name": "spender",
          "type": "address"
        },
        {
          "internalType": "uint256",
          "name": "addedValue",
          "type": "uint256"
        }
      ],
      "name": "increaseAllowance",
      "outputs": [
        {
          "internalType": "bool",
          "name": "",
          "type": "bool"
        }
      ],
      "stateMutability": "nonpayable",
      "type": "function"
    },
    {
      "inputs": [
        {
          "internalType": "string",
          "name": "name",
          "type": "string"
        },
        {
          "internalType": "string",
          "name": "symbol",
          "type": "string"
        },
        {
          "internalType": "address",
          "name": "earningTokenToSet",
          "type": "address"
        },
        {
          "internalType": "uint256",
          "name": "startSnapshotId",
          "type": "uint256"
        }
      ],
      "name": "initialize",
      "outputs": [],
      "stateMutability": "nonpayable",
      "type": "function"
    },
    {
      "inputs": [],
      "name": "lastFinalizedAt",
      "outputs": [
        {
          "internalType": "uint256",
          "name": "",
          "type": "uint256"
        }
      ],
      "stateMutability": "view",
      "type": "function"
    },
    {
      "inputs": [
        {
          "internalType": "address",
          "name": "account",
          "type": "address"
        }
      ],
      "name": "lastWithdrawAt",
      "outputs": [
        {
          "internalType": "uint256",
          "name": "",
          "type": "uint256"
        }
      ],
      "stateMutability": "view",
      "type": "function"
    },
    {
      "inputs": [
        {
          "internalType": "address",
          "name": "to",
          "type": "address"
        },
        {
          "internalType": "uint256",
          "name": "amount",
          "type": "uint256"
        }
      ],
      "name": "mint",
      "outputs": [],
      "stateMutability": "nonpayable",
      "type": "function"
    },
    {
      "inputs": [],
      "name": "name",
      "outputs": [
        {
          "internalType": "string",
          "name": "",
          "type": "string"
        }
      ],
      "stateMutability": "view",
      "type": "function"
    },
    {
      "inputs": [],
      "name": "owner",
      "outputs": [
        {
          "internalType": "address",
          "name": "",
          "type": "address"
        }
      ],
      "stateMutability": "view",
      "type": "function"
    },
    {
      "inputs": [],
      "name": "pause",
      "outputs": [],
      "stateMutability": "nonpayable",
      "type": "function"
    },
    {
      "inputs": [],
      "name": "paused",
      "outputs": [
        {
          "internalType": "bool",
          "name": "",
          "type": "bool"
        }
      ],
      "stateMutability": "view",
      "type": "function"
    },
    {
      "inputs": [],
      "name": "renounceOwnership",
      "outputs": [],
      "stateMutability": "nonpayable",
      "type": "function"
    },
    {
      "inputs": [],
      "name": "symbol",
      "outputs": [
        {
          "internalType": "string",
          "name": "",
          "type": "string"
        }
      ],
      "stateMutability": "view",
      "type": "function"
    },
    {
      "inputs": [],
      "name": "totalSupply",
      "outputs": [
        {
          "internalType": "uint256",
          "name": "",
          "type": "uint256"
        }
      ],
      "stateMutability": "view",
      "type": "function"
    },
    {
      "inputs": [
        {
          "internalType": "uint256",
          "name": "snapshotId",
          "type": "uint256"
        }
      ],
      "name": "totalSupplyAt",
      "outputs": [
        {
          "internalType": "uint256",
          "name": "",
          "type": "uint256"
        }
      ],
      "stateMutability": "view",
      "type": "function"
    },
    {
      "inputs": [
        {
          "internalType": "address",
          "name": "to",
          "type": "address"
        },
        {
          "internalType": "uint256",
          "name": "amount",
          "type": "uint256"
        }
      ],
      "name": "transfer",
      "outputs": [
        {
          "internalType": "bool",
          "name": "",
          "type": "bool"
        }
      ],
      "stateMutability": "nonpayable",
      "type": "function"
    },
    {
      "inputs": [
        {
          "internalType": "address",
          "name": "from",
          "type": "address"
        },
        {
          "internalType": "address",
          "name": "to",
          "type": "address"
        },
        {
          "internalType": "uint256",
          "name": "amount",
          "type": "uint256"
        }
      ],
      "name": "transferFrom",
      "outputs": [
        {
          "internalType": "bool",
          "name": "",
          "type": "bool"
        }
      ],
      "stateMutability": "nonpayable",
      "type": "function"
    },
    {
      "inputs": [
        {
          "internalType": "address",
          "name": "newOwner",
          "type": "address"
        }
      ],
      "name": "transferOwnership",
      "outputs": [],
      "stateMutability": "nonpayable",
      "type": "function"
    },
    {
      "inputs": [],
      "name": "unpause",
      "outputs": [],
      "stateMutability": "nonpayable",
      "type": "function"
    },
    {
      "inputs": [],
      "name": "withdraw",
      "outputs": [],
      "stateMutability": "nonpayable",
      "type": "function"
    }
  ],
  "transactionHash": "0xa2913ae96013dadf016634c29acafb5303c0324a9d240b34e3369bee494e9e48",
  "args": [],
  "numDeployments": 7,
  "solcInputHash": "29a4d3e970f13c29128f5739a64568ac",
  "bytecode": "0x608060405234801561001057600080fd5b50614478806100206000396000f3fe608060405234801561001057600080fd5b50600436106101cf5760003560e01c806366acfb6311610104578063981b24d0116100a2578063e263f59d11610071578063e263f59d14610532578063f2fde38b14610550578063f542033f1461056c578063fb66cbc514610588576101cf565b8063981b24d014610472578063a457c2d7146104a2578063a9059cbb146104d2578063dd62ed3e14610502576101cf565b80637fe205c7116100de5780637fe205c71461040e5780638456cb591461042c5780638da5cb5b1461043657806395d89b4114610454576101cf565b806366acfb63146103a457806370a08231146103d4578063715018a614610404576101cf565b80633ccfd60b1161017157806342966c681161014b57806342966c681461030a5780634ee2cd7e146103265780635c975abb14610356578063649bf86814610374576101cf565b80633ccfd60b146102da5780633f4ba83a146102e457806340c10f19146102ee576101cf565b806318160ddd116101ad57806318160ddd1461023e57806323b872dd1461025c578063313ce5671461028c57806339509351146102aa576101cf565b806305261aea146101d457806306fdde03146101f0578063095ea7b31461020e575b600080fd5b6101ee60048036038101906101e991906130ca565b6105b8565b005b6101f86108a7565b60405161020591906136b4565b60405180910390f35b61022860048036038101906102239190612f8d565b610939565b6040516102359190613699565b60405180910390f35b61024661095c565b60405161025391906139d8565b60405180910390f35b61027660048036038101906102719190612f3e565b610966565b6040516102839190613699565b60405180910390f35b610294610995565b6040516102a191906139f3565b60405180910390f35b6102c460048036038101906102bf9190612f8d565b61099e565b6040516102d19190613699565b60405180910390f35b6102e2610a48565b005b6102ec610cf1565b005b61030860048036038101906103039190612f8d565b610d77565b005b610324600480360381019061031f91906130ca565b610e01565b005b610340600480360381019061033b9190612f8d565b610e8a565b60405161034d91906139d8565b60405180910390f35b61035e610efa565b60405161036b9190613699565b60405180910390f35b61038e60048036038101906103899190612ed9565b610f11565b60405161039b91906139d8565b60405180910390f35b6103be60048036038101906103b99190612ed9565b610f5d565b6040516103cb91906139b6565b60405180910390f35b6103ee60048036038101906103e99190612ed9565b611066565b6040516103fb91906139d8565b60405180910390f35b61040c6110af565b005b610416611137565b60405161042391906135fc565b60405180910390f35b610434611161565b005b61043e6111e7565b60405161044b91906135fc565b60405180910390f35b61045c611211565b60405161046991906136b4565b60405180910390f35b61048c600480360381019061048791906130ca565b6112a3565b60405161049991906139d8565b60405180910390f35b6104bc60048036038101906104b79190612f8d565b6112d4565b6040516104c99190613699565b60405180910390f35b6104ec60048036038101906104e79190612f8d565b6113be565b6040516104f99190613699565b60405180910390f35b61051c60048036038101906105179190612f02565b6113e1565b60405161052991906139d8565b60405180910390f35b61053a611468565b60405161054791906139d8565b60405180910390f35b61056a60048036038101906105659190612ed9565b611472565b005b61058660048036038101906105819190613037565b61156a565b005b6105a2600480360381019061059d9190612fc9565b6116b4565b6040516105af9190613677565b60405180910390f35b6105c06117f0565b73ffffffffffffffffffffffffffffffffffffffff166105de6111e7565b73ffffffffffffffffffffffffffffffffffffffff1614610634576040517f08c379a000000000000000000000000000000000000000000000000000000000815260040161062b90613856565b60405180910390fd5b60006201518060ca546106479190613ae0565b905060006106536117f8565b905080821115610698576040517f08c379a000000000000000000000000000000000000000000000000000000000815260040161068f90613756565b60405180910390fd5b8260cc600062015180856106ac9190613bc1565b8152602001908152602001600020546106c59190613ae0565b60cc6000848152602001908152602001600020819055508160ca8190555060008060ce600001805490509050600081148061075257508360ce60000160018361070e9190613bc1565b81548110610745577f4e487b7100000000000000000000000000000000000000000000000000000000600052603260045260246000fd5b9060005260206000200154105b156107665761075f61095c565b915061083f565b60006001826107759190613bc1565b90505b6000811180156107db57508460ce6000016001836107969190613bc1565b815481106107cd577f4e487b7100000000000000000000000000000000000000000000000000000000600052603260045260246000fd5b906000526020600020015410155b156107f35780806107eb90613c8c565b915050610778565b60ce6001018181548110610830577f4e487b7100000000000000000000000000000000000000000000000000000000600052603260045260246000fd5b90600052602060002001549250505b6108a061084a6111e7565b3084886108579190613b67565b60c960009054906101000a900473ffffffffffffffffffffffffffffffffffffffff1673ffffffffffffffffffffffffffffffffffffffff16611819909392919063ffffffff16565b5050505050565b6060603680546108b690613cb6565b80601f01602080910402602001604051908101604052809291908181526020018280546108e290613cb6565b801561092f5780601f106109045761010080835404028352916020019161092f565b820191906000526020600020905b81548152906001019060200180831161091257829003601f168201915b5050505050905090565b6000806109446117f0565b90506109518185856118a2565b600191505092915050565b6000603554905090565b6000806109716117f0565b905061097e858285611a6d565b610989858585611af9565b60019150509392505050565b60006012905090565b6000806109a96117f0565b9050610a3d818585603460008673ffffffffffffffffffffffffffffffffffffffff1673ffffffffffffffffffffffffffffffffffffffff16815260200190815260200160002060008973ffffffffffffffffffffffffffffffffffffffff1673ffffffffffffffffffffffffffffffffffffffff16815260200190815260200160002054610a389190613ae0565b6118a2565b600191505092915050565b610a50610efa565b15610a90576040517f08c379a0000000000000000000000000000000000000000000000000000000008152600401610a8790613816565b60405180910390fd5b600060ca549050600060cb60003373ffffffffffffffffffffffffffffffffffffffff1673ffffffffffffffffffffffffffffffffffffffff1681526020019081526020016000209050600081600001549050808311610b25576040517f08c379a0000000000000000000000000000000000000000000000000000000008152600401610b1c906138b6565b60405180910390fd5b600060cd60003373ffffffffffffffffffffffffffffffffffffffff1673ffffffffffffffffffffffffffffffffffffffff1681526020019081526020016000209050600081600001805490509050600080856001015490505b82811015610c55576000846000018281548110610bc5577f4e487b7100000000000000000000000000000000000000000000000000000000600052603260045260246000fd5b9060005260206000200154905087811115610be05750610c55565b610c31856001018381548110610c1f577f4e487b7100000000000000000000000000000000000000000000000000000000600052603260045260246000fd5b90600052602060002001548783611d7d565b83610c3c9190613ae0565b9250809550508080610c4d90613d19565b915050610b7f565b8281148015610c6357508487115b15610c8957610c7b610c7433611066565b8689611d7d565b82610c869190613ae0565b91505b868660000181905550808660010181905550610ce8338360c960009054906101000a900473ffffffffffffffffffffffffffffffffffffffff1673ffffffffffffffffffffffffffffffffffffffff16611dd49092919063ffffffff16565b50505050505050565b610cf96117f0565b73ffffffffffffffffffffffffffffffffffffffff16610d176111e7565b73ffffffffffffffffffffffffffffffffffffffff1614610d6d576040517f08c379a0000000000000000000000000000000000000000000000000000000008152600401610d6490613856565b60405180910390fd5b610d75611e5a565b565b610d7f6117f0565b73ffffffffffffffffffffffffffffffffffffffff16610d9d6111e7565b73ffffffffffffffffffffffffffffffffffffffff1614610df3576040517f08c379a0000000000000000000000000000000000000000000000000000000008152600401610dea90613856565b60405180910390fd5b610dfd8282611efc565b5050565b610e096117f0565b73ffffffffffffffffffffffffffffffffffffffff16610e276111e7565b73ffffffffffffffffffffffffffffffffffffffff1614610e7d576040517f08c379a0000000000000000000000000000000000000000000000000000000008152600401610e7490613856565b60405180910390fd5b610e87338261205d565b50565b6000806000610ed78460cd60008873ffffffffffffffffffffffffffffffffffffffff1673ffffffffffffffffffffffffffffffffffffffff168152602001908152602001600020612236565b9150915081610eee57610ee985611066565b610ef0565b805b9250505092915050565b6000609760009054906101000a900460ff16905090565b600060cb60008373ffffffffffffffffffffffffffffffffffffffff1673ffffffffffffffffffffffffffffffffffffffff168152602001908152602001600020600001549050919050565b610f65612d2b565b60cd60008373ffffffffffffffffffffffffffffffffffffffff1673ffffffffffffffffffffffffffffffffffffffff16815260200190815260200160002060405180604001604052908160008201805480602002602001604051908101604052809291908181526020018280548015610ffe57602002820191906000526020600020905b815481526020019060010190808311610fea575b505050505081526020016001820180548060200260200160405190810160405280929190818152602001828054801561105657602002820191906000526020600020905b815481526020019060010190808311611042575b5050505050815250509050919050565b6000603360008373ffffffffffffffffffffffffffffffffffffffff1673ffffffffffffffffffffffffffffffffffffffff168152602001908152602001600020549050919050565b6110b76117f0565b73ffffffffffffffffffffffffffffffffffffffff166110d56111e7565b73ffffffffffffffffffffffffffffffffffffffff161461112b576040517f08c379a000000000000000000000000000000000000000000000000000000000815260040161112290613856565b60405180910390fd5b6111356000612352565b565b600060c960009054906101000a900473ffffffffffffffffffffffffffffffffffffffff16905090565b6111696117f0565b73ffffffffffffffffffffffffffffffffffffffff166111876111e7565b73ffffffffffffffffffffffffffffffffffffffff16146111dd576040517f08c379a00000000000000000000000000000000000000000000000000000000081526004016111d490613856565b60405180910390fd5b6111e5612418565b565b6000606560009054906101000a900473ffffffffffffffffffffffffffffffffffffffff16905090565b60606037805461122090613cb6565b80601f016020809104026020016040519081016040528092919081815260200182805461124c90613cb6565b80156112995780601f1061126e57610100808354040283529160200191611299565b820191906000526020600020905b81548152906001019060200180831161127c57829003601f168201915b5050505050905090565b60008060006112b38460ce612236565b91509150816112c9576112c461095c565b6112cb565b805b92505050919050565b6000806112df6117f0565b90506000603460008373ffffffffffffffffffffffffffffffffffffffff1673ffffffffffffffffffffffffffffffffffffffff16815260200190815260200160002060008673ffffffffffffffffffffffffffffffffffffffff1673ffffffffffffffffffffffffffffffffffffffff168152602001908152602001600020549050838110156113a5576040517f08c379a000000000000000000000000000000000000000000000000000000000815260040161139c90613976565b60405180910390fd5b6113b282868684036118a2565b60019250505092915050565b6000806113c96117f0565b90506113d6818585611af9565b600191505092915050565b6000603460008473ffffffffffffffffffffffffffffffffffffffff1673ffffffffffffffffffffffffffffffffffffffff16815260200190815260200160002060008373ffffffffffffffffffffffffffffffffffffffff1673ffffffffffffffffffffffffffffffffffffffff16815260200190815260200160002054905092915050565b600060ca54905090565b61147a6117f0565b73ffffffffffffffffffffffffffffffffffffffff166114986111e7565b73ffffffffffffffffffffffffffffffffffffffff16146114ee576040517f08c379a00000000000000000000000000000000000000000000000000000000081526004016114e590613856565b60405180910390fd5b600073ffffffffffffffffffffffffffffffffffffffff168173ffffffffffffffffffffffffffffffffffffffff16141561155e576040517f08c379a000000000000000000000000000000000000000000000000000000000815260040161155590613776565b60405180910390fd5b61156781612352565b50565b600060019054906101000a900460ff166115925760008054906101000a900460ff161561159b565b61159a6124bb565b5b6115da576040517f08c379a00000000000000000000000000000000000000000000000000000000081526004016115d190613836565b60405180910390fd5b60008060019054906101000a900460ff16159050801561162a576001600060016101000a81548160ff02191690831515021790555060016000806101000a81548160ff0219169083151502179055505b6116326124cc565b61163a612525565b611644858561257e565b8260c960006101000a81548173ffffffffffffffffffffffffffffffffffffffff021916908373ffffffffffffffffffffffffffffffffffffffff1602179055508160ca8190555080156116ad5760008060016101000a81548160ff0219169083151502179055505b5050505050565b606060008383905067ffffffffffffffff8111156116fb577f4e487b7100000000000000000000000000000000000000000000000000000000600052604160045260246000fd5b6040519080825280602002602001820160405280156117295781602001602082028036833780820191505090505b50905060005b848490508110156117e55760cc6000868684818110611777577f4e487b7100000000000000000000000000000000000000000000000000000000600052603260045260246000fd5b905060200201358152602001908152602001600020548282815181106117c6577f4e487b7100000000000000000000000000000000000000000000000000000000600052603260045260246000fd5b60200260200101818152505080806117dd90613d19565b91505061172f565b508091505092915050565b600033905090565b600062015180426118099190613d62565b426118149190613bc1565b905090565b61189c846323b872dd60e01b85858560405160240161183a93929190613617565b604051602081830303815290604052907bffffffffffffffffffffffffffffffffffffffffffffffffffffffff19166020820180517bffffffffffffffffffffffffffffffffffffffffffffffffffffffff83818316178352505050506125db565b50505050565b600073ffffffffffffffffffffffffffffffffffffffff168373ffffffffffffffffffffffffffffffffffffffff161415611912576040517f08c379a0000000000000000000000000000000000000000000000000000000008152600401611909906138d6565b60405180910390fd5b600073ffffffffffffffffffffffffffffffffffffffff168273ffffffffffffffffffffffffffffffffffffffff161415611982576040517f08c379a000000000000000000000000000000000000000000000000000000000815260040161197990613796565b60405180910390fd5b80603460008573ffffffffffffffffffffffffffffffffffffffff1673ffffffffffffffffffffffffffffffffffffffff16815260200190815260200160002060008473ffffffffffffffffffffffffffffffffffffffff1673ffffffffffffffffffffffffffffffffffffffff168152602001908152602001600020819055508173ffffffffffffffffffffffffffffffffffffffff168373ffffffffffffffffffffffffffffffffffffffff167f8c5be1e5ebec7d5bd14f71427d1e84f3dd0314c0f7b2291e5b200ac8c7c3b92583604051611a6091906139d8565b60405180910390a3505050565b6000611a7984846113e1565b90507fffffffffffffffffffffffffffffffffffffffffffffffffffffffffffffffff8114611af35781811015611ae5576040517f08c379a0000000000000000000000000000000000000000000000000000000008152600401611adc906137b6565b60405180910390fd5b611af284848484036118a2565b5b50505050565b600073ffffffffffffffffffffffffffffffffffffffff168373ffffffffffffffffffffffffffffffffffffffff161415611b69576040517f08c379a0000000000000000000000000000000000000000000000000000000008152600401611b6090613896565b60405180910390fd5b600073ffffffffffffffffffffffffffffffffffffffff168273ffffffffffffffffffffffffffffffffffffffff161415611bd9576040517f08c379a0000000000000000000000000000000000000000000000000000000008152600401611bd0906136f6565b60405180910390fd5b611be48383836126a2565b6000603360008573ffffffffffffffffffffffffffffffffffffffff1673ffffffffffffffffffffffffffffffffffffffff16815260200190815260200160002054905081811015611c6b576040517f08c379a0000000000000000000000000000000000000000000000000000000008152600401611c62906137d6565b60405180910390fd5b818103603360008673ffffffffffffffffffffffffffffffffffffffff1673ffffffffffffffffffffffffffffffffffffffff1681526020019081526020016000208190555081603360008573ffffffffffffffffffffffffffffffffffffffff1673ffffffffffffffffffffffffffffffffffffffff1681526020019081526020016000206000828254611d009190613ae0565b925050819055508273ffffffffffffffffffffffffffffffffffffffff168473ffffffffffffffffffffffffffffffffffffffff167fddf252ad1be2c89b69c2b068fc378daa952ba7f163c4a11628f55a4df523b3ef84604051611d6491906139d8565b60405180910390a3611d7784848461275c565b50505050565b6000808414611dc85760cc60008481526020019081526020016000205460cc600084815260200190815260200160002054611db89190613bc1565b84611dc39190613b67565b611dcb565b60005b90509392505050565b611e558363a9059cbb60e01b8484604051602401611df392919061364e565b604051602081830303815290604052907bffffffffffffffffffffffffffffffffffffffffffffffffffffffff19166020820180517bffffffffffffffffffffffffffffffffffffffffffffffffffffffff83818316178352505050506125db565b505050565b611e62610efa565b611ea1576040517f08c379a0000000000000000000000000000000000000000000000000000000008152600401611e9890613716565b60405180910390fd5b6000609760006101000a81548160ff0219169083151502179055507f5db9ee0a495bf2e6ff9c91a7834c1ba4fdd244a5e8aa4e537bd38aeae4b073aa611ee56117f0565b604051611ef291906135fc565b60405180910390a1565b600073ffffffffffffffffffffffffffffffffffffffff168273ffffffffffffffffffffffffffffffffffffffff161415611f6c576040517f08c379a0000000000000000000000000000000000000000000000000000000008152600401611f6390613996565b60405180910390fd5b611f78600083836126a2565b8060356000828254611f8a9190613ae0565b9250508190555080603360008473ffffffffffffffffffffffffffffffffffffffff1673ffffffffffffffffffffffffffffffffffffffff1681526020019081526020016000206000828254611fe09190613ae0565b925050819055508173ffffffffffffffffffffffffffffffffffffffff16600073ffffffffffffffffffffffffffffffffffffffff167fddf252ad1be2c89b69c2b068fc378daa952ba7f163c4a11628f55a4df523b3ef8360405161204591906139d8565b60405180910390a36120596000838361275c565b5050565b600073ffffffffffffffffffffffffffffffffffffffff168273ffffffffffffffffffffffffffffffffffffffff1614156120cd576040517f08c379a00000000000000000000000000000000000000000000000000000000081526004016120c490613876565b60405180910390fd5b6120d9826000836126a2565b6000603360008473ffffffffffffffffffffffffffffffffffffffff1673ffffffffffffffffffffffffffffffffffffffff16815260200190815260200160002054905081811015612160576040517f08c379a000000000000000000000000000000000000000000000000000000000815260040161215790613736565b60405180910390fd5b818103603360008573ffffffffffffffffffffffffffffffffffffffff1673ffffffffffffffffffffffffffffffffffffffff1681526020019081526020016000208190555081603560008282546121b89190613bc1565b92505081905550600073ffffffffffffffffffffffffffffffffffffffff168373ffffffffffffffffffffffffffffffffffffffff167fddf252ad1be2c89b69c2b068fc378daa952ba7f163c4a11628f55a4df523b3ef8460405161221d91906139d8565b60405180910390a36122318360008461275c565b505050565b6000806000841161227c576040517f08c379a000000000000000000000000000000000000000000000000000000000815260040161227390613936565b60405180910390fd5b6122846117f8565b8411156122c6576040517f08c379a00000000000000000000000000000000000000000000000000000000081526004016122bd906136d6565b60405180910390fd5b60006122de858560000161276190919063ffffffff16565b905083600001805490508114156122fc57600080925092505061234b565b600184600101828154811061233a577f4e487b7100000000000000000000000000000000000000000000000000000000600052603260045260246000fd5b906000526020600020015492509250505b9250929050565b6000606560009054906101000a900473ffffffffffffffffffffffffffffffffffffffff16905081606560006101000a81548173ffffffffffffffffffffffffffffffffffffffff021916908373ffffffffffffffffffffffffffffffffffffffff1602179055508173ffffffffffffffffffffffffffffffffffffffff168173ffffffffffffffffffffffffffffffffffffffff167f8be0079c531659141344cd1fd0a4f28419497f9722a3daafe3b4186f6b6457e060405160405180910390a35050565b612420610efa565b15612460576040517f08c379a000000000000000000000000000000000000000000000000000000000815260040161245790613816565b60405180910390fd5b6001609760006101000a81548160ff0219169083151502179055507f62e78cea01bee320cd4e420270b5ea74000d11b0c9f74754ebdbfc544b05a2586124a46117f0565b6040516124b191906135fc565b60405180910390a1565b60006124c630612887565b15905090565b600060019054906101000a900460ff1661251b576040517f08c379a000000000000000000000000000000000000000000000000000000000815260040161251290613916565b60405180910390fd5b6125236128aa565b565b600060019054906101000a900460ff16612574576040517f08c379a000000000000000000000000000000000000000000000000000000000815260040161256b90613916565b60405180910390fd5b61257c61290b565b565b600060019054906101000a900460ff166125cd576040517f08c379a00000000000000000000000000000000000000000000000000000000081526004016125c490613916565b60405180910390fd5b6125d78282612977565b5050565b600061263d826040518060400160405280602081526020017f5361666545524332303a206c6f772d6c6576656c2063616c6c206661696c65648152508573ffffffffffffffffffffffffffffffffffffffff166129f89092919063ffffffff16565b905060008151111561269d578080602001905181019061265d919061300e565b61269c576040517f08c379a000000000000000000000000000000000000000000000000000000000815260040161269390613956565b60405180910390fd5b5b505050565b6126ad838383612a10565b600073ffffffffffffffffffffffffffffffffffffffff168373ffffffffffffffffffffffffffffffffffffffff1614156126f8576126eb82612a15565b6126f3612a68565b612757565b600073ffffffffffffffffffffffffffffffffffffffff168273ffffffffffffffffffffffffffffffffffffffff1614156127435761273683612a15565b61273e612a68565b612756565b61274c83612a15565b61275582612a15565b5b5b505050565b505050565b600080838054905014156127785760009050612881565b600080848054905090505b808210156128025760006127978383612a7c565b9050848682815481106127d3577f4e487b7100000000000000000000000000000000000000000000000000000000600052603260045260246000fd5b906000526020600020015411156127ec578091506127fc565b6001816127f99190613ae0565b92505b50612783565b6000821180156128605750838560018461281c9190613bc1565b81548110612853577f4e487b7100000000000000000000000000000000000000000000000000000000600052603260045260246000fd5b9060005260206000200154145b1561287b576001826128729190613bc1565b92505050612881565b81925050505b92915050565b6000808273ffffffffffffffffffffffffffffffffffffffff163b119050919050565b600060019054906101000a900460ff166128f9576040517f08c379a00000000000000000000000000000000000000000000000000000000081526004016128f090613916565b60405180910390fd5b6129096129046117f0565b612352565b565b600060019054906101000a900460ff1661295a576040517f08c379a000000000000000000000000000000000000000000000000000000000815260040161295190613916565b60405180910390fd5b6000609760006101000a81548160ff021916908315150217905550565b600060019054906101000a900460ff166129c6576040517f08c379a00000000000000000000000000000000000000000000000000000000081526004016129bd90613916565b60405180910390fd5b81603690805190602001906129dc929190612d45565b5080603790805190602001906129f3929190612d45565b505050565b6060612a078484600085612aa2565b90509392505050565b505050565b612a6560cd60008373ffffffffffffffffffffffffffffffffffffffff1673ffffffffffffffffffffffffffffffffffffffff168152602001908152602001600020612a6083611066565b612bb6565b50565b612a7a60ce612a7561095c565b612bb6565b565b60006002828418612a8d9190613b36565b828416612a9a9190613ae0565b905092915050565b606082471015612ae7576040517f08c379a0000000000000000000000000000000000000000000000000000000008152600401612ade906137f6565b60405180910390fd5b612af085612c31565b612b2f576040517f08c379a0000000000000000000000000000000000000000000000000000000008152600401612b26906138f6565b60405180910390fd5b6000808673ffffffffffffffffffffffffffffffffffffffff168587604051612b5891906135e5565b60006040518083038185875af1925050503d8060008114612b95576040519150601f19603f3d011682016040523d82523d6000602084013e612b9a565b606091505b5091509150612baa828286612c54565b92505050949350505050565b6000612bc06117f8565b905080612bcf84600001612cbb565b1015612c2c5782600001819080600181540180825580915050600190039060005260206000200160009091909190915055826001018290806001815401808255809150506001900390600052602060002001600090919091909150555b505050565b6000808273ffffffffffffffffffffffffffffffffffffffff163b119050919050565b60608315612c6457829050612cb4565b600083511115612c775782518084602001fd5b816040517f08c379a0000000000000000000000000000000000000000000000000000000008152600401612cab91906136b4565b60405180910390fd5b9392505050565b600080828054905014612d21578160018380549050612cda9190613bc1565b81548110612d11577f4e487b7100000000000000000000000000000000000000000000000000000000600052603260045260246000fd5b9060005260206000200154612d24565b60005b9050919050565b604051806040016040528060608152602001606081525090565b828054612d5190613cb6565b90600052602060002090601f016020900481019282612d735760008555612dba565b82601f10612d8c57805160ff1916838001178555612dba565b82800160010185558215612dba579182015b82811115612db9578251825591602001919060010190612d9e565b5b509050612dc79190612dcb565b5090565b5b80821115612de4576000816000905550600101612dcc565b5090565b6000612dfb612df684613a33565b613a0e565b905082815260208101848484011115612e1357600080fd5b612e1e848285613c4a565b509392505050565b600081359050612e35816143fd565b92915050565b60008083601f840112612e4d57600080fd5b8235905067ffffffffffffffff811115612e6657600080fd5b602083019150836020820283011115612e7e57600080fd5b9250929050565b600081519050612e9481614414565b92915050565b600082601f830112612eab57600080fd5b8135612ebb848260208601612de8565b91505092915050565b600081359050612ed38161442b565b92915050565b600060208284031215612eeb57600080fd5b6000612ef984828501612e26565b91505092915050565b60008060408385031215612f1557600080fd5b6000612f2385828601612e26565b9250506020612f3485828601612e26565b9150509250929050565b600080600060608486031215612f5357600080fd5b6000612f6186828701612e26565b9350506020612f7286828701612e26565b9250506040612f8386828701612ec4565b9150509250925092565b60008060408385031215612fa057600080fd5b6000612fae85828601612e26565b9250506020612fbf85828601612ec4565b9150509250929050565b60008060208385031215612fdc57600080fd5b600083013567ffffffffffffffff811115612ff657600080fd5b61300285828601612e3b565b92509250509250929050565b60006020828403121561302057600080fd5b600061302e84828501612e85565b91505092915050565b6000806000806080858703121561304d57600080fd5b600085013567ffffffffffffffff81111561306757600080fd5b61307387828801612e9a565b945050602085013567ffffffffffffffff81111561309057600080fd5b61309c87828801612e9a565b93505060406130ad87828801612e26565b92505060606130be87828801612ec4565b91505092959194509250565b6000602082840312156130dc57600080fd5b60006130ea84828501612ec4565b91505092915050565b60006130ff83836135b8565b60208301905092915050565b61311481613bf5565b82525050565b600061312582613a74565b61312f8185613aa2565b935061313a83613a64565b8060005b8381101561316b57815161315288826130f3565b975061315d83613a95565b92505060018101905061313e565b5085935050505092915050565b600061318382613a74565b61318d8185613ab3565b935061319883613a64565b8060005b838110156131c95781516131b088826130f3565b97506131bb83613a95565b92505060018101905061319c565b5085935050505092915050565b6131df81613c07565b82525050565b60006131f082613a7f565b6131fa8185613ac4565b935061320a818560208601613c59565b80840191505092915050565b600061322182613a8a565b61322b8185613acf565b935061323b818560208601613c59565b61324481613e4f565b840191505092915050565b600061325c601d83613acf565b915061326782613e60565b602082019050919050565b600061327f602383613acf565b915061328a82613e89565b604082019050919050565b60006132a2601483613acf565b91506132ad82613ed8565b602082019050919050565b60006132c5602283613acf565b91506132d082613f01565b604082019050919050565b60006132e8602083613acf565b91506132f382613f50565b602082019050919050565b600061330b602683613acf565b915061331682613f79565b604082019050919050565b600061332e602283613acf565b915061333982613fc8565b604082019050919050565b6000613351601d83613acf565b915061335c82614017565b602082019050919050565b6000613374602683613acf565b915061337f82614040565b604082019050919050565b6000613397602683613acf565b91506133a28261408f565b604082019050919050565b60006133ba601083613acf565b91506133c5826140de565b602082019050919050565b60006133dd602e83613acf565b91506133e882614107565b604082019050919050565b6000613400602083613acf565b915061340b82614156565b602082019050919050565b6000613423602183613acf565b915061342e8261417f565b604082019050919050565b6000613446602583613acf565b9150613451826141ce565b604082019050919050565b6000613469601b83613acf565b91506134748261421d565b602082019050919050565b600061348c602483613acf565b915061349782614246565b604082019050919050565b60006134af601d83613acf565b91506134ba82614295565b602082019050919050565b60006134d2602b83613acf565b91506134dd826142be565b604082019050919050565b60006134f5601683613acf565b91506135008261430d565b602082019050919050565b6000613518602a83613acf565b915061352382614336565b604082019050919050565b600061353b602583613acf565b915061354682614385565b604082019050919050565b600061355e601f83613acf565b9150613569826143d4565b602082019050919050565b60006040830160008301518482036000860152613591828261311a565b915050602083015184820360208601526135ab828261311a565b9150508091505092915050565b6135c181613c33565b82525050565b6135d081613c33565b82525050565b6135df81613c3d565b82525050565b60006135f182846131e5565b915081905092915050565b6000602082019050613611600083018461310b565b92915050565b600060608201905061362c600083018661310b565b613639602083018561310b565b61364660408301846135c7565b949350505050565b6000604082019050613663600083018561310b565b61367060208301846135c7565b9392505050565b600060208201905081810360008301526136918184613178565b905092915050565b60006020820190506136ae60008301846131d6565b92915050565b600060208201905081810360008301526136ce8184613216565b905092915050565b600060208201905081810360008301526136ef8161324f565b9050919050565b6000602082019050818103600083015261370f81613272565b9050919050565b6000602082019050818103600083015261372f81613295565b9050919050565b6000602082019050818103600083015261374f816132b8565b9050919050565b6000602082019050818103600083015261376f816132db565b9050919050565b6000602082019050818103600083015261378f816132fe565b9050919050565b600060208201905081810360008301526137af81613321565b9050919050565b600060208201905081810360008301526137cf81613344565b9050919050565b600060208201905081810360008301526137ef81613367565b9050919050565b6000602082019050818103600083015261380f8161338a565b9050919050565b6000602082019050818103600083015261382f816133ad565b9050919050565b6000602082019050818103600083015261384f816133d0565b9050919050565b6000602082019050818103600083015261386f816133f3565b9050919050565b6000602082019050818103600083015261388f81613416565b9050919050565b600060208201905081810360008301526138af81613439565b9050919050565b600060208201905081810360008301526138cf8161345c565b9050919050565b600060208201905081810360008301526138ef8161347f565b9050919050565b6000602082019050818103600083015261390f816134a2565b9050919050565b6000602082019050818103600083015261392f816134c5565b9050919050565b6000602082019050818103600083015261394f816134e8565b9050919050565b6000602082019050818103600083015261396f8161350b565b9050919050565b6000602082019050818103600083015261398f8161352e565b9050919050565b600060208201905081810360008301526139af81613551565b9050919050565b600060208201905081810360008301526139d08184613574565b905092915050565b60006020820190506139ed60008301846135c7565b92915050565b6000602082019050613a0860008301846135d6565b92915050565b6000613a18613a29565b9050613a248282613ce8565b919050565b6000604051905090565b600067ffffffffffffffff821115613a4e57613a4d613e20565b5b613a5782613e4f565b9050602081019050919050565b6000819050602082019050919050565b600081519050919050565b600081519050919050565b600081519050919050565b6000602082019050919050565b600082825260208201905092915050565b600082825260208201905092915050565b600081905092915050565b600082825260208201905092915050565b6000613aeb82613c33565b9150613af683613c33565b9250827fffffffffffffffffffffffffffffffffffffffffffffffffffffffffffffffff03821115613b2b57613b2a613d93565b5b828201905092915050565b6000613b4182613c33565b9150613b4c83613c33565b925082613b5c57613b5b613dc2565b5b828204905092915050565b6000613b7282613c33565b9150613b7d83613c33565b9250817fffffffffffffffffffffffffffffffffffffffffffffffffffffffffffffffff0483118215151615613bb657613bb5613d93565b5b828202905092915050565b6000613bcc82613c33565b9150613bd783613c33565b925082821015613bea57613be9613d93565b5b828203905092915050565b6000613c0082613c13565b9050919050565b60008115159050919050565b600073ffffffffffffffffffffffffffffffffffffffff82169050919050565b6000819050919050565b600060ff82169050919050565b82818337600083830152505050565b60005b83811015613c77578082015181840152602081019050613c5c565b83811115613c86576000848401525b50505050565b6000613c9782613c33565b91506000821415613cab57613caa613d93565b5b600182039050919050565b60006002820490506001821680613cce57607f821691505b60208210811415613ce257613ce1613df1565b5b50919050565b613cf182613e4f565b810181811067ffffffffffffffff82111715613d1057613d0f613e20565b5b80604052505050565b6000613d2482613c33565b91507fffffffffffffffffffffffffffffffffffffffffffffffffffffffffffffffff821415613d5757613d56613d93565b5b600182019050919050565b6000613d6d82613c33565b9150613d7883613c33565b925082613d8857613d87613dc2565b5b828206905092915050565b7f4e487b7100000000000000000000000000000000000000000000000000000000600052601160045260246000fd5b7f4e487b7100000000000000000000000000000000000000000000000000000000600052601260045260246000fd5b7f4e487b7100000000000000000000000000000000000000000000000000000000600052602260045260246000fd5b7f4e487b7100000000000000000000000000000000000000000000000000000000600052604160045260246000fd5b6000601f19601f8301169050919050565b7f4552433230536e617073686f743a206e6f6e6578697374656e74206964000000600082015250565b7f45524332303a207472616e7366657220746f20746865207a65726f206164647260008201527f6573730000000000000000000000000000000000000000000000000000000000602082015250565b7f5061757361626c653a206e6f7420706175736564000000000000000000000000600082015250565b7f45524332303a206275726e20616d6f756e7420657863656564732062616c616e60008201527f6365000000000000000000000000000000000000000000000000000000000000602082015250565b7f4d696e696e67333a20616c6c20736e617073686f74732066696e616c697a6564600082015250565b7f4f776e61626c653a206e6577206f776e657220697320746865207a65726f206160008201527f6464726573730000000000000000000000000000000000000000000000000000602082015250565b7f45524332303a20617070726f766520746f20746865207a65726f20616464726560008201527f7373000000000000000000000000000000000000000000000000000000000000602082015250565b7f45524332303a20696e73756666696369656e7420616c6c6f77616e6365000000600082015250565b7f45524332303a207472616e7366657220616d6f756e742065786365656473206260008201527f616c616e63650000000000000000000000000000000000000000000000000000602082015250565b7f416464726573733a20696e73756666696369656e742062616c616e636520666f60008201527f722063616c6c0000000000000000000000000000000000000000000000000000602082015250565b7f5061757361626c653a2070617573656400000000000000000000000000000000600082015250565b7f496e697469616c697a61626c653a20636f6e747261637420697320616c72656160008201527f647920696e697469616c697a6564000000000000000000000000000000000000602082015250565b7f4f776e61626c653a2063616c6c6572206973206e6f7420746865206f776e6572600082015250565b7f45524332303a206275726e2066726f6d20746865207a65726f2061646472657360008201527f7300000000000000000000000000000000000000000000000000000000000000602082015250565b7f45524332303a207472616e736665722066726f6d20746865207a65726f20616460008201527f6472657373000000000000000000000000000000000000000000000000000000602082015250565b7f4d696e696e67333a20616c726561647920776974686472617765640000000000600082015250565b7f45524332303a20617070726f76652066726f6d20746865207a65726f2061646460008201527f7265737300000000000000000000000000000000000000000000000000000000602082015250565b7f416464726573733a2063616c6c20746f206e6f6e2d636f6e7472616374000000600082015250565b7f496e697469616c697a61626c653a20636f6e7472616374206973206e6f74206960008201527f6e697469616c697a696e67000000000000000000000000000000000000000000602082015250565b7f4552433230536e617073686f743a206964206973203000000000000000000000600082015250565b7f5361666545524332303a204552433230206f7065726174696f6e20646964206e60008201527f6f74207375636365656400000000000000000000000000000000000000000000602082015250565b7f45524332303a2064656372656173656420616c6c6f77616e63652062656c6f7760008201527f207a65726f000000000000000000000000000000000000000000000000000000602082015250565b7f45524332303a206d696e7420746f20746865207a65726f206164647265737300600082015250565b61440681613bf5565b811461441157600080fd5b50565b61441d81613c07565b811461442857600080fd5b50565b61443481613c33565b811461443f57600080fd5b5056fea26469706673582212205f4dbfac3bf0937a722979ae993e45afcc613c6df3ce77d53923cdea1e974f2064736f6c63430008040033",
  "devdoc": {
    "kind": "dev",
    "methods": {
      "allowance(address,address)": {
        "details": "See {IERC20-allowance}."
      },
      "approve(address,uint256)": {
        "details": "See {IERC20-approve}. NOTE: If `amount` is the maximum `uint256`, the allowance is not updated on `transferFrom`. This is semantically equivalent to an infinite approval. Requirements: - `spender` cannot be the zero address."
      },
      "balanceOf(address)": {
        "details": "See {IERC20-balanceOf}."
      },
      "decimals()": {
        "details": "Returns the number of decimals used to get its user representation. For example, if `decimals` equals `2`, a balance of `505` tokens should be displayed to a user as `5.05` (`505 / 10 ** 2`). Tokens usually opt for a value of 18, imitating the relationship between Ether and Wei. This is the value {ERC20} uses, unless this function is overridden; NOTE: This information is only used for _display_ purposes: it in no way affects any of the arithmetic of the contract, including {IERC20-balanceOf} and {IERC20-transfer}."
      },
      "decreaseAllowance(address,uint256)": {
        "details": "Atomically decreases the allowance granted to `spender` by the caller. This is an alternative to {approve} that can be used as a mitigation for problems described in {IERC20-approve}. Emits an {Approval} event indicating the updated allowance. Requirements: - `spender` cannot be the zero address. - `spender` must have allowance for the caller of at least `subtractedValue`."
      },
      "increaseAllowance(address,uint256)": {
        "details": "Atomically increases the allowance granted to `spender` by the caller. This is an alternative to {approve} that can be used as a mitigation for problems described in {IERC20-approve}. Emits an {Approval} event indicating the updated allowance. Requirements: - `spender` cannot be the zero address."
      },
      "name()": {
        "details": "Returns the name of the token."
      },
      "owner()": {
        "details": "Returns the address of the current owner."
      },
      "paused()": {
        "details": "Returns true if the contract is paused, and false otherwise."
      },
      "renounceOwnership()": {
        "details": "Leaves the contract without owner. It will not be possible to call `onlyOwner` functions anymore. Can only be called by the current owner. NOTE: Renouncing ownership will leave the contract without an owner, thereby removing any functionality that is only available to the owner."
      },
      "symbol()": {
        "details": "Returns the symbol of the token, usually a shorter version of the name."
      },
      "totalSupply()": {
        "details": "See {IERC20-totalSupply}."
      },
      "transfer(address,uint256)": {
        "details": "See {IERC20-transfer}. Requirements: - `to` cannot be the zero address. - the caller must have a balance of at least `amount`."
      },
      "transferFrom(address,address,uint256)": {
        "details": "See {IERC20-transferFrom}. Emits an {Approval} event indicating the updated allowance. This is not required by the EIP. See the note at the beginning of {ERC20}. NOTE: Does not update the allowance if the current allowance is the maximum `uint256`. Requirements: - `from` and `to` cannot be the zero address. - `from` must have a balance of at least `amount`. - the caller must have allowance for ``from``'s tokens of at least `amount`."
      },
      "transferOwnership(address)": {
        "details": "Transfers ownership of the contract to a new account (`newOwner`). Can only be called by the current owner."
      }
    },
    "version": 1
  },
  "userdoc": {
    "kind": "user",
    "methods": {},
    "version": 1
  },
  "storageLayout": {
    "storage": [
      {
        "astId": 130,
        "contract": "contracts/Mining3.sol:Mining3",
        "label": "_initialized",
        "offset": 0,
        "slot": "0",
        "type": "t_bool"
      },
      {
        "astId": 133,
        "contract": "contracts/Mining3.sol:Mining3",
        "label": "_initializing",
        "offset": 1,
        "slot": "0",
        "type": "t_bool"
      },
      {
        "astId": 1308,
        "contract": "contracts/Mining3.sol:Mining3",
        "label": "__gap",
        "offset": 0,
        "slot": "1",
        "type": "t_array(t_uint256)50_storage"
      },
      {
        "astId": 327,
        "contract": "contracts/Mining3.sol:Mining3",
        "label": "_balances",
        "offset": 0,
        "slot": "51",
        "type": "t_mapping(t_address,t_uint256)"
      },
      {
        "astId": 333,
        "contract": "contracts/Mining3.sol:Mining3",
        "label": "_allowances",
        "offset": 0,
        "slot": "52",
        "type": "t_mapping(t_address,t_mapping(t_address,t_uint256))"
      },
      {
        "astId": 335,
        "contract": "contracts/Mining3.sol:Mining3",
        "label": "_totalSupply",
        "offset": 0,
        "slot": "53",
        "type": "t_uint256"
      },
      {
        "astId": 337,
        "contract": "contracts/Mining3.sol:Mining3",
        "label": "_name",
        "offset": 0,
        "slot": "54",
        "type": "t_string_storage"
      },
      {
        "astId": 339,
        "contract": "contracts/Mining3.sol:Mining3",
        "label": "_symbol",
        "offset": 0,
        "slot": "55",
        "type": "t_string_storage"
      },
      {
        "astId": 920,
        "contract": "contracts/Mining3.sol:Mining3",
        "label": "__gap",
        "offset": 0,
        "slot": "56",
        "type": "t_array(t_uint256)45_storage"
      },
      {
        "astId": 10,
        "contract": "contracts/Mining3.sol:Mining3",
        "label": "_owner",
        "offset": 0,
        "slot": "101",
        "type": "t_address"
      },
      {
        "astId": 122,
        "contract": "contracts/Mining3.sol:Mining3",
        "label": "__gap",
        "offset": 0,
        "slot": "102",
        "type": "t_array(t_uint256)49_storage"
      },
      {
        "astId": 218,
        "contract": "contracts/Mining3.sol:Mining3",
        "label": "_paused",
        "offset": 0,
        "slot": "151",
        "type": "t_bool"
      },
      {
        "astId": 307,
        "contract": "contracts/Mining3.sol:Mining3",
        "label": "__gap",
        "offset": 0,
        "slot": "152",
        "type": "t_array(t_uint256)49_storage"
      },
      {
        "astId": 2115,
        "contract": "contracts/Mining3.sol:Mining3",
        "label": "_earningToken",
        "offset": 0,
        "slot": "201",
        "type": "t_address"
      },
      {
        "astId": 2117,
        "contract": "contracts/Mining3.sol:Mining3",
        "label": "_finalized",
        "offset": 0,
        "slot": "202",
        "type": "t_uint256"
      },
      {
        "astId": 2122,
        "contract": "contracts/Mining3.sol:Mining3",
        "label": "_withdrawal",
        "offset": 0,
        "slot": "203",
        "type": "t_mapping(t_address,t_struct(Withdrawal)2113_storage)"
      },
      {
        "astId": 2126,
        "contract": "contracts/Mining3.sol:Mining3",
        "label": "_earningSum",
        "offset": 0,
        "slot": "204",
        "type": "t_mapping(t_uint256,t_uint256)"
      },
      {
        "astId": 2138,
        "contract": "contracts/Mining3.sol:Mining3",
        "label": "_accountBalanceSnapshots",
        "offset": 0,
        "slot": "205",
        "type": "t_mapping(t_address,t_struct(Snapshots)2133_storage)"
      },
      {
        "astId": 2141,
        "contract": "contracts/Mining3.sol:Mining3",
        "label": "_totalSupplySnapshots",
        "offset": 0,
        "slot": "206",
        "type": "t_struct(Snapshots)2133_storage"
      }
    ],
    "types": {
      "t_address": {
        "encoding": "inplace",
        "label": "address",
        "numberOfBytes": "20"
      },
      "t_array(t_uint256)45_storage": {
        "base": "t_uint256",
        "encoding": "inplace",
        "label": "uint256[45]",
        "numberOfBytes": "1440"
      },
      "t_array(t_uint256)49_storage": {
        "base": "t_uint256",
        "encoding": "inplace",
        "label": "uint256[49]",
        "numberOfBytes": "1568"
      },
      "t_array(t_uint256)50_storage": {
        "base": "t_uint256",
        "encoding": "inplace",
        "label": "uint256[50]",
        "numberOfBytes": "1600"
      },
      "t_array(t_uint256)dyn_storage": {
        "base": "t_uint256",
        "encoding": "dynamic_array",
        "label": "uint256[]",
        "numberOfBytes": "32"
      },
      "t_bool": {
        "encoding": "inplace",
        "label": "bool",
        "numberOfBytes": "1"
      },
      "t_mapping(t_address,t_mapping(t_address,t_uint256))": {
        "encoding": "mapping",
        "key": "t_address",
        "label": "mapping(address => mapping(address => uint256))",
        "numberOfBytes": "32",
        "value": "t_mapping(t_address,t_uint256)"
      },
      "t_mapping(t_address,t_struct(Snapshots)2133_storage)": {
        "encoding": "mapping",
        "key": "t_address",
        "label": "mapping(address => struct Mining3.Snapshots)",
        "numberOfBytes": "32",
        "value": "t_struct(Snapshots)2133_storage"
      },
      "t_mapping(t_address,t_struct(Withdrawal)2113_storage)": {
        "encoding": "mapping",
        "key": "t_address",
        "label": "mapping(address => struct Mining3.Withdrawal)",
        "numberOfBytes": "32",
        "value": "t_struct(Withdrawal)2113_storage"
      },
      "t_mapping(t_address,t_uint256)": {
        "encoding": "mapping",
        "key": "t_address",
        "label": "mapping(address => uint256)",
        "numberOfBytes": "32",
        "value": "t_uint256"
      },
      "t_mapping(t_uint256,t_uint256)": {
        "encoding": "mapping",
        "key": "t_uint256",
        "label": "mapping(uint256 => uint256)",
        "numberOfBytes": "32",
        "value": "t_uint256"
      },
      "t_string_storage": {
        "encoding": "bytes",
        "label": "string",
        "numberOfBytes": "32"
      },
      "t_struct(Snapshots)2133_storage": {
        "encoding": "inplace",
        "label": "struct Mining3.Snapshots",
        "members": [
          {
            "astId": 2129,
            "contract": "contracts/Mining3.sol:Mining3",
            "label": "ids",
            "offset": 0,
            "slot": "0",
            "type": "t_array(t_uint256)dyn_storage"
          },
          {
            "astId": 2132,
            "contract": "contracts/Mining3.sol:Mining3",
            "label": "values",
            "offset": 0,
            "slot": "1",
            "type": "t_array(t_uint256)dyn_storage"
          }
        ],
        "numberOfBytes": "64"
      },
      "t_struct(Withdrawal)2113_storage": {
        "encoding": "inplace",
        "label": "struct Mining3.Withdrawal",
        "members": [
          {
            "astId": 2110,
            "contract": "contracts/Mining3.sol:Mining3",
            "label": "snapshotId",
            "offset": 0,
            "slot": "0",
            "type": "t_uint256"
          },
          {
            "astId": 2112,
            "contract": "contracts/Mining3.sol:Mining3",
            "label": "index",
            "offset": 0,
            "slot": "1",
            "type": "t_uint256"
          }
        ],
        "numberOfBytes": "64"
      },
      "t_uint256": {
        "encoding": "inplace",
        "label": "uint256",
        "numberOfBytes": "32"
      }
    }
  }
}