{
  "address": "0x0C8196d859A6a2ae9825aD6741323105d50344f3",
  "abi": [
    {
      "anonymous": false,
      "inputs": [
        {
          "indexed": true,
          "internalType": "address",
          "name": "owner",
          "type": "address"
        },
        {
          "indexed": true,
          "internalType": "address",
          "name": "spender",
          "type": "address"
        },
        {
          "indexed": false,
          "internalType": "uint256",
          "name": "value",
          "type": "uint256"
        }
      ],
      "name": "Approval",
      "type": "event"
    },
    {
      "anonymous": false,
      "inputs": [
        {
          "indexed": true,
          "internalType": "address",
          "name": "previousOwner",
          "type": "address"
        },
        {
          "indexed": true,
          "internalType": "address",
          "name": "newOwner",
          "type": "address"
        }
      ],
      "name": "OwnershipTransferred",
      "type": "event"
    },
    {
      "anonymous": false,
      "inputs": [
        {
          "indexed": false,
          "internalType": "address",
          "name": "account",
          "type": "address"
        }
      ],
      "name": "Paused",
      "type": "event"
    },
    {
      "anonymous": false,
      "inputs": [
        {
          "indexed": true,
          "internalType": "address",
          "name": "from",
          "type": "address"
        },
        {
          "indexed": true,
          "internalType": "address",
          "name": "to",
          "type": "address"
        },
        {
          "indexed": false,
          "internalType": "uint256",
          "name": "value",
          "type": "uint256"
        }
      ],
      "name": "Transfer",
      "type": "event"
    },
    {
      "anonymous": false,
      "inputs": [
        {
          "indexed": false,
          "internalType": "address",
          "name": "account",
          "type": "address"
        }
      ],
      "name": "Unpaused",
      "type": "event"
    },
    {
      "inputs": [
        {
          "internalType": "address",
          "name": "owner",
          "type": "address"
        },
        {
          "internalType": "address",
          "name": "spender",
          "type": "address"
        }
      ],
      "name": "allowance",
      "outputs": [
        {
          "internalType": "uint256",
          "name": "",
          "type": "uint256"
        }
      ],
      "stateMutability": "view",
      "type": "function"
    },
    {
      "inputs": [
        {
          "internalType": "address",
          "name": "spender",
          "type": "address"
        },
        {
          "internalType": "uint256",
          "name": "amount",
          "type": "uint256"
        }
      ],
      "name": "approve",
      "outputs": [
        {
          "internalType": "bool",
          "name": "",
          "type": "bool"
        }
      ],
      "stateMutability": "nonpayable",
      "type": "function"
    },
    {
      "inputs": [
        {
          "internalType": "address",
          "name": "account",
          "type": "address"
        }
      ],
      "name": "balanceOf",
      "outputs": [
        {
          "internalType": "uint256",
          "name": "",
          "type": "uint256"
        }
      ],
      "stateMutability": "view",
      "type": "function"
    },
    {
      "inputs": [
        {
          "internalType": "address",
          "name": "account",
          "type": "address"
        },
        {
          "internalType": "uint256",
          "name": "snapshotId",
          "type": "uint256"
        }
      ],
      "name": "balanceOfAt",
      "outputs": [
        {
          "internalType": "uint256",
          "name": "",
          "type": "uint256"
        }
      ],
      "stateMutability": "view",
      "type": "function"
    },
    {
      "inputs": [
        {
          "internalType": "address",
          "name": "account",
          "type": "address"
        }
      ],
      "name": "balanceSnapshots",
      "outputs": [
        {
          "components": [
            {
              "internalType": "uint256[]",
              "name": "ids",
              "type": "uint256[]"
            },
            {
              "internalType": "uint256[]",
              "name": "values",
              "type": "uint256[]"
            }
          ],
          "internalType": "struct Mining3.Snapshots",
          "name": "snapshots",
          "type": "tuple"
        }
      ],
      "stateMutability": "view",
      "type": "function"
    },
    {
      "inputs": [
        {
          "internalType": "uint256[]",
          "name": "snapshotIds",
          "type": "uint256[]"
        }
      ],
      "name": "batchEarningSum",
      "outputs": [
        {
          "internalType": "uint256[]",
          "name": "",
          "type": "uint256[]"
        }
      ],
      "stateMutability": "view",
      "type": "function"
    },
    {
      "inputs": [
        {
          "internalType": "uint256",
          "name": "amount",
          "type": "uint256"
        }
      ],
      "name": "burn",
      "outputs": [],
      "stateMutability": "nonpayable",
      "type": "function"
    },
    {
      "inputs": [],
      "name": "decimals",
      "outputs": [
        {
          "internalType": "uint8",
          "name": "",
          "type": "uint8"
        }
      ],
      "stateMutability": "view",
      "type": "function"
    },
    {
      "inputs": [
        {
          "internalType": "address",
          "name": "spender",
          "type": "address"
        },
        {
          "internalType": "uint256",
          "name": "subtractedValue",
          "type": "uint256"
        }
      ],
      "name": "decreaseAllowance",
      "outputs": [
        {
          "internalType": "bool",
          "name": "",
          "type": "bool"
        }
      ],
      "stateMutability": "nonpayable",
      "type": "function"
    },
    {
      "inputs": [],
      "name": "earningToken",
      "outputs": [
        {
          "internalType": "address",
          "name": "",
          "type": "address"
        }
      ],
      "stateMutability": "view",
      "type": "function"
    },
    {
      "inputs": [
        {
          "internalType": "uint256",
          "name": "earningPerToken",
          "type": "uint256"
        }
      ],
      "name": "finalize",
      "outputs": [],
      "stateMutability": "nonpayable",
      "type": "function"
    },
    {
      "inputs": [],
      "name": "getUnwithdrawnEarnings",
      "outputs": [
        {
          "internalType": "uint256",
          "name": "",
          "type": "uint256"
        }
      ],
      "stateMutability": "view",
      "type": "function"
    },
    {
      "inputs": [
        {
          "internalType": "address",
          "name": "spender",
          "type": "address"
        },
        {
          "internalType": "uint256",
          "name": "addedValue",
          "type": "uint256"
        }
      ],
      "name": "increaseAllowance",
      "outputs": [
        {
          "internalType": "bool",
          "name": "",
          "type": "bool"
        }
      ],
      "stateMutability": "nonpayable",
      "type": "function"
    },
    {
      "inputs": [
        {
          "internalType": "string",
          "name": "name",
          "type": "string"
        },
        {
          "internalType": "string",
          "name": "symbol",
          "type": "string"
        },
        {
          "internalType": "address",
          "name": "earningTokenToSet",
          "type": "address"
        },
        {
          "internalType": "uint256",
          "name": "startSnapshotId",
          "type": "uint256"
        }
      ],
      "name": "initialize",
      "outputs": [],
      "stateMutability": "nonpayable",
      "type": "function"
    },
    {
      "inputs": [],
      "name": "lastFinalizedAt",
      "outputs": [
        {
          "internalType": "uint256",
          "name": "",
          "type": "uint256"
        }
      ],
      "stateMutability": "view",
      "type": "function"
    },
    {
      "inputs": [
        {
          "internalType": "address",
          "name": "account",
          "type": "address"
        }
      ],
      "name": "lastWithdrawAt",
      "outputs": [
        {
          "internalType": "uint256",
          "name": "",
          "type": "uint256"
        }
      ],
      "stateMutability": "view",
      "type": "function"
    },
    {
      "inputs": [
        {
          "internalType": "address",
          "name": "to",
          "type": "address"
        },
        {
          "internalType": "uint256",
          "name": "amount",
          "type": "uint256"
        }
      ],
      "name": "mint",
      "outputs": [],
      "stateMutability": "nonpayable",
      "type": "function"
    },
    {
      "inputs": [],
      "name": "name",
      "outputs": [
        {
          "internalType": "string",
          "name": "",
          "type": "string"
        }
      ],
      "stateMutability": "view",
      "type": "function"
    },
    {
      "inputs": [],
      "name": "owner",
      "outputs": [
        {
          "internalType": "address",
          "name": "",
          "type": "address"
        }
      ],
      "stateMutability": "view",
      "type": "function"
    },
    {
      "inputs": [],
      "name": "pause",
      "outputs": [],
      "stateMutability": "nonpayable",
      "type": "function"
    },
    {
      "inputs": [],
      "name": "paused",
      "outputs": [
        {
          "internalType": "bool",
          "name": "",
          "type": "bool"
        }
      ],
      "stateMutability": "view",
      "type": "function"
    },
    {
      "inputs": [],
      "name": "renounceOwnership",
      "outputs": [],
      "stateMutability": "nonpayable",
      "type": "function"
    },
    {
      "inputs": [],
      "name": "symbol",
      "outputs": [
        {
          "internalType": "string",
          "name": "",
          "type": "string"
        }
      ],
      "stateMutability": "view",
      "type": "function"
    },
    {
      "inputs": [],
      "name": "totalSupply",
      "outputs": [
        {
          "internalType": "uint256",
          "name": "",
          "type": "uint256"
        }
      ],
      "stateMutability": "view",
      "type": "function"
    },
    {
      "inputs": [
        {
          "internalType": "uint256",
          "name": "snapshotId",
          "type": "uint256"
        }
      ],
      "name": "totalSupplyAt",
      "outputs": [
        {
          "internalType": "uint256",
          "name": "",
          "type": "uint256"
        }
      ],
      "stateMutability": "view",
      "type": "function"
    },
    {
      "inputs": [
        {
          "internalType": "address",
          "name": "to",
          "type": "address"
        },
        {
          "internalType": "uint256",
          "name": "amount",
          "type": "uint256"
        }
      ],
      "name": "transfer",
      "outputs": [
        {
          "internalType": "bool",
          "name": "",
          "type": "bool"
        }
      ],
      "stateMutability": "nonpayable",
      "type": "function"
    },
    {
      "inputs": [
        {
          "internalType": "address",
          "name": "from",
          "type": "address"
        },
        {
          "internalType": "address",
          "name": "to",
          "type": "address"
        },
        {
          "internalType": "uint256",
          "name": "amount",
          "type": "uint256"
        }
      ],
      "name": "transferFrom",
      "outputs": [
        {
          "internalType": "bool",
          "name": "",
          "type": "bool"
        }
      ],
      "stateMutability": "nonpayable",
      "type": "function"
    },
    {
      "inputs": [
        {
          "internalType": "address",
          "name": "newOwner",
          "type": "address"
        }
      ],
      "name": "transferOwnership",
      "outputs": [],
      "stateMutability": "nonpayable",
      "type": "function"
    },
    {
      "inputs": [],
      "name": "unpause",
      "outputs": [],
      "stateMutability": "nonpayable",
      "type": "function"
    },
    {
      "inputs": [],
      "name": "withdraw",
      "outputs": [],
      "stateMutability": "nonpayable",
      "type": "function"
    }
  ],
  "transactionHash": "0x35387af56904176d076858ef132882318f2022a6a2dd3fa79a190533e2c2092d",
  "args": [],
  "numDeployments": 11,
  "solcInputHash": "5c732166c5f91a2da3089442e603c227",
  "bytecode": "0x608060405234801561001057600080fd5b5061456d806100206000396000f3fe608060405234801561001057600080fd5b50600436106101da5760003560e01c806370a0823111610104578063a457c2d7116100a2578063e263f59d11610071578063e263f59d1461055b578063f2fde38b14610579578063f542033f14610595578063fb66cbc5146105b1576101da565b8063a457c2d7146104ad578063a9059cbb146104dd578063bb72a4861461050d578063dd62ed3e1461052b576101da565b80638456cb59116100de5780638456cb59146104375780638da5cb5b1461044157806395d89b411461045f578063981b24d01461047d576101da565b806370a08231146103df578063715018a61461040f5780637fe205c714610419576101da565b80633ccfd60b1161017c5780634ee2cd7e1161014b5780634ee2cd7e146103315780635c975abb14610361578063649bf8681461037f57806366acfb63146103af576101da565b80633ccfd60b146102e55780633f4ba83a146102ef57806340c10f19146102f957806342966c6814610315576101da565b806318160ddd116101b857806318160ddd1461024957806323b872dd14610267578063313ce5671461029757806339509351146102b5576101da565b806305261aea146101df57806306fdde03146101fb578063095ea7b314610219575b600080fd5b6101f960048036038101906101f491906131bf565b6105e1565b005b6102036108dc565b60405161021091906137a9565b60405180910390f35b610233600480360381019061022e9190613082565b61096e565b604051610240919061378e565b60405180910390f35b610251610991565b60405161025e9190613acd565b60405180910390f35b610281600480360381019061027c9190613033565b61099b565b60405161028e919061378e565b60405180910390f35b61029f6109ca565b6040516102ac9190613ae8565b60405180910390f35b6102cf60048036038101906102ca9190613082565b6109d3565b6040516102dc919061378e565b60405180910390f35b6102ed610a7d565b005b6102f7610b7c565b005b610313600480360381019061030e9190613082565b610c02565b005b61032f600480360381019061032a91906131bf565b610c8c565b005b61034b60048036038101906103469190613082565b610d15565b6040516103589190613acd565b60405180910390f35b610369610d85565b604051610376919061378e565b60405180910390f35b61039960048036038101906103949190612fce565b610d9c565b6040516103a69190613acd565b60405180910390f35b6103c960048036038101906103c49190612fce565b610de8565b6040516103d69190613aab565b60405180910390f35b6103f960048036038101906103f49190612fce565b610ef1565b6040516104069190613acd565b60405180910390f35b610417610f3a565b005b610421610fc2565b60405161042e91906136f1565b60405180910390f35b61043f610fec565b005b610449611072565b60405161045691906136f1565b60405180910390f35b61046761109c565b60405161047491906137a9565b60405180910390f35b610497600480360381019061049291906131bf565b61112e565b6040516104a49190613acd565b60405180910390f35b6104c760048036038101906104c29190613082565b61115f565b6040516104d4919061378e565b60405180910390f35b6104f760048036038101906104f29190613082565b611249565b604051610504919061378e565b60405180910390f35b61051561126c565b6040516105229190613acd565b60405180910390f35b61054560048036038101906105409190612ff7565b611281565b6040516105529190613acd565b60405180910390f35b610563611308565b6040516105709190613acd565b60405180910390f35b610593600480360381019061058e9190612fce565b611312565b005b6105af60048036038101906105aa919061312c565b61140a565b005b6105cb60048036038101906105c691906130be565b611554565b6040516105d8919061376c565b60405180910390f35b6105e9611690565b73ffffffffffffffffffffffffffffffffffffffff16610607611072565b73ffffffffffffffffffffffffffffffffffffffff161461065d576040517f08c379a00000000000000000000000000000000000000000000000000000000081526004016106549061394b565b60405180910390fd5b60006201518060ca546106709190613bd5565b9050600061067c611698565b9050808211156106c1576040517f08c379a00000000000000000000000000000000000000000000000000000000081526004016106b89061384b565b60405180910390fd5b8260cc600062015180856106d59190613cb6565b8152602001908152602001600020546106ee9190613bd5565b60cc6000848152602001908152602001600020819055508160ca8190555060008060ce600001805490509050600081148061077b57508360ce6000016001836107379190613cb6565b8154811061076e577f4e487b7100000000000000000000000000000000000000000000000000000000600052603260045260246000fd5b9060005260206000200154105b1561078f57610788610991565b9150610868565b600060018261079e9190613cb6565b90505b60008111801561080457508460ce6000016001836107bf9190613cb6565b815481106107f6577f4e487b7100000000000000000000000000000000000000000000000000000000600052603260045260246000fd5b906000526020600020015410155b1561081c57808061081490613d81565b9150506107a1565b60ce6001018181548110610859577f4e487b7100000000000000000000000000000000000000000000000000000000600052603260045260246000fd5b90600052602060002001549250505b6108d53330670de0b6b3a764000085896108829190613c5c565b61088c9190613c2b565b60c960009054906101000a900473ffffffffffffffffffffffffffffffffffffffff1673ffffffffffffffffffffffffffffffffffffffff166116b9909392919063ffffffff16565b5050505050565b6060603680546108eb90613dab565b80601f016020809104026020016040519081016040528092919081815260200182805461091790613dab565b80156109645780601f1061093957610100808354040283529160200191610964565b820191906000526020600020905b81548152906001019060200180831161094757829003601f168201915b5050505050905090565b600080610979611690565b9050610986818585611742565b600191505092915050565b6000603554905090565b6000806109a6611690565b90506109b385828561190d565b6109be858585611999565b60019150509392505050565b60006012905090565b6000806109de611690565b9050610a72818585603460008673ffffffffffffffffffffffffffffffffffffffff1673ffffffffffffffffffffffffffffffffffffffff16815260200190815260200160002060008973ffffffffffffffffffffffffffffffffffffffff1673ffffffffffffffffffffffffffffffffffffffff16815260200190815260200160002054610a6d9190613bd5565b611742565b600191505092915050565b610a85610d85565b15610ac5576040517f08c379a0000000000000000000000000000000000000000000000000000000008152600401610abc9061390b565b60405180910390fd5b600080610ad0611c1d565b915091508060cb60003373ffffffffffffffffffffffffffffffffffffffff1673ffffffffffffffffffffffffffffffffffffffff1681526020019081526020016000206000820151816000015560208201518160010155905050610b78338360c960009054906101000a900473ffffffffffffffffffffffffffffffffffffffff1673ffffffffffffffffffffffffffffffffffffffff16611e459092919063ffffffff16565b5050565b610b84611690565b73ffffffffffffffffffffffffffffffffffffffff16610ba2611072565b73ffffffffffffffffffffffffffffffffffffffff1614610bf8576040517f08c379a0000000000000000000000000000000000000000000000000000000008152600401610bef9061394b565b60405180910390fd5b610c00611ecb565b565b610c0a611690565b73ffffffffffffffffffffffffffffffffffffffff16610c28611072565b73ffffffffffffffffffffffffffffffffffffffff1614610c7e576040517f08c379a0000000000000000000000000000000000000000000000000000000008152600401610c759061394b565b60405180910390fd5b610c888282611f6d565b5050565b610c94611690565b73ffffffffffffffffffffffffffffffffffffffff16610cb2611072565b73ffffffffffffffffffffffffffffffffffffffff1614610d08576040517f08c379a0000000000000000000000000000000000000000000000000000000008152600401610cff9061394b565b60405180910390fd5b610d1233826120ce565b50565b6000806000610d628460cd60008873ffffffffffffffffffffffffffffffffffffffff1673ffffffffffffffffffffffffffffffffffffffff1681526020019081526020016000206122a7565b9150915081610d7957610d7485610ef1565b610d7b565b805b9250505092915050565b6000609760009054906101000a900460ff16905090565b600060cb60008373ffffffffffffffffffffffffffffffffffffffff1673ffffffffffffffffffffffffffffffffffffffff168152602001908152602001600020600001549050919050565b610df0612e06565b60cd60008373ffffffffffffffffffffffffffffffffffffffff1673ffffffffffffffffffffffffffffffffffffffff16815260200190815260200160002060405180604001604052908160008201805480602002602001604051908101604052809291908181526020018280548015610e8957602002820191906000526020600020905b815481526020019060010190808311610e75575b5050505050815260200160018201805480602002602001604051908101604052809291908181526020018280548015610ee157602002820191906000526020600020905b815481526020019060010190808311610ecd575b5050505050815250509050919050565b6000603360008373ffffffffffffffffffffffffffffffffffffffff1673ffffffffffffffffffffffffffffffffffffffff168152602001908152602001600020549050919050565b610f42611690565b73ffffffffffffffffffffffffffffffffffffffff16610f60611072565b73ffffffffffffffffffffffffffffffffffffffff1614610fb6576040517f08c379a0000000000000000000000000000000000000000000000000000000008152600401610fad9061394b565b60405180910390fd5b610fc060006123c3565b565b600060c960009054906101000a900473ffffffffffffffffffffffffffffffffffffffff16905090565b610ff4611690565b73ffffffffffffffffffffffffffffffffffffffff16611012611072565b73ffffffffffffffffffffffffffffffffffffffff1614611068576040517f08c379a000000000000000000000000000000000000000000000000000000000815260040161105f9061394b565b60405180910390fd5b611070612489565b565b6000606560009054906101000a900473ffffffffffffffffffffffffffffffffffffffff16905090565b6060603780546110ab90613dab565b80601f01602080910402602001604051908101604052809291908181526020018280546110d790613dab565b80156111245780601f106110f957610100808354040283529160200191611124565b820191906000526020600020905b81548152906001019060200180831161110757829003601f168201915b5050505050905090565b600080600061113e8460ce6122a7565b91509150816111545761114f610991565b611156565b805b92505050919050565b60008061116a611690565b90506000603460008373ffffffffffffffffffffffffffffffffffffffff1673ffffffffffffffffffffffffffffffffffffffff16815260200190815260200160002060008673ffffffffffffffffffffffffffffffffffffffff1673ffffffffffffffffffffffffffffffffffffffff16815260200190815260200160002054905083811015611230576040517f08c379a000000000000000000000000000000000000000000000000000000000815260040161122790613a6b565b60405180910390fd5b61123d8286868403611742565b60019250505092915050565b600080611254611690565b9050611261818585611999565b600191505092915050565b600080611277611c1d565b5090508091505090565b6000603460008473ffffffffffffffffffffffffffffffffffffffff1673ffffffffffffffffffffffffffffffffffffffff16815260200190815260200160002060008373ffffffffffffffffffffffffffffffffffffffff1673ffffffffffffffffffffffffffffffffffffffff16815260200190815260200160002054905092915050565b600060ca54905090565b61131a611690565b73ffffffffffffffffffffffffffffffffffffffff16611338611072565b73ffffffffffffffffffffffffffffffffffffffff161461138e576040517f08c379a00000000000000000000000000000000000000000000000000000000081526004016113859061394b565b60405180910390fd5b600073ffffffffffffffffffffffffffffffffffffffff168173ffffffffffffffffffffffffffffffffffffffff1614156113fe576040517f08c379a00000000000000000000000000000000000000000000000000000000081526004016113f59061386b565b60405180910390fd5b611407816123c3565b50565b600060019054906101000a900460ff166114325760008054906101000a900460ff161561143b565b61143a61252c565b5b61147a576040517f08c379a00000000000000000000000000000000000000000000000000000000081526004016114719061392b565b60405180910390fd5b60008060019054906101000a900460ff1615905080156114ca576001600060016101000a81548160ff02191690831515021790555060016000806101000a81548160ff0219169083151502179055505b6114d261253d565b6114da612596565b6114e485856125ef565b8260c960006101000a81548173ffffffffffffffffffffffffffffffffffffffff021916908373ffffffffffffffffffffffffffffffffffffffff1602179055508160ca81905550801561154d5760008060016101000a81548160ff0219169083151502179055505b5050505050565b606060008383905067ffffffffffffffff81111561159b577f4e487b7100000000000000000000000000000000000000000000000000000000600052604160045260246000fd5b6040519080825280602002602001820160405280156115c95781602001602082028036833780820191505090505b50905060005b848490508110156116855760cc6000868684818110611617577f4e487b7100000000000000000000000000000000000000000000000000000000600052603260045260246000fd5b90506020020135815260200190815260200160002054828281518110611666577f4e487b7100000000000000000000000000000000000000000000000000000000600052603260045260246000fd5b602002602001018181525050808061167d90613e0e565b9150506115cf565b508091505092915050565b600033905090565b600062015180426116a99190613e57565b426116b49190613cb6565b905090565b61173c846323b872dd60e01b8585856040516024016116da9392919061370c565b604051602081830303815290604052907bffffffffffffffffffffffffffffffffffffffffffffffffffffffff19166020820180517bffffffffffffffffffffffffffffffffffffffffffffffffffffffff838183161783525050505061264c565b50505050565b600073ffffffffffffffffffffffffffffffffffffffff168373ffffffffffffffffffffffffffffffffffffffff1614156117b2576040517f08c379a00000000000000000000000000000000000000000000000000000000081526004016117a9906139cb565b60405180910390fd5b600073ffffffffffffffffffffffffffffffffffffffff168273ffffffffffffffffffffffffffffffffffffffff161415611822576040517f08c379a00000000000000000000000000000000000000000000000000000000081526004016118199061388b565b60405180910390fd5b80603460008573ffffffffffffffffffffffffffffffffffffffff1673ffffffffffffffffffffffffffffffffffffffff16815260200190815260200160002060008473ffffffffffffffffffffffffffffffffffffffff1673ffffffffffffffffffffffffffffffffffffffff168152602001908152602001600020819055508173ffffffffffffffffffffffffffffffffffffffff168373ffffffffffffffffffffffffffffffffffffffff167f8c5be1e5ebec7d5bd14f71427d1e84f3dd0314c0f7b2291e5b200ac8c7c3b925836040516119009190613acd565b60405180910390a3505050565b60006119198484611281565b90507fffffffffffffffffffffffffffffffffffffffffffffffffffffffffffffffff81146119935781811015611985576040517f08c379a000000000000000000000000000000000000000000000000000000000815260040161197c906138ab565b60405180910390fd5b6119928484848403611742565b5b50505050565b600073ffffffffffffffffffffffffffffffffffffffff168373ffffffffffffffffffffffffffffffffffffffff161415611a09576040517f08c379a0000000000000000000000000000000000000000000000000000000008152600401611a009061398b565b60405180910390fd5b600073ffffffffffffffffffffffffffffffffffffffff168273ffffffffffffffffffffffffffffffffffffffff161415611a79576040517f08c379a0000000000000000000000000000000000000000000000000000000008152600401611a70906137eb565b60405180910390fd5b611a84838383612713565b6000603360008573ffffffffffffffffffffffffffffffffffffffff1673ffffffffffffffffffffffffffffffffffffffff16815260200190815260200160002054905081811015611b0b576040517f08c379a0000000000000000000000000000000000000000000000000000000008152600401611b02906138cb565b60405180910390fd5b818103603360008673ffffffffffffffffffffffffffffffffffffffff1673ffffffffffffffffffffffffffffffffffffffff1681526020019081526020016000208190555081603360008573ffffffffffffffffffffffffffffffffffffffff1673ffffffffffffffffffffffffffffffffffffffff1681526020019081526020016000206000828254611ba09190613bd5565b925050819055508273ffffffffffffffffffffffffffffffffffffffff168473ffffffffffffffffffffffffffffffffffffffff167fddf252ad1be2c89b69c2b068fc378daa952ba7f163c4a11628f55a4df523b3ef84604051611c049190613acd565b60405180910390a3611c178484846127cd565b50505050565b6000611c27612e20565b600060ca549050600060cb60003373ffffffffffffffffffffffffffffffffffffffff1673ffffffffffffffffffffffffffffffffffffffff1681526020019081526020016000209050600081600001549050808311611cbc576040517f08c379a0000000000000000000000000000000000000000000000000000000008152600401611cb3906139ab565b60405180910390fd5b600060cd60003373ffffffffffffffffffffffffffffffffffffffff1673ffffffffffffffffffffffffffffffffffffffff1681526020019081526020016000209050600081600001805490509050600080856001015490505b82811015611dec576000846000018281548110611d5c577f4e487b7100000000000000000000000000000000000000000000000000000000600052603260045260246000fd5b9060005260206000200154905087811115611d775750611dec565b611dc8856001018381548110611db6577f4e487b7100000000000000000000000000000000000000000000000000000000600052603260045260246000fd5b906000526020600020015487836127d2565b83611dd39190613bd5565b9250809550508080611de490613e0e565b915050611d16565b8281148015611dfa57508487115b15611e2057611e12611e0b33610ef1565b86896127d2565b82611e1d9190613bd5565b91505b8160405180604001604052808981526020018381525098509850505050505050509091565b611ec68363a9059cbb60e01b8484604051602401611e64929190613743565b604051602081830303815290604052907bffffffffffffffffffffffffffffffffffffffffffffffffffffffff19166020820180517bffffffffffffffffffffffffffffffffffffffffffffffffffffffff838183161783525050505061264c565b505050565b611ed3610d85565b611f12576040517f08c379a0000000000000000000000000000000000000000000000000000000008152600401611f099061380b565b60405180910390fd5b6000609760006101000a81548160ff0219169083151502179055507f5db9ee0a495bf2e6ff9c91a7834c1ba4fdd244a5e8aa4e537bd38aeae4b073aa611f56611690565b604051611f6391906136f1565b60405180910390a1565b600073ffffffffffffffffffffffffffffffffffffffff168273ffffffffffffffffffffffffffffffffffffffff161415611fdd576040517f08c379a0000000000000000000000000000000000000000000000000000000008152600401611fd490613a8b565b60405180910390fd5b611fe960008383612713565b8060356000828254611ffb9190613bd5565b9250508190555080603360008473ffffffffffffffffffffffffffffffffffffffff1673ffffffffffffffffffffffffffffffffffffffff16815260200190815260200160002060008282546120519190613bd5565b925050819055508173ffffffffffffffffffffffffffffffffffffffff16600073ffffffffffffffffffffffffffffffffffffffff167fddf252ad1be2c89b69c2b068fc378daa952ba7f163c4a11628f55a4df523b3ef836040516120b69190613acd565b60405180910390a36120ca600083836127cd565b5050565b600073ffffffffffffffffffffffffffffffffffffffff168273ffffffffffffffffffffffffffffffffffffffff16141561213e576040517f08c379a00000000000000000000000000000000000000000000000000000000081526004016121359061396b565b60405180910390fd5b61214a82600083612713565b6000603360008473ffffffffffffffffffffffffffffffffffffffff1673ffffffffffffffffffffffffffffffffffffffff168152602001908152602001600020549050818110156121d1576040517f08c379a00000000000000000000000000000000000000000000000000000000081526004016121c89061382b565b60405180910390fd5b818103603360008573ffffffffffffffffffffffffffffffffffffffff1673ffffffffffffffffffffffffffffffffffffffff1681526020019081526020016000208190555081603560008282546122299190613cb6565b92505081905550600073ffffffffffffffffffffffffffffffffffffffff168373ffffffffffffffffffffffffffffffffffffffff167fddf252ad1be2c89b69c2b068fc378daa952ba7f163c4a11628f55a4df523b3ef8460405161228e9190613acd565b60405180910390a36122a2836000846127cd565b505050565b600080600084116122ed576040517f08c379a00000000000000000000000000000000000000000000000000000000081526004016122e490613a2b565b60405180910390fd5b6122f5611698565b841115612337576040517f08c379a000000000000000000000000000000000000000000000000000000000815260040161232e906137cb565b60405180910390fd5b600061234f858560000161283c90919063ffffffff16565b9050836000018054905081141561236d5760008092509250506123bc565b60018460010182815481106123ab577f4e487b7100000000000000000000000000000000000000000000000000000000600052603260045260246000fd5b906000526020600020015492509250505b9250929050565b6000606560009054906101000a900473ffffffffffffffffffffffffffffffffffffffff16905081606560006101000a81548173ffffffffffffffffffffffffffffffffffffffff021916908373ffffffffffffffffffffffffffffffffffffffff1602179055508173ffffffffffffffffffffffffffffffffffffffff168173ffffffffffffffffffffffffffffffffffffffff167f8be0079c531659141344cd1fd0a4f28419497f9722a3daafe3b4186f6b6457e060405160405180910390a35050565b612491610d85565b156124d1576040517f08c379a00000000000000000000000000000000000000000000000000000000081526004016124c89061390b565b60405180910390fd5b6001609760006101000a81548160ff0219169083151502179055507f62e78cea01bee320cd4e420270b5ea74000d11b0c9f74754ebdbfc544b05a258612515611690565b60405161252291906136f1565b60405180910390a1565b600061253730612962565b15905090565b600060019054906101000a900460ff1661258c576040517f08c379a000000000000000000000000000000000000000000000000000000000815260040161258390613a0b565b60405180910390fd5b612594612985565b565b600060019054906101000a900460ff166125e5576040517f08c379a00000000000000000000000000000000000000000000000000000000081526004016125dc90613a0b565b60405180910390fd5b6125ed6129e6565b565b600060019054906101000a900460ff1661263e576040517f08c379a000000000000000000000000000000000000000000000000000000000815260040161263590613a0b565b60405180910390fd5b6126488282612a52565b5050565b60006126ae826040518060400160405280602081526020017f5361666545524332303a206c6f772d6c6576656c2063616c6c206661696c65648152508573ffffffffffffffffffffffffffffffffffffffff16612ad39092919063ffffffff16565b905060008151111561270e57808060200190518101906126ce9190613103565b61270d576040517f08c379a000000000000000000000000000000000000000000000000000000000815260040161270490613a4b565b60405180910390fd5b5b505050565b61271e838383612aeb565b600073ffffffffffffffffffffffffffffffffffffffff168373ffffffffffffffffffffffffffffffffffffffff1614156127695761275c82612af0565b612764612b43565b6127c8565b600073ffffffffffffffffffffffffffffffffffffffff168273ffffffffffffffffffffffffffffffffffffffff1614156127b4576127a783612af0565b6127af612b43565b6127c7565b6127bd83612af0565b6127c682612af0565b5b5b505050565b505050565b60008084146128305760cc60008481526020019081526020016000205460cc60008481526020019081526020016000205461280d9190613cb6565b670de0b6b3a7640000856128219190613c2b565b61282b9190613c5c565b612833565b60005b90509392505050565b60008083805490501415612853576000905061295c565b600080848054905090505b808210156128dd5760006128728383612b57565b9050848682815481106128ae577f4e487b7100000000000000000000000000000000000000000000000000000000600052603260045260246000fd5b906000526020600020015411156128c7578091506128d7565b6001816128d49190613bd5565b92505b5061285e565b60008211801561293b575083856001846128f79190613cb6565b8154811061292e577f4e487b7100000000000000000000000000000000000000000000000000000000600052603260045260246000fd5b9060005260206000200154145b156129565760018261294d9190613cb6565b9250505061295c565b81925050505b92915050565b6000808273ffffffffffffffffffffffffffffffffffffffff163b119050919050565b600060019054906101000a900460ff166129d4576040517f08c379a00000000000000000000000000000000000000000000000000000000081526004016129cb90613a0b565b60405180910390fd5b6129e46129df611690565b6123c3565b565b600060019054906101000a900460ff16612a35576040517f08c379a0000000000000000000000000000000000000000000000000000000008152600401612a2c90613a0b565b60405180910390fd5b6000609760006101000a81548160ff021916908315150217905550565b600060019054906101000a900460ff16612aa1576040517f08c379a0000000000000000000000000000000000000000000000000000000008152600401612a9890613a0b565b60405180910390fd5b8160369080519060200190612ab7929190612e3a565b508060379080519060200190612ace929190612e3a565b505050565b6060612ae28484600085612b7d565b90509392505050565b505050565b612b4060cd60008373ffffffffffffffffffffffffffffffffffffffff1673ffffffffffffffffffffffffffffffffffffffff168152602001908152602001600020612b3b83610ef1565b612c91565b50565b612b5560ce612b50610991565b612c91565b565b60006002828418612b689190613c2b565b828416612b759190613bd5565b905092915050565b606082471015612bc2576040517f08c379a0000000000000000000000000000000000000000000000000000000008152600401612bb9906138eb565b60405180910390fd5b612bcb85612d0c565b612c0a576040517f08c379a0000000000000000000000000000000000000000000000000000000008152600401612c01906139eb565b60405180910390fd5b6000808673ffffffffffffffffffffffffffffffffffffffff168587604051612c3391906136da565b60006040518083038185875af1925050503d8060008114612c70576040519150601f19603f3d011682016040523d82523d6000602084013e612c75565b606091505b5091509150612c85828286612d2f565b92505050949350505050565b6000612c9b611698565b905080612caa84600001612d96565b1015612d075782600001819080600181540180825580915050600190039060005260206000200160009091909190915055826001018290806001815401808255809150506001900390600052602060002001600090919091909150555b505050565b6000808273ffffffffffffffffffffffffffffffffffffffff163b119050919050565b60608315612d3f57829050612d8f565b600083511115612d525782518084602001fd5b816040517f08c379a0000000000000000000000000000000000000000000000000000000008152600401612d8691906137a9565b60405180910390fd5b9392505050565b600080828054905014612dfc578160018380549050612db59190613cb6565b81548110612dec577f4e487b7100000000000000000000000000000000000000000000000000000000600052603260045260246000fd5b9060005260206000200154612dff565b60005b9050919050565b604051806040016040528060608152602001606081525090565b604051806040016040528060008152602001600081525090565b828054612e4690613dab565b90600052602060002090601f016020900481019282612e685760008555612eaf565b82601f10612e8157805160ff1916838001178555612eaf565b82800160010185558215612eaf579182015b82811115612eae578251825591602001919060010190612e93565b5b509050612ebc9190612ec0565b5090565b5b80821115612ed9576000816000905550600101612ec1565b5090565b6000612ef0612eeb84613b28565b613b03565b905082815260208101848484011115612f0857600080fd5b612f13848285613d3f565b509392505050565b600081359050612f2a816144f2565b92915050565b60008083601f840112612f4257600080fd5b8235905067ffffffffffffffff811115612f5b57600080fd5b602083019150836020820283011115612f7357600080fd5b9250929050565b600081519050612f8981614509565b92915050565b600082601f830112612fa057600080fd5b8135612fb0848260208601612edd565b91505092915050565b600081359050612fc881614520565b92915050565b600060208284031215612fe057600080fd5b6000612fee84828501612f1b565b91505092915050565b6000806040838503121561300a57600080fd5b600061301885828601612f1b565b925050602061302985828601612f1b565b9150509250929050565b60008060006060848603121561304857600080fd5b600061305686828701612f1b565b935050602061306786828701612f1b565b925050604061307886828701612fb9565b9150509250925092565b6000806040838503121561309557600080fd5b60006130a385828601612f1b565b92505060206130b485828601612fb9565b9150509250929050565b600080602083850312156130d157600080fd5b600083013567ffffffffffffffff8111156130eb57600080fd5b6130f785828601612f30565b92509250509250929050565b60006020828403121561311557600080fd5b600061312384828501612f7a565b91505092915050565b6000806000806080858703121561314257600080fd5b600085013567ffffffffffffffff81111561315c57600080fd5b61316887828801612f8f565b945050602085013567ffffffffffffffff81111561318557600080fd5b61319187828801612f8f565b93505060406131a287828801612f1b565b92505060606131b387828801612fb9565b91505092959194509250565b6000602082840312156131d157600080fd5b60006131df84828501612fb9565b91505092915050565b60006131f483836136ad565b60208301905092915050565b61320981613cea565b82525050565b600061321a82613b69565b6132248185613b97565b935061322f83613b59565b8060005b8381101561326057815161324788826131e8565b975061325283613b8a565b925050600181019050613233565b5085935050505092915050565b600061327882613b69565b6132828185613ba8565b935061328d83613b59565b8060005b838110156132be5781516132a588826131e8565b97506132b083613b8a565b925050600181019050613291565b5085935050505092915050565b6132d481613cfc565b82525050565b60006132e582613b74565b6132ef8185613bb9565b93506132ff818560208601613d4e565b80840191505092915050565b600061331682613b7f565b6133208185613bc4565b9350613330818560208601613d4e565b61333981613f44565b840191505092915050565b6000613351601d83613bc4565b915061335c82613f55565b602082019050919050565b6000613374602383613bc4565b915061337f82613f7e565b604082019050919050565b6000613397601483613bc4565b91506133a282613fcd565b602082019050919050565b60006133ba602283613bc4565b91506133c582613ff6565b604082019050919050565b60006133dd602083613bc4565b91506133e882614045565b602082019050919050565b6000613400602683613bc4565b915061340b8261406e565b604082019050919050565b6000613423602283613bc4565b915061342e826140bd565b604082019050919050565b6000613446601d83613bc4565b91506134518261410c565b602082019050919050565b6000613469602683613bc4565b915061347482614135565b604082019050919050565b600061348c602683613bc4565b915061349782614184565b604082019050919050565b60006134af601083613bc4565b91506134ba826141d3565b602082019050919050565b60006134d2602e83613bc4565b91506134dd826141fc565b604082019050919050565b60006134f5602083613bc4565b91506135008261424b565b602082019050919050565b6000613518602183613bc4565b915061352382614274565b604082019050919050565b600061353b602583613bc4565b9150613546826142c3565b604082019050919050565b600061355e601b83613bc4565b915061356982614312565b602082019050919050565b6000613581602483613bc4565b915061358c8261433b565b604082019050919050565b60006135a4601d83613bc4565b91506135af8261438a565b602082019050919050565b60006135c7602b83613bc4565b91506135d2826143b3565b604082019050919050565b60006135ea601683613bc4565b91506135f582614402565b602082019050919050565b600061360d602a83613bc4565b91506136188261442b565b604082019050919050565b6000613630602583613bc4565b915061363b8261447a565b604082019050919050565b6000613653601f83613bc4565b915061365e826144c9565b602082019050919050565b60006040830160008301518482036000860152613686828261320f565b915050602083015184820360208601526136a0828261320f565b9150508091505092915050565b6136b681613d28565b82525050565b6136c581613d28565b82525050565b6136d481613d32565b82525050565b60006136e682846132da565b915081905092915050565b60006020820190506137066000830184613200565b92915050565b60006060820190506137216000830186613200565b61372e6020830185613200565b61373b60408301846136bc565b949350505050565b60006040820190506137586000830185613200565b61376560208301846136bc565b9392505050565b60006020820190508181036000830152613786818461326d565b905092915050565b60006020820190506137a360008301846132cb565b92915050565b600060208201905081810360008301526137c3818461330b565b905092915050565b600060208201905081810360008301526137e481613344565b9050919050565b6000602082019050818103600083015261380481613367565b9050919050565b600060208201905081810360008301526138248161338a565b9050919050565b60006020820190508181036000830152613844816133ad565b9050919050565b60006020820190508181036000830152613864816133d0565b9050919050565b60006020820190508181036000830152613884816133f3565b9050919050565b600060208201905081810360008301526138a481613416565b9050919050565b600060208201905081810360008301526138c481613439565b9050919050565b600060208201905081810360008301526138e48161345c565b9050919050565b600060208201905081810360008301526139048161347f565b9050919050565b60006020820190508181036000830152613924816134a2565b9050919050565b60006020820190508181036000830152613944816134c5565b9050919050565b60006020820190508181036000830152613964816134e8565b9050919050565b600060208201905081810360008301526139848161350b565b9050919050565b600060208201905081810360008301526139a48161352e565b9050919050565b600060208201905081810360008301526139c481613551565b9050919050565b600060208201905081810360008301526139e481613574565b9050919050565b60006020820190508181036000830152613a0481613597565b9050919050565b60006020820190508181036000830152613a24816135ba565b9050919050565b60006020820190508181036000830152613a44816135dd565b9050919050565b60006020820190508181036000830152613a6481613600565b9050919050565b60006020820190508181036000830152613a8481613623565b9050919050565b60006020820190508181036000830152613aa481613646565b9050919050565b60006020820190508181036000830152613ac58184613669565b905092915050565b6000602082019050613ae260008301846136bc565b92915050565b6000602082019050613afd60008301846136cb565b92915050565b6000613b0d613b1e565b9050613b198282613ddd565b919050565b6000604051905090565b600067ffffffffffffffff821115613b4357613b42613f15565b5b613b4c82613f44565b9050602081019050919050565b6000819050602082019050919050565b600081519050919050565b600081519050919050565b600081519050919050565b6000602082019050919050565b600082825260208201905092915050565b600082825260208201905092915050565b600081905092915050565b600082825260208201905092915050565b6000613be082613d28565b9150613beb83613d28565b9250827fffffffffffffffffffffffffffffffffffffffffffffffffffffffffffffffff03821115613c2057613c1f613e88565b5b828201905092915050565b6000613c3682613d28565b9150613c4183613d28565b925082613c5157613c50613eb7565b5b828204905092915050565b6000613c6782613d28565b9150613c7283613d28565b9250817fffffffffffffffffffffffffffffffffffffffffffffffffffffffffffffffff0483118215151615613cab57613caa613e88565b5b828202905092915050565b6000613cc182613d28565b9150613ccc83613d28565b925082821015613cdf57613cde613e88565b5b828203905092915050565b6000613cf582613d08565b9050919050565b60008115159050919050565b600073ffffffffffffffffffffffffffffffffffffffff82169050919050565b6000819050919050565b600060ff82169050919050565b82818337600083830152505050565b60005b83811015613d6c578082015181840152602081019050613d51565b83811115613d7b576000848401525b50505050565b6000613d8c82613d28565b91506000821415613da057613d9f613e88565b5b600182039050919050565b60006002820490506001821680613dc357607f821691505b60208210811415613dd757613dd6613ee6565b5b50919050565b613de682613f44565b810181811067ffffffffffffffff82111715613e0557613e04613f15565b5b80604052505050565b6000613e1982613d28565b91507fffffffffffffffffffffffffffffffffffffffffffffffffffffffffffffffff821415613e4c57613e4b613e88565b5b600182019050919050565b6000613e6282613d28565b9150613e6d83613d28565b925082613e7d57613e7c613eb7565b5b828206905092915050565b7f4e487b7100000000000000000000000000000000000000000000000000000000600052601160045260246000fd5b7f4e487b7100000000000000000000000000000000000000000000000000000000600052601260045260246000fd5b7f4e487b7100000000000000000000000000000000000000000000000000000000600052602260045260246000fd5b7f4e487b7100000000000000000000000000000000000000000000000000000000600052604160045260246000fd5b6000601f19601f8301169050919050565b7f4552433230536e617073686f743a206e6f6e6578697374656e74206964000000600082015250565b7f45524332303a207472616e7366657220746f20746865207a65726f206164647260008201527f6573730000000000000000000000000000000000000000000000000000000000602082015250565b7f5061757361626c653a206e6f7420706175736564000000000000000000000000600082015250565b7f45524332303a206275726e20616d6f756e7420657863656564732062616c616e60008201527f6365000000000000000000000000000000000000000000000000000000000000602082015250565b7f4d696e696e67333a20616c6c20736e617073686f74732066696e616c697a6564600082015250565b7f4f776e61626c653a206e6577206f776e657220697320746865207a65726f206160008201527f6464726573730000000000000000000000000000000000000000000000000000602082015250565b7f45524332303a20617070726f766520746f20746865207a65726f20616464726560008201527f7373000000000000000000000000000000000000000000000000000000000000602082015250565b7f45524332303a20696e73756666696369656e7420616c6c6f77616e6365000000600082015250565b7f45524332303a207472616e7366657220616d6f756e742065786365656473206260008201527f616c616e63650000000000000000000000000000000000000000000000000000602082015250565b7f416464726573733a20696e73756666696369656e742062616c616e636520666f60008201527f722063616c6c0000000000000000000000000000000000000000000000000000602082015250565b7f5061757361626c653a2070617573656400000000000000000000000000000000600082015250565b7f496e697469616c697a61626c653a20636f6e747261637420697320616c72656160008201527f647920696e697469616c697a6564000000000000000000000000000000000000602082015250565b7f4f776e61626c653a2063616c6c6572206973206e6f7420746865206f776e6572600082015250565b7f45524332303a206275726e2066726f6d20746865207a65726f2061646472657360008201527f7300000000000000000000000000000000000000000000000000000000000000602082015250565b7f45524332303a207472616e736665722066726f6d20746865207a65726f20616460008201527f6472657373000000000000000000000000000000000000000000000000000000602082015250565b7f4d696e696e67333a20616c726561647920776974686472617765640000000000600082015250565b7f45524332303a20617070726f76652066726f6d20746865207a65726f2061646460008201527f7265737300000000000000000000000000000000000000000000000000000000602082015250565b7f416464726573733a2063616c6c20746f206e6f6e2d636f6e7472616374000000600082015250565b7f496e697469616c697a61626c653a20636f6e7472616374206973206e6f74206960008201527f6e697469616c697a696e67000000000000000000000000000000000000000000602082015250565b7f4552433230536e617073686f743a206964206973203000000000000000000000600082015250565b7f5361666545524332303a204552433230206f7065726174696f6e20646964206e60008201527f6f74207375636365656400000000000000000000000000000000000000000000602082015250565b7f45524332303a2064656372656173656420616c6c6f77616e63652062656c6f7760008201527f207a65726f000000000000000000000000000000000000000000000000000000602082015250565b7f45524332303a206d696e7420746f20746865207a65726f206164647265737300600082015250565b6144fb81613cea565b811461450657600080fd5b50565b61451281613cfc565b811461451d57600080fd5b50565b61452981613d28565b811461453457600080fd5b5056fea26469706673582212209a4ccdab624b0ebee5e206d9ee97a534f04fda054a768548b6866459cf7da58364736f6c63430008040033",
  "devdoc": {
    "kind": "dev",
    "methods": {
      "allowance(address,address)": {
        "details": "See {IERC20-allowance}."
      },
      "approve(address,uint256)": {
        "details": "See {IERC20-approve}. NOTE: If `amount` is the maximum `uint256`, the allowance is not updated on `transferFrom`. This is semantically equivalent to an infinite approval. Requirements: - `spender` cannot be the zero address."
      },
      "balanceOf(address)": {
        "details": "See {IERC20-balanceOf}."
      },
      "decimals()": {
        "details": "Returns the number of decimals used to get its user representation. For example, if `decimals` equals `2`, a balance of `505` tokens should be displayed to a user as `5.05` (`505 / 10 ** 2`). Tokens usually opt for a value of 18, imitating the relationship between Ether and Wei. This is the value {ERC20} uses, unless this function is overridden; NOTE: This information is only used for _display_ purposes: it in no way affects any of the arithmetic of the contract, including {IERC20-balanceOf} and {IERC20-transfer}."
      },
      "decreaseAllowance(address,uint256)": {
        "details": "Atomically decreases the allowance granted to `spender` by the caller. This is an alternative to {approve} that can be used as a mitigation for problems described in {IERC20-approve}. Emits an {Approval} event indicating the updated allowance. Requirements: - `spender` cannot be the zero address. - `spender` must have allowance for the caller of at least `subtractedValue`."
      },
      "increaseAllowance(address,uint256)": {
        "details": "Atomically increases the allowance granted to `spender` by the caller. This is an alternative to {approve} that can be used as a mitigation for problems described in {IERC20-approve}. Emits an {Approval} event indicating the updated allowance. Requirements: - `spender` cannot be the zero address."
      },
      "name()": {
        "details": "Returns the name of the token."
      },
      "owner()": {
        "details": "Returns the address of the current owner."
      },
      "paused()": {
        "details": "Returns true if the contract is paused, and false otherwise."
      },
      "renounceOwnership()": {
        "details": "Leaves the contract without owner. It will not be possible to call `onlyOwner` functions anymore. Can only be called by the current owner. NOTE: Renouncing ownership will leave the contract without an owner, thereby removing any functionality that is only available to the owner."
      },
      "symbol()": {
        "details": "Returns the symbol of the token, usually a shorter version of the name."
      },
      "totalSupply()": {
        "details": "See {IERC20-totalSupply}."
      },
      "transfer(address,uint256)": {
        "details": "See {IERC20-transfer}. Requirements: - `to` cannot be the zero address. - the caller must have a balance of at least `amount`."
      },
      "transferFrom(address,address,uint256)": {
        "details": "See {IERC20-transferFrom}. Emits an {Approval} event indicating the updated allowance. This is not required by the EIP. See the note at the beginning of {ERC20}. NOTE: Does not update the allowance if the current allowance is the maximum `uint256`. Requirements: - `from` and `to` cannot be the zero address. - `from` must have a balance of at least `amount`. - the caller must have allowance for ``from``'s tokens of at least `amount`."
      },
      "transferOwnership(address)": {
        "details": "Transfers ownership of the contract to a new account (`newOwner`). Can only be called by the current owner."
      }
    },
    "version": 1
  },
  "userdoc": {
    "kind": "user",
    "methods": {},
    "version": 1
  },
  "storageLayout": {
    "storage": [
      {
        "astId": 130,
        "contract": "contracts/Mining3.sol:Mining3",
        "label": "_initialized",
        "offset": 0,
        "slot": "0",
        "type": "t_bool"
      },
      {
        "astId": 133,
        "contract": "contracts/Mining3.sol:Mining3",
        "label": "_initializing",
        "offset": 1,
        "slot": "0",
        "type": "t_bool"
      },
      {
        "astId": 1308,
        "contract": "contracts/Mining3.sol:Mining3",
        "label": "__gap",
        "offset": 0,
        "slot": "1",
        "type": "t_array(t_uint256)50_storage"
      },
      {
        "astId": 327,
        "contract": "contracts/Mining3.sol:Mining3",
        "label": "_balances",
        "offset": 0,
        "slot": "51",
        "type": "t_mapping(t_address,t_uint256)"
      },
      {
        "astId": 333,
        "contract": "contracts/Mining3.sol:Mining3",
        "label": "_allowances",
        "offset": 0,
        "slot": "52",
        "type": "t_mapping(t_address,t_mapping(t_address,t_uint256))"
      },
      {
        "astId": 335,
        "contract": "contracts/Mining3.sol:Mining3",
        "label": "_totalSupply",
        "offset": 0,
        "slot": "53",
        "type": "t_uint256"
      },
      {
        "astId": 337,
        "contract": "contracts/Mining3.sol:Mining3",
        "label": "_name",
        "offset": 0,
        "slot": "54",
        "type": "t_string_storage"
      },
      {
        "astId": 339,
        "contract": "contracts/Mining3.sol:Mining3",
        "label": "_symbol",
        "offset": 0,
        "slot": "55",
        "type": "t_string_storage"
      },
      {
        "astId": 920,
        "contract": "contracts/Mining3.sol:Mining3",
        "label": "__gap",
        "offset": 0,
        "slot": "56",
        "type": "t_array(t_uint256)45_storage"
      },
      {
        "astId": 10,
        "contract": "contracts/Mining3.sol:Mining3",
        "label": "_owner",
        "offset": 0,
        "slot": "101",
        "type": "t_address"
      },
      {
        "astId": 122,
        "contract": "contracts/Mining3.sol:Mining3",
        "label": "__gap",
        "offset": 0,
        "slot": "102",
        "type": "t_array(t_uint256)49_storage"
      },
      {
        "astId": 218,
        "contract": "contracts/Mining3.sol:Mining3",
        "label": "_paused",
        "offset": 0,
        "slot": "151",
        "type": "t_bool"
      },
      {
        "astId": 307,
        "contract": "contracts/Mining3.sol:Mining3",
        "label": "__gap",
        "offset": 0,
        "slot": "152",
        "type": "t_array(t_uint256)49_storage"
      },
      {
        "astId": 2115,
        "contract": "contracts/Mining3.sol:Mining3",
        "label": "_earningToken",
        "offset": 0,
        "slot": "201",
        "type": "t_address"
      },
      {
        "astId": 2117,
        "contract": "contracts/Mining3.sol:Mining3",
        "label": "_finalized",
        "offset": 0,
        "slot": "202",
        "type": "t_uint256"
      },
      {
        "astId": 2122,
        "contract": "contracts/Mining3.sol:Mining3",
        "label": "_withdrawal",
        "offset": 0,
        "slot": "203",
        "type": "t_mapping(t_address,t_struct(Withdrawal)2113_storage)"
      },
      {
        "astId": 2126,
        "contract": "contracts/Mining3.sol:Mining3",
        "label": "_earningSum",
        "offset": 0,
        "slot": "204",
        "type": "t_mapping(t_uint256,t_uint256)"
      },
      {
        "astId": 2138,
        "contract": "contracts/Mining3.sol:Mining3",
        "label": "_accountBalanceSnapshots",
        "offset": 0,
        "slot": "205",
        "type": "t_mapping(t_address,t_struct(Snapshots)2133_storage)"
      },
      {
        "astId": 2141,
        "contract": "contracts/Mining3.sol:Mining3",
        "label": "_totalSupplySnapshots",
        "offset": 0,
        "slot": "206",
        "type": "t_struct(Snapshots)2133_storage"
      }
    ],
    "types": {
      "t_address": {
        "encoding": "inplace",
        "label": "address",
        "numberOfBytes": "20"
      },
      "t_array(t_uint256)45_storage": {
        "base": "t_uint256",
        "encoding": "inplace",
        "label": "uint256[45]",
        "numberOfBytes": "1440"
      },
      "t_array(t_uint256)49_storage": {
        "base": "t_uint256",
        "encoding": "inplace",
        "label": "uint256[49]",
        "numberOfBytes": "1568"
      },
      "t_array(t_uint256)50_storage": {
        "base": "t_uint256",
        "encoding": "inplace",
        "label": "uint256[50]",
        "numberOfBytes": "1600"
      },
      "t_array(t_uint256)dyn_storage": {
        "base": "t_uint256",
        "encoding": "dynamic_array",
        "label": "uint256[]",
        "numberOfBytes": "32"
      },
      "t_bool": {
        "encoding": "inplace",
        "label": "bool",
        "numberOfBytes": "1"
      },
      "t_mapping(t_address,t_mapping(t_address,t_uint256))": {
        "encoding": "mapping",
        "key": "t_address",
        "label": "mapping(address => mapping(address => uint256))",
        "numberOfBytes": "32",
        "value": "t_mapping(t_address,t_uint256)"
      },
      "t_mapping(t_address,t_struct(Snapshots)2133_storage)": {
        "encoding": "mapping",
        "key": "t_address",
        "label": "mapping(address => struct Mining3.Snapshots)",
        "numberOfBytes": "32",
        "value": "t_struct(Snapshots)2133_storage"
      },
      "t_mapping(t_address,t_struct(Withdrawal)2113_storage)": {
        "encoding": "mapping",
        "key": "t_address",
        "label": "mapping(address => struct Mining3.Withdrawal)",
        "numberOfBytes": "32",
        "value": "t_struct(Withdrawal)2113_storage"
      },
      "t_mapping(t_address,t_uint256)": {
        "encoding": "mapping",
        "key": "t_address",
        "label": "mapping(address => uint256)",
        "numberOfBytes": "32",
        "value": "t_uint256"
      },
      "t_mapping(t_uint256,t_uint256)": {
        "encoding": "mapping",
        "key": "t_uint256",
        "label": "mapping(uint256 => uint256)",
        "numberOfBytes": "32",
        "value": "t_uint256"
      },
      "t_string_storage": {
        "encoding": "bytes",
        "label": "string",
        "numberOfBytes": "32"
      },
      "t_struct(Snapshots)2133_storage": {
        "encoding": "inplace",
        "label": "struct Mining3.Snapshots",
        "members": [
          {
            "astId": 2129,
            "contract": "contracts/Mining3.sol:Mining3",
            "label": "ids",
            "offset": 0,
            "slot": "0",
            "type": "t_array(t_uint256)dyn_storage"
          },
          {
            "astId": 2132,
            "contract": "contracts/Mining3.sol:Mining3",
            "label": "values",
            "offset": 0,
            "slot": "1",
            "type": "t_array(t_uint256)dyn_storage"
          }
        ],
        "numberOfBytes": "64"
      },
      "t_struct(Withdrawal)2113_storage": {
        "encoding": "inplace",
        "label": "struct Mining3.Withdrawal",
        "members": [
          {
            "astId": 2110,
            "contract": "contracts/Mining3.sol:Mining3",
            "label": "snapshotId",
            "offset": 0,
            "slot": "0",
            "type": "t_uint256"
          },
          {
            "astId": 2112,
            "contract": "contracts/Mining3.sol:Mining3",
            "label": "index",
            "offset": 0,
            "slot": "1",
            "type": "t_uint256"
          }
        ],
        "numberOfBytes": "64"
      },
      "t_uint256": {
        "encoding": "inplace",
        "label": "uint256",
        "numberOfBytes": "32"
      }
    }
  }
}