{
  "address": "0xc8A9B0d13C450f542e5Ac6f6c44D6C481707c22B",
  "abi": [
    {
      "anonymous": false,
      "inputs": [
        {
          "indexed": true,
          "internalType": "address",
          "name": "owner",
          "type": "address"
        },
        {
          "indexed": true,
          "internalType": "address",
          "name": "spender",
          "type": "address"
        },
        {
          "indexed": false,
          "internalType": "uint256",
          "name": "value",
          "type": "uint256"
        }
      ],
      "name": "Approval",
      "type": "event"
    },
    {
      "anonymous": false,
      "inputs": [
        {
          "indexed": true,
          "internalType": "address",
          "name": "previousOwner",
          "type": "address"
        },
        {
          "indexed": true,
          "internalType": "address",
          "name": "newOwner",
          "type": "address"
        }
      ],
      "name": "OwnershipTransferred",
      "type": "event"
    },
    {
      "anonymous": false,
      "inputs": [
        {
          "indexed": false,
          "internalType": "address",
          "name": "account",
          "type": "address"
        }
      ],
      "name": "Paused",
      "type": "event"
    },
    {
      "anonymous": false,
      "inputs": [
        {
          "indexed": true,
          "internalType": "address",
          "name": "from",
          "type": "address"
        },
        {
          "indexed": true,
          "internalType": "address",
          "name": "to",
          "type": "address"
        },
        {
          "indexed": false,
          "internalType": "uint256",
          "name": "value",
          "type": "uint256"
        }
      ],
      "name": "Transfer",
      "type": "event"
    },
    {
      "anonymous": false,
      "inputs": [
        {
          "indexed": false,
          "internalType": "address",
          "name": "account",
          "type": "address"
        }
      ],
      "name": "Unpaused",
      "type": "event"
    },
    {
      "inputs": [
        {
          "internalType": "address",
          "name": "owner",
          "type": "address"
        },
        {
          "internalType": "address",
          "name": "spender",
          "type": "address"
        }
      ],
      "name": "allowance",
      "outputs": [
        {
          "internalType": "uint256",
          "name": "",
          "type": "uint256"
        }
      ],
      "stateMutability": "view",
      "type": "function"
    },
    {
      "inputs": [
        {
          "internalType": "address",
          "name": "spender",
          "type": "address"
        },
        {
          "internalType": "uint256",
          "name": "amount",
          "type": "uint256"
        }
      ],
      "name": "approve",
      "outputs": [
        {
          "internalType": "bool",
          "name": "",
          "type": "bool"
        }
      ],
      "stateMutability": "nonpayable",
      "type": "function"
    },
    {
      "inputs": [
        {
          "internalType": "address",
          "name": "account",
          "type": "address"
        }
      ],
      "name": "balanceOf",
      "outputs": [
        {
          "internalType": "uint256",
          "name": "",
          "type": "uint256"
        }
      ],
      "stateMutability": "view",
      "type": "function"
    },
    {
      "inputs": [
        {
          "internalType": "address",
          "name": "account",
          "type": "address"
        },
        {
          "internalType": "uint256",
          "name": "snapshotId",
          "type": "uint256"
        }
      ],
      "name": "balanceOfAt",
      "outputs": [
        {
          "internalType": "uint256",
          "name": "",
          "type": "uint256"
        }
      ],
      "stateMutability": "view",
      "type": "function"
    },
    {
      "inputs": [
        {
          "internalType": "address",
          "name": "account",
          "type": "address"
        }
      ],
      "name": "balanceSnapshots",
      "outputs": [
        {
          "components": [
            {
              "internalType": "uint256[]",
              "name": "ids",
              "type": "uint256[]"
            },
            {
              "internalType": "uint256[]",
              "name": "values",
              "type": "uint256[]"
            }
          ],
          "internalType": "struct Mining3.Snapshots",
          "name": "snapshots",
          "type": "tuple"
        }
      ],
      "stateMutability": "view",
      "type": "function"
    },
    {
      "inputs": [
        {
          "internalType": "uint256[]",
          "name": "snapshotIds",
          "type": "uint256[]"
        }
      ],
      "name": "batchEarningSum",
      "outputs": [
        {
          "internalType": "uint256[]",
          "name": "",
          "type": "uint256[]"
        }
      ],
      "stateMutability": "view",
      "type": "function"
    },
    {
      "inputs": [
        {
          "internalType": "uint256",
          "name": "amount",
          "type": "uint256"
        }
      ],
      "name": "burn",
      "outputs": [],
      "stateMutability": "nonpayable",
      "type": "function"
    },
    {
      "inputs": [],
      "name": "decimals",
      "outputs": [
        {
          "internalType": "uint8",
          "name": "",
          "type": "uint8"
        }
      ],
      "stateMutability": "view",
      "type": "function"
    },
    {
      "inputs": [
        {
          "internalType": "address",
          "name": "spender",
          "type": "address"
        },
        {
          "internalType": "uint256",
          "name": "subtractedValue",
          "type": "uint256"
        }
      ],
      "name": "decreaseAllowance",
      "outputs": [
        {
          "internalType": "bool",
          "name": "",
          "type": "bool"
        }
      ],
      "stateMutability": "nonpayable",
      "type": "function"
    },
    {
      "inputs": [],
      "name": "earningToken",
      "outputs": [
        {
          "internalType": "address",
          "name": "",
          "type": "address"
        }
      ],
      "stateMutability": "view",
      "type": "function"
    },
    {
      "inputs": [
        {
          "internalType": "uint256",
          "name": "earningPerToken",
          "type": "uint256"
        }
      ],
      "name": "finalize",
      "outputs": [],
      "stateMutability": "nonpayable",
      "type": "function"
    },
    {
      "inputs": [
        {
          "internalType": "address",
          "name": "account",
          "type": "address"
        }
      ],
      "name": "getUnwithdrawnEarnings",
      "outputs": [
        {
          "internalType": "uint256",
          "name": "",
          "type": "uint256"
        }
      ],
      "stateMutability": "view",
      "type": "function"
    },
    {
      "inputs": [
        {
          "internalType": "address",
          "name": "spender",
          "type": "address"
        },
        {
          "internalType": "uint256",
          "name": "addedValue",
          "type": "uint256"
        }
      ],
      "name": "increaseAllowance",
      "outputs": [
        {
          "internalType": "bool",
          "name": "",
          "type": "bool"
        }
      ],
      "stateMutability": "nonpayable",
      "type": "function"
    },
    {
      "inputs": [
        {
          "internalType": "string",
          "name": "name",
          "type": "string"
        },
        {
          "internalType": "string",
          "name": "symbol",
          "type": "string"
        },
        {
          "internalType": "address",
          "name": "earningTokenToSet",
          "type": "address"
        },
        {
          "internalType": "uint256",
          "name": "startSnapshotId",
          "type": "uint256"
        }
      ],
      "name": "initialize",
      "outputs": [],
      "stateMutability": "nonpayable",
      "type": "function"
    },
    {
      "inputs": [],
      "name": "lastFinalizedAt",
      "outputs": [
        {
          "internalType": "uint256",
          "name": "",
          "type": "uint256"
        }
      ],
      "stateMutability": "view",
      "type": "function"
    },
    {
      "inputs": [
        {
          "internalType": "address",
          "name": "account",
          "type": "address"
        }
      ],
      "name": "lastWithdrawAt",
      "outputs": [
        {
          "internalType": "uint256",
          "name": "",
          "type": "uint256"
        }
      ],
      "stateMutability": "view",
      "type": "function"
    },
    {
      "inputs": [
        {
          "internalType": "address",
          "name": "to",
          "type": "address"
        },
        {
          "internalType": "uint256",
          "name": "amount",
          "type": "uint256"
        }
      ],
      "name": "mint",
      "outputs": [],
      "stateMutability": "nonpayable",
      "type": "function"
    },
    {
      "inputs": [],
      "name": "name",
      "outputs": [
        {
          "internalType": "string",
          "name": "",
          "type": "string"
        }
      ],
      "stateMutability": "view",
      "type": "function"
    },
    {
      "inputs": [],
      "name": "owner",
      "outputs": [
        {
          "internalType": "address",
          "name": "",
          "type": "address"
        }
      ],
      "stateMutability": "view",
      "type": "function"
    },
    {
      "inputs": [],
      "name": "pause",
      "outputs": [],
      "stateMutability": "nonpayable",
      "type": "function"
    },
    {
      "inputs": [],
      "name": "paused",
      "outputs": [
        {
          "internalType": "bool",
          "name": "",
          "type": "bool"
        }
      ],
      "stateMutability": "view",
      "type": "function"
    },
    {
      "inputs": [],
      "name": "renounceOwnership",
      "outputs": [],
      "stateMutability": "nonpayable",
      "type": "function"
    },
    {
      "inputs": [],
      "name": "symbol",
      "outputs": [
        {
          "internalType": "string",
          "name": "",
          "type": "string"
        }
      ],
      "stateMutability": "view",
      "type": "function"
    },
    {
      "inputs": [],
      "name": "totalSupply",
      "outputs": [
        {
          "internalType": "uint256",
          "name": "",
          "type": "uint256"
        }
      ],
      "stateMutability": "view",
      "type": "function"
    },
    {
      "inputs": [
        {
          "internalType": "uint256",
          "name": "snapshotId",
          "type": "uint256"
        }
      ],
      "name": "totalSupplyAt",
      "outputs": [
        {
          "internalType": "uint256",
          "name": "",
          "type": "uint256"
        }
      ],
      "stateMutability": "view",
      "type": "function"
    },
    {
      "inputs": [
        {
          "internalType": "address",
          "name": "to",
          "type": "address"
        },
        {
          "internalType": "uint256",
          "name": "amount",
          "type": "uint256"
        }
      ],
      "name": "transfer",
      "outputs": [
        {
          "internalType": "bool",
          "name": "",
          "type": "bool"
        }
      ],
      "stateMutability": "nonpayable",
      "type": "function"
    },
    {
      "inputs": [
        {
          "internalType": "address",
          "name": "from",
          "type": "address"
        },
        {
          "internalType": "address",
          "name": "to",
          "type": "address"
        },
        {
          "internalType": "uint256",
          "name": "amount",
          "type": "uint256"
        }
      ],
      "name": "transferFrom",
      "outputs": [
        {
          "internalType": "bool",
          "name": "",
          "type": "bool"
        }
      ],
      "stateMutability": "nonpayable",
      "type": "function"
    },
    {
      "inputs": [
        {
          "internalType": "address",
          "name": "newOwner",
          "type": "address"
        }
      ],
      "name": "transferOwnership",
      "outputs": [],
      "stateMutability": "nonpayable",
      "type": "function"
    },
    {
      "inputs": [],
      "name": "unpause",
      "outputs": [],
      "stateMutability": "nonpayable",
      "type": "function"
    },
    {
      "inputs": [],
      "name": "withdraw",
      "outputs": [],
      "stateMutability": "nonpayable",
      "type": "function"
    }
  ],
  "transactionHash": "0xb2c91235eb5e8893f054cb99ee5555c30e4f82f1992312401f52cbc2ca221665",
  "args": [],
  "numDeployments": 13,
  "solcInputHash": "04111a0db2b1a0c28743a02ac0a85af9",
  "bytecode": "0x608060405234801561001057600080fd5b50614537806100206000396000f3fe608060405234801561001057600080fd5b50600436106101da5760003560e01c806370a0823111610104578063a457c2d7116100a2578063e263f59d11610071578063e263f59d1461056d578063f2fde38b1461058b578063f542033f146105a7578063fb66cbc5146105c3576101da565b8063a457c2d7146104ad578063a9059cbb146104dd578063ad6aa00e1461050d578063dd62ed3e1461053d576101da565b80638456cb59116100de5780638456cb59146104375780638da5cb5b1461044157806395d89b411461045f578063981b24d01461047d576101da565b806370a08231146103df578063715018a61461040f5780637fe205c714610419576101da565b80633ccfd60b1161017c5780634ee2cd7e1161014b5780634ee2cd7e146103315780635c975abb14610361578063649bf8681461037f57806366acfb63146103af576101da565b80633ccfd60b146102e55780633f4ba83a146102ef57806340c10f19146102f957806342966c6814610315576101da565b806318160ddd116101b857806318160ddd1461024957806323b872dd14610267578063313ce5671461029757806339509351146102b5576101da565b806305261aea146101df57806306fdde03146101fb578063095ea7b314610219575b600080fd5b6101f960048036038101906101f491906131f5565b6105f3565b005b6102036108ee565b60405161021091906137bc565b60405180910390f35b610233600480360381019061022e91906130b8565b610980565b60405161024091906137a1565b60405180910390f35b6102516109a3565b60405161025e9190613ac0565b60405180910390f35b610281600480360381019061027c9190613069565b6109ad565b60405161028e91906137a1565b60405180910390f35b61029f6109dc565b6040516102ac9190613adb565b60405180910390f35b6102cf60048036038101906102ca91906130b8565b6109e5565b6040516102dc91906137a1565b60405180910390f35b6102ed610a8f565b005b6102f7610b8f565b005b610313600480360381019061030e91906130b8565b610c15565b005b61032f600480360381019061032a91906131f5565b610c9f565b005b61034b600480360381019061034691906130b8565b610d28565b6040516103589190613ac0565b60405180910390f35b610369610d98565b60405161037691906137a1565b60405180910390f35b61039960048036038101906103949190613004565b610daf565b6040516103a69190613ac0565b60405180910390f35b6103c960048036038101906103c49190613004565b610dfb565b6040516103d69190613a9e565b60405180910390f35b6103f960048036038101906103f49190613004565b610f04565b6040516104069190613ac0565b60405180910390f35b610417610f4d565b005b610421610fd5565b60405161042e9190613704565b60405180910390f35b61043f610fff565b005b610449611085565b6040516104569190613704565b60405180910390f35b6104676110af565b60405161047491906137bc565b60405180910390f35b610497600480360381019061049291906131f5565b611141565b6040516104a49190613ac0565b60405180910390f35b6104c760048036038101906104c291906130b8565b611172565b6040516104d491906137a1565b60405180910390f35b6104f760048036038101906104f291906130b8565b61125c565b60405161050491906137a1565b60405180910390f35b61052760048036038101906105229190613004565b61127f565b6040516105349190613ac0565b60405180910390f35b6105576004803603810190610552919061302d565b611297565b6040516105649190613ac0565b60405180910390f35b61057561131e565b6040516105829190613ac0565b60405180910390f35b6105a560048036038101906105a09190613004565b611328565b005b6105c160048036038101906105bc9190613162565b611420565b005b6105dd60048036038101906105d891906130f4565b61156a565b6040516105ea919061377f565b60405180910390f35b6105fb6116a6565b73ffffffffffffffffffffffffffffffffffffffff16610619611085565b73ffffffffffffffffffffffffffffffffffffffff161461066f576040517f08c379a00000000000000000000000000000000000000000000000000000000081526004016106669061395e565b60405180910390fd5b60006201518060ca546106829190613bc8565b9050600061068e6116ae565b9050808211156106d3576040517f08c379a00000000000000000000000000000000000000000000000000000000081526004016106ca9061385e565b60405180910390fd5b8260cc600062015180856106e79190613ca9565b8152602001908152602001600020546107009190613bc8565b60cc6000848152602001908152602001600020819055508160ca8190555060008060ce600001805490509050600081148061078d57508360ce6000016001836107499190613ca9565b81548110610780577f4e487b7100000000000000000000000000000000000000000000000000000000600052603260045260246000fd5b9060005260206000200154105b156107a15761079a6109a3565b915061087a565b60006001826107b09190613ca9565b90505b60008111801561081657508460ce6000016001836107d19190613ca9565b81548110610808577f4e487b7100000000000000000000000000000000000000000000000000000000600052603260045260246000fd5b906000526020600020015410155b1561082e57808061082690613d74565b9150506107b3565b60ce600101818154811061086b577f4e487b7100000000000000000000000000000000000000000000000000000000600052603260045260246000fd5b90600052602060002001549250505b6108e73330670de0b6b3a764000085896108949190613c4f565b61089e9190613c1e565b60c960009054906101000a900473ffffffffffffffffffffffffffffffffffffffff1673ffffffffffffffffffffffffffffffffffffffff166116cf909392919063ffffffff16565b5050505050565b6060603680546108fd90613d9e565b80601f016020809104026020016040519081016040528092919081815260200182805461092990613d9e565b80156109765780601f1061094b57610100808354040283529160200191610976565b820191906000526020600020905b81548152906001019060200180831161095957829003601f168201915b5050505050905090565b60008061098b6116a6565b9050610998818585611758565b600191505092915050565b6000603554905090565b6000806109b86116a6565b90506109c5858285611923565b6109d08585856119af565b60019150509392505050565b60006012905090565b6000806109f06116a6565b9050610a84818585603460008673ffffffffffffffffffffffffffffffffffffffff1673ffffffffffffffffffffffffffffffffffffffff16815260200190815260200160002060008973ffffffffffffffffffffffffffffffffffffffff1673ffffffffffffffffffffffffffffffffffffffff16815260200190815260200160002054610a7f9190613bc8565b611758565b600191505092915050565b610a97610d98565b15610ad7576040517f08c379a0000000000000000000000000000000000000000000000000000000008152600401610ace9061391e565b60405180910390fd5b600080610ae333611c33565b915091508060cb60003373ffffffffffffffffffffffffffffffffffffffff1673ffffffffffffffffffffffffffffffffffffffff1681526020019081526020016000206000820151816000015560208201518160010155905050610b8b338360c960009054906101000a900473ffffffffffffffffffffffffffffffffffffffff1673ffffffffffffffffffffffffffffffffffffffff16611e7b9092919063ffffffff16565b5050565b610b976116a6565b73ffffffffffffffffffffffffffffffffffffffff16610bb5611085565b73ffffffffffffffffffffffffffffffffffffffff1614610c0b576040517f08c379a0000000000000000000000000000000000000000000000000000000008152600401610c029061395e565b60405180910390fd5b610c13611f01565b565b610c1d6116a6565b73ffffffffffffffffffffffffffffffffffffffff16610c3b611085565b73ffffffffffffffffffffffffffffffffffffffff1614610c91576040517f08c379a0000000000000000000000000000000000000000000000000000000008152600401610c889061395e565b60405180910390fd5b610c9b8282611fa3565b5050565b610ca76116a6565b73ffffffffffffffffffffffffffffffffffffffff16610cc5611085565b73ffffffffffffffffffffffffffffffffffffffff1614610d1b576040517f08c379a0000000000000000000000000000000000000000000000000000000008152600401610d129061395e565b60405180910390fd5b610d253382612104565b50565b6000806000610d758460cd60008873ffffffffffffffffffffffffffffffffffffffff1673ffffffffffffffffffffffffffffffffffffffff1681526020019081526020016000206122dd565b9150915081610d8c57610d8785610f04565b610d8e565b805b9250505092915050565b6000609760009054906101000a900460ff16905090565b600060cb60008373ffffffffffffffffffffffffffffffffffffffff1673ffffffffffffffffffffffffffffffffffffffff168152602001908152602001600020600001549050919050565b610e03612e3c565b60cd60008373ffffffffffffffffffffffffffffffffffffffff1673ffffffffffffffffffffffffffffffffffffffff16815260200190815260200160002060405180604001604052908160008201805480602002602001604051908101604052809291908181526020018280548015610e9c57602002820191906000526020600020905b815481526020019060010190808311610e88575b5050505050815260200160018201805480602002602001604051908101604052809291908181526020018280548015610ef457602002820191906000526020600020905b815481526020019060010190808311610ee0575b5050505050815250509050919050565b6000603360008373ffffffffffffffffffffffffffffffffffffffff1673ffffffffffffffffffffffffffffffffffffffff168152602001908152602001600020549050919050565b610f556116a6565b73ffffffffffffffffffffffffffffffffffffffff16610f73611085565b73ffffffffffffffffffffffffffffffffffffffff1614610fc9576040517f08c379a0000000000000000000000000000000000000000000000000000000008152600401610fc09061395e565b60405180910390fd5b610fd360006123f9565b565b600060c960009054906101000a900473ffffffffffffffffffffffffffffffffffffffff16905090565b6110076116a6565b73ffffffffffffffffffffffffffffffffffffffff16611025611085565b73ffffffffffffffffffffffffffffffffffffffff161461107b576040517f08c379a00000000000000000000000000000000000000000000000000000000081526004016110729061395e565b60405180910390fd5b6110836124bf565b565b6000606560009054906101000a900473ffffffffffffffffffffffffffffffffffffffff16905090565b6060603780546110be90613d9e565b80601f01602080910402602001604051908101604052809291908181526020018280546110ea90613d9e565b80156111375780601f1061110c57610100808354040283529160200191611137565b820191906000526020600020905b81548152906001019060200180831161111a57829003601f168201915b5050505050905090565b60008060006111518460ce6122dd565b9150915081611167576111626109a3565b611169565b805b92505050919050565b60008061117d6116a6565b90506000603460008373ffffffffffffffffffffffffffffffffffffffff1673ffffffffffffffffffffffffffffffffffffffff16815260200190815260200160002060008673ffffffffffffffffffffffffffffffffffffffff1673ffffffffffffffffffffffffffffffffffffffff16815260200190815260200160002054905083811015611243576040517f08c379a000000000000000000000000000000000000000000000000000000000815260040161123a90613a5e565b60405180910390fd5b6112508286868403611758565b60019250505092915050565b6000806112676116a6565b90506112748185856119af565b600191505092915050565b60008061128b83611c33565b50905080915050919050565b6000603460008473ffffffffffffffffffffffffffffffffffffffff1673ffffffffffffffffffffffffffffffffffffffff16815260200190815260200160002060008373ffffffffffffffffffffffffffffffffffffffff1673ffffffffffffffffffffffffffffffffffffffff16815260200190815260200160002054905092915050565b600060ca54905090565b6113306116a6565b73ffffffffffffffffffffffffffffffffffffffff1661134e611085565b73ffffffffffffffffffffffffffffffffffffffff16146113a4576040517f08c379a000000000000000000000000000000000000000000000000000000000815260040161139b9061395e565b60405180910390fd5b600073ffffffffffffffffffffffffffffffffffffffff168173ffffffffffffffffffffffffffffffffffffffff161415611414576040517f08c379a000000000000000000000000000000000000000000000000000000000815260040161140b9061387e565b60405180910390fd5b61141d816123f9565b50565b600060019054906101000a900460ff166114485760008054906101000a900460ff1615611451565b611450612562565b5b611490576040517f08c379a00000000000000000000000000000000000000000000000000000000081526004016114879061393e565b60405180910390fd5b60008060019054906101000a900460ff1615905080156114e0576001600060016101000a81548160ff02191690831515021790555060016000806101000a81548160ff0219169083151502179055505b6114e8612573565b6114f06125cc565b6114fa8585612625565b8260c960006101000a81548173ffffffffffffffffffffffffffffffffffffffff021916908373ffffffffffffffffffffffffffffffffffffffff1602179055508160ca8190555080156115635760008060016101000a81548160ff0219169083151502179055505b5050505050565b606060008383905067ffffffffffffffff8111156115b1577f4e487b7100000000000000000000000000000000000000000000000000000000600052604160045260246000fd5b6040519080825280602002602001820160405280156115df5781602001602082028036833780820191505090505b50905060005b8484905081101561169b5760cc600086868481811061162d577f4e487b7100000000000000000000000000000000000000000000000000000000600052603260045260246000fd5b9050602002013581526020019081526020016000205482828151811061167c577f4e487b7100000000000000000000000000000000000000000000000000000000600052603260045260246000fd5b602002602001018181525050808061169390613e01565b9150506115e5565b508091505092915050565b600033905090565b600062015180426116bf9190613e4a565b426116ca9190613ca9565b905090565b611752846323b872dd60e01b8585856040516024016116f09392919061371f565b604051602081830303815290604052907bffffffffffffffffffffffffffffffffffffffffffffffffffffffff19166020820180517bffffffffffffffffffffffffffffffffffffffffffffffffffffffff8381831617835250505050612682565b50505050565b600073ffffffffffffffffffffffffffffffffffffffff168373ffffffffffffffffffffffffffffffffffffffff1614156117c8576040517f08c379a00000000000000000000000000000000000000000000000000000000081526004016117bf906139be565b60405180910390fd5b600073ffffffffffffffffffffffffffffffffffffffff168273ffffffffffffffffffffffffffffffffffffffff161415611838576040517f08c379a000000000000000000000000000000000000000000000000000000000815260040161182f9061389e565b60405180910390fd5b80603460008573ffffffffffffffffffffffffffffffffffffffff1673ffffffffffffffffffffffffffffffffffffffff16815260200190815260200160002060008473ffffffffffffffffffffffffffffffffffffffff1673ffffffffffffffffffffffffffffffffffffffff168152602001908152602001600020819055508173ffffffffffffffffffffffffffffffffffffffff168373ffffffffffffffffffffffffffffffffffffffff167f8c5be1e5ebec7d5bd14f71427d1e84f3dd0314c0f7b2291e5b200ac8c7c3b925836040516119169190613ac0565b60405180910390a3505050565b600061192f8484611297565b90507fffffffffffffffffffffffffffffffffffffffffffffffffffffffffffffffff81146119a9578181101561199b576040517f08c379a0000000000000000000000000000000000000000000000000000000008152600401611992906138be565b60405180910390fd5b6119a88484848403611758565b5b50505050565b600073ffffffffffffffffffffffffffffffffffffffff168373ffffffffffffffffffffffffffffffffffffffff161415611a1f576040517f08c379a0000000000000000000000000000000000000000000000000000000008152600401611a169061399e565b60405180910390fd5b600073ffffffffffffffffffffffffffffffffffffffff168273ffffffffffffffffffffffffffffffffffffffff161415611a8f576040517f08c379a0000000000000000000000000000000000000000000000000000000008152600401611a86906137fe565b60405180910390fd5b611a9a838383612749565b6000603360008573ffffffffffffffffffffffffffffffffffffffff1673ffffffffffffffffffffffffffffffffffffffff16815260200190815260200160002054905081811015611b21576040517f08c379a0000000000000000000000000000000000000000000000000000000008152600401611b18906138de565b60405180910390fd5b818103603360008673ffffffffffffffffffffffffffffffffffffffff1673ffffffffffffffffffffffffffffffffffffffff1681526020019081526020016000208190555081603360008573ffffffffffffffffffffffffffffffffffffffff1673ffffffffffffffffffffffffffffffffffffffff1681526020019081526020016000206000828254611bb69190613bc8565b925050819055508273ffffffffffffffffffffffffffffffffffffffff168473ffffffffffffffffffffffffffffffffffffffff167fddf252ad1be2c89b69c2b068fc378daa952ba7f163c4a11628f55a4df523b3ef84604051611c1a9190613ac0565b60405180910390a3611c2d848484612803565b50505050565b6000611c3d612e56565b600060ca549050600060cb60008673ffffffffffffffffffffffffffffffffffffffff1673ffffffffffffffffffffffffffffffffffffffff1681526020019081526020016000209050600081600001549050600060cd60008873ffffffffffffffffffffffffffffffffffffffff1673ffffffffffffffffffffffffffffffffffffffff1681526020019081526020016000209050600081600001805490509050600080856001015490505b82811015611dc0576000846000018281548110611d30577f4e487b7100000000000000000000000000000000000000000000000000000000600052603260045260246000fd5b9060005260206000200154905087811115611d4b5750611dc0565b611d9c856001018381548110611d8a577f4e487b7100000000000000000000000000000000000000000000000000000000600052603260045260246000fd5b90600052602060002001548783612808565b83611da79190613bc8565b9250809550508080611db890613e01565b915050611cea565b82811015611e2b57611e19846001018281548110611e07577f4e487b7100000000000000000000000000000000000000000000000000000000600052603260045260246000fd5b90600052602060002001548689612808565b82611e249190613bc8565b9150611e55565b84871115611e5457611e46611e3f8b610f04565b8689612808565b82611e519190613bc8565b91505b5b816040518060400160405280898152602001838152509850985050505050505050915091565b611efc8363a9059cbb60e01b8484604051602401611e9a929190613756565b604051602081830303815290604052907bffffffffffffffffffffffffffffffffffffffffffffffffffffffff19166020820180517bffffffffffffffffffffffffffffffffffffffffffffffffffffffff8381831617835250505050612682565b505050565b611f09610d98565b611f48576040517f08c379a0000000000000000000000000000000000000000000000000000000008152600401611f3f9061381e565b60405180910390fd5b6000609760006101000a81548160ff0219169083151502179055507f5db9ee0a495bf2e6ff9c91a7834c1ba4fdd244a5e8aa4e537bd38aeae4b073aa611f8c6116a6565b604051611f999190613704565b60405180910390a1565b600073ffffffffffffffffffffffffffffffffffffffff168273ffffffffffffffffffffffffffffffffffffffff161415612013576040517f08c379a000000000000000000000000000000000000000000000000000000000815260040161200a90613a7e565b60405180910390fd5b61201f60008383612749565b80603560008282546120319190613bc8565b9250508190555080603360008473ffffffffffffffffffffffffffffffffffffffff1673ffffffffffffffffffffffffffffffffffffffff16815260200190815260200160002060008282546120879190613bc8565b925050819055508173ffffffffffffffffffffffffffffffffffffffff16600073ffffffffffffffffffffffffffffffffffffffff167fddf252ad1be2c89b69c2b068fc378daa952ba7f163c4a11628f55a4df523b3ef836040516120ec9190613ac0565b60405180910390a361210060008383612803565b5050565b600073ffffffffffffffffffffffffffffffffffffffff168273ffffffffffffffffffffffffffffffffffffffff161415612174576040517f08c379a000000000000000000000000000000000000000000000000000000000815260040161216b9061397e565b60405180910390fd5b61218082600083612749565b6000603360008473ffffffffffffffffffffffffffffffffffffffff1673ffffffffffffffffffffffffffffffffffffffff16815260200190815260200160002054905081811015612207576040517f08c379a00000000000000000000000000000000000000000000000000000000081526004016121fe9061383e565b60405180910390fd5b818103603360008573ffffffffffffffffffffffffffffffffffffffff1673ffffffffffffffffffffffffffffffffffffffff16815260200190815260200160002081905550816035600082825461225f9190613ca9565b92505081905550600073ffffffffffffffffffffffffffffffffffffffff168373ffffffffffffffffffffffffffffffffffffffff167fddf252ad1be2c89b69c2b068fc378daa952ba7f163c4a11628f55a4df523b3ef846040516122c49190613ac0565b60405180910390a36122d883600084612803565b505050565b60008060008411612323576040517f08c379a000000000000000000000000000000000000000000000000000000000815260040161231a90613a1e565b60405180910390fd5b61232b6116ae565b84111561236d576040517f08c379a0000000000000000000000000000000000000000000000000000000008152600401612364906137de565b60405180910390fd5b6000612385858560000161287290919063ffffffff16565b905083600001805490508114156123a35760008092509250506123f2565b60018460010182815481106123e1577f4e487b7100000000000000000000000000000000000000000000000000000000600052603260045260246000fd5b906000526020600020015492509250505b9250929050565b6000606560009054906101000a900473ffffffffffffffffffffffffffffffffffffffff16905081606560006101000a81548173ffffffffffffffffffffffffffffffffffffffff021916908373ffffffffffffffffffffffffffffffffffffffff1602179055508173ffffffffffffffffffffffffffffffffffffffff168173ffffffffffffffffffffffffffffffffffffffff167f8be0079c531659141344cd1fd0a4f28419497f9722a3daafe3b4186f6b6457e060405160405180910390a35050565b6124c7610d98565b15612507576040517f08c379a00000000000000000000000000000000000000000000000000000000081526004016124fe9061391e565b60405180910390fd5b6001609760006101000a81548160ff0219169083151502179055507f62e78cea01bee320cd4e420270b5ea74000d11b0c9f74754ebdbfc544b05a25861254b6116a6565b6040516125589190613704565b60405180910390a1565b600061256d30612998565b15905090565b600060019054906101000a900460ff166125c2576040517f08c379a00000000000000000000000000000000000000000000000000000000081526004016125b9906139fe565b60405180910390fd5b6125ca6129bb565b565b600060019054906101000a900460ff1661261b576040517f08c379a0000000000000000000000000000000000000000000000000000000008152600401612612906139fe565b60405180910390fd5b612623612a1c565b565b600060019054906101000a900460ff16612674576040517f08c379a000000000000000000000000000000000000000000000000000000000815260040161266b906139fe565b60405180910390fd5b61267e8282612a88565b5050565b60006126e4826040518060400160405280602081526020017f5361666545524332303a206c6f772d6c6576656c2063616c6c206661696c65648152508573ffffffffffffffffffffffffffffffffffffffff16612b099092919063ffffffff16565b905060008151111561274457808060200190518101906127049190613139565b612743576040517f08c379a000000000000000000000000000000000000000000000000000000000815260040161273a90613a3e565b60405180910390fd5b5b505050565b612754838383612b21565b600073ffffffffffffffffffffffffffffffffffffffff168373ffffffffffffffffffffffffffffffffffffffff16141561279f5761279282612b26565b61279a612b79565b6127fe565b600073ffffffffffffffffffffffffffffffffffffffff168273ffffffffffffffffffffffffffffffffffffffff1614156127ea576127dd83612b26565b6127e5612b79565b6127fd565b6127f383612b26565b6127fc82612b26565b5b5b505050565b505050565b60008084146128665760cc60008481526020019081526020016000205460cc6000848152602001908152602001600020546128439190613ca9565b670de0b6b3a7640000856128579190613c1e565b6128619190613c4f565b612869565b60005b90509392505050565b600080838054905014156128895760009050612992565b600080848054905090505b808210156129135760006128a88383612b8d565b9050848682815481106128e4577f4e487b7100000000000000000000000000000000000000000000000000000000600052603260045260246000fd5b906000526020600020015411156128fd5780915061290d565b60018161290a9190613bc8565b92505b50612894565b6000821180156129715750838560018461292d9190613ca9565b81548110612964577f4e487b7100000000000000000000000000000000000000000000000000000000600052603260045260246000fd5b9060005260206000200154145b1561298c576001826129839190613ca9565b92505050612992565b81925050505b92915050565b6000808273ffffffffffffffffffffffffffffffffffffffff163b119050919050565b600060019054906101000a900460ff16612a0a576040517f08c379a0000000000000000000000000000000000000000000000000000000008152600401612a01906139fe565b60405180910390fd5b612a1a612a156116a6565b6123f9565b565b600060019054906101000a900460ff16612a6b576040517f08c379a0000000000000000000000000000000000000000000000000000000008152600401612a62906139fe565b60405180910390fd5b6000609760006101000a81548160ff021916908315150217905550565b600060019054906101000a900460ff16612ad7576040517f08c379a0000000000000000000000000000000000000000000000000000000008152600401612ace906139fe565b60405180910390fd5b8160369080519060200190612aed929190612e70565b508060379080519060200190612b04929190612e70565b505050565b6060612b188484600085612bb3565b90509392505050565b505050565b612b7660cd60008373ffffffffffffffffffffffffffffffffffffffff1673ffffffffffffffffffffffffffffffffffffffff168152602001908152602001600020612b7183610f04565b612cc7565b50565b612b8b60ce612b866109a3565b612cc7565b565b60006002828418612b9e9190613c1e565b828416612bab9190613bc8565b905092915050565b606082471015612bf8576040517f08c379a0000000000000000000000000000000000000000000000000000000008152600401612bef906138fe565b60405180910390fd5b612c0185612d42565b612c40576040517f08c379a0000000000000000000000000000000000000000000000000000000008152600401612c37906139de565b60405180910390fd5b6000808673ffffffffffffffffffffffffffffffffffffffff168587604051612c6991906136ed565b60006040518083038185875af1925050503d8060008114612ca6576040519150601f19603f3d011682016040523d82523d6000602084013e612cab565b606091505b5091509150612cbb828286612d65565b92505050949350505050565b6000612cd16116ae565b905080612ce084600001612dcc565b1015612d3d5782600001819080600181540180825580915050600190039060005260206000200160009091909190915055826001018290806001815401808255809150506001900390600052602060002001600090919091909150555b505050565b6000808273ffffffffffffffffffffffffffffffffffffffff163b119050919050565b60608315612d7557829050612dc5565b600083511115612d885782518084602001fd5b816040517f08c379a0000000000000000000000000000000000000000000000000000000008152600401612dbc91906137bc565b60405180910390fd5b9392505050565b600080828054905014612e32578160018380549050612deb9190613ca9565b81548110612e22577f4e487b7100000000000000000000000000000000000000000000000000000000600052603260045260246000fd5b9060005260206000200154612e35565b60005b9050919050565b604051806040016040528060608152602001606081525090565b604051806040016040528060008152602001600081525090565b828054612e7c90613d9e565b90600052602060002090601f016020900481019282612e9e5760008555612ee5565b82601f10612eb757805160ff1916838001178555612ee5565b82800160010185558215612ee5579182015b82811115612ee4578251825591602001919060010190612ec9565b5b509050612ef29190612ef6565b5090565b5b80821115612f0f576000816000905550600101612ef7565b5090565b6000612f26612f2184613b1b565b613af6565b905082815260208101848484011115612f3e57600080fd5b612f49848285613d32565b509392505050565b600081359050612f60816144bc565b92915050565b60008083601f840112612f7857600080fd5b8235905067ffffffffffffffff811115612f9157600080fd5b602083019150836020820283011115612fa957600080fd5b9250929050565b600081519050612fbf816144d3565b92915050565b600082601f830112612fd657600080fd5b8135612fe6848260208601612f13565b91505092915050565b600081359050612ffe816144ea565b92915050565b60006020828403121561301657600080fd5b600061302484828501612f51565b91505092915050565b6000806040838503121561304057600080fd5b600061304e85828601612f51565b925050602061305f85828601612f51565b9150509250929050565b60008060006060848603121561307e57600080fd5b600061308c86828701612f51565b935050602061309d86828701612f51565b92505060406130ae86828701612fef565b9150509250925092565b600080604083850312156130cb57600080fd5b60006130d985828601612f51565b92505060206130ea85828601612fef565b9150509250929050565b6000806020838503121561310757600080fd5b600083013567ffffffffffffffff81111561312157600080fd5b61312d85828601612f66565b92509250509250929050565b60006020828403121561314b57600080fd5b600061315984828501612fb0565b91505092915050565b6000806000806080858703121561317857600080fd5b600085013567ffffffffffffffff81111561319257600080fd5b61319e87828801612fc5565b945050602085013567ffffffffffffffff8111156131bb57600080fd5b6131c787828801612fc5565b93505060406131d887828801612f51565b92505060606131e987828801612fef565b91505092959194509250565b60006020828403121561320757600080fd5b600061321584828501612fef565b91505092915050565b600061322a83836136c0565b60208301905092915050565b61323f81613cdd565b82525050565b600061325082613b5c565b61325a8185613b8a565b935061326583613b4c565b8060005b8381101561329657815161327d888261321e565b975061328883613b7d565b925050600181019050613269565b5085935050505092915050565b60006132ae82613b5c565b6132b88185613b9b565b93506132c383613b4c565b8060005b838110156132f45781516132db888261321e565b97506132e683613b7d565b9250506001810190506132c7565b5085935050505092915050565b61330a81613cef565b82525050565b600061331b82613b67565b6133258185613bac565b9350613335818560208601613d41565b80840191505092915050565b600061334c82613b72565b6133568185613bb7565b9350613366818560208601613d41565b61336f81613f37565b840191505092915050565b6000613387601d83613bb7565b915061339282613f48565b602082019050919050565b60006133aa602383613bb7565b91506133b582613f71565b604082019050919050565b60006133cd601483613bb7565b91506133d882613fc0565b602082019050919050565b60006133f0602283613bb7565b91506133fb82613fe9565b604082019050919050565b6000613413602083613bb7565b915061341e82614038565b602082019050919050565b6000613436602683613bb7565b915061344182614061565b604082019050919050565b6000613459602283613bb7565b9150613464826140b0565b604082019050919050565b600061347c601d83613bb7565b9150613487826140ff565b602082019050919050565b600061349f602683613bb7565b91506134aa82614128565b604082019050919050565b60006134c2602683613bb7565b91506134cd82614177565b604082019050919050565b60006134e5601083613bb7565b91506134f0826141c6565b602082019050919050565b6000613508602e83613bb7565b9150613513826141ef565b604082019050919050565b600061352b602083613bb7565b91506135368261423e565b602082019050919050565b600061354e602183613bb7565b915061355982614267565b604082019050919050565b6000613571602583613bb7565b915061357c826142b6565b604082019050919050565b6000613594602483613bb7565b915061359f82614305565b604082019050919050565b60006135b7601d83613bb7565b91506135c282614354565b602082019050919050565b60006135da602b83613bb7565b91506135e58261437d565b604082019050919050565b60006135fd601683613bb7565b9150613608826143cc565b602082019050919050565b6000613620602a83613bb7565b915061362b826143f5565b604082019050919050565b6000613643602583613bb7565b915061364e82614444565b604082019050919050565b6000613666601f83613bb7565b915061367182614493565b602082019050919050565b600060408301600083015184820360008601526136998282613245565b915050602083015184820360208601526136b38282613245565b9150508091505092915050565b6136c981613d1b565b82525050565b6136d881613d1b565b82525050565b6136e781613d25565b82525050565b60006136f98284613310565b915081905092915050565b60006020820190506137196000830184613236565b92915050565b60006060820190506137346000830186613236565b6137416020830185613236565b61374e60408301846136cf565b949350505050565b600060408201905061376b6000830185613236565b61377860208301846136cf565b9392505050565b6000602082019050818103600083015261379981846132a3565b905092915050565b60006020820190506137b66000830184613301565b92915050565b600060208201905081810360008301526137d68184613341565b905092915050565b600060208201905081810360008301526137f78161337a565b9050919050565b600060208201905081810360008301526138178161339d565b9050919050565b60006020820190508181036000830152613837816133c0565b9050919050565b60006020820190508181036000830152613857816133e3565b9050919050565b6000602082019050818103600083015261387781613406565b9050919050565b6000602082019050818103600083015261389781613429565b9050919050565b600060208201905081810360008301526138b78161344c565b9050919050565b600060208201905081810360008301526138d78161346f565b9050919050565b600060208201905081810360008301526138f781613492565b9050919050565b60006020820190508181036000830152613917816134b5565b9050919050565b60006020820190508181036000830152613937816134d8565b9050919050565b60006020820190508181036000830152613957816134fb565b9050919050565b600060208201905081810360008301526139778161351e565b9050919050565b6000602082019050818103600083015261399781613541565b9050919050565b600060208201905081810360008301526139b781613564565b9050919050565b600060208201905081810360008301526139d781613587565b9050919050565b600060208201905081810360008301526139f7816135aa565b9050919050565b60006020820190508181036000830152613a17816135cd565b9050919050565b60006020820190508181036000830152613a37816135f0565b9050919050565b60006020820190508181036000830152613a5781613613565b9050919050565b60006020820190508181036000830152613a7781613636565b9050919050565b60006020820190508181036000830152613a9781613659565b9050919050565b60006020820190508181036000830152613ab8818461367c565b905092915050565b6000602082019050613ad560008301846136cf565b92915050565b6000602082019050613af060008301846136de565b92915050565b6000613b00613b11565b9050613b0c8282613dd0565b919050565b6000604051905090565b600067ffffffffffffffff821115613b3657613b35613f08565b5b613b3f82613f37565b9050602081019050919050565b6000819050602082019050919050565b600081519050919050565b600081519050919050565b600081519050919050565b6000602082019050919050565b600082825260208201905092915050565b600082825260208201905092915050565b600081905092915050565b600082825260208201905092915050565b6000613bd382613d1b565b9150613bde83613d1b565b9250827fffffffffffffffffffffffffffffffffffffffffffffffffffffffffffffffff03821115613c1357613c12613e7b565b5b828201905092915050565b6000613c2982613d1b565b9150613c3483613d1b565b925082613c4457613c43613eaa565b5b828204905092915050565b6000613c5a82613d1b565b9150613c6583613d1b565b9250817fffffffffffffffffffffffffffffffffffffffffffffffffffffffffffffffff0483118215151615613c9e57613c9d613e7b565b5b828202905092915050565b6000613cb482613d1b565b9150613cbf83613d1b565b925082821015613cd257613cd1613e7b565b5b828203905092915050565b6000613ce882613cfb565b9050919050565b60008115159050919050565b600073ffffffffffffffffffffffffffffffffffffffff82169050919050565b6000819050919050565b600060ff82169050919050565b82818337600083830152505050565b60005b83811015613d5f578082015181840152602081019050613d44565b83811115613d6e576000848401525b50505050565b6000613d7f82613d1b565b91506000821415613d9357613d92613e7b565b5b600182039050919050565b60006002820490506001821680613db657607f821691505b60208210811415613dca57613dc9613ed9565b5b50919050565b613dd982613f37565b810181811067ffffffffffffffff82111715613df857613df7613f08565b5b80604052505050565b6000613e0c82613d1b565b91507fffffffffffffffffffffffffffffffffffffffffffffffffffffffffffffffff821415613e3f57613e3e613e7b565b5b600182019050919050565b6000613e5582613d1b565b9150613e6083613d1b565b925082613e7057613e6f613eaa565b5b828206905092915050565b7f4e487b7100000000000000000000000000000000000000000000000000000000600052601160045260246000fd5b7f4e487b7100000000000000000000000000000000000000000000000000000000600052601260045260246000fd5b7f4e487b7100000000000000000000000000000000000000000000000000000000600052602260045260246000fd5b7f4e487b7100000000000000000000000000000000000000000000000000000000600052604160045260246000fd5b6000601f19601f8301169050919050565b7f4552433230536e617073686f743a206e6f6e6578697374656e74206964000000600082015250565b7f45524332303a207472616e7366657220746f20746865207a65726f206164647260008201527f6573730000000000000000000000000000000000000000000000000000000000602082015250565b7f5061757361626c653a206e6f7420706175736564000000000000000000000000600082015250565b7f45524332303a206275726e20616d6f756e7420657863656564732062616c616e60008201527f6365000000000000000000000000000000000000000000000000000000000000602082015250565b7f4d696e696e67333a20616c6c20736e617073686f74732066696e616c697a6564600082015250565b7f4f776e61626c653a206e6577206f776e657220697320746865207a65726f206160008201527f6464726573730000000000000000000000000000000000000000000000000000602082015250565b7f45524332303a20617070726f766520746f20746865207a65726f20616464726560008201527f7373000000000000000000000000000000000000000000000000000000000000602082015250565b7f45524332303a20696e73756666696369656e7420616c6c6f77616e6365000000600082015250565b7f45524332303a207472616e7366657220616d6f756e742065786365656473206260008201527f616c616e63650000000000000000000000000000000000000000000000000000602082015250565b7f416464726573733a20696e73756666696369656e742062616c616e636520666f60008201527f722063616c6c0000000000000000000000000000000000000000000000000000602082015250565b7f5061757361626c653a2070617573656400000000000000000000000000000000600082015250565b7f496e697469616c697a61626c653a20636f6e747261637420697320616c72656160008201527f647920696e697469616c697a6564000000000000000000000000000000000000602082015250565b7f4f776e61626c653a2063616c6c6572206973206e6f7420746865206f776e6572600082015250565b7f45524332303a206275726e2066726f6d20746865207a65726f2061646472657360008201527f7300000000000000000000000000000000000000000000000000000000000000602082015250565b7f45524332303a207472616e736665722066726f6d20746865207a65726f20616460008201527f6472657373000000000000000000000000000000000000000000000000000000602082015250565b7f45524332303a20617070726f76652066726f6d20746865207a65726f2061646460008201527f7265737300000000000000000000000000000000000000000000000000000000602082015250565b7f416464726573733a2063616c6c20746f206e6f6e2d636f6e7472616374000000600082015250565b7f496e697469616c697a61626c653a20636f6e7472616374206973206e6f74206960008201527f6e697469616c697a696e67000000000000000000000000000000000000000000602082015250565b7f4552433230536e617073686f743a206964206973203000000000000000000000600082015250565b7f5361666545524332303a204552433230206f7065726174696f6e20646964206e60008201527f6f74207375636365656400000000000000000000000000000000000000000000602082015250565b7f45524332303a2064656372656173656420616c6c6f77616e63652062656c6f7760008201527f207a65726f000000000000000000000000000000000000000000000000000000602082015250565b7f45524332303a206d696e7420746f20746865207a65726f206164647265737300600082015250565b6144c581613cdd565b81146144d057600080fd5b50565b6144dc81613cef565b81146144e757600080fd5b50565b6144f381613d1b565b81146144fe57600080fd5b5056fea2646970667358221220fdea8216a3bdc2273c0dc4655da4149dcbb0931ebe1610078c4fb3859826ddfe64736f6c63430008040033",
  "devdoc": {
    "kind": "dev",
    "methods": {
      "allowance(address,address)": {
        "details": "See {IERC20-allowance}."
      },
      "approve(address,uint256)": {
        "details": "See {IERC20-approve}. NOTE: If `amount` is the maximum `uint256`, the allowance is not updated on `transferFrom`. This is semantically equivalent to an infinite approval. Requirements: - `spender` cannot be the zero address."
      },
      "balanceOf(address)": {
        "details": "See {IERC20-balanceOf}."
      },
      "decimals()": {
        "details": "Returns the number of decimals used to get its user representation. For example, if `decimals` equals `2`, a balance of `505` tokens should be displayed to a user as `5.05` (`505 / 10 ** 2`). Tokens usually opt for a value of 18, imitating the relationship between Ether and Wei. This is the value {ERC20} uses, unless this function is overridden; NOTE: This information is only used for _display_ purposes: it in no way affects any of the arithmetic of the contract, including {IERC20-balanceOf} and {IERC20-transfer}."
      },
      "decreaseAllowance(address,uint256)": {
        "details": "Atomically decreases the allowance granted to `spender` by the caller. This is an alternative to {approve} that can be used as a mitigation for problems described in {IERC20-approve}. Emits an {Approval} event indicating the updated allowance. Requirements: - `spender` cannot be the zero address. - `spender` must have allowance for the caller of at least `subtractedValue`."
      },
      "increaseAllowance(address,uint256)": {
        "details": "Atomically increases the allowance granted to `spender` by the caller. This is an alternative to {approve} that can be used as a mitigation for problems described in {IERC20-approve}. Emits an {Approval} event indicating the updated allowance. Requirements: - `spender` cannot be the zero address."
      },
      "name()": {
        "details": "Returns the name of the token."
      },
      "owner()": {
        "details": "Returns the address of the current owner."
      },
      "paused()": {
        "details": "Returns true if the contract is paused, and false otherwise."
      },
      "renounceOwnership()": {
        "details": "Leaves the contract without owner. It will not be possible to call `onlyOwner` functions anymore. Can only be called by the current owner. NOTE: Renouncing ownership will leave the contract without an owner, thereby removing any functionality that is only available to the owner."
      },
      "symbol()": {
        "details": "Returns the symbol of the token, usually a shorter version of the name."
      },
      "totalSupply()": {
        "details": "See {IERC20-totalSupply}."
      },
      "transfer(address,uint256)": {
        "details": "See {IERC20-transfer}. Requirements: - `to` cannot be the zero address. - the caller must have a balance of at least `amount`."
      },
      "transferFrom(address,address,uint256)": {
        "details": "See {IERC20-transferFrom}. Emits an {Approval} event indicating the updated allowance. This is not required by the EIP. See the note at the beginning of {ERC20}. NOTE: Does not update the allowance if the current allowance is the maximum `uint256`. Requirements: - `from` and `to` cannot be the zero address. - `from` must have a balance of at least `amount`. - the caller must have allowance for ``from``'s tokens of at least `amount`."
      },
      "transferOwnership(address)": {
        "details": "Transfers ownership of the contract to a new account (`newOwner`). Can only be called by the current owner."
      }
    },
    "version": 1
  },
  "userdoc": {
    "kind": "user",
    "methods": {},
    "version": 1
  },
  "storageLayout": {
    "storage": [
      {
        "astId": 130,
        "contract": "contracts/Mining3.sol:Mining3",
        "label": "_initialized",
        "offset": 0,
        "slot": "0",
        "type": "t_bool"
      },
      {
        "astId": 133,
        "contract": "contracts/Mining3.sol:Mining3",
        "label": "_initializing",
        "offset": 1,
        "slot": "0",
        "type": "t_bool"
      },
      {
        "astId": 1308,
        "contract": "contracts/Mining3.sol:Mining3",
        "label": "__gap",
        "offset": 0,
        "slot": "1",
        "type": "t_array(t_uint256)50_storage"
      },
      {
        "astId": 327,
        "contract": "contracts/Mining3.sol:Mining3",
        "label": "_balances",
        "offset": 0,
        "slot": "51",
        "type": "t_mapping(t_address,t_uint256)"
      },
      {
        "astId": 333,
        "contract": "contracts/Mining3.sol:Mining3",
        "label": "_allowances",
        "offset": 0,
        "slot": "52",
        "type": "t_mapping(t_address,t_mapping(t_address,t_uint256))"
      },
      {
        "astId": 335,
        "contract": "contracts/Mining3.sol:Mining3",
        "label": "_totalSupply",
        "offset": 0,
        "slot": "53",
        "type": "t_uint256"
      },
      {
        "astId": 337,
        "contract": "contracts/Mining3.sol:Mining3",
        "label": "_name",
        "offset": 0,
        "slot": "54",
        "type": "t_string_storage"
      },
      {
        "astId": 339,
        "contract": "contracts/Mining3.sol:Mining3",
        "label": "_symbol",
        "offset": 0,
        "slot": "55",
        "type": "t_string_storage"
      },
      {
        "astId": 920,
        "contract": "contracts/Mining3.sol:Mining3",
        "label": "__gap",
        "offset": 0,
        "slot": "56",
        "type": "t_array(t_uint256)45_storage"
      },
      {
        "astId": 10,
        "contract": "contracts/Mining3.sol:Mining3",
        "label": "_owner",
        "offset": 0,
        "slot": "101",
        "type": "t_address"
      },
      {
        "astId": 122,
        "contract": "contracts/Mining3.sol:Mining3",
        "label": "__gap",
        "offset": 0,
        "slot": "102",
        "type": "t_array(t_uint256)49_storage"
      },
      {
        "astId": 218,
        "contract": "contracts/Mining3.sol:Mining3",
        "label": "_paused",
        "offset": 0,
        "slot": "151",
        "type": "t_bool"
      },
      {
        "astId": 307,
        "contract": "contracts/Mining3.sol:Mining3",
        "label": "__gap",
        "offset": 0,
        "slot": "152",
        "type": "t_array(t_uint256)49_storage"
      },
      {
        "astId": 2115,
        "contract": "contracts/Mining3.sol:Mining3",
        "label": "_earningToken",
        "offset": 0,
        "slot": "201",
        "type": "t_address"
      },
      {
        "astId": 2117,
        "contract": "contracts/Mining3.sol:Mining3",
        "label": "_finalized",
        "offset": 0,
        "slot": "202",
        "type": "t_uint256"
      },
      {
        "astId": 2122,
        "contract": "contracts/Mining3.sol:Mining3",
        "label": "_withdrawal",
        "offset": 0,
        "slot": "203",
        "type": "t_mapping(t_address,t_struct(Withdrawal)2113_storage)"
      },
      {
        "astId": 2126,
        "contract": "contracts/Mining3.sol:Mining3",
        "label": "_earningSum",
        "offset": 0,
        "slot": "204",
        "type": "t_mapping(t_uint256,t_uint256)"
      },
      {
        "astId": 2138,
        "contract": "contracts/Mining3.sol:Mining3",
        "label": "_accountBalanceSnapshots",
        "offset": 0,
        "slot": "205",
        "type": "t_mapping(t_address,t_struct(Snapshots)2133_storage)"
      },
      {
        "astId": 2141,
        "contract": "contracts/Mining3.sol:Mining3",
        "label": "_totalSupplySnapshots",
        "offset": 0,
        "slot": "206",
        "type": "t_struct(Snapshots)2133_storage"
      }
    ],
    "types": {
      "t_address": {
        "encoding": "inplace",
        "label": "address",
        "numberOfBytes": "20"
      },
      "t_array(t_uint256)45_storage": {
        "base": "t_uint256",
        "encoding": "inplace",
        "label": "uint256[45]",
        "numberOfBytes": "1440"
      },
      "t_array(t_uint256)49_storage": {
        "base": "t_uint256",
        "encoding": "inplace",
        "label": "uint256[49]",
        "numberOfBytes": "1568"
      },
      "t_array(t_uint256)50_storage": {
        "base": "t_uint256",
        "encoding": "inplace",
        "label": "uint256[50]",
        "numberOfBytes": "1600"
      },
      "t_array(t_uint256)dyn_storage": {
        "base": "t_uint256",
        "encoding": "dynamic_array",
        "label": "uint256[]",
        "numberOfBytes": "32"
      },
      "t_bool": {
        "encoding": "inplace",
        "label": "bool",
        "numberOfBytes": "1"
      },
      "t_mapping(t_address,t_mapping(t_address,t_uint256))": {
        "encoding": "mapping",
        "key": "t_address",
        "label": "mapping(address => mapping(address => uint256))",
        "numberOfBytes": "32",
        "value": "t_mapping(t_address,t_uint256)"
      },
      "t_mapping(t_address,t_struct(Snapshots)2133_storage)": {
        "encoding": "mapping",
        "key": "t_address",
        "label": "mapping(address => struct Mining3.Snapshots)",
        "numberOfBytes": "32",
        "value": "t_struct(Snapshots)2133_storage"
      },
      "t_mapping(t_address,t_struct(Withdrawal)2113_storage)": {
        "encoding": "mapping",
        "key": "t_address",
        "label": "mapping(address => struct Mining3.Withdrawal)",
        "numberOfBytes": "32",
        "value": "t_struct(Withdrawal)2113_storage"
      },
      "t_mapping(t_address,t_uint256)": {
        "encoding": "mapping",
        "key": "t_address",
        "label": "mapping(address => uint256)",
        "numberOfBytes": "32",
        "value": "t_uint256"
      },
      "t_mapping(t_uint256,t_uint256)": {
        "encoding": "mapping",
        "key": "t_uint256",
        "label": "mapping(uint256 => uint256)",
        "numberOfBytes": "32",
        "value": "t_uint256"
      },
      "t_string_storage": {
        "encoding": "bytes",
        "label": "string",
        "numberOfBytes": "32"
      },
      "t_struct(Snapshots)2133_storage": {
        "encoding": "inplace",
        "label": "struct Mining3.Snapshots",
        "members": [
          {
            "astId": 2129,
            "contract": "contracts/Mining3.sol:Mining3",
            "label": "ids",
            "offset": 0,
            "slot": "0",
            "type": "t_array(t_uint256)dyn_storage"
          },
          {
            "astId": 2132,
            "contract": "contracts/Mining3.sol:Mining3",
            "label": "values",
            "offset": 0,
            "slot": "1",
            "type": "t_array(t_uint256)dyn_storage"
          }
        ],
        "numberOfBytes": "64"
      },
      "t_struct(Withdrawal)2113_storage": {
        "encoding": "inplace",
        "label": "struct Mining3.Withdrawal",
        "members": [
          {
            "astId": 2110,
            "contract": "contracts/Mining3.sol:Mining3",
            "label": "snapshotId",
            "offset": 0,
            "slot": "0",
            "type": "t_uint256"
          },
          {
            "astId": 2112,
            "contract": "contracts/Mining3.sol:Mining3",
            "label": "index",
            "offset": 0,
            "slot": "1",
            "type": "t_uint256"
          }
        ],
        "numberOfBytes": "64"
      },
      "t_uint256": {
        "encoding": "inplace",
        "label": "uint256",
        "numberOfBytes": "32"
      }
    }
  }
}