{
  "address": "0xeD6C3bb7ea7b7DeAf3edc26e73a581f5Caf54D5f",
  "abi": [
    {
      "anonymous": false,
      "inputs": [
        {
          "indexed": true,
          "internalType": "address",
          "name": "owner",
          "type": "address"
        },
        {
          "indexed": true,
          "internalType": "address",
          "name": "spender",
          "type": "address"
        },
        {
          "indexed": false,
          "internalType": "uint256",
          "name": "value",
          "type": "uint256"
        }
      ],
      "name": "Approval",
      "type": "event"
    },
    {
      "anonymous": false,
      "inputs": [
        {
          "indexed": true,
          "internalType": "address",
          "name": "previousOwner",
          "type": "address"
        },
        {
          "indexed": true,
          "internalType": "address",
          "name": "newOwner",
          "type": "address"
        }
      ],
      "name": "OwnershipTransferred",
      "type": "event"
    },
    {
      "anonymous": false,
      "inputs": [
        {
          "indexed": false,
          "internalType": "address",
          "name": "account",
          "type": "address"
        }
      ],
      "name": "Paused",
      "type": "event"
    },
    {
      "anonymous": false,
      "inputs": [
        {
          "indexed": true,
          "internalType": "address",
          "name": "from",
          "type": "address"
        },
        {
          "indexed": true,
          "internalType": "address",
          "name": "to",
          "type": "address"
        },
        {
          "indexed": false,
          "internalType": "uint256",
          "name": "value",
          "type": "uint256"
        }
      ],
      "name": "Transfer",
      "type": "event"
    },
    {
      "anonymous": false,
      "inputs": [
        {
          "indexed": false,
          "internalType": "address",
          "name": "account",
          "type": "address"
        }
      ],
      "name": "Unpaused",
      "type": "event"
    },
    {
      "inputs": [
        {
          "internalType": "address",
          "name": "owner",
          "type": "address"
        },
        {
          "internalType": "address",
          "name": "spender",
          "type": "address"
        }
      ],
      "name": "allowance",
      "outputs": [
        {
          "internalType": "uint256",
          "name": "",
          "type": "uint256"
        }
      ],
      "stateMutability": "view",
      "type": "function"
    },
    {
      "inputs": [
        {
          "internalType": "address",
          "name": "spender",
          "type": "address"
        },
        {
          "internalType": "uint256",
          "name": "amount",
          "type": "uint256"
        }
      ],
      "name": "approve",
      "outputs": [
        {
          "internalType": "bool",
          "name": "",
          "type": "bool"
        }
      ],
      "stateMutability": "nonpayable",
      "type": "function"
    },
    {
      "inputs": [
        {
          "internalType": "address",
          "name": "account",
          "type": "address"
        }
      ],
      "name": "balanceOf",
      "outputs": [
        {
          "internalType": "uint256",
          "name": "",
          "type": "uint256"
        }
      ],
      "stateMutability": "view",
      "type": "function"
    },
    {
      "inputs": [
        {
          "internalType": "address",
          "name": "account",
          "type": "address"
        },
        {
          "internalType": "uint256",
          "name": "snapshotId",
          "type": "uint256"
        }
      ],
      "name": "balanceOfAt",
      "outputs": [
        {
          "internalType": "uint256",
          "name": "",
          "type": "uint256"
        }
      ],
      "stateMutability": "view",
      "type": "function"
    },
    {
      "inputs": [
        {
          "internalType": "address",
          "name": "account",
          "type": "address"
        }
      ],
      "name": "balanceSnapshots",
      "outputs": [
        {
          "components": [
            {
              "internalType": "uint256[]",
              "name": "ids",
              "type": "uint256[]"
            },
            {
              "internalType": "uint256[]",
              "name": "values",
              "type": "uint256[]"
            }
          ],
          "internalType": "struct Mining3.Snapshots",
          "name": "snapshots",
          "type": "tuple"
        }
      ],
      "stateMutability": "view",
      "type": "function"
    },
    {
      "inputs": [
        {
          "internalType": "uint256[]",
          "name": "snapshotIds",
          "type": "uint256[]"
        }
      ],
      "name": "batchEarningSum",
      "outputs": [
        {
          "internalType": "uint256[]",
          "name": "",
          "type": "uint256[]"
        }
      ],
      "stateMutability": "view",
      "type": "function"
    },
    {
      "inputs": [
        {
          "internalType": "uint256",
          "name": "amount",
          "type": "uint256"
        }
      ],
      "name": "burn",
      "outputs": [],
      "stateMutability": "nonpayable",
      "type": "function"
    },
    {
      "inputs": [],
      "name": "decimals",
      "outputs": [
        {
          "internalType": "uint8",
          "name": "",
          "type": "uint8"
        }
      ],
      "stateMutability": "view",
      "type": "function"
    },
    {
      "inputs": [
        {
          "internalType": "address",
          "name": "spender",
          "type": "address"
        },
        {
          "internalType": "uint256",
          "name": "subtractedValue",
          "type": "uint256"
        }
      ],
      "name": "decreaseAllowance",
      "outputs": [
        {
          "internalType": "bool",
          "name": "",
          "type": "bool"
        }
      ],
      "stateMutability": "nonpayable",
      "type": "function"
    },
    {
      "inputs": [],
      "name": "earningToken",
      "outputs": [
        {
          "internalType": "address",
          "name": "",
          "type": "address"
        }
      ],
      "stateMutability": "view",
      "type": "function"
    },
    {
      "inputs": [
        {
          "internalType": "uint256",
          "name": "earningPerToken",
          "type": "uint256"
        }
      ],
      "name": "finalize",
      "outputs": [],
      "stateMutability": "nonpayable",
      "type": "function"
    },
    {
      "inputs": [
        {
          "internalType": "address",
          "name": "spender",
          "type": "address"
        },
        {
          "internalType": "uint256",
          "name": "addedValue",
          "type": "uint256"
        }
      ],
      "name": "increaseAllowance",
      "outputs": [
        {
          "internalType": "bool",
          "name": "",
          "type": "bool"
        }
      ],
      "stateMutability": "nonpayable",
      "type": "function"
    },
    {
      "inputs": [
        {
          "internalType": "string",
          "name": "name",
          "type": "string"
        },
        {
          "internalType": "string",
          "name": "symbol",
          "type": "string"
        },
        {
          "internalType": "address",
          "name": "earningTokenToSet",
          "type": "address"
        },
        {
          "internalType": "uint256",
          "name": "startSnapshotId",
          "type": "uint256"
        }
      ],
      "name": "initialize",
      "outputs": [],
      "stateMutability": "nonpayable",
      "type": "function"
    },
    {
      "inputs": [],
      "name": "lastFinalizedAt",
      "outputs": [
        {
          "internalType": "uint256",
          "name": "",
          "type": "uint256"
        }
      ],
      "stateMutability": "view",
      "type": "function"
    },
    {
      "inputs": [
        {
          "internalType": "address",
          "name": "account",
          "type": "address"
        }
      ],
      "name": "lastWithdrawAt",
      "outputs": [
        {
          "internalType": "uint256",
          "name": "",
          "type": "uint256"
        }
      ],
      "stateMutability": "view",
      "type": "function"
    },
    {
      "inputs": [
        {
          "internalType": "address",
          "name": "to",
          "type": "address"
        },
        {
          "internalType": "uint256",
          "name": "amount",
          "type": "uint256"
        }
      ],
      "name": "mint",
      "outputs": [],
      "stateMutability": "nonpayable",
      "type": "function"
    },
    {
      "inputs": [],
      "name": "name",
      "outputs": [
        {
          "internalType": "string",
          "name": "",
          "type": "string"
        }
      ],
      "stateMutability": "view",
      "type": "function"
    },
    {
      "inputs": [],
      "name": "owner",
      "outputs": [
        {
          "internalType": "address",
          "name": "",
          "type": "address"
        }
      ],
      "stateMutability": "view",
      "type": "function"
    },
    {
      "inputs": [],
      "name": "pause",
      "outputs": [],
      "stateMutability": "nonpayable",
      "type": "function"
    },
    {
      "inputs": [],
      "name": "paused",
      "outputs": [
        {
          "internalType": "bool",
          "name": "",
          "type": "bool"
        }
      ],
      "stateMutability": "view",
      "type": "function"
    },
    {
      "inputs": [],
      "name": "renounceOwnership",
      "outputs": [],
      "stateMutability": "nonpayable",
      "type": "function"
    },
    {
      "inputs": [],
      "name": "symbol",
      "outputs": [
        {
          "internalType": "string",
          "name": "",
          "type": "string"
        }
      ],
      "stateMutability": "view",
      "type": "function"
    },
    {
      "inputs": [],
      "name": "totalSupply",
      "outputs": [
        {
          "internalType": "uint256",
          "name": "",
          "type": "uint256"
        }
      ],
      "stateMutability": "view",
      "type": "function"
    },
    {
      "inputs": [
        {
          "internalType": "uint256",
          "name": "snapshotId",
          "type": "uint256"
        }
      ],
      "name": "totalSupplyAt",
      "outputs": [
        {
          "internalType": "uint256",
          "name": "",
          "type": "uint256"
        }
      ],
      "stateMutability": "view",
      "type": "function"
    },
    {
      "inputs": [
        {
          "internalType": "address",
          "name": "to",
          "type": "address"
        },
        {
          "internalType": "uint256",
          "name": "amount",
          "type": "uint256"
        }
      ],
      "name": "transfer",
      "outputs": [
        {
          "internalType": "bool",
          "name": "",
          "type": "bool"
        }
      ],
      "stateMutability": "nonpayable",
      "type": "function"
    },
    {
      "inputs": [
        {
          "internalType": "address",
          "name": "from",
          "type": "address"
        },
        {
          "internalType": "address",
          "name": "to",
          "type": "address"
        },
        {
          "internalType": "uint256",
          "name": "amount",
          "type": "uint256"
        }
      ],
      "name": "transferFrom",
      "outputs": [
        {
          "internalType": "bool",
          "name": "",
          "type": "bool"
        }
      ],
      "stateMutability": "nonpayable",
      "type": "function"
    },
    {
      "inputs": [
        {
          "internalType": "address",
          "name": "newOwner",
          "type": "address"
        }
      ],
      "name": "transferOwnership",
      "outputs": [],
      "stateMutability": "nonpayable",
      "type": "function"
    },
    {
      "inputs": [],
      "name": "unpause",
      "outputs": [],
      "stateMutability": "nonpayable",
      "type": "function"
    },
    {
      "inputs": [],
      "name": "withdraw",
      "outputs": [],
      "stateMutability": "nonpayable",
      "type": "function"
    }
  ],
  "transactionHash": "0xb41edac37cb8352bc85b50955b66b0eb362fa72bb86a049d754bc4cf7fee5c59",
  "args": [],
  "numDeployments": 9,
  "solcInputHash": "871ff75764c2a35d2b2754cb1828122a",
  "bytecode": "0x608060405234801561001057600080fd5b50614484806100206000396000f3fe608060405234801561001057600080fd5b50600436106101cf5760003560e01c806366acfb6311610104578063981b24d0116100a2578063e263f59d11610071578063e263f59d14610532578063f2fde38b14610550578063f542033f1461056c578063fb66cbc514610588576101cf565b8063981b24d014610472578063a457c2d7146104a2578063a9059cbb146104d2578063dd62ed3e14610502576101cf565b80637fe205c7116100de5780637fe205c71461040e5780638456cb591461042c5780638da5cb5b1461043657806395d89b4114610454576101cf565b806366acfb63146103a457806370a08231146103d4578063715018a614610404576101cf565b80633ccfd60b1161017157806342966c681161014b57806342966c681461030a5780634ee2cd7e146103265780635c975abb14610356578063649bf86814610374576101cf565b80633ccfd60b146102da5780633f4ba83a146102e457806340c10f19146102ee576101cf565b806318160ddd116101ad57806318160ddd1461023e57806323b872dd1461025c578063313ce5671461028c57806339509351146102aa576101cf565b806305261aea146101d457806306fdde03146101f0578063095ea7b31461020e575b600080fd5b6101ee60048036038101906101e991906130d6565b6105b8565b005b6101f86108b3565b60405161020591906136c0565b60405180910390f35b61022860048036038101906102239190612f99565b610945565b60405161023591906136a5565b60405180910390f35b610246610968565b60405161025391906139e4565b60405180910390f35b61027660048036038101906102719190612f4a565b610972565b60405161028391906136a5565b60405180910390f35b6102946109a1565b6040516102a191906139ff565b60405180910390f35b6102c460048036038101906102bf9190612f99565b6109aa565b6040516102d191906136a5565b60405180910390f35b6102e2610a54565b005b6102ec610cfd565b005b61030860048036038101906103039190612f99565b610d83565b005b610324600480360381019061031f91906130d6565b610e0d565b005b610340600480360381019061033b9190612f99565b610e96565b60405161034d91906139e4565b60405180910390f35b61035e610f06565b60405161036b91906136a5565b60405180910390f35b61038e60048036038101906103899190612ee5565b610f1d565b60405161039b91906139e4565b60405180910390f35b6103be60048036038101906103b99190612ee5565b610f69565b6040516103cb91906139c2565b60405180910390f35b6103ee60048036038101906103e99190612ee5565b611072565b6040516103fb91906139e4565b60405180910390f35b61040c6110bb565b005b610416611143565b6040516104239190613608565b60405180910390f35b61043461116d565b005b61043e6111f3565b60405161044b9190613608565b60405180910390f35b61045c61121d565b60405161046991906136c0565b60405180910390f35b61048c600480360381019061048791906130d6565b6112af565b60405161049991906139e4565b60405180910390f35b6104bc60048036038101906104b79190612f99565b6112e0565b6040516104c991906136a5565b60405180910390f35b6104ec60048036038101906104e79190612f99565b6113ca565b6040516104f991906136a5565b60405180910390f35b61051c60048036038101906105179190612f0e565b6113ed565b60405161052991906139e4565b60405180910390f35b61053a611474565b60405161054791906139e4565b60405180910390f35b61056a60048036038101906105659190612ee5565b61147e565b005b61058660048036038101906105819190613043565b611576565b005b6105a2600480360381019061059d9190612fd5565b6116c0565b6040516105af9190613683565b60405180910390f35b6105c06117fc565b73ffffffffffffffffffffffffffffffffffffffff166105de6111f3565b73ffffffffffffffffffffffffffffffffffffffff1614610634576040517f08c379a000000000000000000000000000000000000000000000000000000000815260040161062b90613862565b60405180910390fd5b60006201518060ca546106479190613aec565b90506000610653611804565b905080821115610698576040517f08c379a000000000000000000000000000000000000000000000000000000000815260040161068f90613762565b60405180910390fd5b8260cc600062015180856106ac9190613bcd565b8152602001908152602001600020546106c59190613aec565b60cc6000848152602001908152602001600020819055508160ca8190555060008060ce600001805490509050600081148061075257508360ce60000160018361070e9190613bcd565b81548110610745577f4e487b7100000000000000000000000000000000000000000000000000000000600052603260045260246000fd5b9060005260206000200154105b156107665761075f610968565b915061083f565b60006001826107759190613bcd565b90505b6000811180156107db57508460ce6000016001836107969190613bcd565b815481106107cd577f4e487b7100000000000000000000000000000000000000000000000000000000600052603260045260246000fd5b906000526020600020015410155b156107f35780806107eb90613c98565b915050610778565b60ce6001018181548110610830577f4e487b7100000000000000000000000000000000000000000000000000000000600052603260045260246000fd5b90600052602060002001549250505b6108ac3330670de0b6b3a764000085896108599190613b73565b6108639190613b42565b60c960009054906101000a900473ffffffffffffffffffffffffffffffffffffffff1673ffffffffffffffffffffffffffffffffffffffff16611825909392919063ffffffff16565b5050505050565b6060603680546108c290613cc2565b80601f01602080910402602001604051908101604052809291908181526020018280546108ee90613cc2565b801561093b5780601f106109105761010080835404028352916020019161093b565b820191906000526020600020905b81548152906001019060200180831161091e57829003601f168201915b5050505050905090565b6000806109506117fc565b905061095d8185856118ae565b600191505092915050565b6000603554905090565b60008061097d6117fc565b905061098a858285611a79565b610995858585611b05565b60019150509392505050565b60006012905090565b6000806109b56117fc565b9050610a49818585603460008673ffffffffffffffffffffffffffffffffffffffff1673ffffffffffffffffffffffffffffffffffffffff16815260200190815260200160002060008973ffffffffffffffffffffffffffffffffffffffff1673ffffffffffffffffffffffffffffffffffffffff16815260200190815260200160002054610a449190613aec565b6118ae565b600191505092915050565b610a5c610f06565b15610a9c576040517f08c379a0000000000000000000000000000000000000000000000000000000008152600401610a9390613822565b60405180910390fd5b600060ca549050600060cb60003373ffffffffffffffffffffffffffffffffffffffff1673ffffffffffffffffffffffffffffffffffffffff1681526020019081526020016000209050600081600001549050808311610b31576040517f08c379a0000000000000000000000000000000000000000000000000000000008152600401610b28906138c2565b60405180910390fd5b600060cd60003373ffffffffffffffffffffffffffffffffffffffff1673ffffffffffffffffffffffffffffffffffffffff1681526020019081526020016000209050600081600001805490509050600080856001015490505b82811015610c61576000846000018281548110610bd1577f4e487b7100000000000000000000000000000000000000000000000000000000600052603260045260246000fd5b9060005260206000200154905087811115610bec5750610c61565b610c3d856001018381548110610c2b577f4e487b7100000000000000000000000000000000000000000000000000000000600052603260045260246000fd5b90600052602060002001548783611d89565b83610c489190613aec565b9250809550508080610c5990613d25565b915050610b8b565b8281148015610c6f57508487115b15610c9557610c87610c8033611072565b8689611d89565b82610c929190613aec565b91505b868660000181905550808660010181905550610cf4338360c960009054906101000a900473ffffffffffffffffffffffffffffffffffffffff1673ffffffffffffffffffffffffffffffffffffffff16611de09092919063ffffffff16565b50505050505050565b610d056117fc565b73ffffffffffffffffffffffffffffffffffffffff16610d236111f3565b73ffffffffffffffffffffffffffffffffffffffff1614610d79576040517f08c379a0000000000000000000000000000000000000000000000000000000008152600401610d7090613862565b60405180910390fd5b610d81611e66565b565b610d8b6117fc565b73ffffffffffffffffffffffffffffffffffffffff16610da96111f3565b73ffffffffffffffffffffffffffffffffffffffff1614610dff576040517f08c379a0000000000000000000000000000000000000000000000000000000008152600401610df690613862565b60405180910390fd5b610e098282611f08565b5050565b610e156117fc565b73ffffffffffffffffffffffffffffffffffffffff16610e336111f3565b73ffffffffffffffffffffffffffffffffffffffff1614610e89576040517f08c379a0000000000000000000000000000000000000000000000000000000008152600401610e8090613862565b60405180910390fd5b610e933382612069565b50565b6000806000610ee38460cd60008873ffffffffffffffffffffffffffffffffffffffff1673ffffffffffffffffffffffffffffffffffffffff168152602001908152602001600020612242565b9150915081610efa57610ef585611072565b610efc565b805b9250505092915050565b6000609760009054906101000a900460ff16905090565b600060cb60008373ffffffffffffffffffffffffffffffffffffffff1673ffffffffffffffffffffffffffffffffffffffff168152602001908152602001600020600001549050919050565b610f71612d37565b60cd60008373ffffffffffffffffffffffffffffffffffffffff1673ffffffffffffffffffffffffffffffffffffffff1681526020019081526020016000206040518060400160405290816000820180548060200260200160405190810160405280929190818152602001828054801561100a57602002820191906000526020600020905b815481526020019060010190808311610ff6575b505050505081526020016001820180548060200260200160405190810160405280929190818152602001828054801561106257602002820191906000526020600020905b81548152602001906001019080831161104e575b5050505050815250509050919050565b6000603360008373ffffffffffffffffffffffffffffffffffffffff1673ffffffffffffffffffffffffffffffffffffffff168152602001908152602001600020549050919050565b6110c36117fc565b73ffffffffffffffffffffffffffffffffffffffff166110e16111f3565b73ffffffffffffffffffffffffffffffffffffffff1614611137576040517f08c379a000000000000000000000000000000000000000000000000000000000815260040161112e90613862565b60405180910390fd5b611141600061235e565b565b600060c960009054906101000a900473ffffffffffffffffffffffffffffffffffffffff16905090565b6111756117fc565b73ffffffffffffffffffffffffffffffffffffffff166111936111f3565b73ffffffffffffffffffffffffffffffffffffffff16146111e9576040517f08c379a00000000000000000000000000000000000000000000000000000000081526004016111e090613862565b60405180910390fd5b6111f1612424565b565b6000606560009054906101000a900473ffffffffffffffffffffffffffffffffffffffff16905090565b60606037805461122c90613cc2565b80601f016020809104026020016040519081016040528092919081815260200182805461125890613cc2565b80156112a55780601f1061127a576101008083540402835291602001916112a5565b820191906000526020600020905b81548152906001019060200180831161128857829003601f168201915b5050505050905090565b60008060006112bf8460ce612242565b91509150816112d5576112d0610968565b6112d7565b805b92505050919050565b6000806112eb6117fc565b90506000603460008373ffffffffffffffffffffffffffffffffffffffff1673ffffffffffffffffffffffffffffffffffffffff16815260200190815260200160002060008673ffffffffffffffffffffffffffffffffffffffff1673ffffffffffffffffffffffffffffffffffffffff168152602001908152602001600020549050838110156113b1576040517f08c379a00000000000000000000000000000000000000000000000000000000081526004016113a890613982565b60405180910390fd5b6113be82868684036118ae565b60019250505092915050565b6000806113d56117fc565b90506113e2818585611b05565b600191505092915050565b6000603460008473ffffffffffffffffffffffffffffffffffffffff1673ffffffffffffffffffffffffffffffffffffffff16815260200190815260200160002060008373ffffffffffffffffffffffffffffffffffffffff1673ffffffffffffffffffffffffffffffffffffffff16815260200190815260200160002054905092915050565b600060ca54905090565b6114866117fc565b73ffffffffffffffffffffffffffffffffffffffff166114a46111f3565b73ffffffffffffffffffffffffffffffffffffffff16146114fa576040517f08c379a00000000000000000000000000000000000000000000000000000000081526004016114f190613862565b60405180910390fd5b600073ffffffffffffffffffffffffffffffffffffffff168173ffffffffffffffffffffffffffffffffffffffff16141561156a576040517f08c379a000000000000000000000000000000000000000000000000000000000815260040161156190613782565b60405180910390fd5b6115738161235e565b50565b600060019054906101000a900460ff1661159e5760008054906101000a900460ff16156115a7565b6115a66124c7565b5b6115e6576040517f08c379a00000000000000000000000000000000000000000000000000000000081526004016115dd90613842565b60405180910390fd5b60008060019054906101000a900460ff161590508015611636576001600060016101000a81548160ff02191690831515021790555060016000806101000a81548160ff0219169083151502179055505b61163e6124d8565b611646612531565b611650858561258a565b8260c960006101000a81548173ffffffffffffffffffffffffffffffffffffffff021916908373ffffffffffffffffffffffffffffffffffffffff1602179055508160ca8190555080156116b95760008060016101000a81548160ff0219169083151502179055505b5050505050565b606060008383905067ffffffffffffffff811115611707577f4e487b7100000000000000000000000000000000000000000000000000000000600052604160045260246000fd5b6040519080825280602002602001820160405280156117355781602001602082028036833780820191505090505b50905060005b848490508110156117f15760cc6000868684818110611783577f4e487b7100000000000000000000000000000000000000000000000000000000600052603260045260246000fd5b905060200201358152602001908152602001600020548282815181106117d2577f4e487b7100000000000000000000000000000000000000000000000000000000600052603260045260246000fd5b60200260200101818152505080806117e990613d25565b91505061173b565b508091505092915050565b600033905090565b600062015180426118159190613d6e565b426118209190613bcd565b905090565b6118a8846323b872dd60e01b85858560405160240161184693929190613623565b604051602081830303815290604052907bffffffffffffffffffffffffffffffffffffffffffffffffffffffff19166020820180517bffffffffffffffffffffffffffffffffffffffffffffffffffffffff83818316178352505050506125e7565b50505050565b600073ffffffffffffffffffffffffffffffffffffffff168373ffffffffffffffffffffffffffffffffffffffff16141561191e576040517f08c379a0000000000000000000000000000000000000000000000000000000008152600401611915906138e2565b60405180910390fd5b600073ffffffffffffffffffffffffffffffffffffffff168273ffffffffffffffffffffffffffffffffffffffff16141561198e576040517f08c379a0000000000000000000000000000000000000000000000000000000008152600401611985906137a2565b60405180910390fd5b80603460008573ffffffffffffffffffffffffffffffffffffffff1673ffffffffffffffffffffffffffffffffffffffff16815260200190815260200160002060008473ffffffffffffffffffffffffffffffffffffffff1673ffffffffffffffffffffffffffffffffffffffff168152602001908152602001600020819055508173ffffffffffffffffffffffffffffffffffffffff168373ffffffffffffffffffffffffffffffffffffffff167f8c5be1e5ebec7d5bd14f71427d1e84f3dd0314c0f7b2291e5b200ac8c7c3b92583604051611a6c91906139e4565b60405180910390a3505050565b6000611a8584846113ed565b90507fffffffffffffffffffffffffffffffffffffffffffffffffffffffffffffffff8114611aff5781811015611af1576040517f08c379a0000000000000000000000000000000000000000000000000000000008152600401611ae8906137c2565b60405180910390fd5b611afe84848484036118ae565b5b50505050565b600073ffffffffffffffffffffffffffffffffffffffff168373ffffffffffffffffffffffffffffffffffffffff161415611b75576040517f08c379a0000000000000000000000000000000000000000000000000000000008152600401611b6c906138a2565b60405180910390fd5b600073ffffffffffffffffffffffffffffffffffffffff168273ffffffffffffffffffffffffffffffffffffffff161415611be5576040517f08c379a0000000000000000000000000000000000000000000000000000000008152600401611bdc90613702565b60405180910390fd5b611bf08383836126ae565b6000603360008573ffffffffffffffffffffffffffffffffffffffff1673ffffffffffffffffffffffffffffffffffffffff16815260200190815260200160002054905081811015611c77576040517f08c379a0000000000000000000000000000000000000000000000000000000008152600401611c6e906137e2565b60405180910390fd5b818103603360008673ffffffffffffffffffffffffffffffffffffffff1673ffffffffffffffffffffffffffffffffffffffff1681526020019081526020016000208190555081603360008573ffffffffffffffffffffffffffffffffffffffff1673ffffffffffffffffffffffffffffffffffffffff1681526020019081526020016000206000828254611d0c9190613aec565b925050819055508273ffffffffffffffffffffffffffffffffffffffff168473ffffffffffffffffffffffffffffffffffffffff167fddf252ad1be2c89b69c2b068fc378daa952ba7f163c4a11628f55a4df523b3ef84604051611d7091906139e4565b60405180910390a3611d83848484612768565b50505050565b6000808414611dd45760cc60008481526020019081526020016000205460cc600084815260200190815260200160002054611dc49190613bcd565b84611dcf9190613b73565b611dd7565b60005b90509392505050565b611e618363a9059cbb60e01b8484604051602401611dff92919061365a565b604051602081830303815290604052907bffffffffffffffffffffffffffffffffffffffffffffffffffffffff19166020820180517bffffffffffffffffffffffffffffffffffffffffffffffffffffffff83818316178352505050506125e7565b505050565b611e6e610f06565b611ead576040517f08c379a0000000000000000000000000000000000000000000000000000000008152600401611ea490613722565b60405180910390fd5b6000609760006101000a81548160ff0219169083151502179055507f5db9ee0a495bf2e6ff9c91a7834c1ba4fdd244a5e8aa4e537bd38aeae4b073aa611ef16117fc565b604051611efe9190613608565b60405180910390a1565b600073ffffffffffffffffffffffffffffffffffffffff168273ffffffffffffffffffffffffffffffffffffffff161415611f78576040517f08c379a0000000000000000000000000000000000000000000000000000000008152600401611f6f906139a2565b60405180910390fd5b611f84600083836126ae565b8060356000828254611f969190613aec565b9250508190555080603360008473ffffffffffffffffffffffffffffffffffffffff1673ffffffffffffffffffffffffffffffffffffffff1681526020019081526020016000206000828254611fec9190613aec565b925050819055508173ffffffffffffffffffffffffffffffffffffffff16600073ffffffffffffffffffffffffffffffffffffffff167fddf252ad1be2c89b69c2b068fc378daa952ba7f163c4a11628f55a4df523b3ef8360405161205191906139e4565b60405180910390a361206560008383612768565b5050565b600073ffffffffffffffffffffffffffffffffffffffff168273ffffffffffffffffffffffffffffffffffffffff1614156120d9576040517f08c379a00000000000000000000000000000000000000000000000000000000081526004016120d090613882565b60405180910390fd5b6120e5826000836126ae565b6000603360008473ffffffffffffffffffffffffffffffffffffffff1673ffffffffffffffffffffffffffffffffffffffff1681526020019081526020016000205490508181101561216c576040517f08c379a000000000000000000000000000000000000000000000000000000000815260040161216390613742565b60405180910390fd5b818103603360008573ffffffffffffffffffffffffffffffffffffffff1673ffffffffffffffffffffffffffffffffffffffff1681526020019081526020016000208190555081603560008282546121c49190613bcd565b92505081905550600073ffffffffffffffffffffffffffffffffffffffff168373ffffffffffffffffffffffffffffffffffffffff167fddf252ad1be2c89b69c2b068fc378daa952ba7f163c4a11628f55a4df523b3ef8460405161222991906139e4565b60405180910390a361223d83600084612768565b505050565b60008060008411612288576040517f08c379a000000000000000000000000000000000000000000000000000000000815260040161227f90613942565b60405180910390fd5b612290611804565b8411156122d2576040517f08c379a00000000000000000000000000000000000000000000000000000000081526004016122c9906136e2565b60405180910390fd5b60006122ea858560000161276d90919063ffffffff16565b90508360000180549050811415612308576000809250925050612357565b6001846001018281548110612346577f4e487b7100000000000000000000000000000000000000000000000000000000600052603260045260246000fd5b906000526020600020015492509250505b9250929050565b6000606560009054906101000a900473ffffffffffffffffffffffffffffffffffffffff16905081606560006101000a81548173ffffffffffffffffffffffffffffffffffffffff021916908373ffffffffffffffffffffffffffffffffffffffff1602179055508173ffffffffffffffffffffffffffffffffffffffff168173ffffffffffffffffffffffffffffffffffffffff167f8be0079c531659141344cd1fd0a4f28419497f9722a3daafe3b4186f6b6457e060405160405180910390a35050565b61242c610f06565b1561246c576040517f08c379a000000000000000000000000000000000000000000000000000000000815260040161246390613822565b60405180910390fd5b6001609760006101000a81548160ff0219169083151502179055507f62e78cea01bee320cd4e420270b5ea74000d11b0c9f74754ebdbfc544b05a2586124b06117fc565b6040516124bd9190613608565b60405180910390a1565b60006124d230612893565b15905090565b600060019054906101000a900460ff16612527576040517f08c379a000000000000000000000000000000000000000000000000000000000815260040161251e90613922565b60405180910390fd5b61252f6128b6565b565b600060019054906101000a900460ff16612580576040517f08c379a000000000000000000000000000000000000000000000000000000000815260040161257790613922565b60405180910390fd5b612588612917565b565b600060019054906101000a900460ff166125d9576040517f08c379a00000000000000000000000000000000000000000000000000000000081526004016125d090613922565b60405180910390fd5b6125e38282612983565b5050565b6000612649826040518060400160405280602081526020017f5361666545524332303a206c6f772d6c6576656c2063616c6c206661696c65648152508573ffffffffffffffffffffffffffffffffffffffff16612a049092919063ffffffff16565b90506000815111156126a95780806020019051810190612669919061301a565b6126a8576040517f08c379a000000000000000000000000000000000000000000000000000000000815260040161269f90613962565b60405180910390fd5b5b505050565b6126b9838383612a1c565b600073ffffffffffffffffffffffffffffffffffffffff168373ffffffffffffffffffffffffffffffffffffffff161415612704576126f782612a21565b6126ff612a74565b612763565b600073ffffffffffffffffffffffffffffffffffffffff168273ffffffffffffffffffffffffffffffffffffffff16141561274f5761274283612a21565b61274a612a74565b612762565b61275883612a21565b61276182612a21565b5b5b505050565b505050565b60008083805490501415612784576000905061288d565b600080848054905090505b8082101561280e5760006127a38383612a88565b9050848682815481106127df577f4e487b7100000000000000000000000000000000000000000000000000000000600052603260045260246000fd5b906000526020600020015411156127f857809150612808565b6001816128059190613aec565b92505b5061278f565b60008211801561286c575083856001846128289190613bcd565b8154811061285f577f4e487b7100000000000000000000000000000000000000000000000000000000600052603260045260246000fd5b9060005260206000200154145b156128875760018261287e9190613bcd565b9250505061288d565b81925050505b92915050565b6000808273ffffffffffffffffffffffffffffffffffffffff163b119050919050565b600060019054906101000a900460ff16612905576040517f08c379a00000000000000000000000000000000000000000000000000000000081526004016128fc90613922565b60405180910390fd5b6129156129106117fc565b61235e565b565b600060019054906101000a900460ff16612966576040517f08c379a000000000000000000000000000000000000000000000000000000000815260040161295d90613922565b60405180910390fd5b6000609760006101000a81548160ff021916908315150217905550565b600060019054906101000a900460ff166129d2576040517f08c379a00000000000000000000000000000000000000000000000000000000081526004016129c990613922565b60405180910390fd5b81603690805190602001906129e8929190612d51565b5080603790805190602001906129ff929190612d51565b505050565b6060612a138484600085612aae565b90509392505050565b505050565b612a7160cd60008373ffffffffffffffffffffffffffffffffffffffff1673ffffffffffffffffffffffffffffffffffffffff168152602001908152602001600020612a6c83611072565b612bc2565b50565b612a8660ce612a81610968565b612bc2565b565b60006002828418612a999190613b42565b828416612aa69190613aec565b905092915050565b606082471015612af3576040517f08c379a0000000000000000000000000000000000000000000000000000000008152600401612aea90613802565b60405180910390fd5b612afc85612c3d565b612b3b576040517f08c379a0000000000000000000000000000000000000000000000000000000008152600401612b3290613902565b60405180910390fd5b6000808673ffffffffffffffffffffffffffffffffffffffff168587604051612b6491906135f1565b60006040518083038185875af1925050503d8060008114612ba1576040519150601f19603f3d011682016040523d82523d6000602084013e612ba6565b606091505b5091509150612bb6828286612c60565b92505050949350505050565b6000612bcc611804565b905080612bdb84600001612cc7565b1015612c385782600001819080600181540180825580915050600190039060005260206000200160009091909190915055826001018290806001815401808255809150506001900390600052602060002001600090919091909150555b505050565b6000808273ffffffffffffffffffffffffffffffffffffffff163b119050919050565b60608315612c7057829050612cc0565b600083511115612c835782518084602001fd5b816040517f08c379a0000000000000000000000000000000000000000000000000000000008152600401612cb791906136c0565b60405180910390fd5b9392505050565b600080828054905014612d2d578160018380549050612ce69190613bcd565b81548110612d1d577f4e487b7100000000000000000000000000000000000000000000000000000000600052603260045260246000fd5b9060005260206000200154612d30565b60005b9050919050565b604051806040016040528060608152602001606081525090565b828054612d5d90613cc2565b90600052602060002090601f016020900481019282612d7f5760008555612dc6565b82601f10612d9857805160ff1916838001178555612dc6565b82800160010185558215612dc6579182015b82811115612dc5578251825591602001919060010190612daa565b5b509050612dd39190612dd7565b5090565b5b80821115612df0576000816000905550600101612dd8565b5090565b6000612e07612e0284613a3f565b613a1a565b905082815260208101848484011115612e1f57600080fd5b612e2a848285613c56565b509392505050565b600081359050612e4181614409565b92915050565b60008083601f840112612e5957600080fd5b8235905067ffffffffffffffff811115612e7257600080fd5b602083019150836020820283011115612e8a57600080fd5b9250929050565b600081519050612ea081614420565b92915050565b600082601f830112612eb757600080fd5b8135612ec7848260208601612df4565b91505092915050565b600081359050612edf81614437565b92915050565b600060208284031215612ef757600080fd5b6000612f0584828501612e32565b91505092915050565b60008060408385031215612f2157600080fd5b6000612f2f85828601612e32565b9250506020612f4085828601612e32565b9150509250929050565b600080600060608486031215612f5f57600080fd5b6000612f6d86828701612e32565b9350506020612f7e86828701612e32565b9250506040612f8f86828701612ed0565b9150509250925092565b60008060408385031215612fac57600080fd5b6000612fba85828601612e32565b9250506020612fcb85828601612ed0565b9150509250929050565b60008060208385031215612fe857600080fd5b600083013567ffffffffffffffff81111561300257600080fd5b61300e85828601612e47565b92509250509250929050565b60006020828403121561302c57600080fd5b600061303a84828501612e91565b91505092915050565b6000806000806080858703121561305957600080fd5b600085013567ffffffffffffffff81111561307357600080fd5b61307f87828801612ea6565b945050602085013567ffffffffffffffff81111561309c57600080fd5b6130a887828801612ea6565b93505060406130b987828801612e32565b92505060606130ca87828801612ed0565b91505092959194509250565b6000602082840312156130e857600080fd5b60006130f684828501612ed0565b91505092915050565b600061310b83836135c4565b60208301905092915050565b61312081613c01565b82525050565b600061313182613a80565b61313b8185613aae565b935061314683613a70565b8060005b8381101561317757815161315e88826130ff565b975061316983613aa1565b92505060018101905061314a565b5085935050505092915050565b600061318f82613a80565b6131998185613abf565b93506131a483613a70565b8060005b838110156131d55781516131bc88826130ff565b97506131c783613aa1565b9250506001810190506131a8565b5085935050505092915050565b6131eb81613c13565b82525050565b60006131fc82613a8b565b6132068185613ad0565b9350613216818560208601613c65565b80840191505092915050565b600061322d82613a96565b6132378185613adb565b9350613247818560208601613c65565b61325081613e5b565b840191505092915050565b6000613268601d83613adb565b915061327382613e6c565b602082019050919050565b600061328b602383613adb565b915061329682613e95565b604082019050919050565b60006132ae601483613adb565b91506132b982613ee4565b602082019050919050565b60006132d1602283613adb565b91506132dc82613f0d565b604082019050919050565b60006132f4602083613adb565b91506132ff82613f5c565b602082019050919050565b6000613317602683613adb565b915061332282613f85565b604082019050919050565b600061333a602283613adb565b915061334582613fd4565b604082019050919050565b600061335d601d83613adb565b915061336882614023565b602082019050919050565b6000613380602683613adb565b915061338b8261404c565b604082019050919050565b60006133a3602683613adb565b91506133ae8261409b565b604082019050919050565b60006133c6601083613adb565b91506133d1826140ea565b602082019050919050565b60006133e9602e83613adb565b91506133f482614113565b604082019050919050565b600061340c602083613adb565b915061341782614162565b602082019050919050565b600061342f602183613adb565b915061343a8261418b565b604082019050919050565b6000613452602583613adb565b915061345d826141da565b604082019050919050565b6000613475601b83613adb565b915061348082614229565b602082019050919050565b6000613498602483613adb565b91506134a382614252565b604082019050919050565b60006134bb601d83613adb565b91506134c6826142a1565b602082019050919050565b60006134de602b83613adb565b91506134e9826142ca565b604082019050919050565b6000613501601683613adb565b915061350c82614319565b602082019050919050565b6000613524602a83613adb565b915061352f82614342565b604082019050919050565b6000613547602583613adb565b915061355282614391565b604082019050919050565b600061356a601f83613adb565b9150613575826143e0565b602082019050919050565b6000604083016000830151848203600086015261359d8282613126565b915050602083015184820360208601526135b78282613126565b9150508091505092915050565b6135cd81613c3f565b82525050565b6135dc81613c3f565b82525050565b6135eb81613c49565b82525050565b60006135fd82846131f1565b915081905092915050565b600060208201905061361d6000830184613117565b92915050565b60006060820190506136386000830186613117565b6136456020830185613117565b61365260408301846135d3565b949350505050565b600060408201905061366f6000830185613117565b61367c60208301846135d3565b9392505050565b6000602082019050818103600083015261369d8184613184565b905092915050565b60006020820190506136ba60008301846131e2565b92915050565b600060208201905081810360008301526136da8184613222565b905092915050565b600060208201905081810360008301526136fb8161325b565b9050919050565b6000602082019050818103600083015261371b8161327e565b9050919050565b6000602082019050818103600083015261373b816132a1565b9050919050565b6000602082019050818103600083015261375b816132c4565b9050919050565b6000602082019050818103600083015261377b816132e7565b9050919050565b6000602082019050818103600083015261379b8161330a565b9050919050565b600060208201905081810360008301526137bb8161332d565b9050919050565b600060208201905081810360008301526137db81613350565b9050919050565b600060208201905081810360008301526137fb81613373565b9050919050565b6000602082019050818103600083015261381b81613396565b9050919050565b6000602082019050818103600083015261383b816133b9565b9050919050565b6000602082019050818103600083015261385b816133dc565b9050919050565b6000602082019050818103600083015261387b816133ff565b9050919050565b6000602082019050818103600083015261389b81613422565b9050919050565b600060208201905081810360008301526138bb81613445565b9050919050565b600060208201905081810360008301526138db81613468565b9050919050565b600060208201905081810360008301526138fb8161348b565b9050919050565b6000602082019050818103600083015261391b816134ae565b9050919050565b6000602082019050818103600083015261393b816134d1565b9050919050565b6000602082019050818103600083015261395b816134f4565b9050919050565b6000602082019050818103600083015261397b81613517565b9050919050565b6000602082019050818103600083015261399b8161353a565b9050919050565b600060208201905081810360008301526139bb8161355d565b9050919050565b600060208201905081810360008301526139dc8184613580565b905092915050565b60006020820190506139f960008301846135d3565b92915050565b6000602082019050613a1460008301846135e2565b92915050565b6000613a24613a35565b9050613a308282613cf4565b919050565b6000604051905090565b600067ffffffffffffffff821115613a5a57613a59613e2c565b5b613a6382613e5b565b9050602081019050919050565b6000819050602082019050919050565b600081519050919050565b600081519050919050565b600081519050919050565b6000602082019050919050565b600082825260208201905092915050565b600082825260208201905092915050565b600081905092915050565b600082825260208201905092915050565b6000613af782613c3f565b9150613b0283613c3f565b9250827fffffffffffffffffffffffffffffffffffffffffffffffffffffffffffffffff03821115613b3757613b36613d9f565b5b828201905092915050565b6000613b4d82613c3f565b9150613b5883613c3f565b925082613b6857613b67613dce565b5b828204905092915050565b6000613b7e82613c3f565b9150613b8983613c3f565b9250817fffffffffffffffffffffffffffffffffffffffffffffffffffffffffffffffff0483118215151615613bc257613bc1613d9f565b5b828202905092915050565b6000613bd882613c3f565b9150613be383613c3f565b925082821015613bf657613bf5613d9f565b5b828203905092915050565b6000613c0c82613c1f565b9050919050565b60008115159050919050565b600073ffffffffffffffffffffffffffffffffffffffff82169050919050565b6000819050919050565b600060ff82169050919050565b82818337600083830152505050565b60005b83811015613c83578082015181840152602081019050613c68565b83811115613c92576000848401525b50505050565b6000613ca382613c3f565b91506000821415613cb757613cb6613d9f565b5b600182039050919050565b60006002820490506001821680613cda57607f821691505b60208210811415613cee57613ced613dfd565b5b50919050565b613cfd82613e5b565b810181811067ffffffffffffffff82111715613d1c57613d1b613e2c565b5b80604052505050565b6000613d3082613c3f565b91507fffffffffffffffffffffffffffffffffffffffffffffffffffffffffffffffff821415613d6357613d62613d9f565b5b600182019050919050565b6000613d7982613c3f565b9150613d8483613c3f565b925082613d9457613d93613dce565b5b828206905092915050565b7f4e487b7100000000000000000000000000000000000000000000000000000000600052601160045260246000fd5b7f4e487b7100000000000000000000000000000000000000000000000000000000600052601260045260246000fd5b7f4e487b7100000000000000000000000000000000000000000000000000000000600052602260045260246000fd5b7f4e487b7100000000000000000000000000000000000000000000000000000000600052604160045260246000fd5b6000601f19601f8301169050919050565b7f4552433230536e617073686f743a206e6f6e6578697374656e74206964000000600082015250565b7f45524332303a207472616e7366657220746f20746865207a65726f206164647260008201527f6573730000000000000000000000000000000000000000000000000000000000602082015250565b7f5061757361626c653a206e6f7420706175736564000000000000000000000000600082015250565b7f45524332303a206275726e20616d6f756e7420657863656564732062616c616e60008201527f6365000000000000000000000000000000000000000000000000000000000000602082015250565b7f4d696e696e67333a20616c6c20736e617073686f74732066696e616c697a6564600082015250565b7f4f776e61626c653a206e6577206f776e657220697320746865207a65726f206160008201527f6464726573730000000000000000000000000000000000000000000000000000602082015250565b7f45524332303a20617070726f766520746f20746865207a65726f20616464726560008201527f7373000000000000000000000000000000000000000000000000000000000000602082015250565b7f45524332303a20696e73756666696369656e7420616c6c6f77616e6365000000600082015250565b7f45524332303a207472616e7366657220616d6f756e742065786365656473206260008201527f616c616e63650000000000000000000000000000000000000000000000000000602082015250565b7f416464726573733a20696e73756666696369656e742062616c616e636520666f60008201527f722063616c6c0000000000000000000000000000000000000000000000000000602082015250565b7f5061757361626c653a2070617573656400000000000000000000000000000000600082015250565b7f496e697469616c697a61626c653a20636f6e747261637420697320616c72656160008201527f647920696e697469616c697a6564000000000000000000000000000000000000602082015250565b7f4f776e61626c653a2063616c6c6572206973206e6f7420746865206f776e6572600082015250565b7f45524332303a206275726e2066726f6d20746865207a65726f2061646472657360008201527f7300000000000000000000000000000000000000000000000000000000000000602082015250565b7f45524332303a207472616e736665722066726f6d20746865207a65726f20616460008201527f6472657373000000000000000000000000000000000000000000000000000000602082015250565b7f4d696e696e67333a20616c726561647920776974686472617765640000000000600082015250565b7f45524332303a20617070726f76652066726f6d20746865207a65726f2061646460008201527f7265737300000000000000000000000000000000000000000000000000000000602082015250565b7f416464726573733a2063616c6c20746f206e6f6e2d636f6e7472616374000000600082015250565b7f496e697469616c697a61626c653a20636f6e7472616374206973206e6f74206960008201527f6e697469616c697a696e67000000000000000000000000000000000000000000602082015250565b7f4552433230536e617073686f743a206964206973203000000000000000000000600082015250565b7f5361666545524332303a204552433230206f7065726174696f6e20646964206e60008201527f6f74207375636365656400000000000000000000000000000000000000000000602082015250565b7f45524332303a2064656372656173656420616c6c6f77616e63652062656c6f7760008201527f207a65726f000000000000000000000000000000000000000000000000000000602082015250565b7f45524332303a206d696e7420746f20746865207a65726f206164647265737300600082015250565b61441281613c01565b811461441d57600080fd5b50565b61442981613c13565b811461443457600080fd5b50565b61444081613c3f565b811461444b57600080fd5b5056fea26469706673582212201f2a602c6ae9c72b9bbaedd263cb48d014c5bf7125c5a03b286bb381578201be64736f6c63430008040033",
  "devdoc": {
    "kind": "dev",
    "methods": {
      "allowance(address,address)": {
        "details": "See {IERC20-allowance}."
      },
      "approve(address,uint256)": {
        "details": "See {IERC20-approve}. NOTE: If `amount` is the maximum `uint256`, the allowance is not updated on `transferFrom`. This is semantically equivalent to an infinite approval. Requirements: - `spender` cannot be the zero address."
      },
      "balanceOf(address)": {
        "details": "See {IERC20-balanceOf}."
      },
      "decimals()": {
        "details": "Returns the number of decimals used to get its user representation. For example, if `decimals` equals `2`, a balance of `505` tokens should be displayed to a user as `5.05` (`505 / 10 ** 2`). Tokens usually opt for a value of 18, imitating the relationship between Ether and Wei. This is the value {ERC20} uses, unless this function is overridden; NOTE: This information is only used for _display_ purposes: it in no way affects any of the arithmetic of the contract, including {IERC20-balanceOf} and {IERC20-transfer}."
      },
      "decreaseAllowance(address,uint256)": {
        "details": "Atomically decreases the allowance granted to `spender` by the caller. This is an alternative to {approve} that can be used as a mitigation for problems described in {IERC20-approve}. Emits an {Approval} event indicating the updated allowance. Requirements: - `spender` cannot be the zero address. - `spender` must have allowance for the caller of at least `subtractedValue`."
      },
      "increaseAllowance(address,uint256)": {
        "details": "Atomically increases the allowance granted to `spender` by the caller. This is an alternative to {approve} that can be used as a mitigation for problems described in {IERC20-approve}. Emits an {Approval} event indicating the updated allowance. Requirements: - `spender` cannot be the zero address."
      },
      "name()": {
        "details": "Returns the name of the token."
      },
      "owner()": {
        "details": "Returns the address of the current owner."
      },
      "paused()": {
        "details": "Returns true if the contract is paused, and false otherwise."
      },
      "renounceOwnership()": {
        "details": "Leaves the contract without owner. It will not be possible to call `onlyOwner` functions anymore. Can only be called by the current owner. NOTE: Renouncing ownership will leave the contract without an owner, thereby removing any functionality that is only available to the owner."
      },
      "symbol()": {
        "details": "Returns the symbol of the token, usually a shorter version of the name."
      },
      "totalSupply()": {
        "details": "See {IERC20-totalSupply}."
      },
      "transfer(address,uint256)": {
        "details": "See {IERC20-transfer}. Requirements: - `to` cannot be the zero address. - the caller must have a balance of at least `amount`."
      },
      "transferFrom(address,address,uint256)": {
        "details": "See {IERC20-transferFrom}. Emits an {Approval} event indicating the updated allowance. This is not required by the EIP. See the note at the beginning of {ERC20}. NOTE: Does not update the allowance if the current allowance is the maximum `uint256`. Requirements: - `from` and `to` cannot be the zero address. - `from` must have a balance of at least `amount`. - the caller must have allowance for ``from``'s tokens of at least `amount`."
      },
      "transferOwnership(address)": {
        "details": "Transfers ownership of the contract to a new account (`newOwner`). Can only be called by the current owner."
      }
    },
    "version": 1
  },
  "userdoc": {
    "kind": "user",
    "methods": {},
    "version": 1
  },
  "storageLayout": {
    "storage": [
      {
        "astId": 130,
        "contract": "contracts/Mining3.sol:Mining3",
        "label": "_initialized",
        "offset": 0,
        "slot": "0",
        "type": "t_bool"
      },
      {
        "astId": 133,
        "contract": "contracts/Mining3.sol:Mining3",
        "label": "_initializing",
        "offset": 1,
        "slot": "0",
        "type": "t_bool"
      },
      {
        "astId": 1308,
        "contract": "contracts/Mining3.sol:Mining3",
        "label": "__gap",
        "offset": 0,
        "slot": "1",
        "type": "t_array(t_uint256)50_storage"
      },
      {
        "astId": 327,
        "contract": "contracts/Mining3.sol:Mining3",
        "label": "_balances",
        "offset": 0,
        "slot": "51",
        "type": "t_mapping(t_address,t_uint256)"
      },
      {
        "astId": 333,
        "contract": "contracts/Mining3.sol:Mining3",
        "label": "_allowances",
        "offset": 0,
        "slot": "52",
        "type": "t_mapping(t_address,t_mapping(t_address,t_uint256))"
      },
      {
        "astId": 335,
        "contract": "contracts/Mining3.sol:Mining3",
        "label": "_totalSupply",
        "offset": 0,
        "slot": "53",
        "type": "t_uint256"
      },
      {
        "astId": 337,
        "contract": "contracts/Mining3.sol:Mining3",
        "label": "_name",
        "offset": 0,
        "slot": "54",
        "type": "t_string_storage"
      },
      {
        "astId": 339,
        "contract": "contracts/Mining3.sol:Mining3",
        "label": "_symbol",
        "offset": 0,
        "slot": "55",
        "type": "t_string_storage"
      },
      {
        "astId": 920,
        "contract": "contracts/Mining3.sol:Mining3",
        "label": "__gap",
        "offset": 0,
        "slot": "56",
        "type": "t_array(t_uint256)45_storage"
      },
      {
        "astId": 10,
        "contract": "contracts/Mining3.sol:Mining3",
        "label": "_owner",
        "offset": 0,
        "slot": "101",
        "type": "t_address"
      },
      {
        "astId": 122,
        "contract": "contracts/Mining3.sol:Mining3",
        "label": "__gap",
        "offset": 0,
        "slot": "102",
        "type": "t_array(t_uint256)49_storage"
      },
      {
        "astId": 218,
        "contract": "contracts/Mining3.sol:Mining3",
        "label": "_paused",
        "offset": 0,
        "slot": "151",
        "type": "t_bool"
      },
      {
        "astId": 307,
        "contract": "contracts/Mining3.sol:Mining3",
        "label": "__gap",
        "offset": 0,
        "slot": "152",
        "type": "t_array(t_uint256)49_storage"
      },
      {
        "astId": 2115,
        "contract": "contracts/Mining3.sol:Mining3",
        "label": "_earningToken",
        "offset": 0,
        "slot": "201",
        "type": "t_address"
      },
      {
        "astId": 2117,
        "contract": "contracts/Mining3.sol:Mining3",
        "label": "_finalized",
        "offset": 0,
        "slot": "202",
        "type": "t_uint256"
      },
      {
        "astId": 2122,
        "contract": "contracts/Mining3.sol:Mining3",
        "label": "_withdrawal",
        "offset": 0,
        "slot": "203",
        "type": "t_mapping(t_address,t_struct(Withdrawal)2113_storage)"
      },
      {
        "astId": 2126,
        "contract": "contracts/Mining3.sol:Mining3",
        "label": "_earningSum",
        "offset": 0,
        "slot": "204",
        "type": "t_mapping(t_uint256,t_uint256)"
      },
      {
        "astId": 2138,
        "contract": "contracts/Mining3.sol:Mining3",
        "label": "_accountBalanceSnapshots",
        "offset": 0,
        "slot": "205",
        "type": "t_mapping(t_address,t_struct(Snapshots)2133_storage)"
      },
      {
        "astId": 2141,
        "contract": "contracts/Mining3.sol:Mining3",
        "label": "_totalSupplySnapshots",
        "offset": 0,
        "slot": "206",
        "type": "t_struct(Snapshots)2133_storage"
      }
    ],
    "types": {
      "t_address": {
        "encoding": "inplace",
        "label": "address",
        "numberOfBytes": "20"
      },
      "t_array(t_uint256)45_storage": {
        "base": "t_uint256",
        "encoding": "inplace",
        "label": "uint256[45]",
        "numberOfBytes": "1440"
      },
      "t_array(t_uint256)49_storage": {
        "base": "t_uint256",
        "encoding": "inplace",
        "label": "uint256[49]",
        "numberOfBytes": "1568"
      },
      "t_array(t_uint256)50_storage": {
        "base": "t_uint256",
        "encoding": "inplace",
        "label": "uint256[50]",
        "numberOfBytes": "1600"
      },
      "t_array(t_uint256)dyn_storage": {
        "base": "t_uint256",
        "encoding": "dynamic_array",
        "label": "uint256[]",
        "numberOfBytes": "32"
      },
      "t_bool": {
        "encoding": "inplace",
        "label": "bool",
        "numberOfBytes": "1"
      },
      "t_mapping(t_address,t_mapping(t_address,t_uint256))": {
        "encoding": "mapping",
        "key": "t_address",
        "label": "mapping(address => mapping(address => uint256))",
        "numberOfBytes": "32",
        "value": "t_mapping(t_address,t_uint256)"
      },
      "t_mapping(t_address,t_struct(Snapshots)2133_storage)": {
        "encoding": "mapping",
        "key": "t_address",
        "label": "mapping(address => struct Mining3.Snapshots)",
        "numberOfBytes": "32",
        "value": "t_struct(Snapshots)2133_storage"
      },
      "t_mapping(t_address,t_struct(Withdrawal)2113_storage)": {
        "encoding": "mapping",
        "key": "t_address",
        "label": "mapping(address => struct Mining3.Withdrawal)",
        "numberOfBytes": "32",
        "value": "t_struct(Withdrawal)2113_storage"
      },
      "t_mapping(t_address,t_uint256)": {
        "encoding": "mapping",
        "key": "t_address",
        "label": "mapping(address => uint256)",
        "numberOfBytes": "32",
        "value": "t_uint256"
      },
      "t_mapping(t_uint256,t_uint256)": {
        "encoding": "mapping",
        "key": "t_uint256",
        "label": "mapping(uint256 => uint256)",
        "numberOfBytes": "32",
        "value": "t_uint256"
      },
      "t_string_storage": {
        "encoding": "bytes",
        "label": "string",
        "numberOfBytes": "32"
      },
      "t_struct(Snapshots)2133_storage": {
        "encoding": "inplace",
        "label": "struct Mining3.Snapshots",
        "members": [
          {
            "astId": 2129,
            "contract": "contracts/Mining3.sol:Mining3",
            "label": "ids",
            "offset": 0,
            "slot": "0",
            "type": "t_array(t_uint256)dyn_storage"
          },
          {
            "astId": 2132,
            "contract": "contracts/Mining3.sol:Mining3",
            "label": "values",
            "offset": 0,
            "slot": "1",
            "type": "t_array(t_uint256)dyn_storage"
          }
        ],
        "numberOfBytes": "64"
      },
      "t_struct(Withdrawal)2113_storage": {
        "encoding": "inplace",
        "label": "struct Mining3.Withdrawal",
        "members": [
          {
            "astId": 2110,
            "contract": "contracts/Mining3.sol:Mining3",
            "label": "snapshotId",
            "offset": 0,
            "slot": "0",
            "type": "t_uint256"
          },
          {
            "astId": 2112,
            "contract": "contracts/Mining3.sol:Mining3",
            "label": "index",
            "offset": 0,
            "slot": "1",
            "type": "t_uint256"
          }
        ],
        "numberOfBytes": "64"
      },
      "t_uint256": {
        "encoding": "inplace",
        "label": "uint256",
        "numberOfBytes": "32"
      }
    }
  }
}