{
  "address": "0x5FF3B90120d3423dC294E98188fa7BeEa2691Ce4",
  "abi": [
    {
      "anonymous": false,
      "inputs": [
        {
          "indexed": true,
          "internalType": "address",
          "name": "owner",
          "type": "address"
        },
        {
          "indexed": true,
          "internalType": "address",
          "name": "spender",
          "type": "address"
        },
        {
          "indexed": false,
          "internalType": "uint256",
          "name": "value",
          "type": "uint256"
        }
      ],
      "name": "Approval",
      "type": "event"
    },
    {
      "anonymous": false,
      "inputs": [
        {
          "indexed": true,
          "internalType": "address",
          "name": "previousOwner",
          "type": "address"
        },
        {
          "indexed": true,
          "internalType": "address",
          "name": "newOwner",
          "type": "address"
        }
      ],
      "name": "OwnershipTransferred",
      "type": "event"
    },
    {
      "anonymous": false,
      "inputs": [
        {
          "indexed": false,
          "internalType": "address",
          "name": "account",
          "type": "address"
        }
      ],
      "name": "Paused",
      "type": "event"
    },
    {
      "anonymous": false,
      "inputs": [
        {
          "indexed": true,
          "internalType": "address",
          "name": "from",
          "type": "address"
        },
        {
          "indexed": true,
          "internalType": "address",
          "name": "to",
          "type": "address"
        },
        {
          "indexed": false,
          "internalType": "uint256",
          "name": "value",
          "type": "uint256"
        }
      ],
      "name": "Transfer",
      "type": "event"
    },
    {
      "anonymous": false,
      "inputs": [
        {
          "indexed": false,
          "internalType": "address",
          "name": "account",
          "type": "address"
        }
      ],
      "name": "Unpaused",
      "type": "event"
    },
    {
      "inputs": [
        {
          "internalType": "address",
          "name": "owner",
          "type": "address"
        },
        {
          "internalType": "address",
          "name": "spender",
          "type": "address"
        }
      ],
      "name": "allowance",
      "outputs": [
        {
          "internalType": "uint256",
          "name": "",
          "type": "uint256"
        }
      ],
      "stateMutability": "view",
      "type": "function"
    },
    {
      "inputs": [
        {
          "internalType": "address",
          "name": "spender",
          "type": "address"
        },
        {
          "internalType": "uint256",
          "name": "amount",
          "type": "uint256"
        }
      ],
      "name": "approve",
      "outputs": [
        {
          "internalType": "bool",
          "name": "",
          "type": "bool"
        }
      ],
      "stateMutability": "nonpayable",
      "type": "function"
    },
    {
      "inputs": [
        {
          "internalType": "address",
          "name": "account",
          "type": "address"
        }
      ],
      "name": "balanceOf",
      "outputs": [
        {
          "internalType": "uint256",
          "name": "",
          "type": "uint256"
        }
      ],
      "stateMutability": "view",
      "type": "function"
    },
    {
      "inputs": [
        {
          "internalType": "address",
          "name": "account",
          "type": "address"
        },
        {
          "internalType": "uint256",
          "name": "snapshotId",
          "type": "uint256"
        }
      ],
      "name": "balanceOfAt",
      "outputs": [
        {
          "internalType": "uint256",
          "name": "",
          "type": "uint256"
        }
      ],
      "stateMutability": "view",
      "type": "function"
    },
    {
      "inputs": [
        {
          "internalType": "address",
          "name": "account",
          "type": "address"
        }
      ],
      "name": "balanceSnapshots",
      "outputs": [
        {
          "components": [
            {
              "internalType": "uint256[]",
              "name": "ids",
              "type": "uint256[]"
            },
            {
              "internalType": "uint256[]",
              "name": "values",
              "type": "uint256[]"
            }
          ],
          "internalType": "struct Mining3.Snapshots",
          "name": "snapshots",
          "type": "tuple"
        }
      ],
      "stateMutability": "view",
      "type": "function"
    },
    {
      "inputs": [
        {
          "internalType": "uint256[]",
          "name": "snapshotIds",
          "type": "uint256[]"
        }
      ],
      "name": "batchEarningSum",
      "outputs": [
        {
          "internalType": "uint256[]",
          "name": "",
          "type": "uint256[]"
        }
      ],
      "stateMutability": "view",
      "type": "function"
    },
    {
      "inputs": [
        {
          "internalType": "uint256",
          "name": "amount",
          "type": "uint256"
        }
      ],
      "name": "burn",
      "outputs": [],
      "stateMutability": "nonpayable",
      "type": "function"
    },
    {
      "inputs": [],
      "name": "decimals",
      "outputs": [
        {
          "internalType": "uint8",
          "name": "",
          "type": "uint8"
        }
      ],
      "stateMutability": "view",
      "type": "function"
    },
    {
      "inputs": [
        {
          "internalType": "address",
          "name": "spender",
          "type": "address"
        },
        {
          "internalType": "uint256",
          "name": "subtractedValue",
          "type": "uint256"
        }
      ],
      "name": "decreaseAllowance",
      "outputs": [
        {
          "internalType": "bool",
          "name": "",
          "type": "bool"
        }
      ],
      "stateMutability": "nonpayable",
      "type": "function"
    },
    {
      "inputs": [],
      "name": "earningToken",
      "outputs": [
        {
          "internalType": "address",
          "name": "",
          "type": "address"
        }
      ],
      "stateMutability": "view",
      "type": "function"
    },
    {
      "inputs": [
        {
          "internalType": "uint256",
          "name": "earningPerToken",
          "type": "uint256"
        }
      ],
      "name": "finalize",
      "outputs": [],
      "stateMutability": "nonpayable",
      "type": "function"
    },
    {
      "inputs": [
        {
          "internalType": "address",
          "name": "account",
          "type": "address"
        }
      ],
      "name": "getUnwithdrawnEarnings",
      "outputs": [
        {
          "internalType": "uint256",
          "name": "",
          "type": "uint256"
        }
      ],
      "stateMutability": "view",
      "type": "function"
    },
    {
      "inputs": [
        {
          "internalType": "address",
          "name": "spender",
          "type": "address"
        },
        {
          "internalType": "uint256",
          "name": "addedValue",
          "type": "uint256"
        }
      ],
      "name": "increaseAllowance",
      "outputs": [
        {
          "internalType": "bool",
          "name": "",
          "type": "bool"
        }
      ],
      "stateMutability": "nonpayable",
      "type": "function"
    },
    {
      "inputs": [
        {
          "internalType": "string",
          "name": "name",
          "type": "string"
        },
        {
          "internalType": "string",
          "name": "symbol",
          "type": "string"
        },
        {
          "internalType": "address",
          "name": "earningTokenToSet",
          "type": "address"
        },
        {
          "internalType": "uint256",
          "name": "startSnapshotId",
          "type": "uint256"
        }
      ],
      "name": "initialize",
      "outputs": [],
      "stateMutability": "nonpayable",
      "type": "function"
    },
    {
      "inputs": [],
      "name": "lastFinalizedAt",
      "outputs": [
        {
          "internalType": "uint256",
          "name": "",
          "type": "uint256"
        }
      ],
      "stateMutability": "view",
      "type": "function"
    },
    {
      "inputs": [
        {
          "internalType": "address",
          "name": "account",
          "type": "address"
        }
      ],
      "name": "lastWithdrawAt",
      "outputs": [
        {
          "internalType": "uint256",
          "name": "",
          "type": "uint256"
        }
      ],
      "stateMutability": "view",
      "type": "function"
    },
    {
      "inputs": [
        {
          "internalType": "address",
          "name": "to",
          "type": "address"
        },
        {
          "internalType": "uint256",
          "name": "amount",
          "type": "uint256"
        }
      ],
      "name": "mint",
      "outputs": [],
      "stateMutability": "nonpayable",
      "type": "function"
    },
    {
      "inputs": [],
      "name": "name",
      "outputs": [
        {
          "internalType": "string",
          "name": "",
          "type": "string"
        }
      ],
      "stateMutability": "view",
      "type": "function"
    },
    {
      "inputs": [],
      "name": "owner",
      "outputs": [
        {
          "internalType": "address",
          "name": "",
          "type": "address"
        }
      ],
      "stateMutability": "view",
      "type": "function"
    },
    {
      "inputs": [],
      "name": "pause",
      "outputs": [],
      "stateMutability": "nonpayable",
      "type": "function"
    },
    {
      "inputs": [],
      "name": "paused",
      "outputs": [
        {
          "internalType": "bool",
          "name": "",
          "type": "bool"
        }
      ],
      "stateMutability": "view",
      "type": "function"
    },
    {
      "inputs": [],
      "name": "renounceOwnership",
      "outputs": [],
      "stateMutability": "nonpayable",
      "type": "function"
    },
    {
      "inputs": [],
      "name": "symbol",
      "outputs": [
        {
          "internalType": "string",
          "name": "",
          "type": "string"
        }
      ],
      "stateMutability": "view",
      "type": "function"
    },
    {
      "inputs": [],
      "name": "totalSupply",
      "outputs": [
        {
          "internalType": "uint256",
          "name": "",
          "type": "uint256"
        }
      ],
      "stateMutability": "view",
      "type": "function"
    },
    {
      "inputs": [
        {
          "internalType": "uint256",
          "name": "snapshotId",
          "type": "uint256"
        }
      ],
      "name": "totalSupplyAt",
      "outputs": [
        {
          "internalType": "uint256",
          "name": "",
          "type": "uint256"
        }
      ],
      "stateMutability": "view",
      "type": "function"
    },
    {
      "inputs": [
        {
          "internalType": "address",
          "name": "to",
          "type": "address"
        },
        {
          "internalType": "uint256",
          "name": "amount",
          "type": "uint256"
        }
      ],
      "name": "transfer",
      "outputs": [
        {
          "internalType": "bool",
          "name": "",
          "type": "bool"
        }
      ],
      "stateMutability": "nonpayable",
      "type": "function"
    },
    {
      "inputs": [
        {
          "internalType": "address",
          "name": "from",
          "type": "address"
        },
        {
          "internalType": "address",
          "name": "to",
          "type": "address"
        },
        {
          "internalType": "uint256",
          "name": "amount",
          "type": "uint256"
        }
      ],
      "name": "transferFrom",
      "outputs": [
        {
          "internalType": "bool",
          "name": "",
          "type": "bool"
        }
      ],
      "stateMutability": "nonpayable",
      "type": "function"
    },
    {
      "inputs": [
        {
          "internalType": "address",
          "name": "newOwner",
          "type": "address"
        }
      ],
      "name": "transferOwnership",
      "outputs": [],
      "stateMutability": "nonpayable",
      "type": "function"
    },
    {
      "inputs": [],
      "name": "unpause",
      "outputs": [],
      "stateMutability": "nonpayable",
      "type": "function"
    },
    {
      "inputs": [],
      "name": "withdraw",
      "outputs": [],
      "stateMutability": "nonpayable",
      "type": "function"
    }
  ],
  "transactionHash": "0xa2c01bc947740cb6d8139ab70f195c5a63fb6ce10309b1204a360838c7ed1af3",
  "args": [],
  "numDeployments": 12,
  "solcInputHash": "6897164327237271a8d356024ee20be5",
  "bytecode": "0x608060405234801561001057600080fd5b506144d6806100206000396000f3fe608060405234801561001057600080fd5b50600436106101da5760003560e01c806370a0823111610104578063a457c2d7116100a2578063e263f59d11610071578063e263f59d1461056d578063f2fde38b1461058b578063f542033f146105a7578063fb66cbc5146105c3576101da565b8063a457c2d7146104ad578063a9059cbb146104dd578063ad6aa00e1461050d578063dd62ed3e1461053d576101da565b80638456cb59116100de5780638456cb59146104375780638da5cb5b1461044157806395d89b411461045f578063981b24d01461047d576101da565b806370a08231146103df578063715018a61461040f5780637fe205c714610419576101da565b80633ccfd60b1161017c5780634ee2cd7e1161014b5780634ee2cd7e146103315780635c975abb14610361578063649bf8681461037f57806366acfb63146103af576101da565b80633ccfd60b146102e55780633f4ba83a146102ef57806340c10f19146102f957806342966c6814610315576101da565b806318160ddd116101b857806318160ddd1461024957806323b872dd14610267578063313ce5671461029757806339509351146102b5576101da565b806305261aea146101df57806306fdde03146101fb578063095ea7b314610219575b600080fd5b6101f960048036038101906101f49190613194565b6105f3565b005b6102036108ee565b604051610210919061375b565b60405180910390f35b610233600480360381019061022e9190613057565b610980565b6040516102409190613740565b60405180910390f35b6102516109a3565b60405161025e9190613a5f565b60405180910390f35b610281600480360381019061027c9190613008565b6109ad565b60405161028e9190613740565b60405180910390f35b61029f6109dc565b6040516102ac9190613a7a565b60405180910390f35b6102cf60048036038101906102ca9190613057565b6109e5565b6040516102dc9190613740565b60405180910390f35b6102ed610a8f565b005b6102f7610b8f565b005b610313600480360381019061030e9190613057565b610c15565b005b61032f600480360381019061032a9190613194565b610c9f565b005b61034b60048036038101906103469190613057565b610d28565b6040516103589190613a5f565b60405180910390f35b610369610d98565b6040516103769190613740565b60405180910390f35b61039960048036038101906103949190612fa3565b610daf565b6040516103a69190613a5f565b60405180910390f35b6103c960048036038101906103c49190612fa3565b610dfb565b6040516103d69190613a3d565b60405180910390f35b6103f960048036038101906103f49190612fa3565b610f04565b6040516104069190613a5f565b60405180910390f35b610417610f4d565b005b610421610fd5565b60405161042e91906136a3565b60405180910390f35b61043f610fff565b005b610449611085565b60405161045691906136a3565b60405180910390f35b6104676110af565b604051610474919061375b565b60405180910390f35b61049760048036038101906104929190613194565b611141565b6040516104a49190613a5f565b60405180910390f35b6104c760048036038101906104c29190613057565b611172565b6040516104d49190613740565b60405180910390f35b6104f760048036038101906104f29190613057565b61125c565b6040516105049190613740565b60405180910390f35b61052760048036038101906105229190612fa3565b61127f565b6040516105349190613a5f565b60405180910390f35b61055760048036038101906105529190612fcc565b611297565b6040516105649190613a5f565b60405180910390f35b61057561131e565b6040516105829190613a5f565b60405180910390f35b6105a560048036038101906105a09190612fa3565b611328565b005b6105c160048036038101906105bc9190613101565b611420565b005b6105dd60048036038101906105d89190613093565b61156a565b6040516105ea919061371e565b60405180910390f35b6105fb6116a6565b73ffffffffffffffffffffffffffffffffffffffff16610619611085565b73ffffffffffffffffffffffffffffffffffffffff161461066f576040517f08c379a0000000000000000000000000000000000000000000000000000000008152600401610666906138fd565b60405180910390fd5b60006201518060ca546106829190613b67565b9050600061068e6116ae565b9050808211156106d3576040517f08c379a00000000000000000000000000000000000000000000000000000000081526004016106ca906137fd565b60405180910390fd5b8260cc600062015180856106e79190613c48565b8152602001908152602001600020546107009190613b67565b60cc6000848152602001908152602001600020819055508160ca8190555060008060ce600001805490509050600081148061078d57508360ce6000016001836107499190613c48565b81548110610780577f4e487b7100000000000000000000000000000000000000000000000000000000600052603260045260246000fd5b9060005260206000200154105b156107a15761079a6109a3565b915061087a565b60006001826107b09190613c48565b90505b60008111801561081657508460ce6000016001836107d19190613c48565b81548110610808577f4e487b7100000000000000000000000000000000000000000000000000000000600052603260045260246000fd5b906000526020600020015410155b1561082e57808061082690613d13565b9150506107b3565b60ce600101818154811061086b577f4e487b7100000000000000000000000000000000000000000000000000000000600052603260045260246000fd5b90600052602060002001549250505b6108e73330670de0b6b3a764000085896108949190613bee565b61089e9190613bbd565b60c960009054906101000a900473ffffffffffffffffffffffffffffffffffffffff1673ffffffffffffffffffffffffffffffffffffffff166116cf909392919063ffffffff16565b5050505050565b6060603680546108fd90613d3d565b80601f016020809104026020016040519081016040528092919081815260200182805461092990613d3d565b80156109765780601f1061094b57610100808354040283529160200191610976565b820191906000526020600020905b81548152906001019060200180831161095957829003601f168201915b5050505050905090565b60008061098b6116a6565b9050610998818585611758565b600191505092915050565b6000603554905090565b6000806109b86116a6565b90506109c5858285611923565b6109d08585856119af565b60019150509392505050565b60006012905090565b6000806109f06116a6565b9050610a84818585603460008673ffffffffffffffffffffffffffffffffffffffff1673ffffffffffffffffffffffffffffffffffffffff16815260200190815260200160002060008973ffffffffffffffffffffffffffffffffffffffff1673ffffffffffffffffffffffffffffffffffffffff16815260200190815260200160002054610a7f9190613b67565b611758565b600191505092915050565b610a97610d98565b15610ad7576040517f08c379a0000000000000000000000000000000000000000000000000000000008152600401610ace906138bd565b60405180910390fd5b600080610ae333611c33565b915091508060cb60003373ffffffffffffffffffffffffffffffffffffffff1673ffffffffffffffffffffffffffffffffffffffff1681526020019081526020016000206000820151816000015560208201518160010155905050610b8b338360c960009054906101000a900473ffffffffffffffffffffffffffffffffffffffff1673ffffffffffffffffffffffffffffffffffffffff16611e1a9092919063ffffffff16565b5050565b610b976116a6565b73ffffffffffffffffffffffffffffffffffffffff16610bb5611085565b73ffffffffffffffffffffffffffffffffffffffff1614610c0b576040517f08c379a0000000000000000000000000000000000000000000000000000000008152600401610c02906138fd565b60405180910390fd5b610c13611ea0565b565b610c1d6116a6565b73ffffffffffffffffffffffffffffffffffffffff16610c3b611085565b73ffffffffffffffffffffffffffffffffffffffff1614610c91576040517f08c379a0000000000000000000000000000000000000000000000000000000008152600401610c88906138fd565b60405180910390fd5b610c9b8282611f42565b5050565b610ca76116a6565b73ffffffffffffffffffffffffffffffffffffffff16610cc5611085565b73ffffffffffffffffffffffffffffffffffffffff1614610d1b576040517f08c379a0000000000000000000000000000000000000000000000000000000008152600401610d12906138fd565b60405180910390fd5b610d2533826120a3565b50565b6000806000610d758460cd60008873ffffffffffffffffffffffffffffffffffffffff1673ffffffffffffffffffffffffffffffffffffffff16815260200190815260200160002061227c565b9150915081610d8c57610d8785610f04565b610d8e565b805b9250505092915050565b6000609760009054906101000a900460ff16905090565b600060cb60008373ffffffffffffffffffffffffffffffffffffffff1673ffffffffffffffffffffffffffffffffffffffff168152602001908152602001600020600001549050919050565b610e03612ddb565b60cd60008373ffffffffffffffffffffffffffffffffffffffff1673ffffffffffffffffffffffffffffffffffffffff16815260200190815260200160002060405180604001604052908160008201805480602002602001604051908101604052809291908181526020018280548015610e9c57602002820191906000526020600020905b815481526020019060010190808311610e88575b5050505050815260200160018201805480602002602001604051908101604052809291908181526020018280548015610ef457602002820191906000526020600020905b815481526020019060010190808311610ee0575b5050505050815250509050919050565b6000603360008373ffffffffffffffffffffffffffffffffffffffff1673ffffffffffffffffffffffffffffffffffffffff168152602001908152602001600020549050919050565b610f556116a6565b73ffffffffffffffffffffffffffffffffffffffff16610f73611085565b73ffffffffffffffffffffffffffffffffffffffff1614610fc9576040517f08c379a0000000000000000000000000000000000000000000000000000000008152600401610fc0906138fd565b60405180910390fd5b610fd36000612398565b565b600060c960009054906101000a900473ffffffffffffffffffffffffffffffffffffffff16905090565b6110076116a6565b73ffffffffffffffffffffffffffffffffffffffff16611025611085565b73ffffffffffffffffffffffffffffffffffffffff161461107b576040517f08c379a0000000000000000000000000000000000000000000000000000000008152600401611072906138fd565b60405180910390fd5b61108361245e565b565b6000606560009054906101000a900473ffffffffffffffffffffffffffffffffffffffff16905090565b6060603780546110be90613d3d565b80601f01602080910402602001604051908101604052809291908181526020018280546110ea90613d3d565b80156111375780601f1061110c57610100808354040283529160200191611137565b820191906000526020600020905b81548152906001019060200180831161111a57829003601f168201915b5050505050905090565b60008060006111518460ce61227c565b9150915081611167576111626109a3565b611169565b805b92505050919050565b60008061117d6116a6565b90506000603460008373ffffffffffffffffffffffffffffffffffffffff1673ffffffffffffffffffffffffffffffffffffffff16815260200190815260200160002060008673ffffffffffffffffffffffffffffffffffffffff1673ffffffffffffffffffffffffffffffffffffffff16815260200190815260200160002054905083811015611243576040517f08c379a000000000000000000000000000000000000000000000000000000000815260040161123a906139fd565b60405180910390fd5b6112508286868403611758565b60019250505092915050565b6000806112676116a6565b90506112748185856119af565b600191505092915050565b60008061128b83611c33565b50905080915050919050565b6000603460008473ffffffffffffffffffffffffffffffffffffffff1673ffffffffffffffffffffffffffffffffffffffff16815260200190815260200160002060008373ffffffffffffffffffffffffffffffffffffffff1673ffffffffffffffffffffffffffffffffffffffff16815260200190815260200160002054905092915050565b600060ca54905090565b6113306116a6565b73ffffffffffffffffffffffffffffffffffffffff1661134e611085565b73ffffffffffffffffffffffffffffffffffffffff16146113a4576040517f08c379a000000000000000000000000000000000000000000000000000000000815260040161139b906138fd565b60405180910390fd5b600073ffffffffffffffffffffffffffffffffffffffff168173ffffffffffffffffffffffffffffffffffffffff161415611414576040517f08c379a000000000000000000000000000000000000000000000000000000000815260040161140b9061381d565b60405180910390fd5b61141d81612398565b50565b600060019054906101000a900460ff166114485760008054906101000a900460ff1615611451565b611450612501565b5b611490576040517f08c379a0000000000000000000000000000000000000000000000000000000008152600401611487906138dd565b60405180910390fd5b60008060019054906101000a900460ff1615905080156114e0576001600060016101000a81548160ff02191690831515021790555060016000806101000a81548160ff0219169083151502179055505b6114e8612512565b6114f061256b565b6114fa85856125c4565b8260c960006101000a81548173ffffffffffffffffffffffffffffffffffffffff021916908373ffffffffffffffffffffffffffffffffffffffff1602179055508160ca8190555080156115635760008060016101000a81548160ff0219169083151502179055505b5050505050565b606060008383905067ffffffffffffffff8111156115b1577f4e487b7100000000000000000000000000000000000000000000000000000000600052604160045260246000fd5b6040519080825280602002602001820160405280156115df5781602001602082028036833780820191505090505b50905060005b8484905081101561169b5760cc600086868481811061162d577f4e487b7100000000000000000000000000000000000000000000000000000000600052603260045260246000fd5b9050602002013581526020019081526020016000205482828151811061167c577f4e487b7100000000000000000000000000000000000000000000000000000000600052603260045260246000fd5b602002602001018181525050808061169390613da0565b9150506115e5565b508091505092915050565b600033905090565b600062015180426116bf9190613de9565b426116ca9190613c48565b905090565b611752846323b872dd60e01b8585856040516024016116f0939291906136be565b604051602081830303815290604052907bffffffffffffffffffffffffffffffffffffffffffffffffffffffff19166020820180517bffffffffffffffffffffffffffffffffffffffffffffffffffffffff8381831617835250505050612621565b50505050565b600073ffffffffffffffffffffffffffffffffffffffff168373ffffffffffffffffffffffffffffffffffffffff1614156117c8576040517f08c379a00000000000000000000000000000000000000000000000000000000081526004016117bf9061395d565b60405180910390fd5b600073ffffffffffffffffffffffffffffffffffffffff168273ffffffffffffffffffffffffffffffffffffffff161415611838576040517f08c379a000000000000000000000000000000000000000000000000000000000815260040161182f9061383d565b60405180910390fd5b80603460008573ffffffffffffffffffffffffffffffffffffffff1673ffffffffffffffffffffffffffffffffffffffff16815260200190815260200160002060008473ffffffffffffffffffffffffffffffffffffffff1673ffffffffffffffffffffffffffffffffffffffff168152602001908152602001600020819055508173ffffffffffffffffffffffffffffffffffffffff168373ffffffffffffffffffffffffffffffffffffffff167f8c5be1e5ebec7d5bd14f71427d1e84f3dd0314c0f7b2291e5b200ac8c7c3b925836040516119169190613a5f565b60405180910390a3505050565b600061192f8484611297565b90507fffffffffffffffffffffffffffffffffffffffffffffffffffffffffffffffff81146119a9578181101561199b576040517f08c379a00000000000000000000000000000000000000000000000000000000081526004016119929061385d565b60405180910390fd5b6119a88484848403611758565b5b50505050565b600073ffffffffffffffffffffffffffffffffffffffff168373ffffffffffffffffffffffffffffffffffffffff161415611a1f576040517f08c379a0000000000000000000000000000000000000000000000000000000008152600401611a169061393d565b60405180910390fd5b600073ffffffffffffffffffffffffffffffffffffffff168273ffffffffffffffffffffffffffffffffffffffff161415611a8f576040517f08c379a0000000000000000000000000000000000000000000000000000000008152600401611a869061379d565b60405180910390fd5b611a9a8383836126e8565b6000603360008573ffffffffffffffffffffffffffffffffffffffff1673ffffffffffffffffffffffffffffffffffffffff16815260200190815260200160002054905081811015611b21576040517f08c379a0000000000000000000000000000000000000000000000000000000008152600401611b189061387d565b60405180910390fd5b818103603360008673ffffffffffffffffffffffffffffffffffffffff1673ffffffffffffffffffffffffffffffffffffffff1681526020019081526020016000208190555081603360008573ffffffffffffffffffffffffffffffffffffffff1673ffffffffffffffffffffffffffffffffffffffff1681526020019081526020016000206000828254611bb69190613b67565b925050819055508273ffffffffffffffffffffffffffffffffffffffff168473ffffffffffffffffffffffffffffffffffffffff167fddf252ad1be2c89b69c2b068fc378daa952ba7f163c4a11628f55a4df523b3ef84604051611c1a9190613a5f565b60405180910390a3611c2d8484846127a2565b50505050565b6000611c3d612df5565b600060ca549050600060cb60008673ffffffffffffffffffffffffffffffffffffffff1673ffffffffffffffffffffffffffffffffffffffff1681526020019081526020016000209050600081600001549050600060cd60008873ffffffffffffffffffffffffffffffffffffffff1673ffffffffffffffffffffffffffffffffffffffff1681526020019081526020016000209050600081600001805490509050600080856001015490505b82811015611dc0576000846000018281548110611d30577f4e487b7100000000000000000000000000000000000000000000000000000000600052603260045260246000fd5b9060005260206000200154905087811115611d4b5750611dc0565b611d9c856001018381548110611d8a577f4e487b7100000000000000000000000000000000000000000000000000000000600052603260045260246000fd5b906000526020600020015487836127a7565b83611da79190613b67565b9250809550508080611db890613da0565b915050611cea565b8281148015611dce57508487115b15611df457611de6611ddf8b610f04565b86896127a7565b82611df19190613b67565b91505b816040518060400160405280898152602001838152509850985050505050505050915091565b611e9b8363a9059cbb60e01b8484604051602401611e399291906136f5565b604051602081830303815290604052907bffffffffffffffffffffffffffffffffffffffffffffffffffffffff19166020820180517bffffffffffffffffffffffffffffffffffffffffffffffffffffffff8381831617835250505050612621565b505050565b611ea8610d98565b611ee7576040517f08c379a0000000000000000000000000000000000000000000000000000000008152600401611ede906137bd565b60405180910390fd5b6000609760006101000a81548160ff0219169083151502179055507f5db9ee0a495bf2e6ff9c91a7834c1ba4fdd244a5e8aa4e537bd38aeae4b073aa611f2b6116a6565b604051611f3891906136a3565b60405180910390a1565b600073ffffffffffffffffffffffffffffffffffffffff168273ffffffffffffffffffffffffffffffffffffffff161415611fb2576040517f08c379a0000000000000000000000000000000000000000000000000000000008152600401611fa990613a1d565b60405180910390fd5b611fbe600083836126e8565b8060356000828254611fd09190613b67565b9250508190555080603360008473ffffffffffffffffffffffffffffffffffffffff1673ffffffffffffffffffffffffffffffffffffffff16815260200190815260200160002060008282546120269190613b67565b925050819055508173ffffffffffffffffffffffffffffffffffffffff16600073ffffffffffffffffffffffffffffffffffffffff167fddf252ad1be2c89b69c2b068fc378daa952ba7f163c4a11628f55a4df523b3ef8360405161208b9190613a5f565b60405180910390a361209f600083836127a2565b5050565b600073ffffffffffffffffffffffffffffffffffffffff168273ffffffffffffffffffffffffffffffffffffffff161415612113576040517f08c379a000000000000000000000000000000000000000000000000000000000815260040161210a9061391d565b60405180910390fd5b61211f826000836126e8565b6000603360008473ffffffffffffffffffffffffffffffffffffffff1673ffffffffffffffffffffffffffffffffffffffff168152602001908152602001600020549050818110156121a6576040517f08c379a000000000000000000000000000000000000000000000000000000000815260040161219d906137dd565b60405180910390fd5b818103603360008573ffffffffffffffffffffffffffffffffffffffff1673ffffffffffffffffffffffffffffffffffffffff1681526020019081526020016000208190555081603560008282546121fe9190613c48565b92505081905550600073ffffffffffffffffffffffffffffffffffffffff168373ffffffffffffffffffffffffffffffffffffffff167fddf252ad1be2c89b69c2b068fc378daa952ba7f163c4a11628f55a4df523b3ef846040516122639190613a5f565b60405180910390a3612277836000846127a2565b505050565b600080600084116122c2576040517f08c379a00000000000000000000000000000000000000000000000000000000081526004016122b9906139bd565b60405180910390fd5b6122ca6116ae565b84111561230c576040517f08c379a00000000000000000000000000000000000000000000000000000000081526004016123039061377d565b60405180910390fd5b6000612324858560000161281190919063ffffffff16565b90508360000180549050811415612342576000809250925050612391565b6001846001018281548110612380577f4e487b7100000000000000000000000000000000000000000000000000000000600052603260045260246000fd5b906000526020600020015492509250505b9250929050565b6000606560009054906101000a900473ffffffffffffffffffffffffffffffffffffffff16905081606560006101000a81548173ffffffffffffffffffffffffffffffffffffffff021916908373ffffffffffffffffffffffffffffffffffffffff1602179055508173ffffffffffffffffffffffffffffffffffffffff168173ffffffffffffffffffffffffffffffffffffffff167f8be0079c531659141344cd1fd0a4f28419497f9722a3daafe3b4186f6b6457e060405160405180910390a35050565b612466610d98565b156124a6576040517f08c379a000000000000000000000000000000000000000000000000000000000815260040161249d906138bd565b60405180910390fd5b6001609760006101000a81548160ff0219169083151502179055507f62e78cea01bee320cd4e420270b5ea74000d11b0c9f74754ebdbfc544b05a2586124ea6116a6565b6040516124f791906136a3565b60405180910390a1565b600061250c30612937565b15905090565b600060019054906101000a900460ff16612561576040517f08c379a00000000000000000000000000000000000000000000000000000000081526004016125589061399d565b60405180910390fd5b61256961295a565b565b600060019054906101000a900460ff166125ba576040517f08c379a00000000000000000000000000000000000000000000000000000000081526004016125b19061399d565b60405180910390fd5b6125c26129bb565b565b600060019054906101000a900460ff16612613576040517f08c379a000000000000000000000000000000000000000000000000000000000815260040161260a9061399d565b60405180910390fd5b61261d8282612a27565b5050565b6000612683826040518060400160405280602081526020017f5361666545524332303a206c6f772d6c6576656c2063616c6c206661696c65648152508573ffffffffffffffffffffffffffffffffffffffff16612aa89092919063ffffffff16565b90506000815111156126e357808060200190518101906126a391906130d8565b6126e2576040517f08c379a00000000000000000000000000000000000000000000000000000000081526004016126d9906139dd565b60405180910390fd5b5b505050565b6126f3838383612ac0565b600073ffffffffffffffffffffffffffffffffffffffff168373ffffffffffffffffffffffffffffffffffffffff16141561273e5761273182612ac5565b612739612b18565b61279d565b600073ffffffffffffffffffffffffffffffffffffffff168273ffffffffffffffffffffffffffffffffffffffff1614156127895761277c83612ac5565b612784612b18565b61279c565b61279283612ac5565b61279b82612ac5565b5b5b505050565b505050565b60008084146128055760cc60008481526020019081526020016000205460cc6000848152602001908152602001600020546127e29190613c48565b670de0b6b3a7640000856127f69190613bbd565b6128009190613bee565b612808565b60005b90509392505050565b600080838054905014156128285760009050612931565b600080848054905090505b808210156128b25760006128478383612b2c565b905084868281548110612883577f4e487b7100000000000000000000000000000000000000000000000000000000600052603260045260246000fd5b9060005260206000200154111561289c578091506128ac565b6001816128a99190613b67565b92505b50612833565b600082118015612910575083856001846128cc9190613c48565b81548110612903577f4e487b7100000000000000000000000000000000000000000000000000000000600052603260045260246000fd5b9060005260206000200154145b1561292b576001826129229190613c48565b92505050612931565b81925050505b92915050565b6000808273ffffffffffffffffffffffffffffffffffffffff163b119050919050565b600060019054906101000a900460ff166129a9576040517f08c379a00000000000000000000000000000000000000000000000000000000081526004016129a09061399d565b60405180910390fd5b6129b96129b46116a6565b612398565b565b600060019054906101000a900460ff16612a0a576040517f08c379a0000000000000000000000000000000000000000000000000000000008152600401612a019061399d565b60405180910390fd5b6000609760006101000a81548160ff021916908315150217905550565b600060019054906101000a900460ff16612a76576040517f08c379a0000000000000000000000000000000000000000000000000000000008152600401612a6d9061399d565b60405180910390fd5b8160369080519060200190612a8c929190612e0f565b508060379080519060200190612aa3929190612e0f565b505050565b6060612ab78484600085612b52565b90509392505050565b505050565b612b1560cd60008373ffffffffffffffffffffffffffffffffffffffff1673ffffffffffffffffffffffffffffffffffffffff168152602001908152602001600020612b1083610f04565b612c66565b50565b612b2a60ce612b256109a3565b612c66565b565b60006002828418612b3d9190613bbd565b828416612b4a9190613b67565b905092915050565b606082471015612b97576040517f08c379a0000000000000000000000000000000000000000000000000000000008152600401612b8e9061389d565b60405180910390fd5b612ba085612ce1565b612bdf576040517f08c379a0000000000000000000000000000000000000000000000000000000008152600401612bd69061397d565b60405180910390fd5b6000808673ffffffffffffffffffffffffffffffffffffffff168587604051612c08919061368c565b60006040518083038185875af1925050503d8060008114612c45576040519150601f19603f3d011682016040523d82523d6000602084013e612c4a565b606091505b5091509150612c5a828286612d04565b92505050949350505050565b6000612c706116ae565b905080612c7f84600001612d6b565b1015612cdc5782600001819080600181540180825580915050600190039060005260206000200160009091909190915055826001018290806001815401808255809150506001900390600052602060002001600090919091909150555b505050565b6000808273ffffffffffffffffffffffffffffffffffffffff163b119050919050565b60608315612d1457829050612d64565b600083511115612d275782518084602001fd5b816040517f08c379a0000000000000000000000000000000000000000000000000000000008152600401612d5b919061375b565b60405180910390fd5b9392505050565b600080828054905014612dd1578160018380549050612d8a9190613c48565b81548110612dc1577f4e487b7100000000000000000000000000000000000000000000000000000000600052603260045260246000fd5b9060005260206000200154612dd4565b60005b9050919050565b604051806040016040528060608152602001606081525090565b604051806040016040528060008152602001600081525090565b828054612e1b90613d3d565b90600052602060002090601f016020900481019282612e3d5760008555612e84565b82601f10612e5657805160ff1916838001178555612e84565b82800160010185558215612e84579182015b82811115612e83578251825591602001919060010190612e68565b5b509050612e919190612e95565b5090565b5b80821115612eae576000816000905550600101612e96565b5090565b6000612ec5612ec084613aba565b613a95565b905082815260208101848484011115612edd57600080fd5b612ee8848285613cd1565b509392505050565b600081359050612eff8161445b565b92915050565b60008083601f840112612f1757600080fd5b8235905067ffffffffffffffff811115612f3057600080fd5b602083019150836020820283011115612f4857600080fd5b9250929050565b600081519050612f5e81614472565b92915050565b600082601f830112612f7557600080fd5b8135612f85848260208601612eb2565b91505092915050565b600081359050612f9d81614489565b92915050565b600060208284031215612fb557600080fd5b6000612fc384828501612ef0565b91505092915050565b60008060408385031215612fdf57600080fd5b6000612fed85828601612ef0565b9250506020612ffe85828601612ef0565b9150509250929050565b60008060006060848603121561301d57600080fd5b600061302b86828701612ef0565b935050602061303c86828701612ef0565b925050604061304d86828701612f8e565b9150509250925092565b6000806040838503121561306a57600080fd5b600061307885828601612ef0565b925050602061308985828601612f8e565b9150509250929050565b600080602083850312156130a657600080fd5b600083013567ffffffffffffffff8111156130c057600080fd5b6130cc85828601612f05565b92509250509250929050565b6000602082840312156130ea57600080fd5b60006130f884828501612f4f565b91505092915050565b6000806000806080858703121561311757600080fd5b600085013567ffffffffffffffff81111561313157600080fd5b61313d87828801612f64565b945050602085013567ffffffffffffffff81111561315a57600080fd5b61316687828801612f64565b935050604061317787828801612ef0565b925050606061318887828801612f8e565b91505092959194509250565b6000602082840312156131a657600080fd5b60006131b484828501612f8e565b91505092915050565b60006131c9838361365f565b60208301905092915050565b6131de81613c7c565b82525050565b60006131ef82613afb565b6131f98185613b29565b935061320483613aeb565b8060005b8381101561323557815161321c88826131bd565b975061322783613b1c565b925050600181019050613208565b5085935050505092915050565b600061324d82613afb565b6132578185613b3a565b935061326283613aeb565b8060005b8381101561329357815161327a88826131bd565b975061328583613b1c565b925050600181019050613266565b5085935050505092915050565b6132a981613c8e565b82525050565b60006132ba82613b06565b6132c48185613b4b565b93506132d4818560208601613ce0565b80840191505092915050565b60006132eb82613b11565b6132f58185613b56565b9350613305818560208601613ce0565b61330e81613ed6565b840191505092915050565b6000613326601d83613b56565b915061333182613ee7565b602082019050919050565b6000613349602383613b56565b915061335482613f10565b604082019050919050565b600061336c601483613b56565b915061337782613f5f565b602082019050919050565b600061338f602283613b56565b915061339a82613f88565b604082019050919050565b60006133b2602083613b56565b91506133bd82613fd7565b602082019050919050565b60006133d5602683613b56565b91506133e082614000565b604082019050919050565b60006133f8602283613b56565b91506134038261404f565b604082019050919050565b600061341b601d83613b56565b91506134268261409e565b602082019050919050565b600061343e602683613b56565b9150613449826140c7565b604082019050919050565b6000613461602683613b56565b915061346c82614116565b604082019050919050565b6000613484601083613b56565b915061348f82614165565b602082019050919050565b60006134a7602e83613b56565b91506134b28261418e565b604082019050919050565b60006134ca602083613b56565b91506134d5826141dd565b602082019050919050565b60006134ed602183613b56565b91506134f882614206565b604082019050919050565b6000613510602583613b56565b915061351b82614255565b604082019050919050565b6000613533602483613b56565b915061353e826142a4565b604082019050919050565b6000613556601d83613b56565b9150613561826142f3565b602082019050919050565b6000613579602b83613b56565b91506135848261431c565b604082019050919050565b600061359c601683613b56565b91506135a78261436b565b602082019050919050565b60006135bf602a83613b56565b91506135ca82614394565b604082019050919050565b60006135e2602583613b56565b91506135ed826143e3565b604082019050919050565b6000613605601f83613b56565b915061361082614432565b602082019050919050565b6000604083016000830151848203600086015261363882826131e4565b9150506020830151848203602086015261365282826131e4565b9150508091505092915050565b61366881613cba565b82525050565b61367781613cba565b82525050565b61368681613cc4565b82525050565b600061369882846132af565b915081905092915050565b60006020820190506136b860008301846131d5565b92915050565b60006060820190506136d360008301866131d5565b6136e060208301856131d5565b6136ed604083018461366e565b949350505050565b600060408201905061370a60008301856131d5565b613717602083018461366e565b9392505050565b600060208201905081810360008301526137388184613242565b905092915050565b600060208201905061375560008301846132a0565b92915050565b6000602082019050818103600083015261377581846132e0565b905092915050565b6000602082019050818103600083015261379681613319565b9050919050565b600060208201905081810360008301526137b68161333c565b9050919050565b600060208201905081810360008301526137d68161335f565b9050919050565b600060208201905081810360008301526137f681613382565b9050919050565b60006020820190508181036000830152613816816133a5565b9050919050565b60006020820190508181036000830152613836816133c8565b9050919050565b60006020820190508181036000830152613856816133eb565b9050919050565b600060208201905081810360008301526138768161340e565b9050919050565b6000602082019050818103600083015261389681613431565b9050919050565b600060208201905081810360008301526138b681613454565b9050919050565b600060208201905081810360008301526138d681613477565b9050919050565b600060208201905081810360008301526138f68161349a565b9050919050565b60006020820190508181036000830152613916816134bd565b9050919050565b60006020820190508181036000830152613936816134e0565b9050919050565b6000602082019050818103600083015261395681613503565b9050919050565b6000602082019050818103600083015261397681613526565b9050919050565b6000602082019050818103600083015261399681613549565b9050919050565b600060208201905081810360008301526139b68161356c565b9050919050565b600060208201905081810360008301526139d68161358f565b9050919050565b600060208201905081810360008301526139f6816135b2565b9050919050565b60006020820190508181036000830152613a16816135d5565b9050919050565b60006020820190508181036000830152613a36816135f8565b9050919050565b60006020820190508181036000830152613a57818461361b565b905092915050565b6000602082019050613a74600083018461366e565b92915050565b6000602082019050613a8f600083018461367d565b92915050565b6000613a9f613ab0565b9050613aab8282613d6f565b919050565b6000604051905090565b600067ffffffffffffffff821115613ad557613ad4613ea7565b5b613ade82613ed6565b9050602081019050919050565b6000819050602082019050919050565b600081519050919050565b600081519050919050565b600081519050919050565b6000602082019050919050565b600082825260208201905092915050565b600082825260208201905092915050565b600081905092915050565b600082825260208201905092915050565b6000613b7282613cba565b9150613b7d83613cba565b9250827fffffffffffffffffffffffffffffffffffffffffffffffffffffffffffffffff03821115613bb257613bb1613e1a565b5b828201905092915050565b6000613bc882613cba565b9150613bd383613cba565b925082613be357613be2613e49565b5b828204905092915050565b6000613bf982613cba565b9150613c0483613cba565b9250817fffffffffffffffffffffffffffffffffffffffffffffffffffffffffffffffff0483118215151615613c3d57613c3c613e1a565b5b828202905092915050565b6000613c5382613cba565b9150613c5e83613cba565b925082821015613c7157613c70613e1a565b5b828203905092915050565b6000613c8782613c9a565b9050919050565b60008115159050919050565b600073ffffffffffffffffffffffffffffffffffffffff82169050919050565b6000819050919050565b600060ff82169050919050565b82818337600083830152505050565b60005b83811015613cfe578082015181840152602081019050613ce3565b83811115613d0d576000848401525b50505050565b6000613d1e82613cba565b91506000821415613d3257613d31613e1a565b5b600182039050919050565b60006002820490506001821680613d5557607f821691505b60208210811415613d6957613d68613e78565b5b50919050565b613d7882613ed6565b810181811067ffffffffffffffff82111715613d9757613d96613ea7565b5b80604052505050565b6000613dab82613cba565b91507fffffffffffffffffffffffffffffffffffffffffffffffffffffffffffffffff821415613dde57613ddd613e1a565b5b600182019050919050565b6000613df482613cba565b9150613dff83613cba565b925082613e0f57613e0e613e49565b5b828206905092915050565b7f4e487b7100000000000000000000000000000000000000000000000000000000600052601160045260246000fd5b7f4e487b7100000000000000000000000000000000000000000000000000000000600052601260045260246000fd5b7f4e487b7100000000000000000000000000000000000000000000000000000000600052602260045260246000fd5b7f4e487b7100000000000000000000000000000000000000000000000000000000600052604160045260246000fd5b6000601f19601f8301169050919050565b7f4552433230536e617073686f743a206e6f6e6578697374656e74206964000000600082015250565b7f45524332303a207472616e7366657220746f20746865207a65726f206164647260008201527f6573730000000000000000000000000000000000000000000000000000000000602082015250565b7f5061757361626c653a206e6f7420706175736564000000000000000000000000600082015250565b7f45524332303a206275726e20616d6f756e7420657863656564732062616c616e60008201527f6365000000000000000000000000000000000000000000000000000000000000602082015250565b7f4d696e696e67333a20616c6c20736e617073686f74732066696e616c697a6564600082015250565b7f4f776e61626c653a206e6577206f776e657220697320746865207a65726f206160008201527f6464726573730000000000000000000000000000000000000000000000000000602082015250565b7f45524332303a20617070726f766520746f20746865207a65726f20616464726560008201527f7373000000000000000000000000000000000000000000000000000000000000602082015250565b7f45524332303a20696e73756666696369656e7420616c6c6f77616e6365000000600082015250565b7f45524332303a207472616e7366657220616d6f756e742065786365656473206260008201527f616c616e63650000000000000000000000000000000000000000000000000000602082015250565b7f416464726573733a20696e73756666696369656e742062616c616e636520666f60008201527f722063616c6c0000000000000000000000000000000000000000000000000000602082015250565b7f5061757361626c653a2070617573656400000000000000000000000000000000600082015250565b7f496e697469616c697a61626c653a20636f6e747261637420697320616c72656160008201527f647920696e697469616c697a6564000000000000000000000000000000000000602082015250565b7f4f776e61626c653a2063616c6c6572206973206e6f7420746865206f776e6572600082015250565b7f45524332303a206275726e2066726f6d20746865207a65726f2061646472657360008201527f7300000000000000000000000000000000000000000000000000000000000000602082015250565b7f45524332303a207472616e736665722066726f6d20746865207a65726f20616460008201527f6472657373000000000000000000000000000000000000000000000000000000602082015250565b7f45524332303a20617070726f76652066726f6d20746865207a65726f2061646460008201527f7265737300000000000000000000000000000000000000000000000000000000602082015250565b7f416464726573733a2063616c6c20746f206e6f6e2d636f6e7472616374000000600082015250565b7f496e697469616c697a61626c653a20636f6e7472616374206973206e6f74206960008201527f6e697469616c697a696e67000000000000000000000000000000000000000000602082015250565b7f4552433230536e617073686f743a206964206973203000000000000000000000600082015250565b7f5361666545524332303a204552433230206f7065726174696f6e20646964206e60008201527f6f74207375636365656400000000000000000000000000000000000000000000602082015250565b7f45524332303a2064656372656173656420616c6c6f77616e63652062656c6f7760008201527f207a65726f000000000000000000000000000000000000000000000000000000602082015250565b7f45524332303a206d696e7420746f20746865207a65726f206164647265737300600082015250565b61446481613c7c565b811461446f57600080fd5b50565b61447b81613c8e565b811461448657600080fd5b50565b61449281613cba565b811461449d57600080fd5b5056fea2646970667358221220fa647f90371f7d12155de8e3075c394d63231671bb19f83c2865aad19d28d3ab64736f6c63430008040033",
  "devdoc": {
    "kind": "dev",
    "methods": {
      "allowance(address,address)": {
        "details": "See {IERC20-allowance}."
      },
      "approve(address,uint256)": {
        "details": "See {IERC20-approve}. NOTE: If `amount` is the maximum `uint256`, the allowance is not updated on `transferFrom`. This is semantically equivalent to an infinite approval. Requirements: - `spender` cannot be the zero address."
      },
      "balanceOf(address)": {
        "details": "See {IERC20-balanceOf}."
      },
      "decimals()": {
        "details": "Returns the number of decimals used to get its user representation. For example, if `decimals` equals `2`, a balance of `505` tokens should be displayed to a user as `5.05` (`505 / 10 ** 2`). Tokens usually opt for a value of 18, imitating the relationship between Ether and Wei. This is the value {ERC20} uses, unless this function is overridden; NOTE: This information is only used for _display_ purposes: it in no way affects any of the arithmetic of the contract, including {IERC20-balanceOf} and {IERC20-transfer}."
      },
      "decreaseAllowance(address,uint256)": {
        "details": "Atomically decreases the allowance granted to `spender` by the caller. This is an alternative to {approve} that can be used as a mitigation for problems described in {IERC20-approve}. Emits an {Approval} event indicating the updated allowance. Requirements: - `spender` cannot be the zero address. - `spender` must have allowance for the caller of at least `subtractedValue`."
      },
      "increaseAllowance(address,uint256)": {
        "details": "Atomically increases the allowance granted to `spender` by the caller. This is an alternative to {approve} that can be used as a mitigation for problems described in {IERC20-approve}. Emits an {Approval} event indicating the updated allowance. Requirements: - `spender` cannot be the zero address."
      },
      "name()": {
        "details": "Returns the name of the token."
      },
      "owner()": {
        "details": "Returns the address of the current owner."
      },
      "paused()": {
        "details": "Returns true if the contract is paused, and false otherwise."
      },
      "renounceOwnership()": {
        "details": "Leaves the contract without owner. It will not be possible to call `onlyOwner` functions anymore. Can only be called by the current owner. NOTE: Renouncing ownership will leave the contract without an owner, thereby removing any functionality that is only available to the owner."
      },
      "symbol()": {
        "details": "Returns the symbol of the token, usually a shorter version of the name."
      },
      "totalSupply()": {
        "details": "See {IERC20-totalSupply}."
      },
      "transfer(address,uint256)": {
        "details": "See {IERC20-transfer}. Requirements: - `to` cannot be the zero address. - the caller must have a balance of at least `amount`."
      },
      "transferFrom(address,address,uint256)": {
        "details": "See {IERC20-transferFrom}. Emits an {Approval} event indicating the updated allowance. This is not required by the EIP. See the note at the beginning of {ERC20}. NOTE: Does not update the allowance if the current allowance is the maximum `uint256`. Requirements: - `from` and `to` cannot be the zero address. - `from` must have a balance of at least `amount`. - the caller must have allowance for ``from``'s tokens of at least `amount`."
      },
      "transferOwnership(address)": {
        "details": "Transfers ownership of the contract to a new account (`newOwner`). Can only be called by the current owner."
      }
    },
    "version": 1
  },
  "userdoc": {
    "kind": "user",
    "methods": {},
    "version": 1
  },
  "storageLayout": {
    "storage": [
      {
        "astId": 130,
        "contract": "contracts/Mining3.sol:Mining3",
        "label": "_initialized",
        "offset": 0,
        "slot": "0",
        "type": "t_bool"
      },
      {
        "astId": 133,
        "contract": "contracts/Mining3.sol:Mining3",
        "label": "_initializing",
        "offset": 1,
        "slot": "0",
        "type": "t_bool"
      },
      {
        "astId": 1308,
        "contract": "contracts/Mining3.sol:Mining3",
        "label": "__gap",
        "offset": 0,
        "slot": "1",
        "type": "t_array(t_uint256)50_storage"
      },
      {
        "astId": 327,
        "contract": "contracts/Mining3.sol:Mining3",
        "label": "_balances",
        "offset": 0,
        "slot": "51",
        "type": "t_mapping(t_address,t_uint256)"
      },
      {
        "astId": 333,
        "contract": "contracts/Mining3.sol:Mining3",
        "label": "_allowances",
        "offset": 0,
        "slot": "52",
        "type": "t_mapping(t_address,t_mapping(t_address,t_uint256))"
      },
      {
        "astId": 335,
        "contract": "contracts/Mining3.sol:Mining3",
        "label": "_totalSupply",
        "offset": 0,
        "slot": "53",
        "type": "t_uint256"
      },
      {
        "astId": 337,
        "contract": "contracts/Mining3.sol:Mining3",
        "label": "_name",
        "offset": 0,
        "slot": "54",
        "type": "t_string_storage"
      },
      {
        "astId": 339,
        "contract": "contracts/Mining3.sol:Mining3",
        "label": "_symbol",
        "offset": 0,
        "slot": "55",
        "type": "t_string_storage"
      },
      {
        "astId": 920,
        "contract": "contracts/Mining3.sol:Mining3",
        "label": "__gap",
        "offset": 0,
        "slot": "56",
        "type": "t_array(t_uint256)45_storage"
      },
      {
        "astId": 10,
        "contract": "contracts/Mining3.sol:Mining3",
        "label": "_owner",
        "offset": 0,
        "slot": "101",
        "type": "t_address"
      },
      {
        "astId": 122,
        "contract": "contracts/Mining3.sol:Mining3",
        "label": "__gap",
        "offset": 0,
        "slot": "102",
        "type": "t_array(t_uint256)49_storage"
      },
      {
        "astId": 218,
        "contract": "contracts/Mining3.sol:Mining3",
        "label": "_paused",
        "offset": 0,
        "slot": "151",
        "type": "t_bool"
      },
      {
        "astId": 307,
        "contract": "contracts/Mining3.sol:Mining3",
        "label": "__gap",
        "offset": 0,
        "slot": "152",
        "type": "t_array(t_uint256)49_storage"
      },
      {
        "astId": 2115,
        "contract": "contracts/Mining3.sol:Mining3",
        "label": "_earningToken",
        "offset": 0,
        "slot": "201",
        "type": "t_address"
      },
      {
        "astId": 2117,
        "contract": "contracts/Mining3.sol:Mining3",
        "label": "_finalized",
        "offset": 0,
        "slot": "202",
        "type": "t_uint256"
      },
      {
        "astId": 2122,
        "contract": "contracts/Mining3.sol:Mining3",
        "label": "_withdrawal",
        "offset": 0,
        "slot": "203",
        "type": "t_mapping(t_address,t_struct(Withdrawal)2113_storage)"
      },
      {
        "astId": 2126,
        "contract": "contracts/Mining3.sol:Mining3",
        "label": "_earningSum",
        "offset": 0,
        "slot": "204",
        "type": "t_mapping(t_uint256,t_uint256)"
      },
      {
        "astId": 2138,
        "contract": "contracts/Mining3.sol:Mining3",
        "label": "_accountBalanceSnapshots",
        "offset": 0,
        "slot": "205",
        "type": "t_mapping(t_address,t_struct(Snapshots)2133_storage)"
      },
      {
        "astId": 2141,
        "contract": "contracts/Mining3.sol:Mining3",
        "label": "_totalSupplySnapshots",
        "offset": 0,
        "slot": "206",
        "type": "t_struct(Snapshots)2133_storage"
      }
    ],
    "types": {
      "t_address": {
        "encoding": "inplace",
        "label": "address",
        "numberOfBytes": "20"
      },
      "t_array(t_uint256)45_storage": {
        "base": "t_uint256",
        "encoding": "inplace",
        "label": "uint256[45]",
        "numberOfBytes": "1440"
      },
      "t_array(t_uint256)49_storage": {
        "base": "t_uint256",
        "encoding": "inplace",
        "label": "uint256[49]",
        "numberOfBytes": "1568"
      },
      "t_array(t_uint256)50_storage": {
        "base": "t_uint256",
        "encoding": "inplace",
        "label": "uint256[50]",
        "numberOfBytes": "1600"
      },
      "t_array(t_uint256)dyn_storage": {
        "base": "t_uint256",
        "encoding": "dynamic_array",
        "label": "uint256[]",
        "numberOfBytes": "32"
      },
      "t_bool": {
        "encoding": "inplace",
        "label": "bool",
        "numberOfBytes": "1"
      },
      "t_mapping(t_address,t_mapping(t_address,t_uint256))": {
        "encoding": "mapping",
        "key": "t_address",
        "label": "mapping(address => mapping(address => uint256))",
        "numberOfBytes": "32",
        "value": "t_mapping(t_address,t_uint256)"
      },
      "t_mapping(t_address,t_struct(Snapshots)2133_storage)": {
        "encoding": "mapping",
        "key": "t_address",
        "label": "mapping(address => struct Mining3.Snapshots)",
        "numberOfBytes": "32",
        "value": "t_struct(Snapshots)2133_storage"
      },
      "t_mapping(t_address,t_struct(Withdrawal)2113_storage)": {
        "encoding": "mapping",
        "key": "t_address",
        "label": "mapping(address => struct Mining3.Withdrawal)",
        "numberOfBytes": "32",
        "value": "t_struct(Withdrawal)2113_storage"
      },
      "t_mapping(t_address,t_uint256)": {
        "encoding": "mapping",
        "key": "t_address",
        "label": "mapping(address => uint256)",
        "numberOfBytes": "32",
        "value": "t_uint256"
      },
      "t_mapping(t_uint256,t_uint256)": {
        "encoding": "mapping",
        "key": "t_uint256",
        "label": "mapping(uint256 => uint256)",
        "numberOfBytes": "32",
        "value": "t_uint256"
      },
      "t_string_storage": {
        "encoding": "bytes",
        "label": "string",
        "numberOfBytes": "32"
      },
      "t_struct(Snapshots)2133_storage": {
        "encoding": "inplace",
        "label": "struct Mining3.Snapshots",
        "members": [
          {
            "astId": 2129,
            "contract": "contracts/Mining3.sol:Mining3",
            "label": "ids",
            "offset": 0,
            "slot": "0",
            "type": "t_array(t_uint256)dyn_storage"
          },
          {
            "astId": 2132,
            "contract": "contracts/Mining3.sol:Mining3",
            "label": "values",
            "offset": 0,
            "slot": "1",
            "type": "t_array(t_uint256)dyn_storage"
          }
        ],
        "numberOfBytes": "64"
      },
      "t_struct(Withdrawal)2113_storage": {
        "encoding": "inplace",
        "label": "struct Mining3.Withdrawal",
        "members": [
          {
            "astId": 2110,
            "contract": "contracts/Mining3.sol:Mining3",
            "label": "snapshotId",
            "offset": 0,
            "slot": "0",
            "type": "t_uint256"
          },
          {
            "astId": 2112,
            "contract": "contracts/Mining3.sol:Mining3",
            "label": "index",
            "offset": 0,
            "slot": "1",
            "type": "t_uint256"
          }
        ],
        "numberOfBytes": "64"
      },
      "t_uint256": {
        "encoding": "inplace",
        "label": "uint256",
        "numberOfBytes": "32"
      }
    }
  }
}